:020000041000EA
:4000000000400208230100100D00000085010010000000000000000000000000000000000000000000000000000000008101001000000000000000008101001081010010E9
:400040008101001081010010810100108101001081010010810100108101001081010010810100108101001081010010810100108101001081010010810100108101001060
:400080008101001081010010810100108101001081010010810100108101001081010010810100108101001081010010810100108101001081010010810100108101001020
:4000C00010B5064C2378002B07D1054B002B02D0044800E000BF0123237010BDC408000800000000F43F0010084B10B5002B03D00749084800E000BF07480368002B00D16D
:4001000010BD064B002BFBD09847F9E700000000C8080008F43F0010E8000008000000007047FFF7FDFF72B60F4C104DAC4209DA21686268A368043B02DBC858D050FAE7EC
:400140000C34F3E70A490B4A0020521A02DD043A8850FCDC084809490860BFF34F8F00F051F800F01DF8FEE7F83F001010400010C4080008E40A00080000000808ED00E059
:40018000FEE7FEE700B504207146084202D0EFF3098001E0EFF30880043002F053FCFEE780B500AF62B6044B180000F05DFA002002F0C6FDFBE7C0460000081080B500AF56
:4001C000B0235B055B78DBB2002B04D0B0235B055B78DBB200E021231800BD4680BDC04680B500AF0649064AC0235B00D358012293431A00C0235B00CA50C046BD4680BDBB
:400200000000264080B582B000AF304B180003F0FDFA2F4AB023DB00D3587B607B685B005B087B602A49B023DB007A68CA50284AE0239B00D3587B607B68302293437B6003
:400240002349E0239B007A68CA502149B023DB0080225204CA501E4A1E4B1F49D1501C49B123DB00A0229201CA50194A1B4BFF21D15003F0ABFAFFF7B3FF00F033FF00F015
:4002800039F8FFF79BFF0300212B05D1144B0022DA60134B00225A60124B1A008021042001F0B8FA104B180001F050FD0F4B1B6851229B5C002B03D00D4B180001F058FDD8
:4002C00001F000F8C046BD4602B080BD843E00100000264084050000010002008C050000E0002340E0080008F0080008E00A0008CC39001080B590B000AFC24AE0239B00C0
:40030000D3580F2213407B63BE4A7B6BD0339B009B58072213403B633B6B042B32D83B6B9A00B94BD3181B689F46B84BFB632CE0B74BFB6329E0B64BFB6326E0B54B1B6863
:40034000FB6322E0AF4A7B6BC0339B009B581F221340FB62FB6A112B07D0132B09D0102B0BD1FA23DB01FB630BE080231B02FB6307E080231B02FB6303E0FA23DB01FB6387
:40038000C04602E0A24BFB63C0467B6B002B6DD19C4AB223DB00D35801221A402B23FB18511E8A411A70974AB123DB00D258C0239B0513401A0F2A23FB18033A51424A41DE
:4003C0001A70904AB123DB00D258C0239B0513401B0F09D08B4AB123DB00D258C0239B0513401B0F012B01D1012200E000222923FB181A701A7801210A401A702923FB1846
:400400001B78002B04D02B23FB181B78002B04D12A23FB181B78002B25D07A4AB023DB00D3589B039B0B7B62764A7B4BD358DB04DB0C3B62734AB023DB00D25880235B04BA
:4004400013401B0E0133FB61396AF86B03F0ECF903001A007B6A5343F969180003F0E4F90300BB6377E0FB6BBB6374E07B6B012B6FD1644AC823DB00D35801221A401B23B4
:40048000FB18511E8A411A705E4AC023DB00D258C0239B0513401A0F1A23FB18033A51424A411A70574AC023DB00D258C0239B0513401B0F09D0534AC023DB00D258C023D7
:4004C0009B0513401B0F012B01D1012200E000221923FB181A701A7801210A401A701923FB181B78002B04D01B23FB181B78002B04D11A23FB181B78002B27D0414AC02323
:40050000DB00D3587F2213407B613E4AC023DB00D258F8235B0113401B0A3B61394AC023DB00D258F8235B0313401B0CFB60FB6B7A6953433969180003F076F90300F968D2
:40054000180003F071F90300BB6304E0FB6BBB6301E0FB6BBB632B4AE0239B00D358302213401B09BA6BDA401300BB632B4BBA6B1A602B4B1A69FF231B0213401B0A0133A8
:40058000BB60274B1B691B0E1B061B0E01337B607968B86B03F048F90300BB63214BBA6B1A60B968B86B03F03FF90300BB631E4BBA6B1A601C4B1A681C4B1A601B4B1B68F9
:4005C0001B4A944663441B49180003F02DF90300DAB2194B1A70154B1B68184A9A18FA239900100003F020F903001A00144B1A60134B1B68DA03134B1A60C046BD4610B0E5
:4006000080BDC04600002640A039001000127A0000366E01CC00000884050000C400000800002140C8000008C0000008D00000083F420F0040420F00D8000008E703000012
:40064000D4000008DC00000880B582B000AF054A8023D358032213407B607B681800BD4602B080BD0000214080B586B000AF78607B689B059B0D07D0E823FF331A001C4B34
:400680001100180002F09AF902F0E7FA03007B61FFF7DAFF03003B613B69032B01D100F02FF81449B0239B007A68CA50114A8023D358114A1340FB60FB68104A1343FB604A
:4006C000FB6803221343FB600A498022FB688B50C046084A8823D35810221340F9D07B69180002F0BEFAC046BD4606B080BDC046B439001000002140FCFF00000000FA0512
:4007000080B582B000AF02F0A8FA03007B60104A8023D3580F4A13403B603B680E4A13433B603B68012213433B60094980223B688B50C046064A8823D35810221340F9D033
:400740007B68180002F08DFAC046BD4602B080BD00002140FCFF00000000FA0580B500AF002001F09FFCC046BD4680BD80B500AF094B5A6CFF231B0213401B0A3A2B08D1E9
:40078000054B054A526C05490A40E82189010A435A64C046BD4680BD00002740FFC5FFDF80B500AF054B054A526C05490A40E82189010A435A64C046BD4680BD0000274033
:4007C000FF00FFFF80B500AF0549054A054BD358802212061343034A8B50C046BD4680BD000026400C05000080B582B000AF0C4B7B600C4AC0235B00D3580122134009D1B4
:400800000849084A084BD3585B005B08064A8B5000237B607B681800BD4602B080BDC04603004A00000026400C05000080B582B000AF0200FB1D1A700749074A074BD35821
:40084000012293431A00FB1D1B781343034A8B50C046BD4602B080BD000026400C05000080B584B000AF78600E4BFB600E4B1B683E229B5C1A007B689A420ED90B490B4A8D
:400880007B68E0339B009B58802212061A437B68E0339B005A500023FB60FB681800BD4604B080BD01004A00E00A00080000264080B584B000AF78600A00FB1C1A70134BD9
:4008C000FB60134B1B683E229B5C1A007B689A4217D9FB1C1B780F2B13D80E490D4A7B68E0339B009B580F2293431A00FB1C1B780F2003401A437B68E0339B005A500023A3
:40090000FB60FB681800BD4604B080BD01004A00E00A00080000264080B584B000AF78600A00FB1C1A70144BFB60144B1B683E229B5C1A007B689A4218D9FB1C1B78032B1A
:4009400014D80F490E4A7B68E0339B009B58302293431A00FB1C1B781B01302003401A437B68E0339B005A500023FB60FB681800BD4604B080BDC04601004A00E00A0008F4
:400980000000264080B582B000AF0200FB1D1A700F4B1B681A680E4B1B6888215B58D3181A000B4B1B681968094B1B6888201B58CB181B6807491940FB1D1B781B021B0439
:4009C0001B0C0B431360C046BD4602B080BDC046E00A0008FF00FFFF80B582B000AF0200FB1D1A700E4B1B681A680D4B1B6884215B58D3181A000A4B1B681968084B1B68A3
:400A000084201B58CB181B681B02190AFB1D1B781B060B431360C046BD4602B080BDC046E00A000890B587B000AFB9607A600F23FB18021C1A70314B7B610F23FB181B7841
:400A4000002B28D1BB68072B53D87B68FF2B50D8BB689A002A4B1B689968294B1B6874201B5ACB18D3181A00BB689900244B1B689868234B1B6874241B5BC318CB181B6811
:400A8000204919407B681B021B041B0C0B43136000237B612DE00F23FB181B78012B28D1BB680F2B25D87B68174A934221D8BB689A00134B1B689968114B1B6876201B5A6F
:400AC000CB18D3181A00BB6899000D4B1B6898680B4B1B6876241B5BC318CB181B680B4919407B681B020A4803400B43136000237B617B691800BD4607B090BD01004A00FD
:400B0000E00A0008FF00FFFFFFFF0000FF0000FF00FFFF0090B585B000AF3A60FB1D021C1A70BB1D0A1C1A70294BFB60294B1B683F229B5CFA1D12789A4243D2BB1D1B78A6
:400B4000032B3FD8BB1D1B78002B02D13B68072B14D9BB1D1B78012B02D13B680F2B0DD9BB1D1B78022B02D13B68032B06D9BB1D1B78032B26D13B68002B23D1154B1B6888
:400B80009B681C00FB1D1978BB1D1A78114B1B6871201B5C9A400F4B1B6871201B5C1800032383401A400B4B1B6870201B5C18003B6803401A43C0239B00CB189B001A5160
:400BC0000023FB60FB681800BD4605B090BDC04601004A00E00A000890B585B000AF02003960FB1D1A70334BFB60FB1D1B78032B5AD8FB1D1B78002B02D13B68072B14D9FF
:400C0000FB1D1B78012B02D13B680F2B0DD9FB1D1B78022B02D13B68032B06D9FB1D1B78032B41D13B68002B3ED1234B1B689B681C00214B1B6873229B5C1A000323934086
:400C40001A001D4B1B6870215B5C18001A4B1B6872215B5C984003001A43FB1D1978164B1B6871201B5C9940134B1B6871201B5C1800032383400B401A430F4B1B68702137
:400C80005B5C19003B680B401343802212061A438023DB00E250084B1B689B681A008023DB00D3580023FB60FB681800BD4605B090BDC04601004A00E00A000880B582B015
:400CC00000AF0200FB1D1A700F4B1B681A680E4B1B6884215B58D3181A000B4B1B681968094B1B6884201B58CB181B6807491940FB1D1B781B021B041B0C0B431360C046DD
:400D0000BD4602B080BDC046E00A0008FF00FFFF80B582B000AF0200FB1D1A70FB1D1B78032B05D90C4A0D4B1100180001F046FE0B490B4AA023DB00D358032293431A00C8
:400D4000FB1D1B78032003401A43A023DB00CA50C046BD4602B080BD4A090000003A00100000264080B582B000AF0200BB1D1A80BB1D1B880C4A934205D90C4A0C4B110086
:400D8000180001F01BFE0B490A4A0B4BD3580B4A1A40BB1D1B88044803401343064A8B50C046BD4602B080BD0103000097090000003A00100000264004050000FEFCFFFF61
:400DC00080B582B000AF0200FB1D1A700948094A094BD358094A1A40FB1D1B781904FF231B040B401343044A8350C046BD4602B080BDC0460000264004050000FFFF00FF34
:400E000080B500AF0549054A054BD358802212061343034A8B50C046BD4680BD000026400405000080B582B000AF0200FB1D1A70FB1D1B780F2B05D90D4A0E4B1100180073
:400E400001F0BCFD0C480C4AA023DB00D3580B4A1A40FB1D1B781902F0231B010B401A43A023DB00C250C046BD4602B080BDC046490A0000003A001000002640FFF0FFFF6B
:400E800080B582B000AF0200FB1D1A70FB1D1B78002B15D0FB1D1B78012B11D0FB1D1B78022B0DD0FB1D1B78032B09D0FB1D1B78042B05D00D4A0E4B1100180001F07EFDAA
:400EC0000C480C4AA023DB00D3580B4A1A40FB1D1B781903E023DB010B401A43A023DB00C250C046BD4602B080BDC0466F0A0000003A001000002640FF8FFFFF80B500AF3B
:400F00000649064AA023DB00D358802212021A43A023DB00CA50C046BD4680BD0000264080B582B000AF0200FB1D1A70FB1D1B78012B05D90B4A0C4B1100180001F03EFD62
:400F40000A4B0A4A12680A491140FA1D12781002C022920002400A431A60C046BD4602B080BDC046D20A0000003A001000002740FFFCFFFF80B582B000AF0200FB1D1A703C
:400F8000FB1DFA1D12781A70FEE7C04690B587B000AF0020FFF7BCFE0020FFF7F3FC0120FFF71AFD0020FFF789FE00210020FFF77FFC00210020FFF7AFFC0020FFF750FC42
:400FC0000021012001F0AAF90021022001F0A6F90021032001F0A2F90021042001F09EF90021002001F09AF93B00334A13CA13C303CA03C33B00180001F0DAF903007B61F2
:401000007B69002B02D00420FFF7B4FF2B492B4A2B4BD358802212061343294A8B50294B180001F0C5FA03007B617B69002B02D00420FFF79FFF0020FFF794FE0020FFF7A8
:40104000BFFEFFF7DDFE0020FFF7ECFE0220FFF717FFFFF753FF0120FFF762FF002002F087FBFFF7AFFB0120FFF7E0FB6421002001F018FD002200210520FFF74BFD232238
:4010800000210020FFF7CEFC00210020FFF7A4FD002201213720FFF73DFD0B4B1A0000210120FFF7BFFC00210120FFF795FDC046BD4607B090BDC046443A00100000264058
:4010C000087F0000400D0300E703000080B500AF024B034A1A60C046BD4680BD000E1F410100118090B58BB000AF9621002001F0D9FC01F08DFC031E05D101F075FCFFF75C
:4011000073FBFFF75FFB012001F0B8FEFFF748FBFFF72CFBFFF73AFF3B1D184A13CA13C313CA13C313CA13C33B1D154A1900100000F080F93B1D134A13CA13C313CA13C36D
:4011400013CA13C33B1D104A1900100000F072F93B1D180024231A00002102F0F1FB3B1D40221A603B1D094A1900100000F062F9FFF7ACFFC046BD460BB090BD583A00100F
:40118000800232407C3A0010000332408004324080B582B000AF78600F4B1B6831229B5C1A007B689A4207D8C423FF331A000B4B1100180001F002FC074B1B681A6A064BF2
:4011C0001B68B0215B5A19007B684B43D3181800BD4602B080BDC046E00A0008A03A001080B582B000AF78607B68DB681800BD4602B080BD80B582B000AF7860074B1B68A4
:40120000B4229A587B68D3181B68DB0FDB07DB0FDBB21800BD4602B080BDC046E00A000880B584B000AFF860B9607A607B68002B05D1084A084B1100180001F0BFFB7A68AE
:40124000B968FB68180000F037FA03001800BD4604B080BD93030000A03A001080B582B000AF7860144B7A681A60134B1B68002B0BD0114B1B6802221A700F4B1B68FF2207
:401280005A700D4B1B6800225A800C4B1B6850229B5C002B0BD0094B1B6851229B5C002B05D0074B02221900002000F0BBFEC046BD4602B080BDC046700A0008E00A000839
:4012C000ED00000880B500AF034B1800FFF7C6FFC046BD4680BDC046940A000880B584B000AF78607B682D4A934240D02B4A93420ED8402B41D004D8002B21D0102B39D0EB
:4013000044E0802B3CD08022520093423BD03DE0234A93421AD0224A934207D8A0221206934210D01F4A93421DD02FE01E4A934213D01E4A934213D01D4A93420AD025E071
:401340000023FB6025E00023FB6022E0A423DB03FB601EE0174BFB601BE0174BFB6018E0164BFB6015E0A023DB03FB6011E00B4BFB600EE0124BFB600BE0124BFB6008E07F
:40138000114BFB6005E0054BFB6002E00F4BFB60C046FB681800BD4604B080BD06005200010000F0090000A0040000F0050000F0030000F001005200020052000300520010
:4013C000010050000200500005005200FF00520080B582B000AF144B7B600020FFF7D8FE03001800FFF706FF03001A0001235340DBB2002B12D00D4B1B681800FFF76EFF8C
:4014000003007B600A4B1B685B6801229A60C046074B1B685B689B68002BF9D17B681800BD4602B080BDC04602005000740A0008E00A000880B586B000AF78603960514B9C
:401440007B617B68002B00D196E03B68002B00D192E03B681B68FF22934304D04A4B9921180001F0ABFA3B681B69FF22934304D0454B9A21180001F0A1FA3B689B685B0D4D
:401480005B0504D0404B9B21180001F097FA3B685B685B0A5B0204D03B4B9C21180001F08DFA3B68DB695B0F5B0704D0364B9D21180001F083FA3B681B6A5B0F5B0704D034
:4014C000314B9E21180001F079FA7A682F4B1B689B69D31ADB093B612C4B1B685A693B691B01D318FB603B681A687B681A60274B1B687D229B5C1A007B68D3181A003B6870
:40150000DB681360214B1B687E229B5C1A007B68D3181A003B681B6913601C4B1B687F229B5C1A007B68D3181A003B685B691360164B1B687C229B5C1A007B68D3181A00FA
:401540003B689B6813603B685A687B689A610F4B1B6880229B5C1A007B68D3181A003B689B6913603B68DA69FB681A603B681A6AFB685A6000237B617B691800BD4606B0C2
:4015800080BDC04601005A00203B0010E00A000880B582B000AF786039603B681B0C1B0405D0074A074B1100180001F007FA3B681B041A0C7B689A60C046BD4602B080BD70
:4015C000BB020000603B001080B582B000AF786039603B681B0C1B0405D0074A074B1100180001F0EBF93B681B041A0C7B685A60C046BD4602B080BDD5020000603B00109E
:4016000080B582B000AF786039607B683A68DA60C046BD4602B080BD80B582B000AF78607B68DB681800BD4602B080BD80B582B000AF7860074B1B68B4229A587B68D318F5
:401640001B68DB0FDB07DB0FDBB21800BD4602B080BDC046E00A000880B582B000AF78607B681B68DB0FDB0701D5002300E0024B1800BD4602B080BD01008A0080B584B05E
:4016800000AF786039607B681800FFF7CFFF031E08D03A687B6811001800FFF795FF0023FB6001E0034BFB60FB681800BD4604B080BDC04601008A0080B586B000AFF860A0
:4016C000B9607A60FB681800FFF7C6FF031E0ED17A68FB6811001800FFF792FFBA68FB6811001800FFF754FF00237B6101E0034B7B617B691800BD4606B080BD01008A004E
:4017000080B584B000AF786039603B68002B04D10D4B9921180001F051F97B681800FFF785FF031E09D07B681800FFF775FF02003B681A600023FB6001E0044BFB60FB68B9
:401740001800BD4604B080BDA03B001001008A0080B582B000AF78600F4B1B6831229B5C1A007B689A4207D8C423FF331A000B4B1100180001F022F9074B1B681A6A064BB2
:401780001B68B0215B5A19007B684B43D3181800BD4602B080BDC046E00A0008E03B001080B582B000AF78607B68DB681800BD4602B080BD80B584B000AFF860B9607A60FD
:4017C0007B68002B05D1084A084B1100180001F0F5F87A68B968FB681800FFF76DFF03001800BD4604B080BD93030000E03B001080B582B000AF78607B681B68DB0FDB0789
:4018000001D5002300E0024B1800BD4602B080BD01008A0080B586B000AFF860B9607A60164B7B617B68002B0CD1BB68002B09D1FB681800FFF78CFF0200114B1A60002341
:401840007B6116E07B68002B11D0BB68002B0ED00C4BBA681A600B4B7A685A60094AFB681100180000F010F803007B6101E0034B7B617B691800BD4606B080BD03018A0055
:40188000980A00089C0A000880B584B000AF78603960274BFB60274B1B6831229B5C1A007B689A4202D8224BFB603CE03B68002B37D03B681B681F2213402FD17B6818001A
:4018C000FFF746FF02001C4B1A603B6858683B681B68DB081A00002102F032F8164B1B6800211800FFF7CAFE134B1B683A6800211800FFF75FFF031E0DD10F4B1B6800211F
:401900001800FFF7BBFE031E02D10023FB600AE00A4BFB6007E0094BFB6004E0044BFB6001E0034BFB60FB681800BD4604B080BD03018A00E00A0008980A000801018A0001
:4019400080B588B000AF78600A00FB1C1A700023FB61304BBB61304B1B681800FFF720FF03007B617B691A687B689A424BD97B685B093B613B695B017A68D31A01229A40B0
:401980001300FB60FB1C1B7801225340DBB2002B03D001F062F90300FB611F4B1B681800FFF726FF031E22D17B695A683B699B00D3181B68FA68134011D07B695A683B69BC
:4019C0009B00D3187A6951683A6992008A181268F968C9430A401A600023BB6101E00F4BBB610D4B1B6800211800FFF747FEFB1C1B7801225340DBB2002B06D0FB691800F4
:401A000001F02FF901E0064BBB61BB691800BD4608B080BD03018800980A00080201880004018A0080B586B000AF7860164B1B681800FFF7B5FE03003B613B691A687B687C
:401A40009A4219D97B685B09FB60FB685B017A68D31A01229A401300BB603B695A68FB689B00D3181B68BA68134002D0074B7B6104E0074B7B6101E0064B7B617B691800DA
:401A8000BD4606B080BDC046980A0008010188000001880004018A0080B582B000AF0200BB1D1A80BB1D00229B5E002B09DB074BBA1D128811001F220A40012191400A00F6
:401AC0001A60C046BD4602B080BDC04600E100E080B582B000AF78600F4B1B6831229B5C1A007B689A4207D8C423FF331A000B4B1100180000F062FF074B1B681A6A064B33
:401B00001B68B0215B5A19007B684B43D3181800BD4602B080BDC046E00A0008203C001080B582B000AF78600D4B1B6832229B5C1A007B689A4207D8E023FF331A00094B4A
:401B40001100180000F03AFF054B1B681B6A1A007B6880335B01D3181800BD4602B080BDE00A0008203C001080B584B000AFF860B9607A607B681B0C1B0406D0FF235A007E
:401B80000D4B1100180000F019FFBB681B0C1B0405D00A4A084B1100180000F00FFF7B681A04BB681B041B0C1A43FB689A60C046BD4604B080BDC046203C0010FF01000000
:401BC00080B582B000AF78607B68DB681800BD4602B080BD80B582B000AF78607B681B681800BD4602B080BD80B584B000AFF860B9607A607B681B0C1B0406D0A6239A00A4
:401C00000E4B1100180000F0D9FEBB681B0C1B0405D00B4A094B1100180000F0CFFE7B681A04BB681B041B0C1A43FB681A60FB681B68C046BD4604B080BDC046203C001098
:401C40009902000080B582B000AF786039603B681B0C1B0405D0074A074B1100180000F0ADFE3B681B041A0C7B689A60C046BD4602B080BDBB020000203C001080B582B0D0
:401C800000AF786039607B683A68DA60C046BD4602B080BD80B582B000AF7860074B1B68B4229A587B68D3181B68DB0FDB07DB0FDBB21800BD4602B080BDC046E00A00082C
:401CC00080B582B000AF78607B681B0C1800BD4602B080BD80B582B000AF78607B681B041B0C1800BD4602B080BDC04680B582B000AF786039603B68002B05D1084A094BEA
:401D00001100180000F05AFE3A687B6811001800FFF7F6FC03001800BD4602B080BDC046B6030000203C001080B582B000AF78607B681B68DB0FDB0701D5002300E0024B1E
:401D40001800BD4602B080BD01008A0080B582B000AF7860054B1B68002B02D1034B7A681A60C046BD4602B080BDC046A40A000890B591B002AF78607B68002B04D13D4B37
:401D80005221180000F01AFE7B685B68032B04D9384B5421180000F011FE7B68DB6A002B04D1344B5821180000F008FE7B681B6B002B04D12F4B5921180000F0FFFD1C2302
:401DC000FB187A6813CA13C303CA03C30823FA187B68143313CB13C203CB03C21C23FB189B681AB23023FB181A80234B1B6836229B5EDAB21C23FB181B68DBB2D318DAB233
:401E00003023FB189A701C23FB185A683023FB185A601C23FB18D8687B68D96A7B689A6A1C23FB181C693023FB180093230000F025F80823FB18D8680823FB181A690023FD
:401E4000009313000022002100F018F87B681A6B3023FB181100180000F09EFC3023FB1800229B5E1800FFF717FEC046BD460FB090BDC046603C0010E00A000880B586B030
:401E800000AFF860B9607A603B60264B1B68002B04D1254BB521180000F090FD214B1A68FB682C214B43D3187B613B68FF221A407B691A603B681B0AFF221A407B695A606E
:401EC0003B681A0C7B699A607B691B681800FFF7FFFD02007B691A617B695B681800FFF71FFE02007B695A617B6958697B6999687B699B681A00FFF737FE7B697A68DA613F
:401F00007B69BA681A627B6900229A613B6A002B04D03B6A00229A5E7B699A81C046BD4606B080BDA40A0008603C001080B58AB000AFF860B9607A603B607B68002B04D177
:401F4000344BFD21180000F039FD334B1B68002B04D1304BFE21180000F030FD2E4B1A68FB682C214B43D3183B622B4B1A68BB682C214B43D318FB61FB695B6801229A4094
:401F80001300BB61BB691B04BB613B6A5B6801229A4013007B613B6A1B69002B33D0FB699B69002B2CD13B6A1B691800FFF7BCFE031E22D17B681B681B041A0C7B681A604B
:401FC0007B681A68BB691A437B681A603B6A1B697A6811001800FFF751FEFB6901229A61FB693A685A623B6A1B697A6911001800FFF728FE00237B6207E0084B7B6204E095
:40200000064B7B6201E0064B7B627B6A1800BD460AB080BD603C0010A40A000807028A0004028A0080B586B000AFF860B9607A60194B1B68002B06D1AF235A00174B1100FA
:40204000180000F0BBFC144B1A68FB682C214B43D3183B613B691B6A002B06D1B1235A000E4B1100180000F0A9FC3B69DA697B689A4209D93B691A6A7B689B00D318BA6850
:402080001A6000237B6101E0054B7B617B691800BD4606B080BDC046A40A0008603C00100A028A0080B584B000AF78600D4B1B68002B07D1B223FF331A000B4B110018003C
:4020C00000F07CFC074B1A687B682C214B43D318FB60FB68180000F009F8C046BD4604B080BDC046A40A0008603C001090B589B000AF78600023FB600023FB617B68002BC2
:4021000007D1D223FF331A00514B1100180000F055FC7B681B69002B06D1E9235A004C4B1100180000F04AFC7B685B69002B07D1D423FF331A00464B1100180000F03EFCEA
:402140007B681B6A002B06D1EA235A00404B1100180000F033FC7B685B691800FFF730FD0300BB61BB691800FFF7AAFD031E3FD07B685C69BB691800FFF7A2FD03001A001B
:4021800000212000FFF730FD7B681B691800FFF781FD031E2CD07B681B690C22BA1811001800FFF7A3FD031E1BD1FB681B681B0CFB61FB681B68FF2213407B617B68DA69B3
:4021C0007B699A420DD97B681A6A7B699B00D3181B683B613B69002B03D0FA683B69100098477B681B69FA6911001800FFF746FABB691800FFF76EFD031E20D07B685C6933
:40220000BB691800FFF766FD0300002219002000FFF7EAFC7B685B6A002B06D07B685B6A98477B6800225A6206E07B689B6A002B02D07B689B6A98477B6800229A617B6869
:402240005B691800FFF7C6FCC046BD4609B090BD603C001080B582B000AF0200FB1D1A700E4B1B689A6CFB1D1B78DA4013000122134004D10A4BBE21180000F09FFB074B28
:402280001B681B691A00FB1D1B7810339B029B580F2213401800BD4602B080BDE00A0008A03C001080B500AF054AB223DB00D358012213405A1E9341DBB21800BD4680BD5E
:4022C0000000264080B500AF1149114AB123DB00D358104A1340802292051A43B123DB00CA500B490A4AB023DB00D3585B005A08B023DB00CA500649054A074BD3585B007D
:402300005B08054A8B5000231800BD4680BDC04600002640FFFFFFCF8C05000080B584B000AF78600A00BB1C1A801E4BFB601E4B1B683C229B5C1A007B689A422CD9BB1CA7
:402340001B88042B09D9BB1C1B88FF2B24D9BB1C1A881423FF339A421ED8BB1C1B88FF2B0FD91249BB1C1B881F221A407B68C0339B005A500D4A7B68D0339B000421995057
:4023800008E00A49BB1C1B8807221A407B68D0339B005A500023FB60FB681800BD4604B080BDC04601004A00E00A00080000264080B584B000AF78600023FB607B68002BA8
:4023C00005D1694A694B1100180000F0F7FA684AB023DB00D358002B02DA664BFB60BEE07B681B68644A934205D9644A5F4B1100180000F0E3FA5E497B681B689B039A0BF5
:402400007B68DB79002B02D080235B0400E000231A43B023DB00CA507B689B88584A934206D98C239A00514B1100180000F0C6FA7B681B89534A934205D9534A4B4B110009
:40244000180000F0BBFA4A497B689B88DB04DA0C7B681B891B044D48034013434C4A8B507B689B7A0F2B06D98E239A003F4B1100180000F0A3FA7B68DB7A0F2B05D9454A81
:402480003A4B1100180000F099FA7B689B893C4A934205D9404A354B1100180000F08EFA33487B689B7A1A000F231A407B68DB7A1B01FF210B401A437B689B891B02374927
:4024C0000B401A437B689B7B1907C0239B050B401A43B123DB00C2507B689B79002B15D07B689B79012B11D07B689B79022B0DD07B689B79032B09D07B689B79042B05D02A
:40250000274A1A4B1100180000F058FA7B681B8A1C4A934206D991239A00144B1100180000F04CFA1248124A1E4BD3581E4A1A407B689B791902E023DB000B401343194AAC
:4025400083500B490A4A174BD358184A1A407B681B8A1B040D4803401343124A8B50FB681800BD4604B080BD1F020000243D00100000264003004A00FFFF030029020000EB
:40258000FF1F0000FF010000310200000000FF0184050000390200003A02000000FF1F00430200008C050000FFF8FFFFFFFF00FE80B584B000AF78600F23FB187A6851423B
:4025C0004A411A703849384A384BD358802212061343364A8B5005E0012000F0D5F97B68013B7B60304AB223DB00D3580422134002D17B68002BEFD12B492B4AB123DB00E5
:40260000D3582B4A1340802292051A43B123DB00CA500F23FB181B78002B02D17B68002B11D02149204AB023DB00D358802212061A43B023DB00CA5005E0012000F0A4F964
:402640007B68013B7B60FFF72DFE03001A0001235340DBB2002B02D07B68002BEDD10F23FB181B78002B02D17B68002B0BD00E490D4AB123DB00D358C02292051A43B12324
:40268000DB00CA5001E0FFF71DFE0F23FB181B78002B02D17B68002B01D0002300E0054B1800BD4604B080BD000026408C050000FFFFFFCF02004A00B0B582B000AF0200C8
:4026C0003960BB1D1A80BB1D00229B5E002B28DB2F4CBB1D00229B5E9B082D49BA1D0020125E9208C03292005258B91D0988080003210140C900FF2088400100C943114016
:402700003A689201FF201040BA1D1288150003222A40D200904002000A43C0339B001A5131E01C4CBB1D1B881A000F231340083B9908184ABB1D1B8818000F230340083BD2
:402740009B0806339B00D31804331B68BA1D1288100003220240D200FF2090400200D2431A403B689B01FF201840BB1D1B881D0003232B40DB00984003001A438B1D9B00EE
:40278000E31804331A60C046BD4602B0B0BDC04600E100E000ED00E080B584B000AF786039600023FB607B68002B30D07B685B68032B04D9194B3221180000F0FFF87B6852
:4027C00000229B5E002B09DB7B6800229A5E7B689B781900100000F029F801E0104BFB607B6800229A5E7B685B6819001000FFF763FF0C4B9A680C4B9A420AD17B6800225B
:402800009B5E3A681100180000F07EF801E0044BFB60FB681800BD4604B080BDC03D00100100560000ED00E00000000880B586B000AF0200BB1D1A807B1D0A1C1A70304BEA
:402840001B6828229B5C012B33D1BB1D00229B5E9B087B617B69072293434CD1BB1D00229A5E7B699B00D31ADB003B61FF223B699A401300FB60224B1B681B6820331A0030
:402880007B699B00D3181E4A12681268203211007A6992008A181268F968C94311407A1D10783A6990400200F86802400A431A6021E0134B1B683A229B5EDBB27A1D1278BE
:4028C0009A4204D10F4B7621180000F077F80C4B1B681B6818007B1D1B78BA1D0021525E07210A40802109060A43802189018C4663449B001A50C046BD4606B080BDC0465D
:40290000E00A0008C03D001080B584B000AF02003960BB1D1A80184B9A68184B9A421DD13B68002B07D13823FF331A00144B1100180000F043F8BB1D00229B5E10331A0091
:402940000E4B9200D358FB60BB1D00229B5E10331A000A4B92003968D15008E0BB1D00229B5E10331A00074B9200D358FB60FB681800BD4604B080BD00ED00E00000000807
:40298000C03D00100000001080B582B000AF0200BB1D1A80BB1D1B88044A12785343180000F052F9C046BD4602B080BDD800000880B582B000AF786001BEFEE780B582B063
:4029C00000AF786039607968054B1822180000F0BFFF044B3A681A600020FFF7E9FFC04688080008A008000880B500AF064B802212069A64044B9B6C002B01DB002300E082
:402A0000024B1800BD4680BD000027400300460080B582B000AF0A4A80231B01D3587B60074B5B68FF22134004D07B688022D20213437B607B681800BD4602B080BDC04638
:402A40000000264080B582B000AF78607B681A68114B1A607B685A680F4B5A607B689A680D4B9A607B68DA680B4BDA607B681A69094B1A617B685A69074B5A617B689A6954
:402A8000054B9A617B68DA69034BDA6100F006F8C046BD4602B080BDA408000880B500AFFEE7C04680B584B000AF02003960FB1D1A70FB1D1B78002B01D0192300E0642314
:402AC000BB603B68BA689A429B415B42DBB2FB605B4B1B681A685A4B1B68A8215B5AD3181A00574B1B681968554B1B68A8201B5ACB181B6803218B431900FB680320034023
:402B00000B4313604E4B1B681A684D4B1B68A8215B5AD3181A004A4B1B681968484B1B68A8201B5ACB181B6846490B401360444B1B681A68424B1B68AA215B5AD3181A00D0
:402B40003F4B1B6819683E4B1B68AA201B5ACB181B6803218B431900FB68032003400B431360374B1B681A68354B1B68AA215B5AD3181A00324B1B681968314B1B68AA2028
:402B80001B5ACB181B682F490B401360FB1D1B78002B0CD03B68102B06D93B68212B01D8012302E0022300E00023FB6033E0244B1B6855229B5C1A003B689A4229D2204BD2
:402BC0001B6856229B5C1A003B689A421FD21C4B1B6857229B5C1A003B689A4215D2184B1B6858229B5C1A003B689A420BD2144B1B6859229B5C1A003B689A4201D30423CA
:402C000008E0052306E0032304E0022302E0012300E00023FB600A4B1B685B681A00084B1B685B681B680F218B431900FB680F2003400B431360C046BD4604B080BDC0468D
:402C4000E00A0008FFFCFFFF0230800803D001300238FCD1C046C0467047EFF3108072B6704780F31088704780B500AFB0235B055B78DBB2002B04D0B0235B055B78DBB2C5
:402C800000E021231800BD4680BDC04680B500AFB0235B059B899BB2002B04D0B0235B059B899BB201E080235B001800BD4680BD80B582B000AF78600F4B1B6831229B5C1B
:402CC0001A007B689A4207D8C423FF331A000B4B11001800FFF772FE074B1B681A6A064B1B68B0215B5A19007B684B43D3181800BD4602B080BDC046E00A0008043E001088
:402D000080B582B000AF78607B68DB681800BD4602B080BD80B582B000AF7860074B1B68B4229A587B68D3181B68DB0FDB07DB0FDBB21800BD4602B080BDC046E00A000854
:402D400080B586B000AF0200FB1D1A7001233B6100237B61FB1D1B78002B0AD0FB1D1B78012B06D0A6239A003E4B11001800FFF725FE3D4B3A699200D358002B05D0012141
:402D8000012000F00BF903007B617B69002B5DD1FFF763FF0300FB60334B3A699200D358002B03D00421012000F0F8F82F4B1B6843229B5C002B0CD02C4B1B689B681A00B3
:402DC000E023D3581022134003D0294B180000F05BFAFFF75BFF03001A0080235B009A4205D1FB1D1B78180000F0D2FD0CE0214B204A126904210A431A61FB1D1B78012BDC
:402E000001D030BF00E020BF184B1B6843229B5C002B0CD0154B1B689B681A00E023D3581022134003D0124B180000F093FAFB681800FFF716FF0C4B3A699200D358002BEA
:402E40000AD00821012000F0A9F805E00221012000F0A4F8084B7B617B691800BD4606B080BDC046443E0010A80A0008E00A0008BC0A000800ED00E0FF00420080B586B03C
:402E800000AF0200FB1D1A70FB1D1B78002B0AD0FB1D1B78012B06D082231A01384B11001800FFF78BFD374B7B6100F037FC031E60D0FFF7D2FE0300FB60FB1D1B78002BAC
:402EC00015D1314A314B0021D150B0235A05E823DB00D35CDBB23B61012000F023F903007B617B69002B20D100F09AFA1DE02649B0235B05264A9B58244A8B50B0235B0535
:402F0000244A9B5CDBB23B611F491F4A224BD3581F2293430B2213431F4A8B500320FFF733FD00F0A3FB00237B617B69002B1DD11549154A184BD3581F2293431A003B69C9
:402F40001F2003401343144A8B50FB1D1B78002B02D100F03FFB09E00720FFF715FD00F0CDFA002000F0DEF803007B61FB681800FFF777FE7B691800BD4606B080BDC046FB
:402F8000443E00100300420000002640307F000010180000410700001CFF000080B586B000AF0200FB1D1A70BB1D0A1C1A70FB1D1B78002B15D0FB1D1B78012B11D0FB1DC9
:402FC0001B78022B0DD0FB1D1B78042B09D0FB1D1B78032B05D04D4A4D4B11001800FFF7EDFCBB1D1B78012B11D0BB1D1B78022B0DD0BB1D1B78042B09D0BB1D1B78082B9E
:4030000005D0444A424B11001800FFF7D7FC00237B61FB1D1A78404B9200D3583B61BB1D1B78042B26D0BB1D1B78012B2ED121E0BB1D1A783B699B68134018D13B69DB68C6
:403040001A680823FB181A603B69DB685A680823FB185A603B691B68BA1D11780822BA181000984703007B612C4B3A691A603B695B693B613B69002B42D07B69284A934280
:40308000D6D1BB1D1B78012BD2D139E0BB1D1B78022B08D002E03B695B693B613B695B69002BF8D128E01D4B1B683B613B69002B22D03B691B693B611EE0BB1D1A783B6944
:4030C0009B68134015D13B69DB681A680823FB181A603B69DB685A680823FB185A603B691B68BA1D11780822BA181000984703007B613B691B693B613B69002BDDD100E060
:40310000C0467B691800BD4606B080BDB2090000443E0010B3090000A80A0008DC0A0008FF00420090B589B000AF0200FB1D1A70FB1D1B78012B09D0FB1D1B78002B05D079
:40314000474A484B11001800FFF738FC464BFB61FFF78AFD03001A001623FB181A801423FC18FFF793FD030023800020FFF772F8031E22D11423FB181A8880235B009A429A
:403180001BD11623FB181B88222B16D8374B1B685B681800354B1B685B681A00344BD358344A1A40FB1D1B78190680235B040B4013432F4A83500023FB611423FB181A8893
:4031C00080235B009A4204D11623FB181B88222B06D81423FB181A8880235B009A423AD00020FFF765FD03003B611423FB181A8880235B009A4208D1FB1D1B78002B01D0D9
:403200001D4B00E01D4BBB6107E0FB1D1B78002B01D01B4B00E01B4BBB61BA693B6901211800FEF749FA031E15D1C0463B691800FFF770FD031EF9D13B691800FFF760FD0D
:403240000300FB60FB681B0E1A06A0231B069A4201D10023FB61FB691800BD4609B090BD4C0A0000443E001004004200E00A000818F00000FFFFFFFE010100300100003028
:403280000300000C0100000C80B582B000AF78607B68002B05D1264A264B11001800FFF78DFB254B1B68DB681A00F223DB01D2587B681A60204B1B68DB681A00F023DB0196
:4032C000D2587B685A601C4B1B68DB681A001B4BD2587B689A60184B1B68DB681A00184BD2587B68DA60144B1B68DB681A00154BD2587B681A61104B1B68DB681A00124BA7
:40330000D2587B685A610C4B1B68DB681A000F4BD2587B689A61084B1B68DB681A000C4BD2587B68DA61C046BD4602B080BDC046A10A0000443E0010E00A000804780000B1
:40334000087800000C78000010780000147800001878000080B582B000AF78607B68002B05D1264A264B11001800FFF727FB254B1B68DB6819007B685A68F023DB01CA50B4
:40338000204B1B68DB6819007B689B681E4A8B501C4B1B68DB6819007B68DB681B4A8B50184B1B68DB6819007B681B69184A8B50144B1B68DB6819007B685B69154A8B50E9
:4033C000104B1B68DB6819007B689B69124A8B500C4B1B68DB6819007B68DB690F4A8B50084B1B68DB6819007B681A68F223DB01CA50C046BD4602B080BDC046C90A000071
:40340000443E0010E00A000804780000087800000C780000107800001478000018780000B0B500AFFFF732FC03001A0080235B009A422ED12D4B1B681A682C4B1B68982186
:403440005B58D3181A00294B1B681968274B1B6898201B58CB181B680F218B4302210B431360224B1B681A68204B1B689C215B58D3181A001D4B1B6819681C4B1B689C20CD
:403480001B58CB181B680F218B4302210B43136029E0164B1B681A68144B1B6898215B58D3181A00B0235B0511495B58114919400E4B1B6818680D4B1B6898241B59C3185A
:4034C0001B680B43C02189000B431360074B1B681A68064B1B689C215B58D318B0225205054952581A60C046BD46B0BDE00A000848180000FFFCFFFF44180000B0B500AF7E
:40350000FFF7C4FB03001A0080235B009A422ED12E4B1B681A682D4B1B6898215B58D3181A002A4B1B681968284B1B6898201B58CB181B680F218B4303210B431360234BA5
:403540001B681A68214B1B689C215B58D3181A001E4B1B6819681D4B1B689C201B58CB181B680F218B4303210B4313602BE0174B1B681A68154B1B6898215B58D3181A004C
:40358000B0235905C1235B01CB58114919400F4B1B6818680D4B1B6898241B59C3181B680B43C02189000B431360084B1B681A68064B1B689C215B58D318B0225105C122F3
:4035C00052018A581A60C046BD46B0BDE00A0008FFFCFFFFB0B500AFFFF758FB03001A0080235B009A4218D11C4B1B681A681B4B1B6898215B58D3181A00184B1B68196851
:40360000164B1B6898201B58CB181B6814490B40C021C9010B4313601CE0104B1B681A680E4B1B6898215B58D3181A00B0235B050C495B580C491940084B1B681868074BC7
:403640001B6898241B59C3181B680B43C02189000B431360C046BD46B0BDC046E00A0008FF8FFFFF18180000FFFCFFFFB0B500AFFFF70CFB03001A0080235B009A4218D1AC
:40368000224B1B681A68214B1B6898215B58D3181A001E4B1B6819681C4B1B6898201B58CB181B681A490B408021C9010B43136029E0164B1B681A68144B1B6898215B58B9
:4036C000D3181A00B0235B0512495B58124919400E4B1B6818680D4B1B6898241B59C3181B680B43C02189000B431360074B1B681A68064B1B689C215B58D318B0225205E3
:40370000044952581A60C046BD46B0BDE00A0008FF8FFFFF4C180000FFFCFFFF80B582B000AFFB1D01221A70FFF7B0FA03001A0080235B009A4215D10020FEF78BFD0300CF
:403740003B60FFF791FA0300222B02D83B68002B01D1012200E00022FB1D1A701A7801210A401A70FB1D1B781800BD4602B080BD80B582B000AF0200FB1D1A70FB1D1B78FA
:40378000042B06D10F4B0F4A126804210A431A6014E00D4B1B681A680B4B1B68A0215B58D318FA1D12781106C02292040A401A60044B044A126804218A431A60C046BD46E1
:4037C00002B080BD10E000E0E00A000880B500AF0D490D4AC0235B00D3589B009B088022D2051A43C0235B00CA500749064AC0235B00D358802212061A43C0235B00CA503A
:40380000C046BD4680BDC0460000264080B582B000AF7860034B7A681A60C046BD4602B080BDC046E00A0008002243088B4274D303098B425FD3030A8B4244D3030B8B42F6
:4038400028D3030C8B420DD3FF22090212BA030C8B4202D31212090265D0030B8B4219D300E0090AC30B8B4201D3CB03C01A5241830B8B4201D38B03C01A5241430B8B42DB
:4038800001D34B03C01A5241030B8B4201D30B03C01A5241C30A8B4201D3CB02C01A5241830A8B4201D38B02C01A5241430A8B4201D34B02C01A5241030A8B4201D30B021C
:4038C000C01A5241CDD2C3098B4201D3CB01C01A524183098B4201D38B01C01A524143098B4201D34B01C01A524103098B4201D30B01C01A5241C3088B4201D3CB00C01A13
:40390000524183088B4201D38B00C01A524143088B4201D34B00C01A5241411A00D20146524110467047FFE701B5002000F006F802BDC0460029F7D076E770477047C046E8
:4039400003008218934202D019700133FAE77047030030B5002A0DD00C7801335D1E013A2C700131002CF5D19A189A4202D01C700133FAE730BD0000F8B5C046F8BC08BC78
:403980009E467047F8B5C046F8BC08BC9E46704701B40248844601BC604700BFF90300082A03001030030010360300103C0300104403001073797374656D5F70736F633658
:4039C0005F636D30706C75732E6300000300000001000000010000000000000005036000040000000100000000000000010000000604600008000000500A00085D07001058
:403A000047656E6572617465645F536F757263655C50536F43365C70646C5C647269766572732F7065726970686572616C2F737973636C6B2F63795F737973636C6B2E688D
:403A400000000000F4010000140004010A00090508000000630100000300000000000000000000006800000000000000000000000000000012120000000000000000000025
:403A80000000000000000000000000BA0000000000000000000000000000000000001D1D47656E6572617465645F536F757263655C50536F43365C70646C5C6472697665BA
:403AC00072732F7065726970686572616C2F6970632F63795F6970635F6472762E68000047656E6572617465645F536F757263655C50536F43365C70646C5C6472697665DC
:403B000072735C7065726970686572616C5C6770696F5C63795F6770696F2E680000000047656E6572617465645F536F757263655C50536F43365C70646C5C6472697665D9
:403B400072735C7065726970686572616C5C6770696F5C63795F6770696F2E630000000047656E6572617465645F536F757263655C50536F43365C70646C5C64726976659E
:403B800072735C7065726970686572616C5C6970635C63795F6970635F6472762E68000047656E6572617465645F536F757263655C50536F43365C70646C5C647269766594
:403BC00072735C7065726970686572616C5C6970635C63795F6970635F6472762E63000047656E6572617465645F536F757263655C50536F43365C70646C5C647269766559
:403C000072735C7065726970686572616C5C6970635C63795F6970635F6472762E68000047656E6572617465645F536F757263655C50536F43365C70646C5C647269766513
:403C400072735C7065726970686572616C5C6970635C63795F6970635F6472762E68000047656E6572617465645F536F757263655C50536F43365C70646C5C6472697665D3
:403C800072735C7065726970686572616C5C6970635C63795F6970635F706970652E630047656E6572617465645F536F757263655C50536F43365C70646C5C647269766536
:403CC00072735C7065726970686572616C5C70726F745C63795F70726F742E630000000047656E6572617465645F536F757263655C50536F43365C70646C5C6472697665F1
:403D000072735C7065726970686572616C5C737973636C6B5C63795F737973636C6B2E680000000047656E6572617465645F536F757263655C50536F43365C70646C5C64B9
:403D40007269766572735C7065726970686572616C5C737973636C6B5C63795F737973636C6B2E6300000000F69F903AFC70903AE02D903AE02D903A7D6F993A2052264C84
:403D800048A25D4C503F934CF874C44C20C5FB4C0000803B0000003C0000803C0000003D0000803D0000003E0000803E0000003F0000803F00000040000080400000004172
:403DC00047656E6572617465645F536F757263655C50536F43365C70646C5C647269766572735C7065726970686572616C5C737973696E745C63795F737973696E742E6326
:403E00000000000047656E6572617465645F536F757263655C50536F43365C70646C5C647269766572732F7065726970686572616C2F6970632F63795F6970635F6472762E
:403E40002E68000047656E6572617465645F536F757263655C50536F43365C70646C5C647269766572735C7065726970686572616C5C737973706D5C63795F737973706D7C
:403E80002E6300000000214000002540000001400000344000002440000031400000324000001F410000234000001140010101010101010101101010800019005500F00084
:403EC0000501053B04101C01010000000FC000000004000001010101011D3A57789600082000101208000000001F00000010000F002000023F06080E00080009000A000B83
:403F000024282C3034000000100000009000000088000000080000008000000004F0000000F00000400200002005A000D00100018001A00120000000100000000000204086
:403F400000002440000000400000000000002340000030400000314000009F40000022400000104002020202020202020210101D800017007500FF030602063604102000F3
:403F8000000000007FC0000000040000000000000019324B647D00804000080B100000000000FF012002001F00800004FF081018001000140018001C4044484C50000000B0
:403FC000081000000800000004000000041000000012000004210000002100000016000040114002C41300138013A013200000001C00000000000000000000100000000804
:40400000C000000018400010C0000008C8070000C40800082002000000093D0000127A0000093D000048E80100093D00A00F0000040000000000D007E9000010C1000010E8
:404040000000000080B584B000AF78607B68FB60FB685B78FF2B37D100F06AFB0300BB60042000F09DFB0300180000F0B1FB03001A00174B1A60174B00221A60154B1B68FA
:404080005B015B4201229A40134B1A60104B1B685A68104B1B689B00D218104B1A600F4B1B680E4A126811680B4A12680A431A60C0460A4B1B681A68074B1B681340F8D14B
:4040C000BB68180000F03CFBC046BD4604B080BD840A0008880A00088C0A0008900A000880B588B000AF78603960634BFB61002000F056FB03007B61604B1B68B4229A5827
:404100007B69D3183B610023BB615C4B1B6850229B5C002B00D186E000F022FB02000F23FB18033A51424A411A700F23FB181B7801225340DBB2002B02D00023FB6132E0FE
:40414000062000F02DFB0300180000F001FB03001A0001235340DBB2002B24D0002000F00FFB0200464B9A421DD0464B1A6800230021012000F00CFB031E14D102E0BB6989
:404180000133BB61002000F0FBFA02003C4B9A4203D0BB693C4A9342F1D9BB693A4A934201D80023FB61FB69002B5FD100F0C0FA0300BB60354A364BD358DB0FDB071FD5E2
:4041C000344A7B690121180000F0F2FA031E14D13B68180000F062F87B68002B02D12E4BFB610FE0C0463B691B68DB0FDB07FAD400F0BEFA0300FB6104E01F4BFB6101E03E
:404200001D4BFB610F23FB181B78002B06D0C0460121002000F084FA031EF9D1BB68180000F08EFA22E000F083FA0300BB60194A7B690121180000F0BBFA031E10D17B68F5
:40424000002B02D1144BFB610CE0C0463B691B68DB0FDB07FAD400F08BFA0300FB6101E0054BFB61BB68180000F06AFAFB691800BD4608B080BDC04605005200E00A00081F
:4042800001018800700A0008EF490200000026401C050000740A00080100500080B584B000AF78607B681B041B0CDB00FB60FB68002B3DD0C046204B1B681A6A1E4B1B680C
:4042C000B0215B5A19000B00DB005B1AD3181B68DB0FDB07EFD5194B3E221A60184B194A1A60194AA323DB000621D1501649FB681B021B0A154A8B50134A144BD358DB0FED
:40430000DB07DB0FFB600C4B1B681A6A0A4B1B68B0215B5A19000B00DB005B1AD31800225A60C046084A094BD358DB0FDB07F9D5C046BD4604B080BDE00A00080401264097
:40434000080126401E1F0000000026401C050000B0B586B000AF0200FB1D1A70C34B1B685B680D33FF337B6100F02AFA0300212B00D0D5E0C046BD4B1B681A6ABB4B1B68F4
:40438000B0215B5A19000B00DB005B1AD3181B68DB0FDB07EFD5B54B1B681A6AB34B1B68B0215B5A19000B00DB005B1AD3181A00AE4B1B68196AAD4B1B68B0201B5A1800A7
:4043C0000300DB001B1ACB18DB6802210B43D360A64B1B681A6AA54B1B68B0215B5A19000B00DB005B1AD318DB68012213407CD09E4B1B681A6A9D4B1B68B0215B5A190091
:404400000B00DB005B1AD3181A00984B1B68196A964B1B68B0201B5A18000300DB001B1ACB18DB681B04190C904B1B6818688F4B1B6884241B59C3181868FF231B020340C1
:404440001B0A1804894B1B681C68884B1B6888255B59E3181C68FF231B0223401B0A1B0603430B43D360814B1B681A687F4B1B6884215B58D3181A007C4B1B6819687B4B2F
:404480001B6884201B58CB181B6879490B40902109010B431360754B1B681A68734B1B6888215B58D3181A00704B1B6819686F4B1B6888201B58CB181B686D490B409021DD
:4044C00009010B431360694B1B681A68674B1B6884215B58D3181B68644B1B681A68634B1B6888215B58D3181B68604B1B681A6A5E4B1B68B0215B5A19000B00DB005B1AB6
:40450000D31800225A60594B1B681A6A574B1B68B0215B5A19000B00DB005B1AD3185B68544B544A126904210A431A61FB1D1B78012B01D030BF00E020BFC0464B4B1B6822
:404540001A6A4A4B1B68B0215B5A19000B00DB005B1AD3181B68DB0FDB07EFD500F030F90300212B00D087E0404B1B681A6A3F4B1B68B0215B5A19000B00DB005B1AD31884
:40458000DB680122134052D0384B1B681A68374B1B6884215B58D3181A00344B1B681968324B1B6884201B58CB181B68304919402E4B1B68186A2D4B1B68B0241B5B1C0085
:4045C0002300DB001B1BC318D868FF231B0403401B0C1B021B041B0C0B431360234B1B681A68224B1B6888215B58D3181A001F4B1B6819681D4B1B6888201B58CB181B68FF
:404600001B491940194B1B68186A184B1B68B0241B5B1C002300DB001B1BC318DB681B0E1B061B0E1B021B041B0C0B4313600F4B1B681A6A0D4B1B68B0215B5A19000B0039
:40464000DB005B1AD3181A00084B1B68196A074B1B68B0201B5A18000300DB001B1ACB18DB6802218B43D36038E0C046E00A0008FF00FFFF00ED00E07B691B68002B2DD193
:404680001F4B1B683B611F4AA323DB00D358FB601D4B1B68BB601A4B1C4A1A60194AA323DB000621D150184B3E221A60154A184B4421D150C046134A154BD358002BFADAD8
:4046C0007B69144A1A600E4B3A691A600D49A323DB00FA68CA500C4BBA681A600E4B1B681A6A0D4B1B68B0215B5A19000B00DB005B1AD31800225A60C046BD4606B0B0BDFA
:404700000801264000002640040126401E1F00001C050000AAAAAAAAE00A00080000000001B40248844601BC604700BF4119001001B40248844601BC604700BF5B2C001068
:4047400001B40248844601BC604700BF632C001001B40248844601BC604700BFF511001001B40248844601BC604700BF4906001001B40248844601BC604700BFD113001081
:4047800001B40248844601BC604700BF251A001001B40248844601BC604700BF2D1F001001B40248844601BC604700BF9111001001B40248844601BC604700BF21120010A9
:4047C00001B40248844601BC604700BF692C001001B40248844601BC604700BFE111001000000000000000000000000000000000000000000000000000000000000000003A
:020000041008E2
:4000000000780408EB0208100D00000051030810510308105103081051030810000000000000000000000000000000004D0308104D030810000000004D0308104D030810DA
:400040004D0308104D0308104D0308104D0308104D0308104D0308104D0308104D0308104D0308104D0308104D0308104D0308104D0308104D0308104D0308104D03081000
:400080004D0308104D0308104D0308104D0308104D0308104D0308104D0308104D0308104D0308104D0308104D0308104D0308104D0308104D0308104D0308104D030810C0
:4000C0004D0308104D0308104D0308104D0308104D0308104D0308104D0308104D0308104D0308104D0308104D0308104D0308104D0308104D0308104D0308104D03081080
:400100004D0308104D0308104D0308104D0308104D0308104D0308104D0308104D0308104D0308104D0308104D0308104D0308104D0308104D0308104D0308104D0308103F
:400140004D0308104D0308104D0308104D0308104D0308104D0308104D0308104D0308104D0308104D0308104D0308104D0308104D0308104D0308104D0308104D030810FF
:400180004D0308104D0308104D0308104D0308104D0308104D0308104D0308104D0308104D0308104D0308104D0308104D0308104D0308104D0308104D0308104D030810BF
:4001C0004D0308104D0308104D0308104D0308104D0308104D0308104D0308104D0308104D0308104D0308104D0308104D0308104D0308104D0308104D0308104D0308107F
:400200004D0308104D0308104D0308104D0308104D0308104D0308104D0308104D0308104D0308104D0308104D0308104D0308104D0308104D0308104D0308104D0308103E
:400240004D0308104D0308104D0308104D0308104D0308104D0308104D0308104D0308104D0308104D0308104D0308104D0308104D0308104D0308104D0308104D030810FE
:400280004D0308104D0308104D03081010B5054C237833B9044B13B10448AFF300800123237010BDD44B02080000000054330810084B10B51BB108490848AFF300800848A5
:4002C000036803B910BD074B002BFBD0BDE81040184700BF00000000D84B020854330810B8420208000000007047FFF7FDFF72B6104C114DAC4209DA21686268A368043BE6
:40030000A2BFC858D050FAE70C34F3E70B490C4A00209142BCBF41F8040BFAE709480A490860BFF34F8F00F049FB00F099F900F08FF8FEE75833081070330810D44B0208AB
:40034000F44D02080040020808ED00E0FEE7FEE700B504207146084202D0EFF3098001E0EFF30880043001F023FCFEE780B483B000AF0346FB80B7F90630002B0BDB09499B
:40038000B7F906305B09FA8802F01F02012000FA02F241F8232000BF0C37BD465DF8047B704700BF00E100E080B483B000AF786039603B68C3F30B027B68C3F8042100BF54
:4003C0000C37BD465DF8047B704700BF80B483B000AF78607B681B6A03F0010318460C37BD465DF8047B704780B483B000AF78607B6801221A627B681B6A00BF0C37BD4614
:400400005DF8047B704700BF80B582B000AF786079680348FFF7C8FF00BF0837BD4680BD0000144180B500AF0248FFF7CFFF0346184680BD0000144180B500AF0248FFF7B9
:40044000D3FF00BF80BD00BF000014410000000090B58FB000AF62B66F49704801F00CFB6E4BB3F900301846FFF780FF00F0F0FA4FF080437B636A4B3B634FF00003FB62D3
:400480004FF07E53BB62386B02F076F95EA3D3E9002302F0EFFA03460C46184621465CA3D3E9002302F0BCF903460C461846214602F036FC03460C461846214602F0C2FBD8
:4004C00003467B62F86A02F057F94FA3D3E9002302F0D0FA03460C46184621464CA3D3E9002302F09DF903460C461846214602F017FC03460C461846214602F0A3FB034651
:400500003B6297ED097AD7ED087A77EE677AC7ED077AD7ED077A77EEA77AC7ED067A97ED0C7AD7ED0B7A77EE677AC7ED057AD7ED056A97ED0A7AC6EE877A77EEA77AC7ED61
:40054000047AD7ED046A97ED067AC6EE877A9FED357A67EE877AC7ED037A334B1B68012B2DD1324B1B6807EE903AB8EE677AD7ED097AB4EEE77AF1EE10FA20D52B4B1B68BE
:4005800001332A4A1360D7ED037AFCEEE77AC7ED017ABB889BB2184601F0DCFA234B1B6807EE903AB8EE677AD7ED097AB4EE677AF1EE10FA27D11C4B00221A6023E01A4B63
:4005C0001B68002BC9D1194B1B68013B174A1360D7ED037AFCEEE77AC7ED017ABB889BB2184601F0B7FA114B1B6807EE903AB8EE677AD7ED087AB4EE677AF1EE10FAACD11D
:40060000094B01221A60A8E76666666666660A400000000000FEAF4031060810942F081033335340002474498C420208F04B020880B582B000AFFFF7F5FE0346FB71FB7956
:40064000002B06D0FFF7F8FE044B1B681846FFF7DBFE00BF0837BD4680BD00BFF04B020880B500AF0D4801F05BFB00F01FF800F025F800220021042000F0EAFC084800F03B
:400680007BFF084B1B6893F85130002B02D0064800F086FF00F0E4FA00BF80BD94310810F44B0208F04D0208582F081080B400AF00BFBD465DF8047B704700BF80B491B0E4
:4006C00000AFB04BD3F8803303F00F037B63AD4A7B6BD03352F8233003F007033B633B6B042B3AD801A252F823F000BF01070810070708100D070810130708101B07081053
:40070000A14BFB632CE0A14BFB6329E09F4BFB6326E09F4B1B68FB6322E09A4A7B6BC03352F8233003F01F03FB62FB6A112B07D0132B09D0102B0BD14FF4FA43FB630BE0BA
:400740004FF40043FB6307E04FF40043FB6303E04FF4FA43FB6300BF02E08C4BFB6300BF7B6B002B60D1874BD3F8903503F00103002B14BF0123002387F82B30814BD3F823
:40078000883503F040531B0F032B0CBF0123002387F82A307B4BD3F8883503F040531B0F002B07D0774BD3F8883503F040531B0F012B01D1012300E0002387F8293097F82D
:4007C000293003F0010387F8293097F82930002B03D097F82B30002B03D197F82A30002B1FD0684BD3F88035C3F311037B62654BD3F88435C3F30C033B62624BD3F8803562
:4008000003F080731B0E0133FB61FA6B3B6AB2FBF3F37A6A02FB03F2FB69B2FBF3F3BB6360E0FB6BBB635DE07B6B012B58D1554BD3F8403603F00103002B14BF0123002338
:40084000FB76504BD3F8003603F040531B0F032B0CBF01230023BB764A4BD3F8003603F040531B0F002B07D0464BD3F8003603F040531B0F012B01D1012300E000237B76AA
:400880007B7E03F001037B767B7E002B02D0FB7E002B02D1BB7E002B1FD03A4BD3F8003603F07F037B61374BD3F8003603F4F8531B0A3B61334BD3F8003603F4F8131B0C92
:4008C000FB60FB6B7A6902FB03F23B69B2FBF3F2FB68B2FBF3F3BB6304E0FB6BBB6301E0FB6BBB63274BD3F8803303F030031B09BA6B22FA03F3BB63264ABB6B1360264B42
:40090000D3F8903003F47F431B0A0133BB60224B1B6903F07F431B0E01337B60BA6B7B68B2FBF3F31D4A1360BA6BBB68B2FBF3F3BB631B4ABB6B1360194B1B68194A1360F8
:40094000184B1B6803F5742303F23F23164AA2FB03239B0CDAB2154B1A70124B1B6803F2E733134AA2FB03239B09124A1360114B1B68DB03104A136000BF4437BD465DF8CD
:40098000047B70470000264000127A0000366E019C42020894420208000021409842020890420208A042020883DE1B43A8420208D34D6210A4420208AC42020880B582B001
:4009C00000AF01F092F97860094A094BD3F8883043F47003C2F88830BFF34F8FBFF36F8F786801F086F900BF0837BD4680BD00BF00ED00E080B500AF012000F04BFF00BF56
:400A000080BD00BF80B483B000AF78607B681B6843F000427B681A6000BF0C37BD465DF8047B704780B500AF0248FFF7EBFF00BF80BD00BF0000144180B500AF024903486C
:400A400001F0B4FB00BF80BD9C2F08100000144180B500AF064B1B78002B04D1FFF7ECFF034B01221A70FFF7DDFF00BF80BD00BF744D020880B483B000AF0346FB80B7F91C
:400A80000630002B0BDB0949B7F906305B09FA8802F01F02012000FA02F241F8232000BF0C37BD465DF8047B704700BF00E100E080B400AF084B1B681A68074B1B68D3F848
:400AC000843013441B6803F07F431B0EDBB21846BD465DF8047B7047F04D020880B400AF084B1B681A68074B1B68D3F8843013441B6803F47F431B0ADBB21846BD465DF840
:400B0000047B7047F04D020880B582B000AF78600E4B1B6893F831301A467B689A4204D840F2C3110A4801F02FF8084B1B681A6A064B1B68B3F8B03019467B6803FB01F32A
:400B4000134418460837BD4680BD00BFF04D0208D02F081080B483B000AF78607B68DB6818460C37BD465DF8047B704780B483B000AF7860084B1B68D3F8B4207B68134444
:400B80001B6803F00043DB0FDBB218460C37BD465DF8047B704700BFF04D020880B584B000AFF860B9607A607B68002B04D140F29331074800F0E8FF7B681A46B968F868AA
:400BC00000F09CF9034618461037BD4680BD00BFD02F081080B584B000AF78601C4A7B6813601B4B1B68002B0BD0194B1B6802221A70174B1B68FF225A70154B1B68002267
:400C00005A80144B1B6893F85030002B1CD0114B1B68B3F938303B810023FB6007F108030D49184600F028FFB7F908301846FFF721FF084B1B6893F85130002B04D002227A
:400C40000649012000F0EAFD00BF1037BD4680BD7C4D0208F04D0208B9450208BD42020880B500AF0248FFF7B5FF00BF80BD00BFA04D020880B485B000AF78607B682E4AE7
:400C800093423FD02C4A93420ED8402B40D0402B04D8002B1FD0102B37D042E0802B3AD0B3F5807F3AD03CE0244A934219D0234A934206D8B3F1204F10D0214A93421DD0F1
:400CC0002FE0204A934213D01F4A934213D01F4A93420AD025E00023FB6025E00023FB6022E04FF4A403FB601EE0194BFB601BE0184BFB6018E0184BFB6015E04FF4A00336
:400D0000FB6011E00C4BFB600EE0144BFB600BE0134BFB6008E0134BFB6005E0064BFB6002E0114BFB6000BFFB6818461437BD465DF8047B704700BF06005200010000F03D
:400D4000090000A0040000F0050000F0030000F0010052000200520003005200010050000200500005005200FF00520080B582B000AF134B7B600120FFF7C6FE03461846D6
:400D8000FFF7F4FE034683F00103DBB2002B12D00C4B1B681846FFF76DFF78600A4B1B685B681A460123936000BF074B1B685B689B68002BF9D17B6818460837BD4680BD5E
:400DC00002005000804D0208F04D020880B582B000AF786039603B681B0C1B04002B04D040F2BB21054800F0CFFE3B689AB27B689A6000BF0837BD4680BD00BF10300810DB
:400E000080B582B000AF786039603B681B0C1B04002B04D040F2D521054800F0B5FE3B689AB27B685A6000BF0837BD4680BD00BF1030081080B483B000AF786039607B68E0
:400E40003A68DA6000BF0C37BD465DF8047B704780B483B000AF78607B68DB6818460C37BD465DF8047B704780B483B000AF7860084B1B68D3F8B4207B6813441B6803F0B0
:400E80000043DB0FDBB218460C37BD465DF8047B704700BFF04D020880B483B000AF78607B681B6803F00043002B01DA002300E0034B18460C37BD465DF8047B704700BF74
:400EC00001008A0080B584B000AF786039607868FFF7CAFF0346002B06D039687868FFF78FFF0023FB6001E0034BFB60FB6818461037BD4680BD00BF01008A0080B586B0EB
:400F000000AFF860B9607A60F868FFF7C5FF0346002B0AD17968F868FFF78CFFB968F868FFF754FF00237B6101E0034B7B617B6918461837BD4680BD01008A0080B584B0F3
:400F400000AF786039603B68002B03D199210C4800F01AFE7868FFF787FF0346002B08D07868FFF775FF02463B681A600023FB6001E0044BFB60FB6818461037BD4680BDF1
:400F80005030081001008A0080B582B000AF78600E4B1B6893F831301A467B689A4204D840F2C3110A4800F0EFFD084B1B681A6A064B1B68B3F8B03019467B6803FB01F33C
:400FC000134418460837BD4680BD00BFF04D02089030081080B483B000AF78607B68DB6818460C37BD465DF8047B704780B584B000AFF860B9607A607B68002B04D140F224
:401000009331074800F0C0FD7B681A46B968F868FFF774FF034618461037BD4680BD00BF9030081080B483B000AF78607B681B6803F00043002B01DA002300E0034B1846BF
:401040000C37BD465DF8047B704700BF01008A0080B586B000AFF860B9607A60144B7B617B68002B0BD1BB68002B08D1F868FFF78BFF02460F4B1A6000237B6113E07B68D3
:40108000002B0ED0BB68002B0BD00B4ABB681360094A7B6853600849F86800F00FF8786101E0034B7B617B6918461837BD4680BD03018A00A44D0208A84D020880B584B0DC
:4010C00000AF78603960284BFB60284B1B6893F831301A467B689A4202D8234BFB603EE03B68002B39D03B681B6803F01F03002B30D17868FFF748FF02461D4B1A603B6818
:4011000058683B681B68DB081A46002101F0EAFD174B1B6800211846FFF7D4FE144B1B683A6800211846FFF761FF0346002B0ED10F4B1B6800211846FFF7C4FE0346002B2D
:4011400002D10023FB600AE00A4BFB6007E0094BFB6004E0044BFB6001E0034BFB60FB6818461037BD4680BD03018A00F04D0208A44D020801018A0080B588B000AF78603E
:401180000B46FB700023FB612F4BBB612F4B1B681846FFF71FFF03467B617B691A687B689A4249D97B685B093B613B695B017A68D31A012202FA03F3FB60FB7883F0010377
:4011C000DBB2002B02D000F090FDF8611F4B1B681846FFF727FF0346002B23D17B695A683B699B0013441A68FB681340002B11D07B695A683B699B0013447A6951683A69C5
:4012000092000A441168FA68D2430A401A600023BB6101E00E4BBB610C4B1B6800211846FFF750FEFB7883F00103DBB2002B05D0F86900F05EFD01E0064BBB61BB691846F5
:401240002037BD4680BD00BF03018800A44D02080201880004018A0080B586B000AF7860164B1B681846FFF7B5FE03463B613B691A687B689A421AD97B685B09FB60FB68D8
:401280005B017A68D31A012202FA03F3BB603B695A68FB689B0013441A68BB681340002B02D0074B7B6104E0064B7B6101E0064B7B617B6918461837BD4680BDA44D02080A
:4012C000010188000001880004018A0080B483B000AF0346FB80B7F90630002B0BDB0949B7F906305B09FA8802F01F02012000FA02F241F8232000BF0C37BD465DF8047BE6
:40130000704700BF00E100E080B582B000AF78600E4B1B6893F831301A467B689A4204D840F2C3110A4800F02FFC084B1B681A6A064B1B68B3F8B03019467B6803FB01F365
:40134000134418460837BD4680BD00BFF04D0208D030081080B582B000AF78600C4B1B6893F832301A467B689A4204D840F2DF11084800F009FC064B1B681B6A1A467B6868
:4013800080335B01134418460837BD4680BD00BFF04D0208D030081080B584B000AFF860B9607A607B681B0C1B04002B04D04FF4FF710C4800F0E8FBBB681B0C1B04002BD3
:4013C00004D040F2FF11074800F0DEFB7B681A04BB689BB21A43FB689A6000BF1037BD4680BD00BFD030081080B483B000AF78607B68DB6818460C37BD465DF8047B704734
:4014000080B483B000AF78607B681B6818460C37BD465DF8047B704780B584B000AFF860B9607A607B681B0C1B04002B04D04FF426710D4800F0A8FBBB681B0C1B04002B48
:4014400004D040F29921084800F09EFB7B681A04BB689BB21A43FB681A60FB681B6800BF1037BD4680BD00BFD030081080B582B000AF786039603B681B0C1B04002B04D0B6
:4014800040F2BB21054800F07FFB3B689AB27B689A6000BF0837BD4680BD00BFD030081080B483B000AF786039607B683A68DA6000BF0C37BD465DF8047B704780B483B049
:4014C00000AF7860084B1B68D3F8B4207B6813441B6803F00043DB0FDBB218460C37BD465DF8047B704700BFF04D020880B483B000AF78607B681B0C18460C37BD465DF860
:40150000047B704780B483B000AF78607B689BB218460C37BD465DF8047B704780B582B000AF786039603B68002B04D140F2B631054800F029FB39687868FFF7FFFC0346C9
:4015400018460837BD4680BDD030081080B483B000AF78607B681B6803F00043002B01DA002300E0034B18460C37BD465DF8047B704700BF01008A0080B483B000AF78602E
:40158000064B1B68002B02D1044A7B68136000BF0C37BD465DF8047B704700BFB04D0208B0B590B002AF78607B68002B03D152212F4800F0E9FA7B689B69072B03D9562126
:4015C0002B4800F0E1FA7B68DB6A002B03D15821274800F0D9FA7B681B6B002B03D15921234800F0D1FA7B6807F11C0403F114050FCD0FC42B6823607B6807F108041D46BC
:401600000FCD0FC42B6823601A4B1B68B3F936309AB2FB699BB213449BB21BB23B863B6A7B63B86A7B68D96A7B689A6AFC6A07F130030093234600F01FF87869BA6900234F
:40164000009313460022002100F016F87B681A6B07F130031146184600F00EFAB7F930301846FFF733FE00BF3837BD46B0BD00BF10310810F04D020880B586B000AFF860F9
:40168000B9607A603B60254B1B68002B03D1B521234800F079FA214B1A68FB682C2101FB03F313447B613B68DAB27B691A603B681B0ADAB27B695A603B681A0C7B699A601D
:4016C0007B691B681846FFF71FFE02467B691A617B695B681846FFF73DFE02467B695A617B6958697B6999687B699B681A46FFF753FE7B697A68DA617B69BA681A627B69CF
:4017000000229A613B6A002B04D03B6AB3F900207B699A8100BF1837BD4680BDB04D02081031081080B58AB000AFF860B9607A603B607B68002B03D1FD21344800F024FA3C
:40174000334B1B68002B03D1FE21304800F01CFA2F4B1A68FB682C2101FB03F313443B622B4B1A68BB682C2101FB03F31344FB61FB695B68012202FA03F3BB61BB691B0492
:40178000BB613B6A5B68012202FA03F37B613B6A1B69002B32D0FB699B69002B2BD13B6A1B691846FFF7D2FE0346002B20D17B681B689AB27B681A607B681A68BB691A4328
:4017C0007B681A603B6A1B697A6811461846FFF767FEFB6901229A61FB693A685A623B6A1B6979691846FFF741FE00237B6207E0084B7B6204E0074B7B6201E0064B7B6256
:401800007B6A18462837BD4680BD00BF10310810B04D020807028A0004028A0080B586B000AFF860B9607A60174B1B68002B04D14FF4AF71154800F0A7F9134B1A68FB68A7
:401840002C2101FB03F313443B613B691B6A002B04D14FF4B1710D4800F096F93B69DA697B689A4209D93B691A6A7B689B001344BA681A6000237B6101E0054B7B617B69C3
:4018800018461837BD4680BDB04D0208103108100A028A0080B584B000AF78600B4B1B68002B04D140F2B111094800F06DF9074B1A687B682C2101FB03F31344FB60F868D9
:4018C00000F008F800BF1037BD4680BDB04D02081031081090B589B000AF78600023FB600023FB617B68002B04D140F2D1114C4800F04AF97B681B69002B04D14FF4E9718E
:40190000474800F041F97B685B69002B04D140F2D311434800F038F97B681B6A002B04D14FF4EA713E4800F02FF97B685B691846FFF75AFDB861B869FFF7D8FD0346002B16
:401940003ED07B685C69B869FFF7D0FD03461A4600212046FFF760FD7B681B691846FFF7ADFD0346002B2BD07B681B6907F10C0211461846FFF7D2FD0346002B1AD1FB68CD
:401980001B681B0CFB61FB681B68DBB27B617B68DA697B699A420DD97B681A6A7B699B0013441B683B613B69002B03D0FA683B69104698477B681B69F9691846FFF782FA34
:4019C000B869FFF79FFD0346002B1FD07B685C69B869FFF797FD0346002219462046FFF71BFD7B685B6A002B06D07B685B6A98477B6800225A6206E07B689B6A002B02D084
:401A00007B689B6A98477B6800229A617B685B691846FFF7F5FC00BF2437BD4690BD00BF1031081080B483B000AF03463960FB80B7F90630002B0ADB0D49B7F906303A682A
:401A4000D2B25201D2B20B4483F800230AE00949FB8803F00F03043B3A68D2B25201D2B20B441A7600BF0C37BD465DF8047B704700E100E000ED00E080B584B000AF786031
:401A800039600023FB607B68002B1DD07B685B68072B03D93221104800F076F87B68B3F900207B685B6819461046FFF7BBFF0B4B9B680B4A934209D17B68B3F900303968E0
:401AC000184600F011F801E0064BFB60FB6818461037BD4680BD00BF5031081000ED00E0004002080100560080B584B000AF03463960FB80134B9B68134A934216D13B6862
:401B0000002B04D140F23711104800F03DF8B7F9063010330C4A52F82330FB60B7F90630103309493A6841F8232006E0B7F906301033074A52F82330FB60FB68184610373E
:401B4000BD4680BD00ED00E000400208503108100000081080B582B000AF0346FB80FB88054A127802FB03F3184600F0B5F800BF0837BD4680BD00BFA842020880B483B0E1
:401B800000AF786001BEFEE780B582B000AF7860396018227968044801F0ACF8034A3B6813600020FFF7EAFF404B0208584B020880B584B000AF78607B681B68414A13607F
:401BC0007B685B683F4A53607B689B683D4A93607B68DB683B4AD3607B681B69394A13617B685B69374A53617B689B69354A93617B68DB69334AD361334B9B6A314A1362E6
:401C0000314BDB6A2F4A53622F4B5B6A2D4A93622D4B5B6B2B4AD3622B4B9B6B294A1363F1EE103AFB60FB6803F09003002B43D07B681B6A234A53637B685B6A214A93637E
:401C40007B689B6A1F4AD3637B68DB6A1D4A13647B681B6B1B4A53647B685B6B194A93647B689B6B174AD3647B68DB6B154A13657B681B6C134A53657B685B6C114A936552
:401C80007B689B6C0F4AD3657B68DB6C0D4A13667B681B6D0B4A53667B685B6D094A93667B689B6D074AD3667B68DB6D054A13677B681B6E034A536700F008F800BF10376D
:401CC000BD4680BD5C4B020800ED00E080B400AFFEE700BF000000000230800803D001300238FCD100BF00BF7047EFF3108072B6704780F31088704780B400AF4FF0B0536D
:401D00005B78DBB2002B04D04FF0B0535B78DBB200E021231846BD465DF8047B704700BF80B483B000AF7860044A7B68136000BF0C37BD465DF8047B704700BFF04D0208AB
:401D400080B487B000AF0346B9607A60FB73324B7B61FB7B002B27D1BB68072B54D87B68FF2B51D8BB689A002C4B1B689B682B490968B1F874100B4413441846BB689A0069
:401D8000264B1B689B6825490968B1F874100B4413441B6823F47F427B681B029BB21343036000237B612FE0FB7B012B2CD1BB680F2B29D87B68B3F5803F25D2BB689A0010
:401DC000164B1B689B6815490968B1F876100B4413441846BB689A00104B1B689B680F490968B1F876100B4413441B6823F47F0222F47F427B681B0223F07F4323F0FF03E2
:401E00001343036000237B617B6918461C37BD465DF8047B704700BF01004A00F04D020880B487B000AFB9607A603B600346FB73544B7B61FB7B022B52D1BB68032B00F293
:401E40009A807B68B3F5803F80F095803B681F2B00F29180BB689A004B4B1B689B684A490968B1F878100B4413441846BB689A00454B1B689B6844490968B1F878100B4426
:401E800013441B6823F47F0222F47F427B681B0223F07F4323F0FF0313430360BB689A00394B1B689B6838490968B1F878100B4413441846BB689A00334B1B689B6832490C
:401EC0000968B1F878100B4413441B6823F0F8023B68DB00DBB21343036000237B614AE0FB7B032B47D1BB68002B44D17B68B3F1807F40D23B681F2B3DD8BB689A00224B3A
:401F00001B689B6820490968B1F87A100B4413441846BB689A001C4B1B689B681A490968B1F87A100B4413441B68DAB27B681B0213430360BB689A00134B1B689B681249EF
:401F40000968B1F87A100B4413441846BB689A000D4B1B689B680C490968B1F87A100B4413441B6823F0F8023B68DB00DBB21343036000237B617B6918461C37BD465DF83F
:401F8000047B704701004A00F04D020890B484B000AF03463A60FB710B46BB71254BFB60254B1B6893F83F30FA799A423CD2BB79032B39D8BB79002B02D13B68072B11D9ED
:401FC000BB79012B02D13B680F2B0BD9BB79022B02D13B68032B05D9BB79032B24D13B68002B21D1144B1B689B681846FB79BA791149096891F8711002FA01F10E4A126874
:4020000092F8712014460322A24011400A4A126892F8702014463A6822400A4303F5407340F823200023FB60FB6818461037BD4690BC704701004A00F04D020890B484B084
:4020400000AF03463960FB712E4BFB60FB79032B52D8FB79002B02D13B68072B11D9FB79012B02D13B680F2B0BD9FB79022B02D13B68032B05D9FB79032B3DD13B68002BBD
:402080003AD1214B1B689B6818461F4B1B6893F873301A46032303FA02F21B4B1B6893F870301946184B1B6893F8723001FA03F31A43FB791449096891F8711003FA01F124
:4020C000114B1B6893F871301C460323A3400B401A430D4B1B6893F8703019463B680B40134343F00043C0F80034074B1B689B68D3F800340023FB60FB6818461037BD4657
:4021000090BC704701004A00F04D020880B485B000AF03463960FB71224BFB60FB79032B38D8FB79002B02D13B68072B11D9FB79012B02D13B680F2B0BD9FB79022B02D151
:402140003B68032B05D9FB79032B23D13B68002B20D1154B1B689B681946FB79124A126892F8712003FA02F20F4B1B6893F871301846032383401A400B4B1B6893F8703012
:4021800018463B680340134343F08043C1F800340023FB60FB6818461437BD465DF8047B704700BF01004A00F04D020890B589B002AF786039607B68002B03D149218D4878
:4021C000FFF7E2FC3B68002B03D14A218948FFF7DBFC00233B610023FB600023BB607B68002B02D03B68002B02D1834B7B61FCE03B681B78002B07D03B681B78012B03D071
:4022000058217C48FFF7C0FC3B685B68002B08D03B685B68B3F1807F03D059217548FFF7B3FC3B681B7A042B03D95A217148FFF7ABFC3B685B89002B12D03B685B89B3F5B7
:40224000807F0DD03B685B89B3F5007F08D03B685B89B3F5407F03D05B216648FFF794FC3B68DB68002B17D03B68DB68B3F5800F12D03B68DB68B3F5400F0DD03B68DB68F4
:40228000B3F1006F08D03B68DB68B3F1086F03D05C215848FFF778FC3B681B7C012B07D03B681B7C002B03D05D215248FFF76CFC3B685B69002B08D03B685B69B3F1804FA9
:4022C00003D05E214B48FFF75FFC3B689B693F2B03D95F214748FFF757FC3B689B6903F03F033A6913433B613B685B891A463B6913433B613B681B7A032B07D03B681B7A00
:40230000022B03D03B681B7A042B03D13B6943F080533B613B681B7A042B03D13B6943F000533B613B685B683A6913433B613B685B693A6913433B613B68DB683A69134345
:402340003B613B681B78012B04D1FB6843F00103FB6004E0BB6843F00103BB6000BF3B681B7C012B04D1FB6843F48073FB6004E0BB6843F48073BB6000BF3B6893F82430CD
:402380001A467B689A627B6801229A627B68FA68C3F8B0207B68BA68C3F8B4203B68DB69C3F30B027B68C3F800213B681B6AC3F30B027B68C3F804213B6893F82530002BB3
:4023C0000ED03B68187A3B6893F826103B689A6A3B68DC6A3B681B6B0093234600F00EF87B683A691A6000237B617B6918461C37BD4690BD143308100100660080B584B0A8
:4024000000AFBA607B600346FB730B46BB73FB7B002B49D0FB7B032B23D1BB7BB9681846FFF774FEBB7BBA6819463720FFF7AEFDBB7B002B02D0BB7B012B06D1BB7B0022E0
:40244000B9681846FFF77CFC05E0B87B00230022B968FFF7E5FCBB7BB9681846FFF7EEFD22E0BB7BB9681846FFF750FEBB7BBA6819463720FFF78AFDBB7B002B02D0BB7B95
:40248000012B06D1BB7B7A68B9681846FFF758FC05E0B87BBB697A68B968FFF7C1FCBB7BB9681846FFF7CAFD00BF1037BD4680BD81F0004102E000BF83F0004330B54FEA67
:4024C00041044FEA430594EA050F08BF90EA020F1FBF54EA000C55EA020C7FEA645C7FEA655C00F0E2804FEA5454D4EB5555B8BF6D420CDD2C4480EA020281EA030382EA04
:40250000000083EA010180EA020281EA0303362D88BF30BD11F0004F4FEA01314FF4801C4CEA113102D0404261EB410113F0004F4FEA03334CEA133302D0524263EB43038B
:4025400094EA050F00F0A780A4F10104D5F1200E0DDB02FA0EFC22FA05F2801841F1000103FA0EF2801843FA05F359410EE0A5F120050EF1200E012A03FA0EFC28BF4CF0C9
:40258000020C43FA05F3C01851EBE37101F0004507D54FF0000EDCF1000C7EEB00006EEB0101B1F5801F1BD3B1F5001F0CD349085FEA30004FEA3C0C04F101044FEA445289
:4025C00012F5800F80F09A80BCF1004F08BF5FEA500C50F1000041EB045141EA050130BD5FEA4C0C404141EB010111F4801FA4F10104E9D191F0000F04BF01460020B1FAC6
:4026000081F308BF2033A3F10B03B3F120020CDA0C3208DD02F1140CC2F10C0201FA0CF021FA02F10CE002F11402D8BFC2F1200C01FA02F120FA0CFCDCBF41EA0C019040A4
:40264000E41AA2BF01EB0451294330BD6FEA04041F3C1CDA0C340EDC04F11404C4F1200220FA04F001FA02F340EA030021FA04F345EA030130BDC4F10C04C4F1200220FA8E
:4026800002F001FA04F340EA0300294630BD21FA04F0294630BD94F0000F83F4801306BF81F480110134013D4EE77FEA645C18BF7FEA655C29D094EA050F08BF90EA020F2B
:4026C00005D054EA000C04BF1946104630BD91EA030F1EBF0021002030BD5FEA545C05D14000494128BF41F0004130BD14F580043CBF01F5801130BD01F0004545F0FE4139
:4027000041F470014FF0000030BD7FEA645C1ABF194610467FEA655C1CBF0B46024650EA013406BF52EA033591EA030F41F4002130BD00BF90F0000F04BF0021704730B52C
:402740004FF4806404F132044FF000054FF0000150E700BF90F0000F04BF0021704730B54FF4806404F1320410F0004548BF40424FF000013EE700BF42004FEAE2014FEAA3
:4027800031014FEA02701FBF12F07F4393F07F4F81F06051704792F0000F14BF93F07F4F704730B54FF4607401F0004521F0004120E700BF50EA010208BF704730B54FF0DB
:4027C00000050AE050EA010208BF704730B511F0004502D5404261EB41014FF4806404F132045FEA915C3FF4DCAE4FF003025FEADC0C18BF03325FEADC0C18BF033202EB2D
:40280000DC02C2F1200300FA03FC20FA02F001FA03FE40EA0E0021FA02F11444C1E600BF70B54FF0FF0C4CF4E06C1CEA11541DBF1CEA135594EA0C0F95EA0C0F00F0DEF836
:402840002C4481EA030621EA4C5123EA4C5350EA013518BF52EA033541F4801143F4801338D0A0FB02CE4FF00005E1FB02E506F00042E0FB03E54FF00006E1FB03569CF05A
:40288000000F18BF4EF0010EA4F1FF04B6F5007F64F5407404D25FEA4E0E6D4146EB060642EAC62141EA55514FEAC52040EA5E504FEACE2EB4F1FD0C88BFBCF5E06F1ED8B6
:4028C000BEF1004F08BF5FEA500E50F1000041EB045170BD06F0004646EA010140EA020081EA0301B4EB5C04C2BFD4EB0C0541EA045170BD41F480114FF0000E013C00F334
:40290000AB8014F1360FDEBF002001F0004170BDC4F10004203C35DA0C341BDC04F11404C4F1200500FA05F320FA04F001FA05F240EA020001F0004221F0004110EBD370E3
:4029400021FA04F642EB06015EEA430E08BF20EAD37070BDC4F10C04C4F1200500FA04F320FA05F001FA04F240EA020001F0004110EBD37041F100015EEA430E08BF20EA6B
:40298000D37070BDC4F1200500FA05F24EEA020E20FA04F301FA05F243EA020321FA04F001F0004121FA04F220EA020000EBD3705EEA430E08BF20EAD37070BD94F0000F66
:4029C0000FD101F00046400041EB010111F4801F08BF013CF7D041EA060195F0000F18BF704703F00046520043EB030313F4801F08BF013DF7D043EA0603704794EA0C0FD8
