:020000041000EA
:4000000000400208230100100D00000085010010000000000000000000000000000000000000000000000000000000008101001000000000000000008101001081010010E9
:400040008101001081010010810100108101001081010010810100108101001081010010810100108101001081010010810100108101001081010010810100108101001060
:400080008101001081010010810100108101001081010010810100108101001081010010810100108101001081010010810100108101001081010010810100108101001020
:4000C00010B5064C2378002B07D1054B002B02D0044800E000BF0123237010BD3C06000800000000BC250010084B10B5002B03D00749084800E000BF07480368002B00D149
:4001000010BD064B002BFBD09847F9E70000000040060008BC250010E8000008000000007047FFF7FDFF72B60F4C104DAC4209DA21686268A368043B02DBC858D050FAE7C8
:400140000C34F3E70A490B4A0020521A02DD043A8850FCDC084809490860BFF34F8F00F005F900F01DF8FEE7C0250010D82500103C060008140800080000000808ED00E0A5
:40018000FEE7FEE700B504207146084202D0EFF3098001E0EFF30880043001F0E1FBFEE710B562B6014800F067F9FEE70000081010B5002001F050F910BDC04670B56249F8
:4001C000E0239B00CB580F2213401A00D0329200525807210A40032A05D0042A06D0002A12D15A4814E05A4A106811E01A00C0329200554952581F210A40112A06D0132A7C
:4002000004D0FA20C00103E0524801E080200002002B36D14C4BB222D2009A5801211140B125ED005A59120F032422405B591B0F1C4207D0444C63591B0F03242340012BDC
:4002400002D102E0012300E00023002B01D0002901D1032A4BD13C4BB022D2009D58AD03AD0B3D495958C904C90C9C58240E01231C40013401F07CFE6843210001F078FE88
:4002800035E0012B33D1304BC822D2009A5801251540C024E4001A59120F03210A401B591B0F194207D028490B591B0F03210B40012B02D102E0012300E00023002B01D049
:4002C000002D01D1032A12D11F4DC022D200AB587F210B40A958090A1F263140AC58240C3440584301F044FE210001F041FEE0239B00154AD3581B0903221340D840144C14
:400300006060164B1D692D0AFC32154001351969090E013101F02CFEA060290001F028FE0500E06020610E4BC0180E4901F020FE20750D4BE818FA21890001F019FEA06109
:40034000C003E06170BDC0460000264000127A00C000000800366E0184050000000021403F420F0040420F00E703000010B5284801F0F8FD274CB022D200A3585B005B0807
:40038000A350E0218900635830208343635080235B04A350204A214BE250A02292010433E250FF221E4BE25001F0CAFDC0225200A35801218B43A35000F0FAF9FFF7FEFE26
:4003C000B0235B055B78002B04D0B0235B055B78DBB200E02123212B03D1124B0022DA605A60114C22008021042000F0DBFD2000103000F06FFE0D4B1A685123D35C002B3D
:4004000002D00B4800F0DCFE00F00AFB10BDC046042500100000264001000200840500008C050000E00023405806000810080008D82000108023024AD3580320184070472C
:400440000000214010B501F01CFB084980228C58074B2340074C23438B508823034AD358DB06FAD501F011FB10BDC04600002140FCFF00000100FA0570B50500830504D0A9
:40048000E821FF310F4801F03DFA01F0FAFA0400FFF7D0FF032801D1FFF7D4FF0A4AB0239B00D55080215058084B03400848034353508823044AD358DB06FAD5200001F02C
:4004C000E4FA70BD0C21001000002140FCFF00000300FA05FEE7C0460323084A1360084A136080221206074B1A608022D202064B1A60064A064B1A607047C046102031407B
:400500001420314000001D4100031D4101001180000E1F4130B587B0934A116808230B431360924C03E0012001F0E0F9013C8E4B1B695B0701D4002CF5D1002C01D18C4BB5
:4005400000E00023002B02D00520FFF7C3FF8948A021C900435803229343023A13434350854A116808688823CB58C31818688349084018601368186884241B59C0180368C1
:400580001B021B0A80256D042B430360106805680359EB1818680140196013683E229A5C002A06D07348E02189004258753CA24342503E229A5C002A06D06E48E021890026
:4005C00042583024A24342503E229B5C002B07D06849E02292008B588020000603438B500021012000F06AFF0021022000F066FF0021032000F062FF0021042000F05EFFF4
:400600000021002000F05AFF01A85D4903000A0032CA32C312CA12C300F07EFF002802D00420FFF757FF5349564A8B588020000603438B50544801F02BF8002802D00420A7
:40064000FFF748FF4B4C514BE158514A0A40E250E158504A0A40E250E25880252D062A43E250043BE1584C4A0A40E250E1584B4A0A40802189010A43E250E2588021090288
:400680000A43E250384A1168454B0B401360002001F038FC434BE2582A43E250E158012291430A43E2506421002001F071F9324B1B683F229A5C052A03D900213A4A986810
:4006C00081509A6874215B5AD21811682B4B0B408C2189010B431360274B1B687322995C703A8A40110070229A5C7220185C82400A43802109060A438021C9009868425027
:400700009A6852583F229A5C392A06D970229A5C01210A402549986842509A6874215B5AD2185168154B0B40C42189010B435360114B1A687323D35C032199407023D35C14
:400740007220105C1C0084402143012003400B43802109060B438021C9009068435093685B5807B030BDC0460000274020A1070002004A000000264010080008FF00FFFF3C
:4007800024210010087F0000400D030004050000FEFCFFFFFFFF00FFFFF0FFFFFF8FFFFFFFFCFFFF0C050000140C0000E40C000070B58EB09621002001F0EAF801F0C0F8C6
:4007C000002814D101F0ACF8C0235B00344AD358DB0705D41100334A8B585B005B088B502F49304A8B588020000603438B50012001F020FB2C4A516C2C4B0B40E82189015A
:400800000B435364536C1B0AFF2213403A2B07D1254A516C264B0B40E82189010B43536401AC34220021200001F02EFC214D22000021280000F0FCF834220021200001F0FA
:4008400023FC22000121280000F0F2F8FFF762FE24220021200001F017FC2100280000F081FA154D22002B00143343CB43C243CB43C243CB43C22100104800F073FA220057
:400880002B00383323CB23C223CB23C223CB23C221000B4800F066FAFFF71EFE0EB070BD000026400C05000000002740FF00FFFFFFC5FFDF00003240242100108002324030
:4008C00000033240214B984230D00ED8402831D004D800281FD010282AD031E080282BD080235B00984229D02AE0194B984229D007D8A0231B0698420DD0164B984212D06C
:400900001EE0154B98420AD0144B984209D0144B984215D101E0002016E0124814E0124812E0124810E0A020C0030DE007480BE00F4809E00F4807E00F4805E0034803E007
:400940000E4801E0A420C0037047C04606005200010000F0090000A0040000F0050000F0030000F0010052000200520003005200010050000200500005005200FF005200E7
:4009800070B5124B1A683123D35C002B04D1C421FF310F4800F0B6FF0C4B1D682C00B423EB582A6A944663441B68002B0BDB094B1868FFF787FF6B6801229A6063689B68C6
:4009C000002BFBD100E0044870BDC0461008000880210010E80700080200500010B50D4B1861002805D002230370FD33437000234380094B1B6850229A5C002A08D05122DF
:400A00009B5C002B04D04F3A0449002000F092FC10BDC046E8070008100800086101000810B502481430FFF7D9FF10BDE8070008F8B54F464646C0B406000D001400002882
:400A400000D16FE1002A00D16EE1072903D94521B84800F057FF2368012B03D94621B54800F050FF0F2362689A4303D04721B14800F048FF237A1F22934303D04821AD48F4
:400A800000F040FFE368032B03D94921A94800F039FF2369012B03D94A21A64800F032FF6369012B03D94B21A24800F02BFFA369012B03D94C219F4800F024FFE369032BE8
:400AC00003D94D219B4800F01DFF236A012B03D94E21984800F016FF636A012B03D94F21944800F00FFFA36A012B03D95021914800F008FFE36A032B03D951218D4800F0D1
:400B000001FF236B072B03D952218A4800F0FAFE2768072D03D98849884800F0F3FE012F04D9CA218900854800F0ECFE002F03D10123AB40736002E00123AB40B3606768EB
:400B4000072D04D9F12189007C4800F0DBFE0F233A009A4303D07A49784800F0D3FEA900784B1A687D23D35C9B191A6890460F2291468A40404690430200484607408F4042
:400B800017431F60277A072D04D9A22189006B4800F0B8FE1F233A009A4303D06A49674800F0B0FE674B1A689369F31ADB0952691B01D318032D0AD81968E8001F22824078
:400BC00091431F22174087400F431F600AE02A1F5968D2001F20904081431F20074097400F435F60E768082D04D9DD21C900534800F088FE032F03D95449504800F082FEFE
:400C00006900504B1A687C23D35C9B191A689046032291468A40404690430200484607408F4017431F602769082D03D94849434800F068FE012F03D94649404800F062FE30
:400C4000B36901221100A9408B431740AF401F43B76163699846072D03D93F49374800F051FE4346012B03D93C49344800F04AFE34487E230268D35C9B191A680127390096
:400C8000A9408C468A43110042463A40AA400A431A606B0010229046984403210B00424693406246134399467F2203689A5C9446B44463461A684B469A43A3693B40AB4053
:400CC0001A43E3691940434699400A4363461A6002688023D35CF6183368FF22944693431800236A1F40636A5A00022313403B43A26A9100042739400B431F00E36AD90075
:400D0000182319403B000B43226B520161460A401343AD00FE2292001540AB4003433360002002E00E4800E00D480CBC90469946F8BDC046C02100102703000000220010E5
:400D4000C50300001008000889020000E9060000690600006A060000030400000404000001005A0070B505000C0000285DD000295DD0FF230A689A4303D099212D4800F084
:400D8000C1FDFF2322699A4303D09A21294800F0B9FDA3685B0D03D09B21264800F0B2FD63685B0A03D09C21224800F0ABFDE3695B0F03D09D211F4800F0A4FD236A5B0F3F
:400DC00003D09E211B4800F09DFD1B4A11688B69EB1ADB0949691B01CB18216829607D211068415C6918E06808607E211068415C6918206908607F211068415C69186069ED
:400E000008607C211068415C6918A06808606168A961116880228A5CAD18A2692A60E2691A60226A5A60002002E0044800E0034870BDC046C02100101008000801005A0056
:400E400070B504000D000A4B1A68B423D3581B181B68002B0ADA0B0C03D00649064800F051FD2D042D0C6560002000E0034870BD10080008D50200004022001001008A003E
:400E800070B505000C000368002B01DA002300E0084B002B0BD1EA60230C03D00649074800F030FD2404240CAC60002000E0014870BDC04601008A00BB020000402200108D
:400EC00070B505000C1E03D19921084800F01AFD074B1A68B423D3585B191B68002B03DAEB682360002000E0024870BD802200101008000801008A0070B504000D00234B96
:400F00001A683123D35C834236D9002936D00B68DB0635D13123D35C984204D3C421FF311B4800F0EFFC194B1B681A6AB0215B5A5C431419174E34602B68DA0800216868AC
:400F400001F0A2F800212000FFF77AFF3468002D03D111490E4800F0D5FC2A0000212000FFF78EFF00280DD10A4B18680021FFF767FF002808D108E0084806E0074804E090
:400F8000064802E0064800E0054870BD1008000840220010000800089303000003018A0001018A0010B50400002A17D1002915D1124B1A683123D35C984204D3C421FF31F5
:400FC0000F4800F09FFC0D4B1B681A6AB0215B5A5C4314190B4B1C6000200EE0002A09D0002909D0074B59609A60191D2000FFF783FF02E0044800E0034810BD1008000860
:40100000402200100008000803018A00F0B583B00D001C4B1B68DC68236883422DD947097B01C01A012383401E00002903D100F028FD019001E000230193124B1868036809
:40104000002B01DA002300E00F4B002B0ED16368BF00DF193B68334203D0B3433B60002400E00A4C0021FFF7EBFE00E0084C002D04D1019800F009FD00E0064C200003B0E1
:40108000F0BDC0460008000801008A00020188000301880004018A000A4B1B68DA68136883420BD943095901401A0121814052689B009B580B4203D0034802E0034800E05B
:4010C00003487047000800080101880004018A0000018800034B1B68002B01D1014B18607047C0460C080008F0B5474680B404000F0090461E002D4B1B68002B03D1B52194
:401100002B4800F0FFFB294B1B682C2060431C18FF22150035402560330A13406360360CA660244B1A683123D35C9D4204D3C421FF31214800F0E6FB1E4B1A68B023D35A09
:401140006B43116A8C466344236166683223D35C9E4204D3E021FF31174800F0D3FB154B1B681D6A80367601AD196561A668330C04D0FF214900104800F0C4FB330C03D02C
:401180000E490D4800F0BEFB3604330C1E43AE604346E36127620023A361069B002B02D000229B5EA38104BC9046F0BD0C080008C02200101008000840220010FF010000B5
:4011C000F0B58FB0041E03D15221294800F09AFB6368032B03D95421254800F093FBE36A002B03D15821224800F08CFB236B002B03D159211E4800F085FB07AA130021000F
:4012000061C961C321C921C302AD290023001433C1CBC1C141CB41C10821535E0CAE3380144B1B6836215B5E07998C466344B370089B0D930B9B0A980096A26AE16AFFF751
:4012400053FF2B69E868002200920021FFF74CFF216B300000F0E8FA0023F25E002A05DB1F231A401E3B9340034A13600FB0F0BDC02200101008000800E100E0F8B505009E
:401280000F0016001C00002A03D1FD21224800F039FB224B1B68002B03D1FE211E4800F031FB1E4B1B682C2128004843181879435918012213004D68AB401B044568AA40DE
:4012C00015000269002A20D08F69002F1FD11268002A01DA002200E0114A002A19D132681204120C134333600369DE6001238B614C6204692B0C03D00A490B4800F002FB24
:401300002A04120CA260002004E0084802E0084800E00748F8BDC046C02200100C08000801008A00BB0200004022001004028A0007028A0070B504000D0016000F4B1B68DB
:40134000002B04D1AF2149000D4800F0DBFA0B4B1B682C2060431C18236A002B04D1B1214900074800F0CEFAE369B34204D9236AB6009D51002000E0024870BD0C080008AD
:40138000C02200100A028A0070B582B0040000230193002804D1D221FF312D4800F0B2FA2369002B04D1E9214900294800F0AAFA6369002B04D1D421FF31254800F0A2FA94
:4013C000236A002B04D1EA214900214800F09AFA6269D5682B0C24D01B041360136820691C4B1A68B423D358C3181B68002B18DA01A9FFF765FD00280ED1019803681E0CB9
:40140000FF221340E269934207D29B00226AD358002B02D0984700E0002631002069FFF70FFD2D042D0C0FD063691D601B68636A002B03D098470023636203E0A36A002B8D
:4014400000D098470023A36163691B6802B070BDC02200101008000810B50400084B1B68002B04D1B221FF31064800F04BFA044B1B682C2060431818FFF786FF10BDC046F2
:401480000C080008C022001010B50400094B1B689B6CC340DB0703D4BE21074800F032FA044B1B681B691034A402E3580F20184010BDC0461008000800230010134B1A6869
:4014C0003C23D35C83421DD9042904D94B1EFF3B9BB2132B18D8FF290CD91F2319400C4A0300C0339B009950D03080000423835000200AE007231940D0308000044BC1501C
:40150000002002E0034800E002487047100800080000264001004A0070B5041E03D14A494A4800F0EFF9B023DB00494AD358002B00DA87E0474B22689A4203D946494348CE
:4015400000F0E0F923689B039B0BE279002A02D08022520400E000221343B022D2003C498B50A2883D4B9A4204D98C218900374800F0C8F922893A4B9A4203D93949334872
:4015800000F0C0F9A388DB04D90C23891B04364A13400B43354A2E498B50A37A0F2B04D98E218900294800F0ADF9E37A0F2B03D92F49264800F0A6F9A289284B9A4203D925
:4015C0002C49224800F09EF9A37A0F211940E27A1201FF2313400B43A289120226490A401343A27B1207C02189050A401343B122D20017498B50A379042B03D91F49134850
:4016000000F080F9228A164B9A4204D9912189000E4800F077F90E4819494558194B1D40A3791B02E022D20013402B4343504558154B1D40238A1B040B4A13402B43435044
:40164000002000E0114870BD1F0200004023001000002640FFFF030029020000FF1F0000FF010000310200000000FF0184050000390200003A02000000FF1F00430200000A
:401680008C050000FFF8FFFFFFFF00FE03004A0070B505003149324A8B588020000603438B502C0003E0012000F020F9013CB223DB002A4AD3585B0701D4002CF3D1274935
:4016C000B122D2008858274B03408020800503438B50002D01D0002C0CD02049B022D2008B588020000603438B5003E0012000F0FDF8013CB223DB00184AD358DB0701D493
:40170000002CF3D1002D01D0002C08D01349B122D2008B58C020800503438B5013E00F4BB121C90058580F4A02408020800502435A5008395A58520052085A5008495A58BA
:40174000520052085A50002D03D0002C03D0002002E0002000E0044870BDC046000026408C050000FFFFFFCF02004A0070B505000C001A4B1B6828229A5C012A15D182088B
:4017800007211000884327D19200AD1AED00FF20A8401B6820339A181168AC4023004B40184004004C40146016E03A229B5EDBB2994203D176210A4800F0A4F8074B1B6819
:4017C0001B68072215408022120615438022920194466444A400E55070BDC04610080008C823001070B504000D000B4B9A680B4B9A420CD1002904D13821FF31084800F094
:4018000081F81034054BA400E058E55003E01034A400044BE05870BD00ED00E000000008C823001000000010F0B5474680B482B0061E01914AD04368032B03D9322126484D
:4018400000F060F80023F05E002804DBB178FFF78DFF002400E0214C0023F15E7368002912DB88081E4FC0308000C55903221140C900FC3290468A4095439A014346134042
:401880008B402B43C35116E089B20F220A40083A92080632920013481018476803221140C900FF252A008A4097439A012B0013408B403B4343600B4B9A680B4B9A4206D1C0
:4018C0000023F05E0199FFF78DFF00E0034C200002B004BC9046F0BDC82300100100560000E100E000ED00E00000000810B5034B1B78584300F0BCF810BDC046D40000089B
:4019000001BEFEE770B50D00044C18220100200000F0C2FBA5610020FFF7F2FF00060008054B802212069A649B6C002B01DB002000E002487047C046000027400300460091
:40194000054B8022120198585B68FF221A4202D08023DB021843704700002640FEE7C04610B50A4B0268DA6142681A6282685A62C2689A620269DA6242691A6382695A6355
:40198000C2699A63FFF7EAFF10BDC04600060008F0B5474680B4002801D0192300E064238B429B415B42304D2C682268A826A45BA41822680327BA433B401A4322602C6834
:4019C0002268A45BA2181668284CA046264016602C682668AA229446A25A96193268BA43134333602A6813686546525BD3181A68444614401C60002805D010291BD921295D
:401A00001BD8012024E0184B1B6855229A5C914215D956229A5C914213D957229A5C914211D958229A5C91420FD959229B5C99420DD804200CE000200AE0022008E0002080
:401A400006E0012004E0022002E0032000E00520054A1268526813680F218B430343136004BC9046F0BDC04610080008FFFCFFFF0230800803D001300238FCD1C046C04667
:401A80007047EFF3108072B6704780F31088704710B5B0235B059B899BB2002B04D0B0235B059B899BB201E080235B0080225200934215D1184C23681968683A9B58C918DC
:401AC0000B680F208343963A13430B6021680C689C23CB58E318196881430A431A6019E00D4C2368196898229B58C918B02040050A4BC2580A4B13400A681343C0229200B3
:401B000013430B60226811689C23D358CB18054A82581A6010BDC0461008000848180000FFFCFFFF4418000030B5B0235B059B899BB2002B04D0B0235B059B899BB201E0BC
:401B400080235B0080225200934215D1184C23681968683A9B58C9180B680F208343953A13430B6021680C689C23CB58E318196881430A431A6019E00D4D2B6819689822D3
:401B80009B58C918B0246405C12040012258094B13400A681343C022920013430B602A6811689C23D358CB1822581A6030BDC04610080008FFFCFFFFB0235B059B899BB258
:401BC000002B04D0B0235B059B899BB201E080235B008022520093420DD1104B1B681A6898215B58D21811680D4B0B40C021C9010B43136011E0094B1B68196898229B5888
:401C0000C918084BB0225205D258074B13400A681343C022920013430B60704710080008FF8FFFFF18180000FFFCFFFF30B5B0235B059B899BB2002B04D0B0235B059B8910
:401C40009BB201E080235B008022520093420DD1134B1B681A6898215B58D2181168114B0B408021C9010B43136018E00C4D2B68196898229B58C918B02464050A48225890
:401C80000A4B13400A681343C022920013430B602A6811689C23D358CB1822581A6030BD10080008FF8FFFFF4C180000FFFCFFFF10B5B0235B059B899BB2002B04D0B02382
:401CC0005B059B899BB201E080235B0080225200934217D10020FFF7D7FBB0235B055B78002B04D0B0235B055B78DBB200E02123222B03D8002803D1013004E0012002E0A3
:401D0000002000E0012010BDF8B50700012803D93D493E48FFF7F6FDB0235B055B78002B04D0B0235B055B78DBB200E021239DB2B0235B059B899BB2002B04D0B0235B0526
:401D40009E89B6B201E0802676000020FFF79CFB002814D180235B009E4212D1222D12D82B4B1B685C682B4821582B4B19403B068022520413400B432350002404E0274CE3
:401D800002E0264C00E0254C80235B009E4201D1222D03D880235B009E4232D01C4B1A683123D35C002B04D1C421FF311C48FFF7A9FD174B1B681D6A80235B009E4203D125
:401DC000002F05D0174A06E0002F03D0164A02E0164A00E0164A01212800FFF751F800280FD10B4B1A68B423D3585B191B68002BF7DBEB681B0E1B06A0221206934200D138
:401E000000242000F8BDC0464C0A00000C2400101008000818F00000FFFFFFFE0400420080210010010100300300000C010000300100000CF8B50500012804D9822109010F
:401E40002948FFF75FFDFFF733FF002849D0FFF718FE0700002D11D10021244B244AD150E823DB00B0225205D65CF6B20120FFF74BFF041E19D1FFF70BFE16E0B022520581
:401E80001C4BD0581A4B194958501B49565CF6B21A481A581F218A4314390A431A500320FFF724FDFFF7C2FE0024002C15D11049124A8B581F20834306401E438E50002D0C
:401EC00002D1FFF779FE08E00720FFF70FFDFFF72BFE0020FFF718FF04003800FFF7D5FD00E0074C2000F8BD0C240010307F00000000264010180000410700001CFF000059
:401F000003004200042805D10B4A116804230B4313600FE0094B1A681168A023D358CB180006C022920410401860034A136804218B4313607047C04610E000E01008000874
:401F40000749C02252008B589B009B088020C00503438B508B588020000603438B50704700002640014B18607047C04610080008002243088B4274D303098B425FD3030A35
:401F80008B4244D3030B8B4228D3030C8B420DD3FF22090212BA030C8B4202D31212090265D0030B8B4219D300E0090AC30B8B4201D3CB03C01A5241830B8B4201D38B037D
:401FC000C01A5241430B8B4201D34B03C01A5241030B8B4201D30B03C01A5241C30A8B4201D3CB02C01A5241830A8B4201D38B02C01A5241430A8B4201D34B02C01A524128
:40200000030A8B4201D30B02C01A5241CDD2C3098B4201D3CB01C01A524183098B4201D38B01C01A524143098B4201D34B01C01A524103098B4201D30B01C01A5241C30876
:402040008B4201D3CB00C01A524183088B4201D38B00C01A524143088B4201D34B00C01A5241411A00D20146524110467047FFE701B5002000F006F802BDC0460029F7D04C
:4020800076E770477047C04603008218934202D019700133FAE77047030030B5002A0DD00C7801335D1E013A2C700131002CF5D19A189A4202D01C700133FAE730BD0000AB
:4020C000F8B5C046F8BC08BC9E467047F8B5C046F8BC08BC9E4670470300000001000000010000000000000005036000040000000100000000000000010000000604600077
:4021000008000000C8070008B101001073797374656D5F70736F63365F636D30706C75732E630000F4010000140004010A00090508000000630100001300000000000000B6
:4021400000000000680000000000000000000000000000001212000004000000000000000000000000000000000000BA0000000000000000000000000000000000001D1DDB
:4021800047656E6572617465645F536F757263655C50536F43365C70646C5C647269766572732F7065726970686572616C2F6970632F63795F6970635F6472762E68000035
:4021C00047656E6572617465645F536F757263655C50536F43365C70646C5C647269766572735C7065726970686572616C5C6770696F5C63795F6770696F2E630000000038
:4022000047656E6572617465645F536F757263655C50536F43365C70646C5C647269766572735C7065726970686572616C5C6770696F5C63795F6770696F2E6800000000F2
:4022400047656E6572617465645F536F757263655C50536F43365C70646C5C647269766572735C7065726970686572616C5C6970635C63795F6970635F6472762E680000ED
:4022800047656E6572617465645F536F757263655C50536F43365C70646C5C647269766572735C7065726970686572616C5C6970635C63795F6970635F6472762E630000B2
:4022C00047656E6572617465645F536F757263655C50536F43365C70646C5C647269766572735C7065726970686572616C5C6970635C63795F6970635F706970652E630010
:4023000047656E6572617465645F536F757263655C50536F43365C70646C5C647269766572735C7065726970686572616C5C70726F745C63795F70726F742E6300000000CA
:4023400047656E6572617465645F536F757263655C50536F43365C70646C5C647269766572735C7065726970686572616C5C737973636C6B5C63795F737973636C6B2E63E2
:402380000000000047656E6572617465645F536F757263655C50536F43365C70646C5C647269766572735C7065726970686572616C5C737973636C6B5C63795F737973630A
:4023C0006C6B2E680000000047656E6572617465645F536F757263655C50536F43365C70646C5C647269766572735C7065726970686572616C5C737973696E745C63795F0E
:40240000737973696E742E630000000047656E6572617465645F536F757263655C50536F43365C70646C5C647269766572735C7065726970686572616C5C737973706D5CA8
:4024400063795F737973706D2E6300000000204000002440000000400000000000002340000030400000314000009F40000022400000104002020202020202020210101D2C
:40248000800017007500FF030602063604102000000000007FC0000000040000000000000019324B647D00804000080B100000000000FF012002001F00800004FF08101805
:4024C000001000140018001C4044484C50000000081000000800000004000000041000000012000004210000002100000016000040114002C41300138013A0132000000093
:402500001C0000000000214000002540000001400000344000002440000031400000324000001F410000234000001140010101010101010101101010800019005500F00092
:402540000501053B04101C01010000000FC000000004000001010101011D3A57789600082000101208000000001F00000010000F002000023F06080E00080009000A000B1C
:4025800024282C3034000000100000009000000088000000080000008000000004F0000000F00000400200002005A000D00100018001A00120000000100000000000000080
:4025C0000000001000000008C0000000E0250010C0000008400500003C060008D80100000048E80100127A0000093D0000093D0000093D0004000000A00F00000000D007A5
:40260000E9000010C10000100000000010B50004400B27D0144B1A68146AB023D15ACA00531AE3181B68002BF4DA3E220F4B1A600F4A104B1A60104B0621A322D200995056
:402640000E4A98509B58084B1A68106AB023D15ACA00531AC31800225A60084B064AD358002BFADA10BDC04610080008040126401E1F000008012640000026401C0500008E
:4026800010B54378FF2B20D100F02AFA04000F4B1A683123D35C042B04D8C421FF310C4800F036FA094B1A68116AB023D35A9B00CB18DB685A68116801230B4313601368C7
:4026C000DB07FCD4200000F0F3F910BD1008000880210010F0B585B001900291544B1A683123D35C002B04D1C421FF31514800F00FFA4F4B1B681E6AB4229A5897195022B6
:402700009B5C002B77D000F0F3F9050003283CD1474B1A683123D35C062B04D8C421FF31444800F0F5F9424B1968B023CB5A5A00D21853000A6A94466344B4228A58D318BF
:402740001B68002B23DB002000F0AAF93A4B98421FD03A4B1A6900230021012000F0B0F9002803D0364C17E0013400E00024002000F096F9304B984202D0324B9C42F3D90C
:40278000304B9C4207D92E4C06E0002404E02C4C02E02B4C00E00024002C46D100F0A0F90390294B294AD358002B13DA234A0121300000F06DF900280ED10298FFF726FF49
:4027C000019B002B0AD03B68002BFCDB00F098F9040004E01A4C02E0194C00E01C4C032D05D10121002000F073F90028F9D1039800F05EF919E000F073F905000F4A0121E8
:40280000300000F045F9002809D1019B002B08D03B68002BFCDB00F073F9040002E0084C00E00B4C280000F043F9200005B0F0BD100800088021001001018800E8070008FF
:4028400005005200EF4902001C0500000000264001005000F0B54F464646C0B4824B1A685468B0235B055B78002B04D0B0235B055B78DBB200E02123212B67D1B023D15A6C
:40288000CB005B1A116A8C46634419680029F5DADD6802212943D960B023D15ACB005B1A116A8C466344D968C9073ED5D9680904090C8C4684271168D559A846414409689D
:4028C000090A0904FF26360431400D0088261168894691598846C14449460968090A0906294365462943D9601168D359C9180A685E4B98461A4090252D012A430A605A4B12
:4029000099461A6813689C46925962441368414619400B002B4313604B461A681568D15969180B689359EB181B684F4B1A68B021555AEB005B1B156AAC46634400255D60EA
:40294000156A515ACA00531AEB185B68484A116904230B431361012801D030BF00E020BF414B1A68B023D15ACB005B1A116A8C46634419680029F3DAB021490549780029D3
:4029800004D0B02149054978C9B200E02121212932D1D968C90722D510688421525880180468324A1440DB681B0C1B02FF2109020B40234303602C4B19688823C8580B68DA
:4029C0009C46604403681A400D6AB023CC5AE1000B1BEB18DB681B0E1B021A430260224B1A68106AB023D15ACA00531AC318DA6802218A43DA6028E086235B00E358002B73
:402A000023D11C4807681C4BA321C9005E581B4A904615681A4A0260062058503E21424611600631174A9950164B134AD358002BFADA154A86235B00E2500E4B1F60A323E5
:402A4000DB000D4AD6500D4B1D60074B1A68106AB023D15ACA00531AC31800225A600CBC90469946F0BDC04610080008FF00FFFF00ED00E008012640000026400401264095
:402A80001E1F00001C050000AAAAAAAA0000000001B40248844601BC604700BF810E001001B40248844601BC604700BF9910001001B40248844601BC604700BF8B1A00103F
:402AC00001B40248844601BC604700BF7D12001001B40248844601BC604700BF0D10001001B40248844601BC604700BF831A001001B40248844601BC604700BF3504001064
:402B000001B40248844601BC604700BF8109001001B40248844601BC604700BF051900100000000000000000000000000000000000000000000000000000000000000000F5
:402B40000000000000000000000000000000000000000000000000000000000000000000000000000000000000000000000000000000000000000000000000000000000055
:402B80000000000000000000000000000000000000000000000000000000000000000000000000000000000000000000000000000000000000000000000000000000000015
:402BC00000000000000000000000000000000000000000000000000000000000000000000000000000000000000000000000000000000000000000000000000000000000D5
:020000041008E2
:4000000000780408EB0208100D00000051030810510308105103081051030810000000000000000000000000000000004D0308104D030810000000004D0308104D030810DA
:400040004D0308104D0308104D0308104D0308104D0308104D0308104D0308104D0308104D0308104D0308104D0308104D0308104D0308104D0308104D0308104D03081000
:400080004D0308104D0308104D0308104D0308104D0308104D0308104D0308104D0308104D0308104D0308104D0308104D0308104D0308104D0308104D0308104D030810C0
:4000C0004D0308104D0308104D0308104D0308104D0308104D0308104D0308104D0308104D0308104D0308104D0308104D0308104D0308104D0308104D0308104D03081080
:400100004D0308104D0308104D0308104D0308104D0308104D0308104D0308104D0308104D0308104D0308104D0308104D0308104D0308104D0308104D0308104D0308103F
:400140004D0308104D0308104D0308104D0308104D0308104D0308104D0308104D0308104D0308104D0308104D0308104D0308104D0308104D0308104D0308104D030810FF
:400180004D0308104D0308104D0308104D0308104D0308104D0308104D0308104D0308104D0308104D0308104D0308104D0308104D0308104D0308104D0308104D030810BF
:4001C0004D0308104D0308104D0308104D0308104D0308104D0308104D0308104D0308104D0308104D0308104D0308104D0308104D0308104D0308104D0308104D0308107F
:400200004D0308104D0308104D0308104D0308104D0308104D0308104D0308104D0308104D0308104D0308104D0308104D0308104D0308104D0308104D0308104D0308103E
:400240004D0308104D0308104D0308104D0308104D0308104D0308104D0308104D0308104D0308104D0308104D0308104D0308104D0308104D0308104D0308104D030810FE
:400280004D0308104D0308104D03081010B5054C237833B9044B13B10448AFF300800123237010BD6C7602080000000024960810084B10B51BB108490848AFF300800848AF
:4002C000036803B910BD074B002BFBD0BDE81040184700BF0000000070760208249608102C470208000000007047FFF7FDFF72B6104C114DAC4209DA21686268A368043B77
:40030000A2BFC858D050FAE70C34F3E70B490C4A00209142BCBF41F8040BFAE709480A490860BFF34F8F00F087F900F061F900F03BF8FEE76CB90A1084B90A106C76020800
:40034000608802080040020808ED00E0FEE7FEE700B504207146084202D0EFF3098001E0EFF30880043001F0BFFBFEE708B544F20803984206D045F2010398420AD0B0F53A
:40038000805F0AD10021084603F004F80022034B1A6008BD0122014B1A6008BD8876020808B52AF06BFE08BD10B586B062B6214800F070F901E02AF061FE1F4B1B78022B62
:4003C000F9D11E4802F0E8FC04F09EF800F0DAF901211B4801F0E2F81A4805F043FB184C0021204601F034F902460021204601F085F9044604F01EFA02460B46124805F040
:40040000BFFA124B43F8044F01930423ADF808301223ADF8143003AB01AA92E8030083E80300184603F018F94FF4FA7001F020FBD5E700BF6D03081000880208A1030810B2
:4004400000001D41387A0810407A08108876020808B5012000F02AFF08BD00BF704700BF5C4AD2F8803303F00F0303F1D00152F8212002F00702032A04D0042A05D092B9C7
:40048000554914E0554A116811E003F1C002514951F8222002F01F02112A06D0132A04D04FF4FA4103E04E4901E04FF400418BBB484BD3F8902502F00100D3F88825C2F3BB
:4004C0000172D3F8883513F0405F07D0414BD3F88835C3F30173012B02D102E0012300E0002303B108B9032A46D13A48D0F88025C2F31103D0F88425C2F30C02D0F8800550
:40050000C0F300600130B1FBF2F202FB03F2B2FBF0F131E0012B2FD12E4BD3F8402602F00100D3F80026C2F30172D3F8003613F0405F07D0274BD3F80036C3F30173012B31
:4005400002D102E0012300E0002303B108B9032A12D12048D0F8002602F07F02D0F80036C3F30423D0F80006C0F3044002FB01F2B2FBF3F2B2FBF0F1164BD3F88033C3F30C
:40058000011321FA03F215494A601648D0F89030C3F3072301330069000E0130B2FBF0F08860B2FBF3F3CB600B6103F5742202F23F220D48A0FB0202C2F387420A7503F205
:4005C000E7330A4AA2FB03239B098B61DB03CB61704700BF0000264000127A008C42020800366E010000214083DE1B43D34D621008B50D4801F0ACFEFFF730FFFFF730FFA2
:4006000000221146042000F0D5FB084800F0ACFC074B1B6893F8513013B1064800F014FD00F0A8F908BD00BFD080081090760208F8870208507A081008B501F0B2FA074ADE
:40064000D2F8883043F47003C2F88830BFF34F8FBFF36F8F01F0A9FA08BD00BF00ED00E010B504462146034801F0A2FE0028F9D010BD00BF00006640054BD3F80833C3F336
:400680000803002BF8D0024BD3F84003704700BF0000664008B518B1094AD062002000E0084858B9084B1B782BB9054802F0B0FA0122054B1A7008B902F0D4FA08BD00BFA4
:4006C000AC420208010016001078020838B504461D4B1A68916892F8703003F0010343F08043C1F800340369FF2B0AD89168B2F874200A44516821F47F411B029BB20B43F8
:400700005360114B1A68906892F87310032303FA01F592F8703092F8721003FA01F1294303F001030B4343F00043C0F800349368D3F80034054D0021284600F0E7FEA16819
:40074000284600F0E3FD38BDF887020800001D4108B5084B1B7963B90749084801F04EF9044B5B792BB90122024B5A710448FFF7ADFF08BD38780208B1070810847A081032
:40078000847C081008B5084B1B7913F0010F06D1FFF7DEFF044A137943F001031371034800F0ECFE08BD00BF3878020800001D4110B5094BD3F81042072C04D940F2316160
:4007C000064801F079F9044BC3F81042D3F81022D3F8103210BD00BF00001D41487C0810C0F30800B0FA80F0400970471F4B98422DD00CD840282ED003D8E8B1102828D018
:400800002FE0802829D0B0F5807F28D029E0184B984228D006D8B0F1204F0DD0154B984212D01EE0144B98420AD00133984209D0023B984215D101E0002070470F4870478C
:400840000F4870470F4870474FF4A0007047074870470D4870470D4870470D487047034870470C4870474FF4A400704706005200010000F0090000A0040000F001005200B4
:400880000200520003005200010050000200500005005200FF00520038B5124B1B6893F83130012B04D840F2C3110F4801F004F90C4B1D682A6AB5F8B03013442C46D5F8A5
:4008C000B420D358002B0BDB084B1868FFF78EFF6B6801229A6063689B68002BFBD138BD034838BDF8870208107D081040780208020050001A4B186128B102230370FF23F5
:40090000437000234380174B1B6893F850202AB300B583B0B3F93830ADF80030002301931149684601F06AF8BDF90030002B08DB590903F01F03012202FA03F30B4A42F86F
:400940002130084B1B6893F8513023B102220849012000F025FC03B05DF804FB704700BF40780208F88702089D47020800E100E05548020808B50248FFF7BCFF08BD00BF6F
:400980005478020838B505460C46FFF729FF002833D0002C33D0FFF763FD1A4B1A4A1A6000225A609D60DC60184B1B6893F85220EAB11968D3F88430CA58CB58C3F3072110
:4009C000120E531C01FB0333114901FB03F3114A12681149A1FB02218909B3FBF1F101F5195108314FF4807007F01EF838BD00214FF4807007F018F838BD084838BD074828
:400A000038BD00BF4078020800010005F8870208C0EA210190420208D34D62100600520008B5FFF739FF08BD10B50446FFF7D8FE00283AD0FFF714FD4FF0E0521C4B1A6009
:400A40001C4B1B7813F0FF0F04D0194A136843F480731360164B5C6000229A60DA60164B1B6893F85420DAB11968D3F88430CA58CB58C3F30721120E531C01FB03330F49FF
:400A800001FB03F30E4A12680E49A1FB02218909B3FBF1F101F69801002006F0C5FF10BD0021084606F0C0FF10BD074810BD00BF407802080B000016F887020860F59000E6
:400AC00090420208D34D62100600520038B505460C46FFF785FE00283DD0002C3DD0FFF7BFFC4FF0C0621E4B1A601E4B1B7813F0FF0F04D01A4A136843F480731360184B0A
:400B00004FF480725A609D60DC60174B1B6893F85320DAB11968D3F88430CA58CB58C3F30721120E531C01FB0333104901FB03F30F4A12680F49A1FB02218909B3FBF1F1E4
:400B400001F56171002006F06FFF38BD0021084606F06AFF38BD084838BD074838BD00BF407802080B000016F8870208808D5B0090420208D34D621006005200002861D036
:400B8000F8B5054600295FD00C460B6833F0FF0303D099212D4800F08FFF236933F0FF0303D09A21294800F087FFA3685B0D5B051BB19B21254800F07FFF636823F4FF73CB
:400BC00023F001031BB19C21204800F075FFE36913F0604F03D09D211C4800F06DFF236A13F0604F03D09E21184800F065FF184A11688B69EB1ADB0949691B01C8182668C1
:400C00002E60166896F87D60E768AF51166896F87E602769AF51166896F87F606769AF51166896F87C60A768AF516668AE61126892F88020A669AE50E269CA50236A43609F
:400C40000020F8BD034870470248F8BD507D0810F887020801005A0038B50B4B1B68D3F8B4301B58002B0DDA0D4604460B0C1B0423B140F2D521054800F01EFFA9B2616096
:400C8000002038BD024838BDF8870208D07D081001008A0038B50368002B01DA002300E0094B73B90D460446C2600B0C1B0423B140F2BB21054800F0FFFEA9B2A1600020F9
:400CC00038BD014838BD00BF01008A00D07D081038B504460D4619B99921084800F0ECFE074B1B68D3F8B4301B59002B03DAE3682B60002038BD034838BD00BF107E081042
:400D0000F887020801008A00254B1B6893F8313083423AD900293AD00B6813F01F0F38D170B50D4604461E4B1B6893F83130984204D340F2C3111B4800F0BEFE184B1B68C2
:400D4000186AB3F8B03004FB0304174E34602A68D2080021686804F099F900212046FFF77BFF346825B940F293310E4800F0A4FE2A4600212046FFF78DFF60B900210A4B2D
:400D80001868FFF769FF40B970BD084870470748704706487047064870BD054870BD00BFF8870208D07D08105878020803018A0001018A0010B504461346B2B9A9B9124BF5
:400DC0001B6893F83130984204D340F2C3110F4800F072FE0C4B1B681A6AB3F8B03004FB03240B4B1C60002010BD43B149B1084A51609360111D2046FFF786FF10BD05483B
:400E000010BD044810BD00BFF8870208D07D08105878020803018A002DE9F0411B4B1B68DC68236883422CD90D464609A0EB4610012303FA00F819B900F0B3FE074600E0B2
:400E40000027124B18680368002B01DA002300E00F4B83B9626852F8263018EA030F05D148EA030342F82630002400E0094C0021FFF7F2FE00E0084C25B9384600F095FED5
:400E800000E0064C2046BDE8F08100BF5878020801008A00020188000301880004018A002DE9F0411B4B1B68DC68236883422CD90D464609A0EB4610012303FA00F819B983
:400EC00000F06FFE074600E00027124B18680368002B01DA002300E00F4B83B9626852F8263018EA030F05D023EA080342F82630002400E0094C0021FFF7AEFE00E0084C0F
:400F000025B9384600F051FE00E0064C2046BDE8F08100BF5878020801008A00020188000301880004018A000B4B1B68DB681A6882420CD94109A0EB4110012202FA00F022
:400F40005B6853F82130184203D004487047044870470448704700BF587802080101880004018A0000018800024B1B680BB9014B18607047647802082DE9F8430446884643
:400F800091461D46089F2C4B1B681BB9B5212B4800F092FD284B1B682C2000FB04F01C18EEB21E50C5F3072363602D0CA560244B1B6893F831309E4204D340F2C311214860
:400FC00000F07AFD1E4B1B68196AB3F8B02006FB02162661666893F832309E4204D340F2DF11184800F068FD154B1B681D6A803605EB46156561A668330C1B0423B14FF403
:40100000FF71104800F058FD330C1B0423B140F2FF110C4800F050FDB3B243EA0646AE60C4F81C90C4F820800023A36117B1B7F90030A381BDE8F88364780208507E08100F
:40104000F8870208D07D0810F0B58FB0044618B95221274800F030FDA369072B03D95621234800F029FDE36A1BB95821204800F023FD236B1BB959211D4800F01DFD07AD61
:4010800004F114060FCE0FC537682F6002AD26460FCE0FC533682B60164B1B68B3F93620079B1344ADF83030089B0D93A26AE16A0CAD00953B460A98FFF75EFF002100915C
:4010C000069B0A460598FFF757FF216B284600F095FCBDF93030002B08DB590903F01F03012202FA03F3044A42F821300FB0F0BD507E0810F887020800E100E0F8B506467D
:401100000F461D4614461AB9FD211F4800F0D4FC1E4B1B681BB9FE211B4800F0CDFC1B4B1B682C2101FB063001FB07314B68012202FA03F31B04466802FA06F60269EAB15B
:401140008F69EFB91268002A01DA002200E0104AC2B92288134323600369DC6001238B614D620469330C1B0423B140F2BB21094800F0A2FCB2B2A2600020F8BD0648F8BDC5
:401180000648F8BD0548F8BD507E08106478020801008A00D07D081004028A0007028A00F8B505460F4616460E4B1B6823B94FF4AF710D4800F080FC0A4B1B682C2404FB9F
:4011C0000534236A23B94FF4B171074800F074FCE369B34204D9236A43F826700020F8BD0248F8BD64780208507E08100A028A0070B582B000230193044620B940F2D11142
:40120000284800F059FC236923B94FF4E971254800F052FC636923B940F2D311214800F04BFC236A23B94FF4EA711E4800F044FC6369DD682A0C20D012041A601B6820697B
:40124000194B1B68D3F8B430C358002B15DA01A9FFF73EFD60B9019803681E0CDBB2E269934206D2226A52F8233013B1984700E0002631462069FFF7EFFCADB275B16369F8
:40128000ADB21D601B68636A1BB198470023636202E0A36A03B198470023A36163691B6802B070BD507E0810F887020810B50446074B1B6823B940F2B111064800F0FCFB40
:4012C000034B1B682C2000FB0430FFF791FF10BD64780208507E081010B50446094B1B689B6CC34013F0010F03D1BE21064800F0E3FB044B1B681B691034A402185900F010
:401300000F0010BDF8870208907E08102DE9F8430E46074618B93A21754800F0CDFB1EB93B21734800F0C8FB002F00F0DA80002E00F0DA8032686F4B13401BB14A216C486B
:4013400000F0BAFB72686C4B13401BB14B21684800F0B2FBB36813F0FC2F03D04C21644800F0AAFBF36813F0FC2F03D04D21604800F0A2FB337D032B03D94E215C4800F0D9
:401380009BFBB369B3F5803F03D34F21584800F093FBF36D072B03D95021554800F08CFB336EB3F5803F03D35121514800F084FB736EB3F5803F03D352214D4800F07CFBD8
:4013C000736843F000437B60B3683B61F3687B613369BB61337D9B07FB61B3693B62336803F46068736803F00409002435E02546A31D06EB83035A68404B13401BB16321B4
:401400003B4800F059FBAB1D06EB8303596805F1200247F822105B6813F0012F0BD1B8F5606F08D1B9F1000F05D04FF47842344B23F8152003E00022314B23F81520726F29
:4014400002F11C7303F58033520093FBF2F31BB22C4A42F825300134E4B20F2CC7D9F36DC7F81832F36DC7F81032336EC7F82832336EC7F82032736EC7F83832736EC7F822
:40148000303296F87030DBB1B36EB3F1804F03D38221174800F010FBF36E23F44F0323F0FF031BB18321124800F006FB6FF04043C7F80433B36EC7F80033F36EC7F844338D
:4014C000D7F8003F3F2B02D0D7F8003F13B90B23C7F8003F336843F400133B600020BDE8F8830948BDE8F8830748BDE8F88300BFD07E08100811DF0001FE302088CA887E38
:4015000098870208B88702080100060038B50D46044618B9B521174800F0CEFA2CB30023236063604FF0031222616261A361E361236206E003F12002002144F8221001337C
:40154000DBB20F2BF6D90023C4F81832C4F82832C4F838325DB16FF04043C4F804330020C4F84003C4F8440338BD034838BD002038BD00BFD07E08100100060008B50368CD
:40158000002B0ADBD0F8A032002BFBDB036843F000430360022000F083FA08BD38B505460C46012904D940F27111064800F084FA012C04D16B6843F480336B6038BD012344
:4015C0006B6238BDD07E081038B505460C460F2904D94FF41571084800F06EFA0F2C07D8203455F8243013F0012F03D0002038BD002038BD012038BDD07E081038B50546C0
:401600000C460F2904D940F22221104800F054FA0F2C14D821462846FFF7D6FF80F0010010F0FF0F05D06B6813F0080F09D1002038BD6B6813F0040F05D1002038BD00204D
:4016400038BD012038BD012038BD00BFD07E081038B505460C460F2904D940F27B21064800F02AFA0F2C04D8603455F8240080B200E0002000B238BDD07E0810F8B5064601
:401680000C4615460F2904D940F27B31194800F013FA0F2C2BD8736813F0800F22D104F1200356F8233013F4806F1BD07768C7F302170137012303FA07F7736813F4807F0A
:4016C00002D1102F00D9102721463046FFF796FF20B9ADB2B5FBF7F52DB203E03FB295FBF7F52DB2044B33F81430ED1A2DB22846F8BD00BFD07E08109887020870B50546F9
:401700000C4616460F2904D94FF47771134800F0D3F90F2C1AD86B6813F0020F19D1324621462846FFF7AAFF07EE900AF8EEE77AF2EE046A67EEA66A094B53F8243007EE49
:40174000103AB8EEC77AC6EE877A04E0DFED057A01E0DFED047A17EE900A70BDD07E0810B88702080000000010B504460D4B1B6893F83C30834204D84FF4A1710A4800F095
:401780009BF904F1D003094A52F8230000F00700042806D1C03452F8240000F01F0040F4807010BDF88702080C7F081000002640B0F5C26F80F09B80B2F5C26F80F099805D
:4017C000B1F1807F80F09780F0B401244C4B1C70FF2805D800F00F000F26374607231DE0B0F5A06F05D200F00F030F260027384614E0C0F30325B0F5C06F07D20001C4B29F
:4018000045EA0403FF260027384607E0030203F470632B4340F60F7600273846FF2A09D81201D2B2104343F4E02347F0F00746F4702620E0B2F5A06F06D2120402F47022CC
:40184000134346F4702616E0140A240404F470241C43B2F5C06F06D2130503F47003234346F47F0607E0120602F07063234346F0706646F47026234A1268156AB2F8B020E0
:40188000C2EBC202AA58002AF5DA1D4A527822B11D4AD2F81C25002A1DDA41F61F741B4A146043F63D54043A1460A2F58272D2F8184524EA07073843C2F81805D2F8140503
:4018C00020EA06063343C2F814350D4B5960C2F81C15002000E00E480A4B1A68116AB2F8B030C3EBC3030B4400225A6005E0084870470748704706487047F0BC704700BF73
:4019000068780208F8870208000026400801264001004A0070B505460022214B1A70214B1B681A6AB3F8B030C3EBC303D418D358002BF4DA1C4B1A6841F61F739A4207D1A4
:401940001A4B1A6843F63D539A4203D0002602E0002600E00126164BD3F8202522F07F4000226260D6B1D0B165B90D4B5E684408002502460023E1FB06452046294603F09E
:40198000DFF970BD064B5A68540800250023E1FB00452046294603F0D3F970BD002070BD68780208F887020808012640040126400000264038B50D4B9A680D4B9A420FD12E
:4019C0000D46044621B940F237110A4800F074F804F11003064A52F8230042F8235038BD1030054B53F8200038BD00BF00ED00E000400208947F08100000081048B338B5F0
:401A000004460D464368072B03D93221134800F053F8B4F900306268002B08DB5201D2B203F1604303F5614383F8002305E003F00F035201D2B20A49CA540A4B9A680A4B2C
:401A40009A4208D12946B4F90000FFF7B3FF002038BD06487047002038BD00BF947F081014ED00E000ED00E0004002080100560010B5044605E0084B186800F089F8A4F5B4
:401A80000044B4F5004FF6D8044B186800FB04F000F07EF810BD00BFA8420208A442020808B5034B1B7800FB03F000F071F808BDA042020801BEFEE738B50D46044C182284
:401AC0000146204603F0DEFFA5610020FFF7F2FFC84C0208024B1B685B6801229A607047F8870208FEE700BF08B50268254BDA6142681A6282685A62C2689A620269DA623F
:401B000042691A6382695A63C2699A631E4A916AD963D16A1964516A5964516B9964926BDA64F1EE103A13F0900F27D0026A154B1A65426A5A65826A9A65C26ADA65026BAF
:401B40001A66426B5A66826B9A66C26BDA66026C1A67426C5A67826C9A67C26CDA67026DC3F88020426DC3F88420826DC3F88820C26DC3F88C20026EC3F89020FFF7B2FF20
:401B800008BD00BFC84C020800ED00E0000000000230800803D001300238FCD100BF00BF7047EFF3108072B6704780F3108870474FF0B0539B899BB223B14FF0B0539B89BC
:401BC0009BB201E04FF48073B3F5807F15D1174A13681868D3F89810435823F00F0343F00203435013681968D3F89C208B5823F00F0343F002038B50704710B40B490B68BA
:401C00001C68D3F898000A4B1B6823F440732258134343F4407323500B681A68D3F89C3004490968D1505DF8044B7047F887020848180016441800164FF0B0539B899BB204
:401C400023B14FF0B0539B899BB201E04FF48073B3F5807F15D1164A13681868D3F89810435823F00F0343F00303435013681968D3F89C208B5823F00F0343F003038B5040
:401C8000704730B40A4803681D68D3F8984009490B6823F440732A59134343F440732B5103681A68D3F89C300968D15030BC7047F8870208201800164FF0B0539B899BB293
:401CC00023B14FF0B0539B899BB201E04FF48073B3F5807F0BD10D4B1B681968D3F898208B5823F4E04343F4C0438B507047074B1B681868D3F89810054B1B6823F4407396
:401D00004258134343F4407343507047F8870208181800164FF0B0539B899BB223B14FF0B0539B899BB201E04FF48073B3F5807F0BD1114B1B681968D3F898208B5823F4FF
:401D4000E04343F480438B50704730B40A4803681D68D3F8984009490B6823F440732A59134343F440732B5103681A68D3F89C300968D15030BC7047F88702084C18001661
:401D800008B54FF0B0539B899BB223B14FF0B0539B899BB201E04FF48073B3F5807F17D10E20FFF799FA4FF0B0535B7813F0FF0F04D04FF0B0535B78DBB200E02123222BC2
:401DC00002D818B9012008BD012008BD002008BD012008BD10B50446012804D940F262710F48FFF769FE1CB90E4B5869C00F00E000200D4B1B6893F844307BB1012C0DD104
:401E0000084B9B6913F0804F05D1064B9B69002B03DA012010BD012010BD002010BD00BFD87F081000002640F887020838B5154B1B6893F8443023B30D460446072804D912
:401E400040F2CC711048FFF737FE0E4B1B6893F8443023B10D4B9B6903F0070300E00023DBB29C420DD00948826922F0070104F007020A43826125B19C4202D9C820FFF72D
:401E80000FFE38BDF8870208D87F08100000264010B30246C3680BB303680BB330B40579114B03EB85035C682346002103E0934205D019465B69002BF9D1012000E000205D
:401EC00080B124B9084B03EB85056A6000E04A6111610023536105E000207047002070470020704730BC70477478020850B310B402460479164B03EB840359680B4602E012
:401F0000934204D05B69002BFAD1002000E00120D0B18A420ED14B6933B10D4A02EB8404636000221A610FE0094B03EB84040023636009E01A69596951615A6922B11B6994
:401F4000136101E0002070475DF8044B704700BF7478020830B583B004460D46022808D9042806D0032804D040F6B2112848FFF7A3FD6B1EDBB2012B08D9042D06D0082D06
:401F800004D040F6B3112248FFF796FD214800EB84004468042D12D0012D1AD111E0A3681D420AD1E3681A6800925B6801932368294668469847174B9C61646902E000200F
:401FC00000E0002014B3144B9842E8D1012DE6D11CE0022D01D104E01C466369002BFBD103E00C4B9C6904B1246900200CE0A3681D4208D1E3681A6800925B68019323682C
:402000002946684698472469002CF0D103B030BDD87F081074780208FF00420070B50546012804D94FF4E0711D48FFF745FD1D4B5B682BB101210020FFF78CFF044600E049
:4020400000242CBBFFF7ADFD0646164B5B681BB104210020FFF77EFF134A136923F004031361012D01D030BF07E020BF0D4B1B7803B120BF01220B4B1A703046FFF795FD27
:40208000084B5B684BB108210020FFF763FF04E002210020FFF75EFF044C204670BD00BFD87F08107478020800ED00E0FF00420008B5FFF776FD074B5A6807490A4042F4D4
:4020C00068525A605A68114059605B68FFF76DFD08BD00BF00002640FF00FC0FF8B50546012804D940F64C213948FFF7E5FC4FF0B0535B7813F0FF0F04D04FF0B0535B7881
:40210000DBB200E021239CB24FF0B0539B899BB223B14FF0B0539F89BFB201E04FF480770E20FFF7D9F898B9B7F5807F12D1222C12D8284B1B6858684FF21801435823F059
:4021400080722B0603F0807313434350002604E0214E02E0204E00E01F4EB7F5807F01D1222C02D8B7F5807F2FD01A4B1B6893F83130012B04D840F2C3111848FFF79CFC38
:40218000144B1B681C6AB3F8B0301C44B7F5807F02D125B1124A05E01DB1124A02E0124A00E0124A01212046FEF774FD68B9094B1B68D3F8B4301B59002BF8DBE36803F04E
:4021C0007F43B3F1204F00D100263046F8BD00BFD87F0810F887020804004200107D0810010100300300000C010000300100000C70B50446022806D0052804D040F20271B2
:402200001E48FFF759FCFFF7BBFDA0B3FFF7C9FC0646022C07D10120FFF760FF054678B9FFF7C6FC0CE0164A536923F0070343F0030353613420FFF733FCFFF76BFD002527
:40224000ADB90F494B6923F0070204F0070313434B61022C02D1FFF72FFD08E09120FFF71FFCFFF7E9FC0020FFF738FF05463046FFF79BFC00E0034D284670BDD87F081053
:402280000000264003004200F8B50446012804D94FF402612A48FFF70FFCFFF771FD00284AD0FFF77EFC07468CB9002147F63073244AD1504FF0B05393F84067F6B20120E8
:4022C000FFF70CFF0546D8B9FFF772FC18E01E4B19681C4A47F63073D1504FF0B05393F84167F6B24FF61C71535823F01F0343F00B0353500320FFF7D3FBFFF70BFD002597
:40230000B5B910494FF61C728B5823F01F0306F01F061E438E5014B9FFF7CEFC08E00720FFF7BEFBFFF788FC0020FFF7D7FE05463846FFF73AFC00E0044D2846F8BD00BFD9
:40234000D87F0810000026401018001603004200014B1860704700BFF887020810B4D0F8003303F00F03072B06D900230DE0D0F84043CC54013300E000239342F7D306E036
:40238000D0F8404321F8134001339342F8D35DF8044B704710B51446D0F80833C3F308039A4200D31C462246FFF7D8FF204610BD036813F4006F01D0802200E04022D0F87D
:4023C0000832C3F30803934203D0C0F84012012070470020704700BF10B4D0F8003203F00F03072B06D900230DE0CC5CC0F84042013300E000239342F7D306E031F8134044
:40240000C0F8404201339342F8D35DF8044B704710B51446036813F4006F01D0802200E04022D0F80832C3F30803D31AA34200D81C462246FFF7D0FF204610BD2DE9F843FE
:4024400005460C46036813F4006F02D04FF0800801E04FF04008D5F8007207F00F07A26A012A19D9D4F82490E262561EB9F1000F00D026B940F273512548FFF71DFB3246DF
:4024800049462846FFF7C4FFA36A1B1AA362072F00D9400048446062D5F80832C3F30803984533D0A36A012B30D10023A362072F02D8636A1E7801E0636A1E88FFF771FB4F
:4024C000C5F840624FF40073C5F8803FD5F8803FFFF76BFBD5F8883F23F4007222F0010242F4007623F4EE6323F0030323B140F22A410848FFF7E0FAC5F8886F236843F001
:4025000002032360236B0BB101209847BDE8F88388810810C88108102DE9F04105460C46036813F4006F01D0802600E040267608A769D4F81C8017B1B8F1000F04D14FF417
:4025400099613148FFF7B8FA424639462846FFF721FF236A03442362E3691B1AE36173BBA368FBB1E3689E4201D8013E00E05E1E2B6813F4006F01D0802300E040239E4273
:4025800004D34FF420712148FFF796FAD5F8043323F0FF03F6B21E43C5F804630123C5F8C83F02E00023C5F8C83F636823F001036360236B33B304209847BDE8F081A1694E
:4025C000D5F8002302F00F02072A00D940000844A0619E4216D95C1E2B6813F4006F01D0802300E040239C4204D34FF420710748FFF762FAD5F8043323F0FF02E3B213431B
:40260000C5F80433BDE8F08188810810C8810810002800F0A48170B50546002900F0A18116460C460B78022B03D93F21A248FFF743FA637B023BDBB2062B03D940219E4873
:40264000FFF73AFAA37B3BB1022B05D0032B03D041219948FFF730FA94F82130012B03D942219548FFF728FA94F82830012B03D943219148FFF720FA2378012B06D86368DA
:40268000083B082B94BF0023012307E0A37F2BB16368013B062B94BF002301231BB145218548FFF709FAA368053B042B03D946218148FFF701FA6369FF2B03D947217E48E4
:4026C000FFF7FAF9A369FF2B03D948217A48FFF7F3F9A37C6BB1237833B9A368092B05D1A37B2BB1012304E0012302E0012300E000231BB14A217048FFF7DEF9636B23F42B
:40270000366323F00D031BB14C216B48FFF7D4F9E36B23F4EE6323F003031BB14D216648FFF7CAF92378022B01D1A37F13B16268013A00E00022237F13B14FF4803100E0FD
:402740000021A368082B02D84FF4006300E000230B4302F00F02134343F000732B60226B2B6813F4006F01D0802300E040239A4203D362215048FFF79FF9A26B2B6813F450
:40278000006F01D0802300E040239A4203D363214948FFF791F9626A2B6813F4006F01D0802300E040239A4203D364214248FFF783F923781B0603F040732B64637F0BB15E
:4027C000402200E00022A37C13B14FF4806300E000231343227C12B14FF4807200E000221343627C12B14FF4007200E000221A43E36A013B1B0403F470231343627B013AD0
:4028000002F007021343A27B120102F030021343AB64237B13B14FF4807200E00022E37B23B92378022B03D1012302E0012300E0002313B14FF4007300E000231A43A3680D
:40284000013B03F00F031343C5F80033227DA3691B0403F47F031343C5F81033E26AD5F8003303F00F0303339A4201D3102A03D97A211148FFF720F9E37F23B12378012BEB
:4028800003D0002302E0002300E0012313B14FF4807200E00022637B013B03F007031A43A37B1B0103F0300313436B64237B2BB14FF4807203E000BF0C8208100022A36801
:4028C000013B03F00F0313432278012A02D14FF4803200E000221343C5F8003294F83030C5F8043394F8203013B14FF0007200E0002294F82130012B02D14FF0807300E04C
:402900000023134394F82820012A02D14FF4803200E00022134394F8242013432B6594F83830C5F80432636B23F4926323F002031B051B0DC5F8C83FE36B23F08C035B0514
:402940005B0DC5F8883F76B1002070603060B060F0603062F0623063044B736370BD04487047034870BD002070BD00BFEFCDAB000160AA000B694A69934202D34869181AEE
:402980007047CA694869101A184470472DE9F04107460D46036813F4006F02D04FF0800801E04FF040084FEA5808D7F80863C6F308062C6926E00134EB689C4200D10024E6
:4029C0006B699C420FD12B6B0BB1082098476B699C4208D10023C7F8C83F0CB1013C13E0EC68013C10E0D7F84023D7F8003303F00F03072B02D8AB681A5502E0AB6823F833
:402A00001420013E002ED6D12C61EC6829463846FFF7B0FF201A804519D908B1441E00E000243B6813F4006F01D0802300E040239C4204D34FF420710648FFF73DF8D7F82A
:402A4000040320F0FF03E0B21843C7F80403BDE8F08100BFC881081038B504460D46D0F8003E13F0080F35D0D0F8CC3F13F448730AD04A681A434A60C0F8C03FD0F8C03FFF
:402A80000B6B0BB110209847D4F8CC3F13F4006F09D06B6843F400636B604FF40063C4F8C03FD4F8C03FD4F8CC3F13F0010F11D0EB6923B129462046FFF72EFD05E0AB686A
:402AC0001BB129462046FFF761FF0123C4F8C03FD4F8C03FD4F8003E13F0040F2ED0D4F88C3F13F4A0630AD02A681A432A60C4F8803FD4F8803F2B6B0BB120209847D4F8E0
:402B00008C3F13F0010F08D029462046FFF796FC0123C4F8803FD4F8803FD4F88C3F13F4007F0BD00022C4F8882F2B6823F001032B60EA622B6B0BB10220984738BD00BF43
:402B400038B5012902D0082942D047E0284B1B78012B45D00320FEF7E7F9264B984241D001F07EFC01283FD0022006F0DBFE0546FFF717F8204B186028F082FA0446062894
:402B800015D0022D09D1022015F030F8032C01D0052C0ED178B1194C12E0012015F026F8022C0AD058B9FFF739FA144C08E0002406E0124C04E0002402E0104C00E00F4C91
:402BC0000E4B9C4211D10C4B1868FEF7EEFF0CE0094B1868FEF7E9FF002406E0074C04E0064C02E0054C00E0044C204638BD00BF0088020801018800B0780208FF004200C7
:402C000008B50248FFF772F908BD00BFBC430208B0B110B50B4A5060C36A03B193600024094B1C70094B1C70094B1C60094B1C7000F0A8FB084B1C70084B1C70204610BD88
:402C400007487047B078020810880208148802081888020815880208FF870208048802080100160070B59AB03F4D15AC28686968AA68EB680FC4286920604C22002102A8A7
:402C800002F004FA394B029315AB049342F61013ADF8143005238DF81630354B5B681B69069341F2960307931B23ADF82030ADF8223003238DF8243004238DF82530062364
:402CC0008DF8263010238DF827308DF828308DF829307223ADF84C3001238DF850302548FFF7D6F806F017FE08A806F07FFE0346002836D1204B03931D4B5B68996B89B10F
:402D00000B460DF12A0220311E685D689C68D868166055609460D060103310328B42F3D11B88138002A806F009FE0346B0B90122124B1A700023124A1370124A13700C4B02
:402D40005B681A6A00929B6ADB88ADF804300823ADF8063068460EF073FE034600210A4A116018461AB070BD4C82081099370810B0780208BC4302085C4D02080088020844
:402D8000088802080988020818880208014B9867704700BF00F03D4018B1034AD060002070470248704700BFB07802080100160008B51BF05FFE034B1B680BB100B198479E
:402DC00008BD00BFBC78020848B108B5B1F5FD7F07D20A46044902F04EF9002008BD03487047024808BD00BF07080016010016002DE9F04FADF5077DB1F1805F03D38D1822
:402E00009D4CA54210D9B1F1A05F03D38D189B4CA54209D99A4CA14240F20F818D1804F20124A54200F20E81049317460E468046944B5B6913F0804F10D0924B5C6904F061
:402E40000704022C24D10520FFF7D2F900908E4B9842F8D002940123039323E04FF61C73884AD35803F01F034FF0B05292F84027D2B2D31A18BF012303937BB90120FFF77B
:402E800003FA814B9842F9D000900523029309E00294012303930023009303E00523029300230093794B009A9A4204D140F2D5117748FEF701FE06F17046730A01935C021E
:402EC00000210320FDF7A8FF0028F9D10546824683E0B44213D3BD4211D218F805200DF1180E0EF8032041B904F180521278D2B218F805E0724500D00121013506E004F1CD
:402F0000805212780DF1180E0EF803200134013301E000210B46B3F5007FDAD3002959D0009B002B56D1049B002B48D14FF0C80B05955D46DDF804B00BF500294FEA49298A
:402F40004846FDF771FD8246013D0120FEF7A8FD0AF4A403B3F5A40F01D1002DECD1059D4C4B9A4505D1FDF75BFD4B4B9842FAD08246BAF1000F17D14FF0C80B5B46A3466A
:402F80001C4606A94846FDF7A1FD8246013C0120FEF786FD0AF4A403B3F5A40F03D1002CEFD15C4600E05C463A4B9A4511D1FDF737FD394B9842FAD0824601200AE0019B59
:402FC00003F5002006A94002FDF7DCFC8246012000E00120019B01330193009B23B9BAF1000F01D1BD4294D308B1FEF773FD00210320FDF755FF0028F9D1009B33BB214BB4
:403000005B6913F0804F09D0029B022B06D10220FFF7EEF800901C4B9842F8D0194B1B6813F4000F12D1039B83B90020FFF72CF90090154B9842F8D008E000230093DFF8ED
:403040006CA003E000230093DFF860A0009B63B9124B9A450BD004339A4508D0BAF1000F01D1002004E00E4802E00E4800E00E480DF5077DBDE8F08F000010100080001466
:40308000FF070016000026400400420003004200608308100100500002005000020052001300160012001600010016000600520048B108B5B1F5FD7F07D20A4601230449DF
:4030C000FFF796FE08BD03487047024808BD00BF070800160100160070B5C0B006460C4615464FF480720849684601F0C4FF05E016F8012B6A401DF80250013C002CF7D19E
:40310000284640B070BD00BF6082081008B50022FFF7E2FF08BD00BF002070470288AE2303FB02F3A3F26F33024AA2FB0323DB080B807047CDCCCCCCB0F9002042F64B0301
:4031400003FB02F3044A82FB0302DB17C3EB2233C3F1BD030B807047AD8BDB680020704708B514F073FB08BD08B5FEF799FC08BD084B1B685B6BB3F90030002B08DB5909A7
:4031800003F01F03012202FA03F3034A42F82130704700BFB478020800E100E00A4B1B685B6BB3F90030002B0DDB5A0903F01F03012101FA03F32032044941F82230BFF3AC
:4031C0004F8FBFF36F8F7047B478020800E100E0024BD3F8000500F00300704700002640024BD3F81C05C00F704700BF0000264008B5FEF78FFB08BD70B504460D46164663
:403200000320FDF791FE054B984205D0324629462046FEF7CDFA70BD014870BD0101880003004A00431A002BB8BF5B4293422BD310B4194BD3F83C35C3F30903884207D927
:40324000411A01EB5201B1FBF2F29A1A0FD50AE0091A01EB5201B1FBF2F21A4440F2FE318A4202D803E0002201E040F2FF320A4CD4F83C1521F47F7121F00301C2F30900B7
:403280000143C4F83C1502E00023D81A7047981A5DF8044B704700BF0000264008B5034B1A684FF40041FFF7BDFF08BDD443020810B500F089FF0220FFF768FD0A4C236899
:4032C0000A49586BFEF79AFB23685B6BB3F90030002B08DB590903F01F03012202FA03F3034A42F8213010BDB4780208B12D081000E100E00420704708B5FEF752FC08BD35
:4033000008B5FEF752FC08BD08B5FEF787FE08BD08B50021FEF78AFD08BD00BF704700BF704700BF00207047004870471100160000487047110016000048704711001600B9
:40334000004870471100160000487047110016000048704711001600004870471100160000487047110016000048704711001600004870471100160000487047110016001D
:40338000704700BF08B5024800F09CFD08BD00BFB8430208F8B5022872D8002972D10022134606E03B4CE45C012C01D90132D2B20133002BF6D0012A0CD1374B1B681C6855
:4033C00001EB8102930023445B681B79023BDBB2012B59D8314B1B78002B57D1304B1970E0B92D4F3C68236801EB8105AA009D186668C1EBC1014B001E44B1882982216815
:40340000114449686468E45A0C8039680C682244526849680B445B8853801EE001281CD11D4F3C68236801EB8105AA009D186668C1EBC1014B001E44B189298221681144D9
:403440004D68616819440989298039680C682244526849680B445B895380124B18700E4B1B6818680E4B1B7803EB83039A0010440AF084F8034650B90121084A117006E018
:40348000094B04E0084B02E0084B00E0084B1846F8BD00BF08880208B478020809880208FE870208158802080100160002001600FF00160070B439B9144B1B681B689968E6
:4034C000CE7F00231D460EE0104B1B681B68D968CE7FF6E7CA5C52B10133CC5C1B2C01D0134400E00125B34201D2002DF2D05DB101338279CA54002204E0D4180134855C2B
:403500000D550132052AF8D970BC7047B478020870B504460EF0AEFA054620BB134B1968086A228902EB82029300143B03445A6812F0007F17D0E67B1B695A68CB69D21A1B
:4035400006EB4606B318A28821680948184401F092FDE37B074AD35C012B04D1064A137843F002031370284670BD00BFB47802080C88020804880208FF87020830B587B07E
:4035800002891A4B1B685B699B889A4229D1044601AB07C883E807000022ADF81020A289ADF8122040228DF814201846FFF7B0FF054680B923681B7803F002039BB22BB1CA
:4035C0000B4B1B6821460B48984704E0084B1B68214609489847094A137803F0FE03137000E00025284607B030BD00BFB4780208B8780208050001000600010010880208BE
:403600004288531E9BB2112B1AD84178D1B910B40F4B1868046A02EB82029300143B23445A6812F0007F0FD01B695A68C369D31A01EB41011944074B5B5A1380002004E021
:40364000012070470120704700205DF8044B7047B47802080C880208C8B1104B1B68196A038903EB83039B00143B0B445B6813F0007F0ED100B587B001AB00210491059130
:4036800007C883E807001846FFF742FF03E00E2070470120704707B05DF804FBB478020800B583B00023ADF804308389ADF800300389ADF8023012238DF80430084B1B7857
:4036C00013F0010F09D129B18DF8051068460DF0FBFA02E0C0680DF017FB03B05DF804FB1088020810B4044688B10023194606E0104A52F82320944200D1012101330D4A1D
:403700001279934206D20029F2D0002003E00021094800E0002050B949B9064B1B792BB9044A42F823400133137100E003485DF8044B70471C880208010016000300160016
:4037400070B506460D460020044606E0084B53F824302946304698470134054B1B799C4204D2044B1B7813F0010FEFD170BD00BF1C8802081088020883792BB10020704712
:40378000C25C32B9013300E00023052BF8D9002070470120704700BF70B58CB004460D46BF4A137843F00103137044F20803984200F04C823CD842F20403984200F0F080AC
:4037C00019D841F20203984200F0178108D8B0F5805F79D041F20103984200F00B8157E341F20303984200F0418141F20403984200F049834CE343F2190398425BD00AD8CE
:4038000043F20103984200F0BC8043F21203984200F0B7803CE344F20603984200F01A8200F2CD8144F20403984200F032812FE345F20C03984200F0DD821BD845F2010391
:40384000984200F046820AD844F20A03984200F0B38144F21003984200F0B18118E345F20203984200F0808245F20303984200F0B7820DE345F21003984200F0F6820AD8AD
:4038800045F20E03984200F0EA8245F20F03984200F0E882FCE245F21703984200F0EB8246F20103984200F0118245F21403984240F0EE82DCE2084606F0DCF9784A137822
:4038C00003F0FE031370E3E2764B1E683046FFF753FF60B130460AF03FFE724E00213068FFF7E8FD01213068FFF7E4FD37E06E4B1A68936A1B791BB34FF0B05191F8043630
:4039000003F03F0391F8050600F03F0043EA801391F8030600F01F0043EA003391F8001601F07F0143EA4143126B13705E4A1168096BC3F3072048701268126B1B0C9370C2
:40394000594E3368186B0AF007FE33680021186BFFF7B0FD33680121186BFFF7ABFD524B1B68986A02300BF00DFA504A05AB1068516803C305A80AF013FE02224C4B1A702F
:4039800086E200234A4A13704A4A13704A4A137043F212039C4240F07B82FFF731F977E2464B1B6813F0010F40F072820023ADF814308DF816303C4E33689B6A93F9003061
:4039C0008DF8143005A80AF005FE33689B6A93F901308DF8143001238DF81530FF238DF8163005A80AF0F6FD344A136843F0010313604DE2FFF7A4FE4AE24978304B1B8844
:403A0000ADF81430002319E02E4A32F81320ADF808209DF8092012B92B48825C00E00022012A0AD9274A12F81320914205D1254A32F81330ADF8143002E00133002BE3D0E5
:403A40009DF81530FF2B05D104D140F2CA311F48FEF732F8BDF81430ADF82030ADF81C30C3F3072329781A4AD15411E20B78002B40F00E820B7A33B9164B0022DA809A8032
:403A8000154A1A604B60064A137803F0FE031370FEE149790A4B1B88ADF81430002337E010880208D8430208B47802089C8308100088020809880208D47802081888020813
:403AC000A4830810FC87020808880208A883081014880208DC7802086C760208AF4A32F81320ADF80C209DF80D2012B9AC48825C00E00022012A0AD9A84A12F81320914295
:403B000005D1A64A32F81330ADF8143002E00133002BE3D09DF81530FF2B05D104D140F2CA31A048FDF7C8FFBDF81430ADF82430ADF81430C3F3072369789B4AD154EB78ED
:403B4000002B40F0A5816979984B1B88ADF81430002319E0914A32F81320ADF810209DF8112012B98E48825C00E00022012A0AD98A4A12F81320914205D1884A32F81330FC
:403B8000ADF8143002E00133002BE3D09DF81530FF2B05D104D140F2CA318248FDF78CFFBDF81430ADF82830ADF81430C3F3072301217F4AD1546BE1FFF7C2FD68E1AB7EC1
:403BC000002B3FD12B7E012B02D10022794B1A70E97E764B1B88ADF81030002319E06F4A32F81320ADF814209DF8152012B96C48825C00E00022012A0AD9684A12F8132091
:403C0000914205D1654A32F81330ADF8103002E00133002BE3D09DF81130FF2B05D104D140F2CA315F48FDF747FFBDF81030ADF82C30ADF81030C3F30723FF2B02D0297ECF
:403C40005D4AD15402225D4B1A7021E102225B4B1A701DE1FFF774FD594B1B7813F0010F00F01681534B1B78012B03D10222514B1A700DE1032B03D100224E4B1A7007E1FE
:403C8000022B40F0058100224A4B1A704D4B1B685B684D4A1178C1EBC10203EB42039A79002A00F0F5809B88002B00F0F180474B1B78002B40F0EC800120FFF76BFB00285E
:403CC00040F0E68001223B4B1A70E1E0FFF738FDDEE00B88ADF800309DF801301BB902212F4AD15405E023B940F286312D48FDF7E3FE6A782988294B23F812106B78002152
:403D0000334AD15403EB4302324E91192D4B1B6818692B7803EB430303F584531033034433F8060F9B7890538B70687800EB400002213044FFF7EAF96B7803EB430333449E
:403D40009B7898420BD0244B1B680021234898476B7803EB4303981900229A53827029462046FFF7EDFC93E00B88ADF804309DF805301BB900210A4AD15405E023B940F297
:403D800086310848FDF798FE6B780021084AD15429462046FFF7D4FC7AE000BFFC87020808880208A883081004880208A4830810D478020809880208D87802080088020827
:403DC00010880208B4780208FE87020815880208148802080C880208B8780208040001000B88ADF814301723ADF8163005A80CF077FF4DE00846FFF7C1FB014620B92946B6
:403E00002046FFF79DFC01462846FFF749FC294B1B7813F0110F04D0274B1B682946204698472A89234B1B7813F0010F11D0531E9BB2112B0DD912238DF81830ADF8162091
:403E4000AB89ADF8143001238DF8193005A80CF03BFF184A137803F0FE03137018E0FFF76FFC15E0FFF76CFC12E0FFF769FC0FE0FFF766FC0CE00846FFF7C2FB29462046EA
:403E8000FFF75EFC04E00D4A137843F001031370084B1B7813F0110F09D0064A137803F0FE031370044B1B682946204698470CB070BD00BF10880208B8780208FF87020864
:403EC0000020704730B108B5034A10600348FFF709FC08BD02487047E8780208C13E08100100160038B50D4640F4004000040E4BD8614FF47A7403E0013C0120FDF7D0FD6F
:403F0000094B1B6C13F0010F01D1002CF4D144B1054B1A6C42F001021A64DB6A2B80002038BD024838BD00BF00003C400400160010B50F4B03EA004001430E4AD1614FF45C
:403F40007A7403E0013C0120FDF7AAFD094B1B6C13F0010F01D1002CF4D134B1054A136C43F001031364002010BD034810BD00BF0000FF7F00003C400400160070B582B036
:403F800005460A244FF4C05141F60260FFF7D0FF034630B90DF1060141F60260FFF7A2FF03460CB1013C00E0714B23B9BDF80620B2F5C05FE6D13BBB0DF1060141F60360C7
:403FC000FFF790FF0346F8B9BDF8062002F4806292B2CAB90A244FF4806141F60360FFF7A7FF034630B90DF1060141F60360FFF779FF03460CB1013C00E05D4B23B9BDF8A5
:404000000620B2F5806FE6D133B90DF1060141F60960FFF767FF0346002B43D1BDF8063023F03F039BB2AA78012A12D1E978012904D88EB2C6F1020294B201E00024022606
:4040400043F07003ADF806304A4BCB404A4A136012E0E97821B98EB2C6F1010294B201E00024012623F0400343F01003ADF80630424BCB40404A1360BDF80610314389B2F9
:40408000ADF8061041F60960FFF752FF0346EA78961B06F00306A20092B23243ADF8062037494A664FF0B052527812F0FF0F04D04FF0B0525278D2B200E02122212A53D09E
:4040C000304A128892B2002A4ED033B90DF1060141F60760FFF706FF034643BBBDF8063023F060039BB2ADF8063026490A88C2F3811243EA421323F428639AB2ADF8062042
:404100000B889BB2DB0103F4F063134323F4C0539BB2ADF806300988C1F3012143EAC121ADF8061041F60760FFF702FF034633B90DF1060141F60660FFF7D4FE03469BB9CF
:40414000BDF8061021F0C0018BB2ADF806300D4A1188C1F3011143EA8111ADF8061041F60660FFF7E5FE0346184602B070BD00BF040016000048E8018C4202080024F40064
:4041800000F03D401618001638B50D4641F2010141EA400141F60860FFF7CAFE044630B946F6370141F60F60FFF7C2FE04466801FDF776FC204638BD024A136F43F0100385
:4041C0001367704700F03D4070B59CB0134C13AD26460FCE0FC50FCE0FC533682B600AAD04F124060FCE0FC50FCE0FC533682B6001AD48340FCC0FC50FCC0FC523682B60A1
:4042000013A90748FCF7BAFC0AA90648FCF7B6FC01A90548FCF7B2FC1CB070BDE0830810000132408001324000023240F8B5002800F0E7800546774B5B6813F4003F01D02B
:40424000FDF736FF744C03E0013C0120FDF728FC724BDB6E0BB1002CF6D1704BD3F8A03013F0010F06D06D4BD3F8B43013F0010F40F0C980694BDB6E002B40F0C680FFF781
:40428000A3FF674901F5F833664AC3F8A4202A7842F42022C3F8A8204FF00112C3F8AC20D1F8003113F0010F40F0B1805B4B1B6F13F0080F0AD15C4B1B685C4A934207D9CE
:4042C0005B4AA2FB03231B0D013B02E0012300E00023534A12681BB1564941EA433300E0554B13434E4A13604A4B5B6913F0804F13D001210320FDF799FD464B5B69C3F3FD
:4043000080734E4A126892F844206AB163B1414A936943F08043936106E0404AD2F8C43043F00303C2F8C4303C4CD4F8A07047F4403343F03003C4F8A0304020FDF7B0FBD2
:40434000D4F8B03013F0010F0BD10123C4F8B0304020FDF7A5FB0323C4F8B0304020FDF79FFB27F4803727F0100747F4003646F020062A4BC3F8A0604FF4FA6403E0013C80
:404380000120FDF78DFB44F210032D4AD35813F0100F01D1002CF2D10CB1002400E0294C1CBB1E4A936E43F0080393660120FDF711FD18B947F4003646F0280626F480235F
:4043C00043F00103154AC2F8A030134E03E0013E0120FDF765FB114BD3F8B43013F0010F01D1002EF3D106B9164C1CB92846FFF7C5FD044664B929786878FFF7C5FE0446BC
:4044000006E0114C04E0114C02E0104C00E0104C2046F8BD00002640F07E0E0000F03D4000003C40060000019442020800093D0083DE1B43041A0080040A0080F8870208F7
:404440000000324004001600010016000300160002001600014B1868704700BF8C42020810B5002405E02046FDF77EF9032804D00134042CF7D9002010BD012010BD00BFE1
:40448000074BD3F8003503F00303012B03D0032B03D101207047012070470020704700BF0000264070B539B900240AE015F8010BFCF7D6F8013402E016460D460024B44225
:4044C000F4DB204670BD00BF70B561B900240FE0FCF7D2F8C0B2287001340A2808D00D2806D0013502E016460D460024B442EFDB204670BD08B502490248FEF7ADFA08BD47
:40450000248802080000664008B5114B1B785BB9104A11491148FEF77BF811491148FDF76DFA01220A4B1A700E4BB3F90030002B08DB590903F01F03012202FA03F30A4AB7
:4045400042F82130054A136843F00043136008BDEC780208248802084C84081000006640F54408108C7A081000E100E081F0004102E000BF83F0004330B54FEA41044FEAB1
:40458000430594EA050F08BF90EA020F1FBF54EA000C55EA020C7FEA645C7FEA655C00F0E2804FEA5454D4EB5555B8BF6D420CDD2C4480EA020281EA030382EA000083EA34
:4045C000010180EA020281EA0303362D88BF30BD11F0004F4FEA01314FF4801C4CEA113102D0404261EB410113F0004F4FEA03334CEA133302D0524263EB430394EA050F86
