:020000041008E2
:4000000000780408EB0208100D00000051030810510308105103081051030810000000000000000000000000000000004D0308104D030810000000004D0308104D030810DA
:400040004D0308104D0308104D0308104D0308104D0308104D0308104D0308104D0308104D0308104D0308104D0308104D0308104D0308104D0308104D0308104D03081000
:400080004D0308104D0308104D0308104D0308104D0308104D0308104D0308104D0308104D0308104D0308104D0308104D0308104D0308104D0308104D0308104D030810C0
:4000C0004D0308104D0308104D0308104D0308104D0308104D0308104D0308104D0308104D0308104D0308104D0308104D0308104D0308104D0308104D0308104D03081080
:400100004D0308104D0308104D0308104D0308104D0308104D0308104D0308104D0308104D0308104D0308104D0308104D0308104D0308104D0308104D0308104D0308103F
:400140004D0308104D0308104D0308104D0308104D0308104D0308104D0308104D0308104D0308104D0308104D0308104D0308104D0308104D0308104D0308104D030810FF
:400180004D0308104D0308104D0308104D0308104D0308104D0308104D0308104D0308104D0308104D0308104D0308104D0308104D0308104D0308104D0308104D030810BF
:4001C0004D0308104D0308104D0308104D0308104D0308104D0308104D0308104D0308104D0308104D0308104D0308104D0308104D0308104D0308104D0308104D0308107F
:400200004D0308104D0308104D0308104D0308104D0308104D0308104D0308104D0308104D0308104D0308104D0308104D0308104D0308104D0308104D0308104D0308103E
:400240004D0308104D0308104D0308104D0308104D0308104D0308104D0308104D0308104D0308104D0308104D0308104D0308104D0308104D0308104D0308104D030810FE
:400280004D0308104D0308104D03081010B5054C237833B9044B13B10448AFF300800123237010BDA47502080000000094810810084B10B51BB108490848AFF3008008481D
:4002C000036803B910BD074B002BFBD0BDE81040184700BF00000000A87502089481081078430208000000007047FFF7FDFF72B6104C114DAC4209DA21686268A368043B9D
:40030000A2BFC858D050FAE70C34F3E70B490C4A00209142BCBF41F8040BFAE709480A490860BFF34F8F00F0BDFB00F00DFA00F0DBF8FEE7F882081010830810A47502089D
:40034000F47802080040020808ED00E0FEE7FEE700B504207146084202D0EFF3098001E0EFF30880043001F039FEFEE780B483B000AF0346FB80B7F90630002B0BDB094958
:40038000B7F906305B09FA8802F01F02012000FA02F241F8232000BF0C37BD465DF8047B704700BF00E100E080B483B000AF78607B681B6823F000427B681A6000BF0C37BB
:4003C000BD465DF8047B704780B483B000AF78607B681B6823F000427B681A6000BF0C37BD465DF8047B704780B483B000AF786039603B68C3F30B027B68C3F8042100BF6A
:400400000C37BD465DF8047B704700BF80B483B000AF78607B681B6A03F0010318460C37BD465DF8047B704780B483B000AF78607B6801221A627B681B6A00BF0C37BD46D3
:400440005DF8047B704700BF80B483B000AF78607B681B6823F000427B681A6000BF0C37BD465DF8047B704780B500AF0348FFF7ABFF0348FFF798FF00BF80BD00001441A4
:400480000000104180B582B000AF786079680348FFF7AAFF00BF0837BD4680BD0000144180B500AF0248FFF7B1FF0346184680BD0000144180B500AF0248FFF7B5FF00BFFB
:4004C00080BD00BF0000144180B500AF0248FFF7BBFF00BF80BD00BF00001D4180B500AF07F064FE00BF80BD80B588B000AF62B61C491D4801F0D6FC1B4BB3F9003018461A
:40050000FFF734FF01E007F051FE184B1B78022BF9D1174803F026FD4FF00003FB61154BBB614FF000037B614FF07C533B61124B05221A6000F086FB03F00EFE0F4B1B68DC
:40054000586800230222002105F0BAF80023FB600B4B1B68042BFBD103F09CFF00F072FBF6E700BF8505081090780810AC780208DD04081033335340D87502083443020819
:40058000EC75020880B584B000AFFFF789FF0346FB73FB7B002B00F0B280FFF78BFF5A4B1B68DA0F13445B101A46584B1B689A4280F29880564B1A68564B1B689A4240F02E
:4005C0008B80554B1B680133534A1360534B1B681846FFF757FF0021514803F0FBFA00214F4803F073FB034607EE903AF8EEE77A4C4BC3ED007A4B4BD3ED007AFDEEE77AD7
:40060000C7ED017ABB881BB21A460021444803F0E5FB0246444B1A60444B01221A70444B1B68012B28D13D4B1B6801333B4A13603A4B1A683F4B1B689A4213D1324B1B68CC
:400640000133314A1360354B1A683B4B1B689A423ED1374B00221A602B4B1B6801332A4A136035E02D4B1A68334B1B689A422FD32F4B00221A602BE02D4B1B68002B27D103
:40068000264B1B68013B254A1360244B1A68294B1B689A4213D11C4B1B6801331A4A13601E4B1A68254B1B689A4211D1204B01221A60154B1B680133134A136008E0174BB6
:4006C0001A681E4B1B689A4202D8194B01221A600F4B00221A6012E00D4B1B6801330C4A13600CE0FFF7C0FEFFF7EEFE0A4B1B681946134804F0CCFF124B00221A6000BF8A
:400700001037BD4680BD00BFDC750208D8750208D0750208D4750208E8750208C075020800001D414078020830780208E4750208E0750208CC750208C4750208C875020810
:4007400034780810EC75020880B500AF0D4801F0FBFC00F01FF800F025F800220021042000F08CFE084801F01DF9084B1B6893F85130002B02D0064801F028F900F086FC2C
:4007800000BF80BD087C0810F4750208447802084478081080B400AF00BFBD465DF8047B704700BF80B491B000AFB04BD3F8803303F00F037B63AD4A7B6BD03352F82330A8
:4007C00003F007033B633B6B042B3AD801A252F823F000BFE9070810EF070810F5070810FB07081003080810A14BFB632CE0A14BFB6329E09F4BFB6326E09F4B1B68FB638F
:4008000022E09A4A7B6BC03352F8233003F01F03FB62FB6A112B07D0132B09D0102B0BD14FF4FA43FB630BE04FF40043FB6307E04FF40043FB6303E04FF4FA43FB6300BF4C
:4008400002E08C4BFB6300BF7B6B002B60D1874BD3F8903503F00103002B14BF0123002387F82B30814BD3F8883503F040531B0F032B0CBF0123002387F82A307B4BD3F83A
:40088000883503F040531B0F002B07D0774BD3F8883503F040531B0F012B01D1012300E0002387F8293097F8293003F0010387F8293097F82930002B03D097F82B30002B20
:4008C00003D197F82A30002B1FD0684BD3F88035C3F311037B62654BD3F88435C3F30C033B62624BD3F8803503F080731B0E0133FB61FA6B3B6AB2FBF3F37A6A02FB03F272
:40090000FB69B2FBF3F3BB6360E0FB6BBB635DE07B6B012B58D1554BD3F8403603F00103002B14BF01230023FB76504BD3F8003603F040531B0F032B0CBF01230023BB761B
:400940004A4BD3F8003603F040531B0F002B07D0464BD3F8003603F040531B0F012B01D1012300E000237B767B7E03F001037B767B7E002B02D0FB7E002B02D1BB7E002B25
:400980001FD03A4BD3F8003603F07F037B61374BD3F8003603F4F8531B0A3B61334BD3F8003603F4F8131B0CFB60FB6B7A6902FB03F23B69B2FBF3F2FB68B2FBF3F3BB6363
:4009C00004E0FB6BBB6301E0FB6BBB63274BD3F8803303F030031B09BA6B22FA03F3BB63264ABB6B1360264BD3F8903003F47F431B0A0133BB60224B1B6903F07F431B0E9A
:400A000001337B60BA6B7B68B2FBF3F31D4A1360BA6BBB68B2FBF3F3BB631B4ABB6B1360194B1B68194A1360184B1B6803F5742303F23F23164AA2FB03239B0CDAB2154BFC
:400A40001A70124B1B6803F2E733134AA2FB03239B09124A1360114B1B68DB03104A136000BF4437BD465DF8047B70470000264000127A0000366E019842020890420208C1
:400A800000002140944202088C4202089C42020883DE1B43A4420208D34D6210A0420208A842020880B582B000AF01F032FB7860094A094BD3F8883043F47003C2F88830C2
:400AC000BFF34F8FBFF36F8F786801F026FB00BF0837BD4680BD00BF00ED00E080B500AF012001F0EDF800BF80BD00BF80B483B000AF78607B68D3F8403318460C37BD46B1
:400B00005DF8047B704700BF80B483B000AF78607B68D3F80833C3F3080318460C37BD465DF8047B704700BF80B582B000AF78607868FFF7DBFF034618460837BD4680BD21
:400B400080B582B000AF78607868FFF7DDFF034618460837BD4680BD80B582B000AF786039603968786801F087FF034618460837BD4680BD80B582B000AF786000BF79687C
:400B80000448FFF7E9FF0346002BF8D000BF0837BD4680BD0000664080B500AF00BF0648FFF7CEFF0346002BF9D00348FFF7BCFF0346184680BD00BF0000664080B483B04E
:400BC00000AF78607B681B6843F000427B681A6000BF0C37BD465DF8047B704780B483B000AF78607B681B6843F000427B681A6000BF0C37BD465DF8047B704780B500AF0C
:400C00000348FFF7DBFF0348FFF7E8FF00BF80BD000014410000104180B500AF0549064801F0D8FC054A0121054800F01DF800BF80BD00BF9878081000001441CC78081033
:400C40000000104180B500AF064B1B78002B04D1FFF7E2FF034B01221A70FFF7CFFF00BF80BD00BF7477020880B586B000AFF8600B467A60FB72FB68002B04D14FF489716B
:400C8000854801F097F97B68002B04D140F21311814801F08FF9FB68002B02D07B68002B02D17E4B7B61F2E0FB7A012B0AD0FB7A022B07D0FB7A032B04D04FF48F71764847
:400CC00001F078F97B681B68002B09D07B681B68B3F1804F04D040F21F116F4801F06AF97B681B79032B04D94FF490716A4801F061F97B685B79002B0CD07B685B79082BA3
:400D000008D07B685B79102B04D040F22111624801F050F97B68DB88002B09D07B68DB88B3F5006F04D04FF491715B4801F042F97B681B89002B13D07B681B89B3F5807F7B
:400D40000ED07B681B89B3F5007F09D07B681B89B3F5407F04D040F223114F4801F02AF97B689B7A002B08D07B689B7A802B04D04FF49271484801F01DF97B68DB7A002B89
:400D800008D07B68DB7A402B04D040F22511424801F010F97B681B7B002B08D07B681B7B202B04D04FF493713B4801F003F97B681A68FB681A607B681A797B685B79134368
:400DC000DBB21A467B68DB8813437A68128913437A68927A13437A68D27A13437A68127B1A437B685B79002B02D14FF4805300E0002313433B61FB7A012B02D0FB7A032B2D
:400E00001ED1FB683A695A607B685B79082B01D1032200E00122FB68C3F8082FFB689A6A7B685B7B002B01D0012300E000231A43FB689A62FB681B6A43F00102FB681A62CE
:400E4000FB7A022B02D0FB7A032B1ED1FB683A699A607B685B79082B01D1032200E00122FB68C3F8142FFB689A6A7B685B7B002B01D0022300E000231A43FB689A62FB68C4
:400E80001B6A43F00202FB681A6200237B617B6918461837BD4680BD087A081001002E0080B483B000AF0346FB80B7F90630002B0BDB0949B7F906305B09FA8802F01F02FC
:400EC000012000FA02F241F8232000BF0C37BD465DF8047B704700BF00E100E080B400AF084B1B681A68074B1B68D3F8843013441B6803F07F431B0EDBB21846BD465DF8CD
:400F0000047B70474478020880B400AF084B1B681A68074B1B68D3F8843013441B6803F47F431B0ADBB21846BD465DF8047B70474478020880B582B000AF78600E4B1B6865
:400F400093F831301A467B689A4204D840F2C3110A4801F02FF8084B1B681A6A064B1B68B3F8B03019467B6803FB01F3134418460837BD4680BD00BF44780208447A08109E
:400F800080B483B000AF78607B68DB6818460C37BD465DF8047B704780B483B000AF7860084B1B68D3F8B4207B6813441B6803F00043DB0FDBB218460C37BD465DF8047BA9
:400FC000704700BF4478020880B584B000AFF860B9607A607B68002B04D140F29331074800F0E8FF7B681A46B968F86800F09CF9034618461037BD4680BD00BF447A081047
:4010000080B584B000AF78601C4A7B6813601B4B1B68002B0BD0194B1B6802221A70174B1B68FF225A70154B1B6800225A80144B1B6893F85030002B1CD0114B1B68B3F942
:4010400038303B810023FB6007F108030D49184600F028FFB7F908301846FFF721FF084B1B6893F85130002B04D002220649012000F0EAFD00BF1037BD4680BD7C77020815
:4010800044780208794602087D43020880B500AF0248FFF7B5FF00BF80BD00BFA077020880B485B000AF78607B682E4A93423FD02C4A93420ED8402B40D0402B04D8002BD6
:4010C0001FD0102B37D042E0802B3AD0B3F5807F3AD03CE0244A934219D0234A934206D8B3F1204F10D0214A93421DD02FE0204A934213D01F4A934213D01F4A93420AD045
:4011000025E00023FB6025E00023FB6022E04FF4A403FB601EE0194BFB601BE0184BFB6018E0184BFB6015E04FF4A003FB6011E00C4BFB600EE0144BFB600BE0134BFB6011
:4011400008E0134BFB6005E0064BFB6002E0114BFB6000BFFB6818461437BD465DF8047B704700BF06005200010000F0090000A0040000F0050000F0030000F0010052006B
:401180000200520003005200010050000200500005005200FF00520080B582B000AF134B7B600120FFF7C6FE03461846FFF7F4FE034683F00103DBB2002B12D00C4B1B684E
:4011C0001846FFF76DFF78600A4B1B685B681A460123936000BF074B1B685B689B68002BF9D17B6818460837BD4680BD02005000807702084478020880B582B000AF78602F
:4012000039603B681B0C1B04002B04D040F2BB21054800F0CFFE3B689AB27B689A6000BF0837BD4680BD00BF847A081080B582B000AF786039603B681B0C1B04002B04D0C7
:4012400040F2D521054800F0B5FE3B689AB27B685A6000BF0837BD4680BD00BF847A081080B483B000AF786039607B683A68DA6000BF0C37BD465DF8047B704780B483B07A
:4012800000AF78607B68DB6818460C37BD465DF8047B704780B483B000AF7860084B1B68D3F8B4207B6813441B6803F00043DB0FDBB218460C37BD465DF8047B704700BF97
:4012C0004478020880B483B000AF78607B681B6803F00043002B01DA002300E0034B18460C37BD465DF8047B704700BF01008A0080B584B000AF786039607868FFF7CAFFA6
:401300000346002B06D039687868FFF78FFF0023FB6001E0034BFB60FB6818461037BD4680BD00BF01008A0080B586B000AFF860B9607A60F868FFF7C5FF0346002B0AD1F6
:401340007968F868FFF78CFFB968F868FFF754FF00237B6101E0034B7B617B6918461837BD4680BD01008A0080B584B000AF786039603B68002B03D199210C4800F01AFE3A
:401380007868FFF787FF0346002B08D07868FFF775FF02463B681A600023FB6001E0044BFB60FB6818461037BD4680BDC47A081001008A0080B582B000AF78600E4B1B68DA
:4013C00093F831301A467B689A4204D840F2C3110A4800F0EFFD084B1B681A6A064B1B68B3F8B03019467B6803FB01F3134418460837BD4680BD00BF44780208047B081095
:4014000080B483B000AF78607B68DB6818460C37BD465DF8047B704780B584B000AFF860B9607A607B68002B04D140F29331074800F0C0FD7B681A46B968F868FFF774FF04
:40144000034618461037BD4680BD00BF047B081080B483B000AF78607B681B6803F00043002B01DA002300E0034B18460C37BD465DF8047B704700BF01008A0080B586B023
:4014800000AFF860B9607A60144B7B617B68002B0BD1BB68002B08D1F868FFF78BFF02460F4B1A6000237B6113E07B68002B0ED0BB68002B0BD00B4ABB681360094A7B68C2
:4014C00053600849F86800F00FF8786101E0034B7B617B6918461837BD4680BD03018A00A4770208A877020880B584B000AF78603960284BFB60284B1B6893F831301A4667
:401500007B689A4202D8234BFB603EE03B68002B39D03B681B6803F01F03002B30D17868FFF748FF02461D4B1A603B6858683B681B68DB081A46002103F031FC174B1B68B4
:4015400000211846FFF7D4FE144B1B683A6800211846FFF761FF0346002B0ED10F4B1B6800211846FFF7C4FE0346002B02D10023FB600AE00A4BFB6007E0094BFB6004E08B
:40158000044BFB6001E0034BFB60FB6818461037BD4680BD03018A0044780208A477020801018A0080B588B000AF78600B46FB700023FB612F4BBB612F4B1B681846FFF794
:4015C0001FFF03467B617B691A687B689A4249D97B685B093B613B695B017A68D31A012202FA03F3FB60FB7883F00103DBB2002B02D000F08EFDF8611F4B1B681846FFF7B6
:4016000027FF0346002B23D17B695A683B699B0013441A68FB681340002B11D07B695A683B699B0013447A6951683A6992000A441168FA68D2430A401A600023BB6101E06D
:401640000E4BBB610C4B1B6800211846FFF750FEFB7883F00103DBB2002B05D0F86900F05CFD01E0064BBB61BB6918462037BD4680BD00BF03018800A477020802018800D5
:4016800004018A0080B586B000AF7860164B1B681846FFF7B5FE03463B613B691A687B689A421AD97B685B09FB60FB685B017A68D31A012202FA03F3BB603B695A68FB68D8
:4016C0009B0013441A68BB681340002B02D0074B7B6104E0064B7B6101E0064B7B617B6918461837BD4680BDA4770208010188000001880004018A0080B483B000AF0346BF
:40170000FB80B7F90630002B0BDB0949B7F906305B09FA8802F01F02012000FA02F241F8232000BF0C37BD465DF8047B704700BF00E100E080B582B000AF78600E4B1B68A1
:4017400093F831301A467B689A4204D840F2C3110A4800F02FFC084B1B681A6A064B1B68B3F8B03019467B6803FB01F3134418460837BD4680BD00BF44780208447B081092
:4017800080B582B000AF78600C4B1B6893F832301A467B689A4204D840F2DF11084800F009FC064B1B681B6A1A467B6880335B01134418460837BD4680BD00BF44780208AE
:4017C000447B081080B584B000AFF860B9607A607B681B0C1B04002B04D04FF4FF710C4800F0E8FBBB681B0C1B04002B04D040F2FF11074800F0DEFB7B681A04BB689BB27A
:401800001A43FB689A6000BF1037BD4680BD00BF447B081080B483B000AF78607B68DB6818460C37BD465DF8047B704780B483B000AF78607B681B6818460C37BD465DF882
:40184000047B704780B584B000AFF860B9607A607B681B0C1B04002B04D04FF426710D4800F0A8FBBB681B0C1B04002B04D040F29921084800F09EFB7B681A04BB689BB247
:401880001A43FB681A60FB681B6800BF1037BD4680BD00BF447B081080B582B000AF786039603B681B0C1B04002B04D040F2BB21054800F07FFB3B689AB27B689A6000BF6D
:4018C0000837BD4680BD00BF447B081080B483B000AF786039607B683A68DA6000BF0C37BD465DF8047B704780B483B000AF7860084B1B68D3F8B4207B6813441B6803F0EA
:401900000043DB0FDBB218460C37BD465DF8047B704700BF4478020880B483B000AF78607B681B0C18460C37BD465DF8047B704780B483B000AF78607B689BB218460C3753
:40194000BD465DF8047B704780B582B000AF786039603B68002B04D140F2B631054800F029FB39687868FFF7FFFC034618460837BD4680BD447B081080B483B000AF7860D8
:401980007B681B6803F00043002B01DA002300E0034B18460C37BD465DF8047B704700BF01008A0080B483B000AF7860064B1B68002B02D1044A7B68136000BF0C37BD4652
:4019C0005DF8047B704700BFB0770208B0B590B002AF78607B68002B03D152212F4800F0E9FA7B689B69072B03D956212B4800F0E1FA7B68DB6A002B03D15821274800F0F6
:401A0000D9FA7B681B6B002B03D15921234800F0D1FA7B6807F11C0403F114050FCD0FC42B6823607B6807F108041D460FCD0FC42B6823601A4B1B68B3F936309AB2FB6945
:401A40009BB213449BB21BB23B863B6A7B63B86A7B68D96A7B689A6AFC6A07F130030093234600F01FF87869BA690023009313460022002100F016F87B681A6B07F13003BA
:401A80001146184600F00EFAB7F930301846FFF733FE00BF3837BD46B0BD00BF847B08104478020880B586B000AFF860B9607A603B60254B1B68002B03D1B521234800F087
:401AC00079FA214B1A68FB682C2101FB03F313447B613B68DAB27B691A603B681B0ADAB27B695A603B681A0C7B699A607B691B681846FFF71FFE02467B691A617B695B6864
:401B00001846FFF73DFE02467B695A617B6958697B6999687B699B681A46FFF753FE7B697A68DA617B69BA681A627B6900229A613B6A002B04D03B6AB3F900207B699A817F
:401B400000BF1837BD4680BDB0770208847B081080B58AB000AFF860B9607A603B607B68002B03D1FD21344800F024FA334B1B68002B03D1FE21304800F01CFA2F4B1A68A8
:401B8000FB682C2101FB03F313443B622B4B1A68BB682C2101FB03F31344FB61FB695B68012202FA03F3BB61BB691B04BB613B6A5B68012202FA03F37B613B6A1B69002B1E
:401BC00032D0FB699B69002B2BD13B6A1B691846FFF7D2FE0346002B20D17B681B689AB27B681A607B681A68BB691A437B681A603B6A1B697A6811461846FFF767FEFB69D1
:401C000001229A61FB693A685A623B6A1B6979691846FFF741FE00237B6207E0084B7B6204E0074B7B6201E0064B7B627B6A18462837BD4680BD00BF847B0810B077020804
:401C400007028A0004028A0080B586B000AFF860B9607A60174B1B68002B04D14FF4AF71154800F0A7F9134B1A68FB682C2101FB03F313443B613B691B6A002B04D14FF4C6
:401C8000B1710D4800F096F93B69DA697B689A4209D93B691A6A7B689B001344BA681A6000237B6101E0054B7B617B6918461837BD4680BDB0770208847B08100A028A0052
:401CC00080B584B000AF78600B4B1B68002B04D140F2B111094800F06DF9074B1A687B682C2101FB03F31344FB60F86800F008F800BF1037BD4680BDB0770208847B0810FA
:401D000090B589B000AF78600023FB600023FB617B68002B04D140F2D1114C4800F04AF97B681B69002B04D14FF4E971474800F041F97B685B69002B04D140F2D3114348DE
:401D400000F038F97B681B6A002B04D14FF4EA713E4800F02FF97B685B691846FFF75AFDB861B869FFF7D8FD0346002B3ED07B685C69B869FFF7D0FD03461A460021204609
:401D8000FFF760FD7B681B691846FFF7ADFD0346002B2BD07B681B6907F10C0211461846FFF7D2FD0346002B1AD1FB681B681B0CFB61FB681B68DBB27B617B68DA697B69F4
:401DC0009A420DD97B681A6A7B699B0013441B683B613B69002B03D0FA683B69104698477B681B69F9691846FFF782FAB869FFF79FFD0346002B1FD07B685C69B869FFF77A
:401E000097FD0346002219462046FFF71BFD7B685B6A002B06D07B685B6A98477B6800225A6206E07B689B6A002B02D07B689B6A98477B6800229A617B685B691846FFF752
:401E4000F5FC00BF2437BD4690BD00BF847B081080B483B000AF03463960FB80B7F90630002B0ADB0D49B7F906303A68D2B25201D2B20B4483F800230AE00949FB8803F0F0
:401E80000F03043B3A68D2B25201D2B20B441A7600BF0C37BD465DF8047B704700E100E000ED00E080B584B000AF786039600023FB607B68002B1DD07B685B68072B03D921
:401EC0003221104800F076F87B68B3F900207B685B6819461046FFF7BBFF0B4B9B680B4A934209D17B68B3F900303968184600F011F801E0064BFB60FB6818461037BD4673
:401F000080BD00BFC47B081000ED00E0004002080100560080B584B000AF03463960FB80134B9B68134A934216D13B68002B04D140F23711104800F03DF8B7F9063010332E
:401F40000C4A52F82330FB60B7F90630103309493A6841F8232006E0B7F906301033074A52F82330FB60FB6818461037BD4680BD00ED00E000400208C47B08100000081054
:401F800080B582B000AF0346FB80FB88054A127802FB03F3184600F0B3F800BF0837BD4680BD00BFA442020880B483B000AF786001BEFEE780B582B000AF786039601822BF
:401FC0007968044803F02EFC034A3B6813600020FFF7EAFF004C0208184C020880B584B000AF78607B681B68414A13607B685B683F4A53607B689B683D4A93607B68DB68B5
:402000003B4AD3607B681B69394A13617B685B69374A53617B689B69354A93617B68DB69334AD361334B9B6A314A1362314BDB6A2F4A53622F4B5B6A2D4A93622D4B5B6B31
:402040002B4AD3622B4B9B6B294A1363F1EE103AFB60FB6803F09003002B43D07B681B6A234A53637B685B6A214A93637B689B6A1F4AD3637B68DB6A1D4A13647B681B6B1C
:402080001B4A53647B685B6B194A93647B689B6B174AD3647B68DB6B154A13657B681B6C134A53657B685B6C114A93657B689B6C0F4AD3657B68DB6C0D4A13667B681B6D24
:4020C0000B4A53667B685B6D094A93667B689B6D074AD3667B68DB6D054A13677B681B6E034A536700F008F800BF1037BD4680BD1C4C020800ED00E080B400AFFEE700BF03
:402100000230800803D001300238FCD100BF00BF7047EFF3108072B6704780F31088704780B400AF4FF0B0535B78DBB2002B04D04FF0B0535B78DBB200E021231846BD46E7
:402140005DF8047B704700BF80B483B000AF7860044A7B68136000BF0C37BD465DF8047B704700BF4478020880B487B000AF0346B9607A60FB73324B7B61FB7B002B27D1B8
:40218000BB68072B54D87B68FF2B51D8BB689A002C4B1B689B682B490968B1F874100B4413441846BB689A00264B1B689B6825490968B1F874100B4413441B6823F47F42D7
:4021C0007B681B029BB21343036000237B612FE0FB7B012B2CD1BB680F2B29D87B68B3F5803F25D2BB689A00164B1B689B6815490968B1F876100B4413441846BB689A002A
:40220000104B1B689B680F490968B1F876100B4413441B6823F47F0222F47F427B681B0223F07F4323F0FF031343036000237B617B6918461C37BD465DF8047B704700BFA9
:4022400001004A004478020880B487B000AFB9607A603B600346FB73544B7B61FB7B022B52D1BB68032B00F29A807B68B3F5803F80F095803B681F2B00F29180BB689A00D4
:402280004B4B1B689B684A490968B1F878100B4413441846BB689A00454B1B689B6844490968B1F878100B4413441B6823F47F0222F47F427B681B0223F07F4323F0FF0345
:4022C00013430360BB689A00394B1B689B6838490968B1F878100B4413441846BB689A00334B1B689B6832490968B1F878100B4413441B6823F0F8023B68DB00DBB21343C2
:40230000036000237B614AE0FB7B032B47D1BB68002B44D17B68B3F1807F40D23B681F2B3DD8BB689A00224B1B689B6820490968B1F87A100B4413441846BB689A001C4B73
:402340001B689B681A490968B1F87A100B4413441B68DAB27B681B0213430360BB689A00134B1B689B6812490968B1F87A100B4413441846BB689A000D4B1B689B680C49CE
:402380000968B1F87A100B4413441B6823F0F8023B68DB00DBB21343036000237B617B6918461C37BD465DF8047B704701004A004478020890B484B000AF03463A60FB71D6
:4023C0000B46BB71254BFB60254B1B6893F83F30FA799A423CD2BB79032B39D8BB79002B02D13B68072B11D9BB79012B02D13B680F2B0BD9BB79022B02D13B68032B05D910
:40240000BB79032B24D13B68002B21D1144B1B689B681846FB79BA791149096891F8711002FA01F10E4A126892F8712014460322A24011400A4A126892F8702014463A6855
:4024400022400A4303F5407340F823200023FB60FB6818461037BD4690BC704701004A004478020890B484B000AF03463960FB712E4BFB60FB79032B52D8FB79002B02D163
:402480003B68072B11D9FB79012B02D13B680F2B0BD9FB79022B02D13B68032B05D9FB79032B3DD13B68002B3AD1214B1B689B6818461F4B1B6893F873301A46032303FA8F
:4024C00002F21B4B1B6893F870301946184B1B6893F8723001FA03F31A43FB791449096891F8711003FA01F1114B1B6893F871301C460323A3400B401A430D4B1B6893F855
:40250000703019463B680B40134343F00043C0F80034074B1B689B68D3F800340023FB60FB6818461037BD4690BC704701004A004478020880B485B000AF03463960FB711C
:40254000224BFB60FB79032B38D8FB79002B02D13B68072B11D9FB79012B02D13B680F2B0BD9FB79022B02D13B68032B05D9FB79032B23D13B68002B20D1154B1B689B681E
:402580001946FB79124A126892F8712003FA02F20F4B1B6893F871301846032383401A400B4B1B6893F8703018463B680340134343F08043C1F800340023FB60FB681846FC
:4025C0001437BD465DF8047B704700BF01004A004478020890B589B002AF786039607B68002B03D149218D48FFF7E4FC3B68002B03D14A218948FFF7DDFC00233B6100230C
:40260000FB600023BB607B68002B02D03B68002B02D1834B7B61FCE03B681B78002B07D03B681B78012B03D058217C48FFF7C2FC3B685B68002B08D03B685B68B3F1807F2A
:4026400003D059217548FFF7B5FC3B681B7A042B03D95A217148FFF7ADFC3B685B89002B12D03B685B89B3F5807F0DD03B685B89B3F5007F08D03B685B89B3F5407F03D0AD
:402680005B216648FFF796FC3B68DB68002B17D03B68DB68B3F5800F12D03B68DB68B3F5400F0DD03B68DB68B3F1006F08D03B68DB68B3F1086F03D05C215848FFF77AFC89
:4026C0003B681B7C012B07D03B681B7C002B03D05D215248FFF76EFC3B685B69002B08D03B685B69B3F1804F03D05E214B48FFF761FC3B689B693F2B03D95F214748FFF77F
:4027000059FC3B689B6903F03F033A6913433B613B685B891A463B6913433B613B681B7A032B07D03B681B7A022B03D03B681B7A042B03D13B6943F080533B613B681B7A28
:40274000042B03D13B6943F000533B613B685B683A6913433B613B685B693A6913433B613B68DB683A6913433B613B681B78012B04D1FB6843F00103FB6004E0BB6843F0B8
:402780000103BB6000BF3B681B7C012B04D1FB6843F48073FB6004E0BB6843F48073BB6000BF3B6893F824301A467B689A627B6801229A627B68FA68C3F8B0207B68BA6875
:4027C000C3F8B4203B68DB69C3F30B027B68C3F800213B681B6AC3F30B027B68C3F804213B6893F82530002B0ED03B68187A3B6893F826103B689A6A3B68DC6A3B681B6B55
:402800000093234600F00EF87B683A691A6000237B617B6918461C37BD4690BD887D08100100660080B584B000AFBA607B600346FB730B46BB73FB7B002B49D0FB7B032B9D
:4028400023D1BB7BB9681846FFF774FEBB7BBA6819463720FFF7AEFDBB7B002B02D0BB7B012B06D1BB7B0022B9681846FFF77CFC05E0B87B00230022B968FFF7E5FCBB7B5C
:40288000B9681846FFF7EEFD22E0BB7BB9681846FFF750FEBB7BBA6819463720FFF78AFDBB7B002B02D0BB7B012B06D1BB7B7A68B9681846FFF758FC05E0B87BBB697A68C7
:4028C000B968FFF7C1FCBB7BB9681846FFF7CAFD00BF1037BD4680BD80B483B000AF78607B68D3F8403318460C37BD465DF8047B704700BF80B483B000AF78607B68D3F8B3
:402900000833C3F3080318460C37BD465DF8047B704700BF80B483B000AF786039607B683A68C3F8402200BF0C37BD465DF8047B704700BF80B483B000AF78607B68D3F899
:402940000832C3F3080318460C37BD465DF8047B704700BF80B483B000AF78607B681B6803F40063002B01D0802300E0402318460C37BD465DF8047B704700BF80B483B089
:4029800000AF78607B68D3F8003303F00F03072B94BF01230023DBB218460C37BD465DF8047B704780B483B000AF78607B68D3F8003203F00F03072B94BF01230023DBB2F6
:4029C00018460C37BD465DF8047B704790B589B000AFF860B9607A60F868FFF7CFFF0346002B15D0BB68BB610023FB610BE0BA69FB69D418F868FFF76FFF0346DBB223706A
:402A0000FB690133FB61FA697B689A42EFD315E0BB687B610023FB610CE0FB695B007A69D418F868FFF758FF03469BB22380FB690133FB61FA697B689A42EED300BF2437FA
:402A4000BD4690BD80B586B000AFF860B9607A60F868FFF74FFF78617A697B689A4201D97B687B617A69B968F868FFF7AFFF7B6918461837BD4680BD90B585B000AF78600F
:402A800039600023FB607868FFF764FF04467868FFF750FF03469C4205D039687868FFF739FF0123FB60FB6818461437BD4690BD80B588B000AFF860B9607A60F868FFF714
:402AC00071FF0346002B14D0BB68BB610023FB610AE0BA69FB6913441B781946F868FFF719FFFB690133FB61FA697B689A42F0D314E0BB687B610023FB610BE0FB695B0033
:402B00007A6913441B881946F868FFF703FFFB690133FB61FA697B689A42EFD300BF2037BD4680BD90B587B000AFF860B9607A60F868FFF70FFF0446F868FFF7FBFE034617
:402B4000E31A7B617A697B689A4201D97B687B617A69B968F868FFF7ABFF7B6918461C37BD4690BD80B483B000AF78607B68D3F8403318460C37BD465DF8047B704700BF5B
:402B800080B582B000AF78603960786800F0F6F802463B689A4204D84FF420710848FFF709FA7B68D3F8043323F0FF023B68DBB21A437B68C3F8042300BF0837BD4680BD87
:402BC000C87D081080B483B000AF78607B68D3F80833C3F3080318460C37BD465DF8047B704700BF80B483B000AF786039607B683A68C3F8402200BF0C37BD465DF8047BF0
:402C0000704700BF80B483B000AF78607B68D3F80832C3F3080318460C37BD465DF8047B704700BF80B483B000AF78607B68D3F8003E18460C37BD465DF8047B704700BFD1
:402C400080B582B000AF786039603B6823F4366323F00D03002B04D040F29A310548FFF7A9F97B683A68C3F8C82F00BF0837BD4680BD00BFC87D081080B483B000AF7860F7
:402C80007B68D3F8CC3F18460C37BD465DF8047B704700BF80B582B000AF786039603B6823F4366323F00D03002B04D040F2E5310648FFF77FF97B683A68C3F8C02F7B685B
:402CC000D3F8C03F00BF0837BD4680BDC87D081080B582B000AF786039603B6823F4EE6323F00303002B04D040F22A410548FFF761F97B683A68C3F8882F00BF0837BD4693
:402D000080BD00BFC87D081080B483B000AF78607B68D3F8883F18460C37BD465DF8047B704700BF80B483B000AF78607B68D3F88C3F18460C37BD465DF8047B704700BF94
:402D400080B582B000AF786039603B6823F4EE6323F00303002B04D040F277410648FFF729F97B683A68C3F8802F7B68D3F8803F00BF0837BD4680BDC87D081080B483B0FB
:402D800000AF78607B681B6803F40063002B01D0802300E0402318460C37BD465DF8047B704700BF80B483B000AF78607B68D3F8003303F00F03072B94BF01230023DBB2CF
:402DC00018460C37BD465DF8047B704780B483B000AF78607B68D3F8003203F00F03072B94BF01230023DBB218460C37BD465DF8047B704780B584B000AFF860B9607A60E6
:402E0000BB68002B02D07B68002B04D14FF499610648FFF7CFF87A68B968F868FFF712FE034618461037BD4680BD00BF0C7E081080B584B000AFF860B9607A60BB68002B9E
:402E400002D07B68002B04D140F273510648FFF7B1F87A68B968F868FFF764FE034618461037BD4680BD00BF0C7E081090B587B000AFF860B9607A60FB68002B02D0BB6877
:402E8000002B01D18A4B58E2BB681B78002B0BD0BB681B78012B07D0BB681B78022B03D03F218448FFF786F8BB685B7B022B1BD0BB685B7B032B17D0BB685B7B042B13D011
:402EC000BB685B7B052B0FD0BB685B7B062B0BD0BB685B7B072B07D0BB685B7B082B03D040217448FFF766F8BB689B7B002B0BD0BB689B7B022B07D0BB689B7B032B03D09D
:402F000041216C48FFF756F8BB6893F82130002B08D0BB6893F82130012B03D042216548FFF748F8BB6893F82830002B08D0BB6893F82830012B03D043215E48FFF73AF8B1
:402F4000BB681B78002B03D0BB681B78012B0ED1BB685B68072B03D9BB685B68102B01D9012300E0002303F00103DBB227E0BB689B7F002B22D0BB685B68012B19D0BB68C3
:402F80005B68022B15D0BB685B68032B11D0BB685B68042B0DD0BB685B68052B09D0BB685B68062B05D0BB685B68072B01D0012300E0002303F00103DBB200E00023002BB8
:402FC00003D045213B48FEF7F5FFBB689B68042B03D9BB689B68092B03D946213548FEF7E9FFBB685B69FF2B03D947213148FEF7E1FFBB689B69FF2B03D948212D48FEF761
:40300000D9FFBB689B7C002B12D0BB681B78002B07D1BB689B68092B03D1BB689B7B002B01D0012300E0002303F00103DBB200E00023002B03D04A211E48FEF7BBFFBB6806
:403040005B6B23F4366323F00D03002B03D04C211848FEF7AFFFBB68DB6B23F4EE6323F00303002B03D04D211248FEF7A3FFBB681B78022B09D1BB689B7F83F00103DBB204
:40308000002B02D000237B6103E0BB685B68013B7B61BB681B7F002B02D04FF4803200E00022BB689B68082B06D84FF4006304E00160AA004C7E081000231A437B6903F07D
:4030C0000F03134343F00072FB681A60BB681C6BF868FFF753FE03469C4203D362219948FEF768FFBB689C6BF868FFF747FE03469C4203D363219348FEF75CFFBB685C6A7E
:40310000F868FFF73BFE03469C4203D364218D48FEF750FFBB681B781B0603F04072FB681A64BB685B7F002B01D0402200E00022BB689B7C002B02D04FF4806300E000234B
:403140001A43BB681B7C002B02D04FF4807300E000231A43BB685B7C002B02D04FF4007300E000231A43BB68DB6A013B1B0403F470231A43BB685B7B013B03F007031A435F
:40318000BB689B7B1B0103F030031A43FB689A64BB681B7B002B02D04FF4807200E00022BB68DB7B002B03D1BB681B78022B01D1012300E00023002B02D04FF4007300E002
:4031C00000231A43BB689B68013B03F00F031A43FB68C3F80023BB685B69DAB2BB689B691B0403F47F031A43FB68C3F81023BB68DA6AFB68D3F8003303F00F0303339A428B
:4032000003D3BB68DB6A102B03D97A214D48FEF7D1FEBB68DB7F002B05D0BB681B78012B01D1012300E00023002B02D04FF4807200E00022BB685B7B013B03F007031A432A
:40324000BB689B7B1B0103F030031A43FB685A64BB681B7B002B02D04FF4807200E00022BB689B68013B03F00F031A43BB681B78012B02D14FF4803300E000231A43FB6836
:40328000C3F80022BB681B6BDAB2FB68C3F80423BB6893F82030002B02D04FF0007200E00022BB6893F82130012B02D14FF0807300E000231A43BB6893F82830012B02D174
:4032C0004FF4803300E000231A43BB685B6ADBB21A43FB681A65BB689B6BDAB2FB68C3F80422BB685A6B40F66D331340FA68C2F8C83FBB68DA6B40F273731340FA68C2F8A8
:40330000883F7B68002B17D07B6800225A607B6800221A607B6800229A607B680022DA607B6800221A627B680022DA627B6800221A637B68044A5A63002318461C37BD464C
:4033400090BD00BF4C7E0810EFCDAB0080B485B000AF786039603B681B69BB603B685A69BB689A4205D83B685B69BA68D31AFB6007E03B68DA693B685B69D21ABB68134480
:40338000FB60FB6818461437BD465DF8047B704780B584B000AF786039607868FFF742FC034603F00803002B4BD07868FFF764FC034603F44873FB60FB68002B11D03B6850
:4033C0005A68FB681A433B685A60F9687868FFF761FC3B681B6B002B03D03B681B6B102098477868FFF748FC034603F40063002B0AD03B685B6843F400623B685A604FF49A
:4034000000617868FFF746FC7868FFF735FC034603F00103002B14D03B68DB69002B04D03968786800F062F807E03B689B68002B03D03968786800F0CBF801217868FFF755
:4034400029FC7868FFF7EEFB034603F00403002B48D07868FFF766FC034603F4A063BB60BB68002B11D03B681A68BB681A433B681A60B9687868FFF763FC3B681B6B002BB1
:4034800003D03B681B6B202098477868FFF74AFC034603F00103002B07D03968786800F015F901217868FFF74BFC7868FFF73AFC034603F40073002B14D000217868FFF710
:4034C00007FC3B681B6823F001023B681A603B680022DA623B681B6B002B03D03B681B6B0220984700BF1037BD4680BD80B586B000AF786039607868FFF740FC03465B088F
:403500007B613B6899693B68DB691A467868FFF771FC38613B681A6A3B691A443B681A623B68DA693B69D21A3B68DA613B68DB69002B2AD13B689B68002B13D03B68DA68A5
:403540007B699A4202D37B69013B02E03B68DB68013B19467868FFF713FB01217868FFF76FFB03E000217868FFF76AFB3B685B6823F001023B685A603B681B6B002B23D08E
:403580003B681B6B042098471EE03B689B69FB607868FFF707FC0346002B01D03B6901E03B695B00FA681344FB603B68FA689A613B68DA697B699A4206D23B68DB69013B88
:4035C00019467868FFF7DCFA00BF1837BD4680BD90B589B000AF786039607868FFF7CEFB03465B087B617868FFF7ECFAF8613B681B69BB6147E0BB690133BB613B68DA68D5
:40360000BB699A4201D10023BB613B685A69BB699A421BD13B681B6B002B03D03B681B6B082098473B685A69BB699A420ED100217868FFF705FBBB69002B02D0BB69013B13
:4036400002E03B68DB68013BBB611FE07868FFF789FA38617868FFF7A5FB0346002B07D03B689A68BB6913443A69D2B21A7007E03B689A68BB695B0013443A6992B21A80C4
:40368000FB69013BFB61FB69002BB4D13B68BA691A613B68DC6839687868FFF757FE0346E31AFB61FA697B699A420BD2FB69002B02D0FB69013B00E00023FB60F9687868C4
:4036C000FFF75EFA00BF2437BD4690BD80B588B000AF786039607868FFF750FBF8617868FFF774FB0346FB763B689B6A012B23D93B685B6A7B613B689A6A3B68DA623B68CF
:40370000596A3B689B6A013B1A467868FFF790FB38613B689A6A3B69D21A3B689A62FB7E002B01D03B6901E03B695B007A6913447B613B687A695A627868FFF763FA0246E6
:40374000FB699A423CD03B689B6A012B38D13B6800229A62FB7E002B03D03B685B6A1B7802E03B685B6A1B88FB60FEF7D2FCB860F9687868FFF736FA4FF400717868FFF7D9
:40378000DFFAB868FEF7C9FC7868FFF7BDFA034623F4007323F0010343F4007319467868FFF796FA3B681B6843F002023B681A603B681B6B002B03D03B681B6B01209847A6
:4037C00000BF2037BD4680BD80B582B000AF786039603968786800F055FA0346002B14BF01230023DBB283F00103DBB203F00103DBB218460837BD4680BD00BF80B586B082
:4038000000AF786039607B68002B03D13A216A48FEF7D0FB3B68002B03D13B216648FEF7C9FB7B68002B02D03B68002B02D1634B7B6148E13B681A68614B1340002B03D0FE
:403840004A215D48FEF7B6FB3B685A685D4B1340002B03D04B215848FEF7ACFB3B689B6803F0FC23002B03D04C215348FEF7A2FB3B68DB6803F0FC23002B03D04D214E4842
:40388000FEF798FB3B681B7D032B03D94E214A48FEF790FB3B689B69B3F5803F03D34F214548FEF787FB3B68DB6D072B03D950214148FEF77FFB3B681B6EB3F5803F03D397
:4038C00051213D48FEF776FB3B685B6EB3F5803F03D352213848FEF76DFB3B685B6843F000427B685A603B689A687B681A613B68DA687B685A613B681A697B689A613B68CD
:403900001B7D9A077B68DA613B689A697B681A623B681B6803F46063B3F5606F0CBF01230023BB743B685B6803F00403002B14BF012300237B740023FB7464E0FB7C3A6810
:4039400006339B0013445A681F4B1340002B03D063211948FEF72EFBFA7CFB7C396806339B000B4459687B68203243F822104FF48053FB60FB7C3A6806339B0013445B6810
:4039800003F00123002B0CBF01230023FB72FB7A002B1DD0BB7C002B1AD07B7C002B17D0FA7CFB68D90F0B445B105B4219B2074B23F8121011E000BF8C7E08100100060019
:4039C0000811DF0001FE302088CA887E48780208FB7C3F4A002122F81310FB7CFA6842F2107101FB02F23968496F11443A68526F520091FBF2F212B21146364A42F82310A7
:403A0000FB7C0133FB74FB7C0F2B97D93B68DA6D7B68C3F818223B68DA6D7B68C3F810223B681A6E7B68C3F828223B681A6E7B68C3F820223B685A6E7B68C3F838223B68AB
:403A40005A6E7B68C3F830223B6893F87030002B23D03B689B6EB3F1804F03D382211E48FEF7A8FA3B68DB6E23F44F0323F0FF03002B03D083211848FEF79CFA7B686FF0D4
:403A80004042C3F804233B689A6E7B68C3F800233B68DA6E7B68C3F844237B68D3F8003F3F2B04D07B68D3F8003F002B03D17B680B22C3F8002F3B681B6843F400127B68E3
:403AC0001A6000237B617B6918461837BD4680BD48780208687802088C7E081080B584B000AF78600B46FB707B68002B03D1B5212848FEF75FFA7B68002B02D1264BFB60D7
:403B000043E07B6800221A607B6800225A607B684FF003121A617B684FF003125A617B6800229A617B680022DA617B6800221A620023FB7208E0FA7A7B682032002143F842
:403B40002210FB7A0133FB72FB7A0F2BF3D97B680022C3F818227B680022C3F828227B680022C3F83822FB78002B0CD07B686FF04042C3F804237B680022C3F840237B683E
:403B80000022C3F844230023FB60FB6818461037BD4680BD8C7E08100100060080B582B000AF78607B681B68002B0EDB00BF7B68D3F8A032002BFADB7B681B6843F0004250
:403BC0007B681A600220FEF7DBF900BF0837BD4680BD00BF80B582B000AF78600B46FB70FB78002B07D0FB78012B04D040F271110A48FEF7DFF9FB78012B06D17B685B68FF
:403C000043F480327B685A6003E07B6801225A6200BF00BF0837BD4680BD00BF8C7E081080B584B000AF786039603B680F2B04D940F222211248FEF7BDF90023FB733B688A
:403C40000F2B17D839687868FFF7BEFD0346002B08D07B685B6803F00803002B0AD00123FB7307E07B685B6803F00403002B01D00123FB73FB7B18461037BD4680BD00BF33
:403C80008C7E081080B584B000AF786039603B680F2B04D94FF415710B48FEF78BF90023FB733B680F2B0AD87B683A68203253F8223003F00123002B01D10123FB73FB7B2A
:403CC00018461037BD4680BD8C7E081080B584B000AF786039603B680F2B04D940F27B210A48FEF767F90023FB603B680F2B06D87B683A68603253F822309BB2FB60FB680D
:403D00001BB218461037BD4680BD00BF8C7E081080B586B000AFF860B9601346FB80BB680F2B04D940F27B312A48FEF743F9BB680F2B49D8FB685B6803F08003002B39D187
:403D4000FB68BA68203253F8223003F48063002B30D0FB685B6803F070031B097B617B690133012202FA03F37B61FB685B6803F48073002B04D17B69102B01D910237B611D
:403D8000B968F868FFF74CFF034683F00103DBB2002B08D0FB881A467B69B2FBF3F33B613B69FB8006E0B7F906307A6912B293FBF2F3FB80084ABB6832F813301BB2FA884A
:403DC0009BB2D31A9BB2FB80B7F9063018461837BD4680BD8C7E08104878020880B586B000AFF860B9601346FB80BB680F2B04D94FF477711B48FEF7DDF84FF000037B61F3
:403E0000BB680F2B28D8FB685B6803F00203002B22D1B7F906301A46B968F868FFF778FF0346FB80B7F9063007EE903AF8EEE77AB2EE047A67EE877AC7ED057A0A4ABB68E7
:403E400052F8233007EE903AB8EEE77AD7ED056AC6EE877AC7ED057A7B6918461837BD4680BD00BF8C7E08106878020880B586B000AFF8607A601A460B46FB721346BB7238
:403E8000FB7A002B04D040F29E411848FEF792F87B68B3F1804F04D340F29F411348FEF789F8BB7A002B07D0BB7A012B04D04FF494610E48FEF77EF8FB6803F540737B613F
:403EC000FB6803F541733B61BB7A012B06D17B691A687B681A437B691A6003E03B697A681A6000BF00BF1837BD4680BD8C7E081080B584B000AFF860B9601346FB71BB6858
:403F000023F44F0323F0FF03002B04D040F2ED411348FEF74FF8FB79012B07D0FB79002B04D040F2EE410E48FEF744F8FB79012B08D1FB68D3F84423BB681A43FB68C3F88F
:403F4000442309E0FB68D3F84423BB68DB431A40FB68C3F8442300BF00BF1037BD4680BD8C7E081080B485B000AF78600023FB607B68002B03D0064A7B68136001E0054BEF
:403F8000FB60FB6818461437BD465DF8047B7047F47702080100160080B483B000AF0346FB80B7F90630002B0BDB0949B7F906305B09FA8802F01F02012000FA02F241F836
:403FC000232000BF0C37BD465DF8047B704700BF00E100E080B483B000AF0346FB80B7F90630002B10DB0B49B7F906305B09FA8802F01F02012000FA02F2203341F8232087
:40400000BFF34F8FBFF36F8F00BF0C37BD465DF8047B704700E100E080B500AF044B1B685B6BB3F900301846FFF7B6FF00BF80BDF877020880B500AF044B1B685B6BB3F9F1
:4040400000301846FFF7C6FF00BF80BDF877020880B586B000AFF860B9607A6000237B61BB68002B0FD00AE0BB681B781846FCF781FDBB680133BB607B6901337B617A6939
:404080007B689A42F0DB7B6918461837BD4680BD80B586B000AFF860B9607A6000237B61BB68002B18D013E0FCF776FD0346DAB2BB681A707B6901337B61BB681B780A2B51
:4040C0000AD0BB681B780D2B06D0BB680133BB607A697B689A42E7DB7B6918461837BD4680BD00BF80B483B000AF0346FB80B7F90630002B0BDB0949B7F906305B09FA88CD
:4041000002F01F02012000FA02F241F8232000BF0C37BD465DF8047B704700BF00E100E080B483B000AF78607B681B6843F000427B681A6000BF0C37BD465DF8047B70471B
:4041400080B500AF02490348FFF722F900BF80BDB87802080000664080B500AF0D4B1B78002B0BD10C4A0D490D48FEF77FFE0D490D48FDF797FE074B01221A700A4BB3F95B
:4041800000301846FFF7AEFF0548FFF7C9FF00BF80BD00BF08780208B8780208C87E081000006640414108108078081080B582B000AF78600B46FB70FB784FF48032002163
:4041C0007868FFF753FE00BF0837BD4680BD00BF80B582B000AF78600B46FB70FB781A464FF480317868FFF783FE00BF0837BD4680BD00BF80B487B000AF0346B9607A6080
:40420000FB73324B7B61FB7B002B27D1BB68072B54D87B68FF2B51D8BB689A002C4B1B689B682B490968B1F874100B4413441846BB689A00264B1B689B6825490968B1F85B
:4042400074100B4413441B6823F47F427B681B029BB21343036000237B612FE0FB7B012B2CD1BB680F2B29D87B68B3F5803F25D2BB689A00164B1B689B6815490968B1F84B
:4042800076100B4413441846BB689A00104B1B689B680F490968B1F876100B4413441B6823F47F0222F47F427B681B0223F07F4323F0FF031343036000237B617B69184662
:4042C0001C37BD465DF8047B704700BF01004A004478020890B484B000AF03463960FB712E4BFB60FB79032B52D8FB79002B02D13B68072B11D9FB79012B02D13B680F2B77
:404300000BD9FB79022B02D13B68032B05D9FB79032B3DD13B68002B3AD1214B1B689B6818461F4B1B6893F873301A46032303FA02F21B4B1B6893F870301946184B1B68B2
:4043400093F8723001FA03F31A43FB791449096891F8711003FA01F1114B1B6893F871301C460323A3400B401A430D4B1B6893F8703019463B680B40134343F00043C0F892
:404380000034074B1B689B68D3F800340023FB60FB6818461037BD4690BC704701004A004478020880B485B000AF03463960FB71224BFB60FB79032B38D8FB79002B02D103
:4043C0003B68072B11D9FB79012B02D13B680F2B0BD9FB79022B02D13B68032B05D9FB79032B23D13B68002B20D1154B1B689B681946FB79124A126892F8712003FA02F2B7
:404400000F4B1B6893F871301846032383401A400B4B1B6893F8703018463B680340134343F08043C1F800340023FB60FB6818461437BD465DF8047B704700BF01004A002F
:404440004478020880B500AF01210020FFF742FF00BF80BD80B500AF01210020FFF7A2FF00BF80BD80B582B000AF78607A6801210020FFF7BFFE00BF0837BD4680BD00BFA2
:4044800080B500AF0248FFF789FB00BF80BD00BF00001D4180B500AF094B1B7803F00103DBB2002B08D100F03BF8054B1B7843F00103DAB2024B1A70FFF7E2FF00BF80BD75
:4044C0000C78020880B584B000AF78600023FB73FFF7C0FF7B681B691846FFF7C3FFFFF7B1FFFB7B19460D48FFF7F8FA7B689B6819460A48FFF782F901210848FFF756FEFF
:404500007B685B68012B04D901210448FFF760FE00BF00BF1037BD4680BD00BF00001D4180B582B000AF00237B600F4B1B78002B16D10E490E48FDF7B5FC0E4B1B78002B6C
:404540000ED10C4B01221A7000237B607A6813469B0013449B00084A13441846FFF7B2FF00BF0837BD4680BD0C780208CD450810887808100D780208BC7F081080B483B08D
:4045800000AF78607B68D3F8103218460C37BD465DF8047B704700BF80B582B000AF786039603B68072B04D940F231610648FDF701FD7B683A68C3F810227B68D3F81032F7
:4045C00000BF0837BD4680BD087F081080B582B000AF0748FFF7D2FF786079680448FFF7DBFF0348FFF7CAFF00BF0837BD4680BD00001D4181F0004102E000BF83F000432E
:4046000030B54FEA41044FEA430594EA050F08BF90EA020F1FBF54EA000C55EA020C7FEA645C7FEA655C00F0E2804FEA5454D4EB5555B8BF6D420CDD2C4480EA020281EAF6
:40464000030382EA000083EA010180EA020281EA0303362D88BF30BD11F0004F4FEA01314FF4801C4CEA113102D0404261EB410113F0004F4FEA03334CEA133302D052424C
:4046800063EB430394EA050F00F0A780A4F10104D5F1200E0DDB02FA0EFC22FA05F2801841F1000103FA0EF2801843FA05F359410EE0A5F120050EF1200E012A03FA0EFCF7
:4046C00028BF4CF0020C43FA05F3C01851EBE37101F0004507D54FF0000EDCF1000C7EEB00006EEB0101B1F5801F1BD3B1F5001F0CD349085FEA30004FEA3C0C04F10104D4
:404700004FEA445212F5800F80F09A80BCF1004F08BF5FEA500C50F1000041EB045141EA050130BD5FEA4C0C404141EB010111F4801FA4F10104E9D191F0000F04BF014660
:404740000020B1FA81F308BF2033A3F10B03B3F120020CDA0C3208DD02F1140CC2F10C0201FA0CF021FA02F10CE002F11402D8BFC2F1200C01FA02F120FA0CFCDCBF41EA55
:404780000C019040E41AA2BF01EB0451294330BD6FEA04041F3C1CDA0C340EDC04F11404C4F1200220FA04F001FA02F340EA030021FA04F345EA030130BDC4F10C04C4F18C
:4047C000200220FA02F001FA04F340EA0300294630BD21FA04F0294630BD94F0000F83F4801306BF81F480110134013D4EE77FEA645C18BF7FEA655C29D094EA050F08BF19
:4048000090EA020F05D054EA000C04BF1946104630BD91EA030F1EBF0021002030BD5FEA545C05D14000494128BF41F0004130BD14F580043CBF01F5801130BD01F00045C0
:4048400045F0FE4141F470014FF0000030BD7FEA645C1ABF194610467FEA655C1CBF0B46024650EA013406BF52EA033591EA030F41F4002130BD00BF90F0000F04BF0021F3
:40488000704730B54FF4806404F132044FF000054FF0000150E700BF90F0000F04BF0021704730B54FF4806404F1320410F0004548BF40424FF000013EE700BF42004FEAC2
:4048C000E2014FEA31014FEA02701FBF12F07F4393F07F4F81F06051704792F0000F14BF93F07F4F704730B54FF4607401F0004521F0004120E700BF50EA010208BF704782
:4049000030B54FF000050AE050EA010208BF704730B511F0004502D5404261EB41014FF4806404F132045FEA915C3FF4DCAE4FF003025FEADC0C18BF03325FEADC0C18BFC9
:40494000033202EBDC02C2F1200300FA03FC20FA02F001FA03FE40EA0E0021FA02F11444C1E600BF70B54FF0FF0C4CF4E06C1CEA11541DBF1CEA135594EA0C0F95EA0C0F79
:4049800000F0DEF82C4481EA030621EA4C5123EA4C5350EA013518BF52EA033541F4801143F4801338D0A0FB02CE4FF00005E1FB02E506F00042E0FB03E54FF00006E1FB18
:4049C00003569CF0000F18BF4EF0010EA4F1FF04B6F5007F64F5407404D25FEA4E0E6D4146EB060642EAC62141EA55514FEAC52040EA5E504FEACE2EB4F1FD0C88BFBCF5B5
:404A0000E06F1ED8BEF1004F08BF5FEA500E50F1000041EB045170BD06F0004646EA010140EA020081EA0301B4EB5C04C2BFD4EB0C0541EA045170BD41F480114FF0000EBD
:404A4000013C00F3AB8014F1360FDEBF002001F0004170BDC4F10004203C35DA0C341BDC04F11404C4F1200500FA05F320FA04F001FA05F240EA020001F0004221F0004190
:404A800010EBD37021FA04F642EB06015EEA430E08BF20EAD37070BDC4F10C04C4F1200500FA04F320FA05F001FA04F240EA020001F0004110EBD37041F100015EEA430E9D
:404AC00008BF20EAD37070BDC4F1200500FA05F24EEA020E20FA04F301FA05F243EA020321FA04F001F0004121FA04F220EA020000EBD3705EEA430E08BF20EAD37070BDC7
:404B000094F0000F0FD101F00046400041EB010111F4801F08BF013CF7D041EA060195F0000F18BF704703F00046520043EB030313F4801F08BF013DF7D043EA060370477C
:404B400094EA0C0F0CEA135518BF95EA0C0F0CD050EA410618BF52EA4306D1D181EA030101F000414FF0000070BD50EA410606BF1046194652EA430619D094EA0C0F02D190
:404B800050EA013613D195EA0C0F05D152EA03361CBF104619460AD181EA030101F0004141F0FE4141F470014FF0000070BD41F0FE4141F4780170BD70B54FF0FF0C4CF433
:404BC000E06C1CEA11541DBF1CEA135594EA0C0F95EA0C0F00F0A7F8A4EB050481EA030E52EA03354FEA013100F088804FEA03334FF0805545EA131343EA12634FEA022230
:404C000045EA111545EA10654FEA00260EF000419D4208BF964244F1FD0404F5407402D25B084FEA3202B61A65EB03055B084FEA32024FF480104FF4002CB6EB020E75EB8D
:404C4000030E22BFB61A754640EA0C005B084FEA3202B6EB020E75EB030E22BFB61A754640EA5C005B084FEA3202B6EB020E75EB030E22BFB61A754640EA9C005B084FEADD
:404C80003202B6EB020E75EB030E22BFB61A754640EADC0055EA060E18D04FEA051545EA16754FEA06164FEAC30343EA52734FEAC2025FEA1C1CC0D111F4801F0BD141EAE4
:404CC00000014FF000004FF0004CB6E711F4801F04BF01430020B4F1FD0C88BFBCF5E06F3FF6AFAEB5EB030C04BFB6EB020C5FEA500C50F1000041EB045170BD0EF0004EF9
:404D00004EEA113114EB5C04C2BFD4EB0C0541EA045170BD41F480114FF0000E013C90E645EA060E8DE60CEA135594EA0C0F08BF95EA0C0F3FF43BAF94EA0C0F0AD150EAFD
:404D400001347FF434AF95EA0C0F7FF425AF104619462CE795EA0C0F06D152EA03353FF4FDAE1046194622E750EA410618BF52EA43067FF4C5AE50EA41047FF40DAF52EAD1
:404D800043057FF4EBAE12E710B5431E0A44914204D011F8014B03F8014FF8E710BD02440346934202D003F8011BFAE770472DE9F04788B0002B149F1299109EDDF84CA0DD
:404DC0001D4627F02007BBBF03F100431D4600232D231446B8BF1446462F0B7003D0452F03D1013601E0032300E0022307AA049206AA03928DE8480422462B4600F0B4FD4B
:404E0000472F804602D1119BDB0728D5462F08EB060911D198F80030302B0AD1002200232046294602F020FC18B9C6F10106CAF80060DAF8003099440022002320462946B7
:404E400002F012FC08B9302202E0CDF81C9006E0079B994503D9591C07911A70F8E7079B159AC8EB03034046136008B0BDE8F08773B503460029B8BF494203F8022BB4BF06
:404E80002D222B220929427019DD0DF1070216460A2591FBF5F405FB14113031092C02F8011D2146F5DC3031541E02F8011CB4421A460AD214F8012B03F8012BF7E73024BD
:404EC0001A46214402F8024B5970101A02B070BD2DE9F04F91B00C46DDF8688016461F46054601F059FC03680893184600F092FC00230E93D8F800300990073323F0070347
:404F000003F1080294F818A0D4F800B0C8F80020D3E90023C4E91223D4E9128929F000430B93CDF828804FF0FF32A74BDDE90A0102F0CCFBA0B94FF0FF32A34BDDE90A01DF
:404F400002F0A6FB60B9002200234046494602F095FB10B12D2384F843309C4B9C4A0AE042464B464046494602F0B0FB002800F09281984B984ABAF1470F8CBF9046984637
:404F8000032323612BF0040323604FF000093DE0BAF1670F00F08A81BAF1470F00F08681236000210DF133020193636805900292009342464B460691CDF810A0CDF80CE061
:404FC0002846FFF7F4FE0AF0DF03472B804600F08481BAF1650F0D9900F28D810139524604F150000D91FFF743FF0E9A8318012A8146236100F37C812268D10700F17881AB
:405000009DF8333013B12D2384F84330009733460FAA2146284600F09FF9013002D14FF0FF3096E123685A0501D4236965E0BAF1650F40F2D58000220023D4E9120102F029
:4050400013FB78B30123654A31462846B8470130E5D00E9B0D9A9A420BDB2368D80708D423689B0740F111814FF0000804F1190906E1099B089A31462846B8470130CED0D4
:405080004FF0000804F11A090E9B013B9845E7DA01234A4631462846B8470130BFD008F10108F1E70D9B002B29DC01234B4A31462846B8470130B2D00D9B23B90E9B13B9BB
:4050C0002368D907CCD5099B089A31462846B8470130A4D04FF0000904F11A0A0D9B5B42994509DA0123524631462846B847013095D009F10109F1E70E9B4246A7E00E9AFC
:40510000A36D9A42A8BF1A46002A914606DC4FF0000A29EAE97904F11A0B11E01346314642462846B8470130F1D178E701235A4631462846B84701303FF471AF0AF1010AC7
:40514000A36DC9EB03029245F0DB08EB03090D9A0E9B9A420FDB2368DA070CD40E9B0D9A9844C9EB08089B1A9845A8BF9846B8F1000F08DC0FE0099B089A31462846B847E7
:405180000130EBD14BE743464A4631462846B84701303FF444AF4FF0000928EAE87804F11A0A09E00123524631462846B84701303FF435AF09F101090D9A0E9B9B1AC8EB1C
:4051C00003039945EEDB4BE7FFFFEF7FD87F0810DC7F0810E07F0810E47F0810E87F08100E9A012A01DCDB0738D50123424631462846B84701303FF412AF099B089A314600
:405200002846B84701303FF40AAF00220023D4E9120102F029FA20B14FF0000804F11A0A0EE00E9B08F10102013B19E00123524631462846B84701303FF4F1AE08F101081C
:405240000E9B013B9845F1DB4B4604F1500231462846B84701307FF403AFE0E60123424631462846B8470130EED1D8E601234A4631462846B84701303FF4D1AE08F101080D
:40528000E3680F9A9B1A9845F0DBE0680F9B9842B8BF18465DE06268531C0EA84BF480630DF1340E7FF474AE062201E012B90122626075E6002106910DF133018DE80C005A
:4052C000236005904246CDF810A0CDF80CE002914B462846FFF76BFD80460D9BD81C02DB626893421DDDAAF1020A5FFA8AFA70E60133236184E6BAF1660F14D1002963682B
:4053000007DD216113B92268D2071DD501330B4419E013B92268D00701D5023313E0012311E04FF0670A0D9B0E9A934205DB22682361D10708D5013305E0002BD4BFC3F127
:4053400002030123134423610D9BA3654FF0000956E611B0BDE8F08F2DE9F04791461F460A698B68DDF820809342B8BF1346C9F8003091F8432006460C4612B10133C9F8D4
:4053800000302368990642BFD9F800300233C9F80030256815F0060510D104F1190A07E00123524639463046C04701301AD00135E368D9F800209B1A9D42F1DB94F843304A
:4053C0002268003318BF012392060FD5E1185A1C302081F84300224494F8451082F84310023303E04FF0FF30BDE8F08704F1430239463046C0470130F4D02268D9F8005072
:40540000E36802F00602042A08BF5D1B2269A3680CBF25EAE57500259342C4BF9B1AED184FF000091A344D4509D00123224639463046C0470130D5D009F10109F3E700205C
:40544000BDE8F0872DE9F04317460A7E85B06E2A984606460C460C9B01F1430E00F0AE8011D8632A22D009D8002A00F0BB80582A40F0CA8081F84520834955E0642A1ED09C
:40548000692A1CD0C0E0732A00F0B08009D86F2A2ED0702A40F0B8800A6842F020020A603EE0752A24D0782A3AD0ADE01A6801F14205111D1960136884F84230A8E02168A0
:4054C0001A6811F0800F02D0111D196008E011F0400F02F10401196002D0B2F9003000E01368002B3CDA2D225B4284F8432037E021681A6811F0800F02D0111D196007E052
:4055000011F0400F02F10401196001D0138800E01368227E5C496F2A14BF0A2208221BE078225A4984F845202268186812F0800F00F104051D6003D1550601D5038800E041
:405540000368D00744BF42F0200222601BB9226822F0200222601022002084F8430001E049490A226568A560002D08DB206820F0040020602BB9002D7DD175460CE0002B1D
:4055800079D07546B3FBF2F002FB1033CB5C05F8013D03460028F5D1082A0BD12368DA0708D5236962689A42DEBF302305F8013C05F1FF35C5EB0E0323612EE008681A685C
:4055C000496910F0800F03D0101D1860136808E010F0400F02F104001860136801D0198000E0196000232361754616E01A68111D1960156862680021284601F039F908B160
:40560000401B6060636804E004F1420584F8422001232361002384F84330CDF800803B4603AA21463046FFF797FE013002D14FF0FF3026E023692A4639463046C047013050
:40564000F5D023689B0710D5002504F1190907E001234A4639463046C0470130E7D00135E368039A9B1A9D42F2DBE068039B9842B8BF184605E00B7884F8423004F14205F2
:405680008AE705B0BDE8F083EA7F0810FB7F08100FB40A4B13B51C6824B1A36913B9204600F0F0FF05AB049AA1680193204601F0E9FC02B0BDE8104004B070473443020889
:4056C0002DE9F7431D464F4B1E6804460F46904626B1B36913B9304600F0D4FF4A4B9C4201D1746808E0494B9C4201D1B46803E0474B9C4208BFF468B8F1020F04D0B8F154
:40570000010F79D8002D77DB2146304600F050FF616B41B104F14403994202D0304601F0DBFB002363630023A3616360A3891B0603D52169304601F0CFFBA38923F44A63E6
:4057400023F00303B8F1020FA3811ED001AB6A462146304601F024F8A3891843A0810DB9009D00E02FBB284601F07AF80746D0B9DDF80090A94502D14FF0FF3006E048467A
:4057800001F06EF8074678B9F6E70020A38943F00203A3810023A36004F1470323602361012363612AE0A946A38943F08003A3814D46B36913B9304600F064FFB8F1010F3F
:4057C00008BFA389276004BF43F00103A381A389276103F0080080B2656158B113F001034FF000001DBF6D42A060A561A56008BF184603E0A06001E04FF0FF3003B0BDE8D6
:40580000F08300BF344302081C8008103C8008105C800810034613F8012B002AFBD1181A0138704710B5034642B111F8014B03F8014B013A002CF7D11A4400E010BD9342F5
:4058400002D003F8014BFAE710BD2DE9F74F03690C699C42804600F38380013C01F114074FEA840E00F1140657F8245006EB0E030193013556F82430B3FBF5F507EB0E0998
:40588000002D39D04FF0000A3846B446D34650F8042B93B205FB03A34FEA134A9BB2C3EB0B03120CBCF800B005FB02A213FA8BF34FEA124A1FFA82FBDCF80020CBEB1242FD
:4058C00002EB23429BB243EA024381454FEA224B4CF8043BDBD256F80E306BB9019B043B9E421A4602D3C8F8104005E01268043B002AF8D1013CF3E7404601F016FA0028F4
:405900002CDB013530464FF0000E57F8041BD0F800C08AB2C2EB0E03090C13FA8CF3C1EB1C4202EB23429BB243EA0243B9454FEA224E40F8043BE8D256F8242006EB8403D9
:4059400062B9043B9E421A4602D3C8F8104005E01268043B002AF8D1013CF3E7284600E0002003B0BDE8F08F2DE9F04F456A97B08246239CCDE9022345B9102000F070FF81
:40598000CAF82400456085600560C560DAF82430196859B15A684A60012393408B60504600F0EBFFDAF8243000221A60039BA04A002BBFBF01232360039B23F00043B8BF79
:4059C0000393DDF80C80A4BF0023236028F000431B0D1B0593421DD1229A42F20F731360029B43B9934A944BC8F31300002814BF1846104600E09048249B002B00F04A8529
:405A0000C37813B100F1080300E0C31C249A136000F040BDDDE90245002200232046294601F022FE074658B1229A01231360249B002B00F0228581481860013800F02ABDDB
:405A400014AB019315AB009322462B46504601F0E7F9C8F30A56059056B1C5F3130343F07F51204641F44011A6F2FF3611971DE0159B149E1E4406F23243202B0ADD029A5B
:405A800006F21240C3F1400322FA00F008FA03F3184304E0C3F12000029B03FA00F0FEF7EBFE0123A1F1F871013E11930022644BFEF7A4FD58A3D3E90023FEF753FF58A3A1
:405AC000D3E90023FEF79CFD044630460D46FEF7E3FE55A3D3E90023FEF744FF02460B4620462946FEF78CFD04460D4601F004FE0022834600232046294601F0BFFD58B12C
:405B00005846FEF7C9FE02460B462046294601F0ABFD08B90BF1FF3BBBF1160F0DD8494901EBCB01DDE90223D1E9000101F0C4FD30B10BF1FF3B002300E00123109300E0F4
:405B40001090149B9E1B731E089343BFC3F10009002308934FF00009BBF1000F07DB089BCDF834B05B4408930023099306E0CBF1000309930023CBEB09090D93209B092B8F
:405B800027D8052BC4BF043B2093209BA3F10203CCBF00250125032B20D8DFE803F0060E0204012302E0012308E000230C93219B002B1CDD069398461EE000230C93219B76
:405BC0005B4403F1010806934346012BB8BF012312E00125002320930C9501E001230C934FF0FF33069398460022122303E00123069398461A462192DAF824400022626003
:405C0000042101F114029A421ED86268013262604900F6E7AFF3008061436F63A787D23FB3C8608B288AC63FFB799F501344D33F0000F07F0C80081015800810E97F081080
:405C40000000F83FB88008106168504600F060FEDAF8243020601B680793B8F10E0F00F25D81002D00F05A819DED027BBBF1000F8DED0E7B31DDA04A0BF00F0302EBC30322
:405C800093ED007B4FEA2B14E2068DED0A7B0CD59A4BDDE90E01D3E90823FEF78DFF04F00F04CDE90201032600E00226934D6CB1E30708D5DDE90A01D5E90023FEF752FEDB
:405CC000CDE90A01013664100835F0E7DDE90A23DDE90201FEF770FF20E0CBF1000404B3854B864D04F00F0203EBC203D3E90023DDE90E01FEF736FECDE902012411002344
:405D0000022654B1E70705D5D5E90023FEF72AFE0136012364100835F3E71BB1CDE9020100E00226109BEBB1DDE902450022744B2046294601F0A2FCA0B1B8F1000F11D07A
:405D4000069B002B40F3E6800BF1FF330A9300226C4B20462946FEF705FE0136CDE90201069F02E0CDF828B047463046FEF794FDDDE90223FEF7F6FD0022634BFEF740FCDC
:405D80000446A1F15075CFB90022604BDDE90201FEF734FC22462B46CDE9020101F08CFC002840F04182224605F10043DDE9020101F064FC002840F02E82ABE00C9A4E4B4C
:405DC000791E002A4AD003EBC103D3E9002300204F49FEF7F1FE22462B46FEF70FFC079C05460E46DDE9020101F086FC1290FEF753FD02460B46DDE90201FEF7FFFB129B5F
:405E0000303304F8013B2A463346CDE9020101F035FC002840F02183DDE9022300203849FEF7ECFB2A46334601F028FC002840F0D280079BE31ABB426CDA0022314B284609
:405E40003146FEF78FFD002205460E462D4BDDE90201FEF787FDCDE90201C3E703EBC10122462B46D1E90001FEF77CFD079BCDE91201DC191D46DDE9020101F03DFC064698
:405E8000FEF70AFD303602460B46DDE90201FEF7B5FB05F8016BAC42CDE902014FF0000223D11B4BDDE91201FEF7AAFB02460B46DDE9020101F000FC002840F08C80DDE9E2
:405EC000122300201249FEF799FB02460B46DDE9020101F0D3FBE8B114F8013C302B04F1FF3240F0BA821446F6E7064BFEF73AFDCDE90201BFE700BFB8800810908008102F
:405F00000000F03F0000244000001C40000014400000E03FDDE90E34CDE90234159B002B7CDBBBF10E0F79DC8F4B03EBCB03D3E90067219B002B14DAB8F1000F11DC40F058
:405F40006C810022894B30463946FEF70BFDDDE9022301F0A7FB45464646002840F05F8166E1079C32463B46DDE90201FEF724FE01F0C2FB0546FEF78FFC32463B46FEF755
:405F8000F1FC0B460246DDE90201FEF737FB05F1300E04F801EB079BC3EB040EF045CDE902012ED102460B46FEF72AFB8046894602460B463046394601F060FB78B9424625
:405FC0004B463046394601F04FFB002800F04782E90704D443E2DDF828B000E01C4614F8012C392A04F1FF3307D1079A9A42F5D1079930220BF1010B0A701A7801321A7082
:406000002DE200225A4BFEF7ADFC00220023CDE9020101F029FB0028A4D020E20C9A002A2DD0209A012A0ADC119A12B103F2334302E0149BC3F13603099D4C4615E0099B7B
:4060400008F1FF35AB42BFBF099B0995EA1A0D9BB7BF9B185D1B0D930025B8F1000FB9BFC8EB090400234C464346089A01211A4450469944089200F01FFD064602E0099DF7
:406080000C9E4C465CB1089B002B08DDA342089AA8BF2346C3EB0909E41AD31A0893099B002B1DDD0C9BABB185B131462A46504600F09CFD059A01460646504600F005FD85
:4060C00005990746504600F058FC0597099B5A1B06D000E0099A0599504600F087FD05900121504600F0E8FC0D9B05465BB31A460146504600F07AFD209B012B054618DC39
:40610000029B83B9039BC3F3130373B9039B23F000473F0D3F054FB1089B013309F101090893012702E0002700E0029F0D9B73B100E000272B6905EB8303186900F06FFC87
:40614000C0F1200004E0209B012BD9DD0D9F0120089B184410F01F000ED0C0F12003042B08DDC0F11C0008E0B8800810000014400000244006D018461C30089B0344814430
:4061800004440893B9F1000F05DD4A460599504600F07AFD0590089B002B05DD29461A46504600F071FD0546109BEBB12946059800F0BBFD002817DA00230A22059950464C
:4061C00000F0F2FB0C9B05900BF1FF3B002B00F05881002331460A22504600F0E5FB069B002B064637DC33E0B8F1000F2ADC209B022B27DDCDF81880069B83B92946052278
:40620000504600F0D1FB01460546059800F08DFD00280DDC03E03D4600E000252E46219B079C6FEA030B0AE0DDF828B03D463E46079B079A5C1C312313700BF1010BB0467F
:406240000026F7E00C9BCDF8188023B9079CB1E0209B022BD0DC002C05DD31462246504600F012FD06469FB17168504600F050FB326902320446920006F10C010C30FEF7D1
:4062800083FD01222146504600F0FEFC804600E0B046029BDDF81C9003F00103089329460598FFF7D2FA3146044600F13007059800F03BFD424602902946504600F051FD2F
:4062C000C36802463BB901460990059800F02DFD099A034600E0012311465046099300F04CFB099B4BB9209A3AB9089A2AB9392F28D0029B002B1ADC1BE0029A002A04DB58
:406300001AD1209AC2B9089AB2B9002B11DD01220599504600F0B8FC2946059000F005FD002802DC05D1FA0703D5392F0AD004F1310709F101040CE0002B09F101040BDD05
:40634000392F05D1392389F8003009F1010954E0013789F800706DE0079B069A04F8017CE31A9342A1463AD000230A220599504600F01AFB464505904FF000034FF00A0271
:406380003146504604D100F00FFB0646804686E700F00AFB4146064600230A22504600F003FB80467BE700230A220599504600F0FBFA059029460598FFF747FA00F1300757
:4063C00004F8017B079B069AE31A9342EBDB079B012AACBF9B180133B0469946002601220599504600F050FC2946059000F09DFC002802DC15D1FB0713D54C4614F8013C60
:40640000392B04F1FF3209D1079B934204D10BF1010B3123079A02E01446EFE70133137008E04C4614F8013C302B04F1FF3201D11446F7E72946504600F09FFAB8F1000F52
:406440000DD02EB1464503D03146504600F095FA4146504600F091FA01E0DDF828B00599504600F08AFA0023229A23700BF101031360249B1BB11C6001E008480AE0079802
:4064800008E0069B002B3FF7E1AE209B022B7FF7DDAEB1E617B0BDE8F08F00BFE87F08108A892DE9F041054610070C4659D44B68002B02DC0B6C002B17DDE66AAEB102F488
:4064C0008052002392B22F682B600AB1606D15E0216A01232846B047411C0FD12B686BB11D2B01D0162B03D12F600020BDE8F081A38943F04003A381BDE8F081A3895A0768
:4065000005D56368C01A636B0BB1236CC01A00230246E66A216A2846B047431CA38906D129681D293AD8214ACA40D60736D500226260D9042269226004D5421C01D12B682C
:4065400003B96065616B2F600029CED004F14403994202D0284600F0BFFC00206063BDE8F0810F69002FC0D093070E6808BF4B690F6018BF0023C7EB06088B6002E007447A
:40658000C0EB0808B8F1000FAFDD43463A46216AA66A2846B0470028F1DCA38943F04003A3814FF0FF30BDE8F08100BF0100402038B50B6905460C46DBB118B183690BB971
:4065C00000F060F80C4B9C4201D16C6808E00B4B9C4201D1AC6803E0094B9C4208BFEC68B4F90C302BB121462846BDE83840FFF757BF002038BD00BF1C8008103C80081027
:406600005C800810014900F0A9B800BFB1650810002310B5044603604360836081814366C281036143618361194608225C30FEF7B6FB054B6362054BA362054BE362054BDF
:406640002462236310BD00BFDD720810FF720810377308105B73081070B568234D1E5D430E4605F1740100F085FC044640B1002180E842000C30A06005F16802FEF78FFBDE
:40668000204670BD836910B5044633BB8364C3640365124B124A1B688262984204BF0123836100F01FF86060204600F01BF8A060204600F017F80022E06004216068FFF749
:4066C000A7FF01220921A068FFF7A2FF02221221E068FFF79DFF0123A36110BDD47F081005660810F8B51C4B1E68B369074613B93046FFF7C7FF4836B4687368013B04D46A
:40670000B4F90C507DB16834F8E733680BB13668F2E704213846FFF79FFF30600028F6D10C233B60F8BD4FF6FF73E3810123A38165662560A560656025616561A5610822AB
:40674000294604F15C00FEF72AFB6563A563A564E5642046F8BD00BFD47F08102DE9F8438046894600F14804002694B1A5686768013F0CD4AB89012B07D9B5F90E300133EE
:4067800003D029464046C84706436835F0E72468EBE73046BDE8F883004870473843020870B50E46B1F90E10002990B014461D4606DA00232B60B3891A060ED540230EE048
:4067C00001AA00F0B3FE0028F3DB029A02F47042A2F500535A425A412A604FF480630020236010B070BD00008B8973B59E0705460C4610D401AB6A46FFF7D2FF0099064648
:40680000284600F0B7FB68B9B4F90C309A0522D443F00203A38104F14703236023610123636118E00D4BAB62A389206043F08003A381009B6361019B20614BB1B4F90E10F9
:40684000284600F085FE18B1A38943F00103A381A0893043A08102B070BD00BF05660810024B0146186800F085BB00BF3443020801F0FF01102A2BDB10F0070F08D010F85E
:40688000013B013A8B422DD010F0070F42B3F6D1F0B441EA012141EA014122F007047FF000070023F0E80256083C85EA010586EA010685FA47F5A3FA87F586FA47F6A5FA21
:4068C00087F68EB9EED1F0BC01F0FF0102F0070232B110F8013B013A83EA010313B1F8D10020704701387047002D06BF35460338073815F0010F07D1013015F4807F02BF88
:40690000013015F4C03F0130F0BC0138704700BF70B5456A04460E463DB91020FFF7A0FF6062456085600560C560656AEB6843B1636ADB6853F8260078B1026843F82620E4
:4069400017E021220421204600F0B8FA636AE860DB68002BECD1002070BD012101FA06F56A1D9200204600F0A9FA0028F3D04660856000230361C36070BD70B5446A06468D
:406980000D463CB91020FFF76BFF7062446084600460C4603DB1736A6A68DB6853F82210296043F8225070BD2DE9F0410D691F4606460C4601F1140E0023DEF8000081B25D
:4069C00002FB01710F0C000C02FB007089B2013301EB00419D424FEA10474EF8041BECDCD7B1A3689D4212DB616830460131FFF78FFF2269023204F10C01804692000C30B3
:406A0000FEF7C2F921463046FFF7B7FF444604EB850301355F6125612046BDE8F081030C1B0413B90004102300E0002310F07F4F04BF0002083310F0704F04BF0001043368
:406A400010F0404F04BF80000233002803DB420003D5581C70471846704720207047036813F007020BD0D90722D49A074BBF5B089B08036003604CBF01200220704799B2C9
:406A800009B91B0C102213F0FF0F04BF1B0A0832190704BF1B090432990704BF9B080232D90702D45B0805D00132036010467047002070472020704710B50C460121FFF783
:406AC00027FF01224461026110BD2DE9F74F14460A6923699A42B8BF0B468846BCBFA0461C46D8F81070D4F81090D8F80830D8F8041007EB09069E42C8BF0131FFF708FF4F
:406B000000F1140505EB860C2B460022634502D243F8042BFAE704F1140208F1140102EB890301EB87070093009B0192934257D9B2F800B0BBF1000F23D08946AE464FF093
:406B4000000859F8044BBEF800A0A3B20BFB03A34FEA144ADEF8004043444FEA14480BFB0A8404EB1344F2469BB243EA04434F454FEA14484AF8043B01D9D646E1E7CEF84C
:406B80000480019BB3F802A00432BAF1000F21D02B682C4689464FF00008B9F800E0B4F802B00AFB0EBEF044A3469BB243EA08434BF8043B59F8043BB4F804E01B0C0AFBFC
:406BC00003E303EB18434F454FEA134801D95C46E3E763600435A7E75CF8043D13B9013E002EF9DC066103B0BDE8F08F2DE9F843154612F0030206460F4607D0013A214CBA
:406C0000002354F82220FFF7CFFE0746AD1036D0746A3CB91020FFF723FE7062446084600460C460D6F82480D8F808404CB940F271213046FFF740FF0023C8F808000446A1
:406C400003604FF00008EB070AD5394622463046FFF73BFF394681463046FFF78EFE4F466D100CD0206808B10446ECE7224621463046FFF72AFF2060C0F80080F4E738460D
:406C8000BDE8F883848008102DE9F0470C464FEA621A26694968A368564407469146751CAB4202DA01315B00FAE73846FFF730FE0023804600F114011A46534503DA41F8D4
:406CC00023200133F9E72AEAEA73206901EB830319F01F0904F1140101EB800E14D0C9F1200C0022086800FA09F002439A4643F8042B51F8042B8E4522FA0CF2F2D8CAF84D
:406D0000042042B1B51C06E0043B51F8042B43F8042F8E45F9D8013D3846C8F810502146FFF72BFE4046BDE8F08703690A699B1A10B511D192001430143183180A4453F82E
:406D4000044D52F8041D8C4202D007D3012010BD9842F4D3002010BD184610BD4FF0FF3010BD2DE9F8430C460746114620461546FFF7DBFF061E08D131463846FFF7C8FD76
:406D8000012303614661BDE8F883BCBF23462C4638466168BABF1D4601260026FFF7B8FD2B69C660266905F11409143404EB860709EB830800F114054FF0000C54F8043B94
:406DC00059F8042B1CFA83F11FFA82FE120CCEEB0101C2EB134303EB214389B24FEA234CC84541EA0343A64645F8043BE6D8BE450ED25EF8041B1CFA81F2131403EB1143F1
:406E000092B242EA03424FEA234C45F8042BEEE755F8043D0BB9013EFAE70661BDE8F8832DE9F34101211C46089E099D9046FFF76FFDC4F31303C4F30A5407460CB143F446
:406E400080130193B8F1000F19D002A840F8088DFFF705FE009B48B1019AC0F1200102FA01F10B43C2407B61019200E07B61019BBB61002B14BF02210121396107E001A84B
:406E8000FFF7EDFD019B7B6101213961203034B1A4F2334404443460C0F1350009E007EB8103A0F2324030601869FFF7B8FDC0EB41102860384602B0BDE8F08138B502FBE7
:406EC00001F4214600F056F8054618B122460021FDF765FF284638BD38B50546002946D051F8043C0C1F002BB8BFE41800F052FB1F4A1368114613B96360146032E0A34265
:406F00000ED92268A018834204BF18685B68636004BF121822600C6024E0A24203D813465A68002AF9D118681918A1420BD12168014458188242196014D1106852685A6031
:406F4000014419600EE002D90C232B600AE021686018824204BF10685268626004BF091821605C602846BDE8384000F014BB38BD1878020870B5CD1C25F0030508350C2DCF
:406F800038BF0C25002D064601DBA94202D90C23336046E000F0FEFA234B1C681A462146A1B10B685B1B0ED40B2B03D90B60CC18CD501EE08C420DBF63684B68636013601E
:406FC00018BF0C4615E00C464968E9E7174C23681BB9304600F072F920602946304600F06DF9431C18D0C41C24F00304A0420DD12560304600F0CFFA04F10B00231D20F04C
:407000000700C31A0ED05A42E25070BD211A304600F054F90130EBD10C233360304600F0BAFA002070BD00BF18780208147802089368013B002B10B4936009DA9469A342C2
:4070400002DBCBB20A2B03D15DF8044B00F08AB91368581C10601970C8B25DF8044B7047F8B506460F461446D518AC4208D03A4614F8011B3046FFF7DBFF431CF5D100E0CB
:407080000020F8BD2DE9F04F9DB00C4617460393064618B183690BB9FFF7F4FA7F4B9C4201D1746808E07E4B9C4201D1B46803E07C4B9C4208BFF468A38918070CD5236935
:4070C00053B10023099320238DF8293030238DF82A30DFF8D4B144E02146304600F0A8F90028EED04FF0FF30D5E0039A111D12680391002A80F28C80524243F002000792A0
:40710000049098F800302E2B00F08480032298F800106548FFF7ACFB48B14023CBEB000003FA00F0049B1843049008F1010898F800105E488DF82810062208F10107FFF7EE
:4071400097FB002800F09580594B002B40F08880039B073323F0070308330393099B53440993B846454615F8013B1BB9B8EB07090FD003E0252BF9D0A846F3E74B463A469F
:4071800021463046FFF76CFF01307FD0099B4B44099398F80030002B78D000234FF0FF3204930793059206938DF853301A930127052229783F48FFF75BFB05F10108049B05
:4071C00038B13C4A801A07FA00F0184304904546EEE7D90644BF20228DF853201A0744BF2B228DF853202A782A2A3FF47EAF079A00210A20A846013598F80030303B092BFC
:4072000003D800FB02320121F4E700293FF479AF079276E798F801302A2B0BD1039B1A1D1B680392002BB8BF4FF0FF3308F1020805936BE70023059308F1010019460A25AB
