:020000041008E2
:4000000000780408EB0208100D00000051030810510308105103081051030810000000000000000000000000000000004D0308104D030810000000004D0308104D030810DA
:400040004D0308104D0308104D0308104D0308104D0308104D0308104D0308104D0308104D0308104D0308104D0308104D0308104D0308104D0308104D0308104D03081000
:400080004D0308104D0308104D0308104D0308104D0308104D0308104D0308104D0308104D0308104D0308104D0308104D0308104D0308104D0308104D0308104D030810C0
:4000C0004D0308104D0308104D0308104D0308104D0308104D0308104D0308104D0308104D0308104D0308104D0308104D0308104D0308104D0308104D0308104D03081080
:400100004D0308104D0308104D0308104D0308104D0308104D0308104D0308104D0308104D0308104D0308104D0308104D0308104D0308104D0308104D0308104D0308103F
:400140004D0308104D0308104D0308104D0308104D0308104D0308104D0308104D0308104D0308104D0308104D0308104D0308104D0308104D0308104D0308104D030810FF
:400180004D0308104D0308104D0308104D0308104D0308104D0308104D0308104D0308104D0308104D0308104D0308104D0308104D0308104D0308104D0308104D030810BF
:4001C0004D0308104D0308104D0308104D0308104D0308104D0308104D0308104D0308104D0308104D0308104D0308104D0308104D0308104D0308104D0308104D0308107F
:400200004D0308104D0308104D0308104D0308104D0308104D0308104D0308104D0308104D0308104D0308104D0308104D0308104D0308104D0308104D0308104D0308103E
:400240004D0308104D0308104D0308104D0308104D0308104D0308104D0308104D0308104D0308104D0308104D0308104D0308104D0308104D0308104D0308104D030810FE
:400280004D0308104D0308104D03081010B5054C237833B9044B13B10448AFF300800123237010BD5C8A020800000000A4E00810084B10B51BB108490848AFF300800848E1
:4002C000036803B910BD074B002BFBD0BDE81040184700BF00000000608A0208A4E00810BC470208000000007047FFF7FDFF72B6104C114DAC4209DA21686268A368043B19
:40030000A2BFC858D050FAE70C34F3E70B490C4A00209142BCBF41F8040BFAE709480A490860BFF34F8F00F04BFE00F09BFC00F0DDFAFEE79C0A0B10B40A0B105C8A02084E
:40034000B89E02080040020808ED00E0FEE7FEE700B504207146084202D0EFF3098001E0EFF30880043002F069FDFEE780B483B000AF0346FB80B7F90630002B0BDB09493E
:40038000B7F906305B09FA8802F01F02012000FA02F241F8232000BF0C37BD465DF8047B704700BF00E100E080B483B000AF78607B681B6823F000427B681A6000BF0C37BB
:4003C000BD465DF8047B704780B483B000AF78607B681B6823F000427B681A6000BF0C37BD465DF8047B704780B483B000AF786039603B68C3F30B027B68C3F8042100BF6A
:400400000C37BD465DF8047B704700BF80B483B000AF78607B681B6A03F0010318460C37BD465DF8047B704780B483B000AF78607B6801221A627B681B6A00BF0C37BD46D3
:400440005DF8047B704700BF80B483B000AF78607B681B6823F000427B681A6000BF0C37BD465DF8047B704780B500AF0348FFF7ABFF0348FFF798FF00BF80BD00001441A4
:400480000000104180B582B000AF786079680348FFF7AAFF00BF0837BD4680BD0000144180B500AF0248FFF7B1FF0346184680BD0000144180B500AF0248FFF7B5FF00BFFB
:4004C00080BD00BF0000144180B500AF0248FFF7BBFF00BF80BD00BF00001D4180B485B000AF786039607B6893F800325A1C134B1340002B03DA013B63F07F030133FB73A9
:400500007B6893F80132FA7B9A4202D14FF0FF330DE07B6893F800327A689B0013443A46106818607B68FA7B83F80022002318461437BD465DF8047B704700BF7F000080A7
:4005400080B485B000AF786039607B6893F800227B6893F801329A4201D100231BE07B6893F801325A1C0F4B1340002B03DA013B63F07F030133FB607B6893F80132396847
:400580007A689B0013441B680B60FB68DAB27B6883F80122012318461437BD465DF8047B704700BF7F000080B0B58AB000AF786039607B6844F20802934210D044F2080219
:4005C000934203D8B3F5805F09D056E145F2010293420CD045F20C02934217D04DE10021002006F097FDAE4B00221A7045E1AC4B01221A703B681B781946AA4809F04AFC9A
:400600003B681A78A84B1A7000BF36E13B687B627B6A1B89152B06D1A44B01221A70A04B03221A7024E17B6A1B89182B40F020819B4B1B78022B00F01B81994B1B78032B63
:4006400000F01681964B1B78042B00F011817B6A1B68DA78964BDA707B6A1B689A78944B9A707B6A1B685A78914B5A707B6A1B681A788F4B1A707B6A1B68DA798D4BDA706B
:400680007B6A1B689A798B4B9A707B6A1B685A79884B5A707B6A1B681A79864B1A707B6A1B68DA7A844BDA707B6A1B689A7A824B9A707B6A1B685A7A7F4B5A707B6A1B6851
:4006C0001A7A7D4B1A707B6A1B68DA7B7B4BDA707B6A1B689A7B794B9A707B6A1B685A7B764B5A707B6A1B681A7B744B1A707B6A1B6810331B78002B03D0714B01221A7049
:4007000002E06F4B00221A707B6A1B685A7C6D4B1A70674B1B68184608F0C6FA5AA3D3E9002308F03FFC03460C461846214658A3D3E9002308F00CFB03460C4618462146FE
:400740000BF038FC03460C461846214608F012FD02465D4B1A60574B1B68184608F0A4FA49A3D3E9002308F01DFC03460C461846214647A3D3E9002308F0EAFA03460C46E4
:40078000184621460BF016FC03460C461846214608F0F0FC02464D4B1A60474B1B68184608F082FA38A3D3E9002308F0FBFB03460C461846214636A3D3E9002308F0C8FA68
:4007C00003460C46184621460BF0F4FB03460C461846214608F0CEFC02463D4B1A60354B93ED007A324BD3ED007A77EE677AC7ED087A386A08F058FA27A3D3E9002308F009
:40080000A7FA03460C4625461C46304B1A682E4B1B68D31A07EE903AB8EE677A274BD3ED007A67EE277A17EE900A08F03DFA02460B462046294608F0B5FB03460C46184604
:40084000214608F0B7FC07EE900AFDEEE77A17EE903A013B1F4A13601A4B1B781A461E4B1A601B4B1B681D4A13600D4B02221A707B6AD86815F014F900BF00BF2837BD4689
:40088000B0BD00BFAFF300806666666666660A400000000000FEAF40000000000088C340A08A020878C00810DE9D0208A28A0208D09B0208C89B0208E09D0208C49B0208B3
:4008C0008C420208A18A0208808A02087C8A0208848A02088C8A0208908A0208788A020880B500AF2FF062FC00BF80BD2DE9B043A4B006AF5C4B1B7887F8773062B65B49D4
:400900005B4802F0EFF95A4BB3F900301846FFF72DFD584808F036F801E02FF047FC564B1B78022BF9D1554805F0E8FC4FF000033B67534BFB664FF00003BB664FF07C533D
:400940007B66504B05221A6007F0CEFD4E4B1B68586800230222002109F0B4FA00233B66002387F87630404B1B78022B27D1474B1B68184608F098F980468946444B1B68BB
:40098000184608F091F904460D46424B1B68184608F08AF902460B463F49097808463F49097805910490CDE90223CDE9004542464B463B4809F06EFA2B4B03221A702A4B41
:4009C0001B78032B06D107F02DFF00F0C9FB264B04221A70244B1B7897F877209A4209D0214B1B7819462F4809F054FA1E4B1B7887F8773007F1140319462B48FFF7A0FDD8
:400A00000346002B0BD097F876305A1C87F876209B0007F1780213447A6943F8602C97F87630102B1DD107F118033B604023BB8012233B8207F108033A4692E8030083E892
:400A4000030007F108031946184806F0FBFEBB8A1946FB8A1A46164809F01CFA002387F876302FF0A3FB7EE7A08A0208B50A08105CC10810A9050810549E0208E10808105F
:400A800033335340908A020878470208D09B0208C89B0208E09D0208D89B0208A18A0208A4C00810F0C00810DC9B0208509E020800C1081080B582B000AFFFF7F1FC03465D
:400AC000FB71FB79002B00F0AB80FFF7F3FC564B1B68DA0F13445B101A46544B1B689A4280F29780524B1A68524B1B689A4240F08A80514B1B6801334F4A13604F4B1B6864
:400B00001846FFF7BFFC00214D4804F063FD00214B4804F085FD03469AB24A4B1A80474B1B689BB23B80474B1B887B8039684648FFF7D4FC454B01221A70454B1B78012BE0
:400B400028D13E4B1B6801333C4A13603B4B1A68404B1B689A4213D1334B1B680133324A1360364B1A683C4B1B689A4247D1384B00221A702C4B1B6801332B4A13603EE0E5
:400B80002E4B1A68344B1B689A4238D3304B00221A7034E02E4B1B78002B30D1274B1B68013B264A1360254B1A682B4B1B689A4202D3224B00221A60204B1A68254B1B6845
:400BC0009A4213D1184B1B680133174A13601B4B1A68224B1B689A4211D11D4B01221A70114B1B680133104A136008E0134B1A681A4B1B689A4202D8154B01221A700C4BF2
:400C000000221A600CE00A4B1B680133084A136006E0FFF729FCFFF757FC114B05221A7000BF0837BD4680BD948A0208908A0208888A02088C8A02089C8A0208788A020802
:400C400000001D41E89D0208DC9B0208988A02088C420208848A02087C8A0208808A0208A08A020880B500AF0D4802F087FF00F01FF800F025F800220021042001F07AF803
:400C8000084801F079FB084B1B6893F85130002B02D0064801F084FB00F086FC00BF80BDF4C60810A88A0208EC9D020810C1081080B400AF00BFBD465DF8047B704700BFFB
:400CC00080B491B000AFB04BD3F8803303F00F037B63AD4A7B6BD03352F8233003F007033B633B6B042B3AD801A252F823F000BF050D08100B0D0810110D0810170D0810EA
:400D00001F0D0810A14BFB632CE0A14BFB6329E09F4BFB6326E09F4B1B68FB6322E09A4A7B6BC03352F8233003F01F03FB62FB6A112B07D0132B09D0102B0BD14FF4FA43B9
:400D4000FB630BE04FF40043FB6307E04FF40043FB6303E04FF4FA43FB6300BF02E08C4BFB6300BF7B6B002B60D1874BD3F8903503F00103002B14BF0123002387F82B306B
:400D8000814BD3F8883503F040531B0F032B0CBF0123002387F82A307B4BD3F8883503F040531B0F002B07D0774BD3F8883503F040531B0F012B01D1012300E0002387F878
:400DC000293097F8293003F0010387F8293097F82930002B03D097F82B30002B03D197F82A30002B1FD0684BD3F88035C3F311037B62654BD3F88435C3F30C033B62624BF4
:400E0000D3F8803503F080731B0E0133FB61FA6B3B6AB2FBF3F37A6A02FB03F2FB69B2FBF3F3BB6360E0FB6BBB635DE07B6B012B58D1554BD3F8403603F00103002B14BFF9
:400E400001230023FB76504BD3F8003603F040531B0F032B0CBF01230023BB764A4BD3F8003603F040531B0F002B07D0464BD3F8003603F040531B0F012B01D1012300E071
:400E800000237B767B7E03F001037B767B7E002B02D0FB7E002B02D1BB7E002B1FD03A4BD3F8003603F07F037B61374BD3F8003603F4F8531B0A3B61334BD3F8003603F4AA
:400EC000F8131B0CFB60FB6B7A6902FB03F23B69B2FBF3F2FB68B2FBF3F3BB6304E0FB6BBB6301E0FB6BBB63274BD3F8803303F030031B09BA6B22FA03F3BB63264ABB6BEE
:400F00001360264BD3F8903003F47F431B0A0133BB60224B1B6903F07F431B0E01337B60BA6B7B68B2FBF3F31D4A1360BA6BBB68B2FBF3F3BB631B4ABB6B1360194B1B68E4
:400F4000194A1360184B1B6803F5742303F23F23164AA2FB03239B0CDAB2154B1A70124B1B6803F2E733134AA2FB03239B09124A1360114B1B68DB03104A136000BF443749
:400F8000BD465DF8047B70470000264000127A0000366E019C42020894420208000021409842020890420208A042020883DE1B43A8420208D34D6210A4420208AC4202080A
:400FC00080B582B000AF01F0D4FF7860094A094BD3F8883043F47003C2F88830BFF34F8FBFF36F8F786801F0C8FF00BF0837BD4680BD00BF00ED00E080B500AF012001F061
:4010000049FB00BF80BD00BF80B483B000AF78607B68D3F8403318460C37BD465DF8047B704700BF80B483B000AF78607B68D3F80833C3F3080318460C37BD465DF8047BA4
:40104000704700BF80B582B000AF78607868FFF7DBFF034618460837BD4680BD80B582B000AF78607868FFF7DDFF034618460837BD4680BD80B582B000AF78603960396848
:40108000786803F013FA034618460837BD4680BD80B582B000AF786000BF79680448FFF7E9FF0346002BF8D000BF0837BD4680BD0000664080B500AF00BF0648FFF7CEFF9E
:4010C0000346002BF9D00348FFF7BCFF0346184680BD00BF0000664080B483B000AF78607B681B6843F000427B681A6000BF0C37BD465DF8047B704780B483B000AF7860CA
:401100007B681B6843F000427B681A6000BF0C37BD465DF8047B704780B500AF0348FFF7DBFF0348FFF7E8FF00BF80BD000014410000104180B500AF0549064802F064FF49
:40114000054A0121054800F01DF800BF80BD00BF64C108100000144198C108100000104180B500AF064B1B78002B04D1FFF7E2FF034B01221A70FFF7CFFF00BF80BD00BF84
:40118000288C020880B586B000AFF8600B467A60FB72FB68002B04D14FF48971854801F029FE7B68002B04D140F21311814801F021FEFB68002B02D07B68002B02D17E4BC6
:4011C0007B61F2E0FB7A012B0AD0FB7A022B07D0FB7A032B04D04FF48F71764801F00AFE7B681B68002B09D07B681B68B3F1804F04D040F21F116F4801F0FCFD7B681B794B
:40120000032B04D94FF490716A4801F0F3FD7B685B79002B0CD07B685B79082B08D07B685B79102B04D040F22111624801F0E2FD7B68DB88002B09D07B68DB88B3F5006F01
:4012400004D04FF491715B4801F0D4FD7B681B89002B13D07B681B89B3F5807F0ED07B681B89B3F5007F09D07B681B89B3F5407F04D040F223114F4801F0BCFD7B689B7A67
:40128000002B08D07B689B7A802B04D04FF49271484801F0AFFD7B68DB7A002B08D07B68DB7A402B04D040F22511424801F0A2FD7B681B7B002B08D07B681B7B202B04D0F9
:4012C0004FF493713B4801F095FD7B681A68FB681A607B681A797B685B791343DBB21A467B68DB8813437A68128913437A68927A13437A68D27A13437A68127B1A437B6809
:401300005B79002B02D14FF4805300E0002313433B61FB7A012B02D0FB7A032B1ED1FB683A695A607B685B79082B01D1032200E00122FB68C3F8082FFB689A6A7B685B7BB2
:40134000002B01D0012300E000231A43FB689A62FB681B6A43F00102FB681A62FB7A022B02D0FB7A032B1ED1FB683A699A607B685B79082B01D1032200E00122FB68C3F889
:40138000142FFB689A6A7B685B7B002B01D0022300E000231A43FB689A62FB681B6A43F00202FB681A6200237B617B6918461837BD4680BDD4C2081001002E0080B483B0D8
:4013C00000AF0346FB80B7F90630002B0BDB0949B7F906305B09FA8802F01F02012000FA02F241F8232000BF0C37BD465DF8047B704700BF00E100E080B400AF084B1B68FE
:401400001A68074B1B68D3F8843013441B6803F07F431B0EDBB21846BD465DF8047B7047EC9D020880B400AF084B1B681A68074B1B68D3F8843013441B6803F47F431B0ACB
:40144000DBB21846BD465DF8047B7047EC9D020880B582B000AF78600E4B1B6893F831301A467B689A4204D840F2C3110A4801F0C1FC084B1B681A6A064B1B68B3F8B030F0
:4014800019467B6803FB01F3134418460837BD4680BD00BFEC9D020810C3081080B483B000AF78607B68DB6818460C37BD465DF8047B704780B483B000AF7860084B1B6880
:4014C000D3F8B4207B6813441B6803F00043DB0FDBB218460C37BD465DF8047B704700BFEC9D020880B584B000AFF860B9607A607B68002B04D140F29331074801F07AFC70
:401500007B681A46B968F86800F08AFB034618461037BD4680BD00BF10C3081080B584B000AF78601C4A7B6813601B4B1B68002B0BD0194B1B6802221A70174B1B68FF2264
:401540005A70154B1B6800225A80144B1B6893F85030002B1CD0114B1B68B3F938303B810023FB6007F108030D49184601F0BAFBB7F908301846FFF721FF084B1B6893F877
:401580005130002B04D002220649012001F046F800BF1037BD4680BD308C0208EC9D0208BD4A0208C147020880B500AF0248FFF7B5FF00BF80BD00BF548C020890B585B02F
:4015C00000AF78603960244BFB60786800F022F90346002B3BD03B68002B38D0FFF770FB1E4B1F4A1A601D4B00225A601B4A7B6893603B68194AD3601A4B1B6893F8523067
:40160000002B1ED0FFF7F8FE03465C1CFFF70AFF0346013303FB04F3134A02FB03F2134B1B681349A1FB03139B09B2FBF3F303F51953083319464FF480700AF015FDF86069
:4016400005E000214FF480700AF00EFDF860FB6818461437BD4690BD06005200348C020800010005EC9D0208C0EA210194420208D34D621080B500AF00F05AF903461846B1
:4016800080BD00BF90B585B000AF7860274BFB60786800F0BFF80346002B41D0FFF710FB234B4FF0E0521A60224B1B78DBB2002B05D01F4B1B6843F480731D4A13601C4A16
:4016C0007B6853601A4B00229A60194B0022DA60194B1B6893F85430002B1CD0FFF78CFE03465C1CFFF79EFE0346013303FB04F3124A02FB03F2124B1B681249A1FB031386
:401700009B09B2FBF3F303F69803194600200AF0ABFCF86004E0002100200AF0A5FCF860FB6818461437BD4690BD00BF06005200348C02080B000016EC9D020860F5900078
:4017400094420208D34D621090B585B000AF78603960294BFB60786800F05CF80346002B45D03B68002B42D0FFF7AAFA234B4FF0C0621A60224B1B78DBB2002B05D01F4B27
:401780001B6843F480731D4A13601C4B4FF480725A601A4A7B6893603B68184AD360194B1B6893F85330002B1CD0FFF725FE03465C1CFFF737FE0346013303FB04F3124AFB
:4017C00002FB03F2114B1B681149A1FB03139B09B2FBF3F303F56173194600200AF044FCF86004E0002100200AF03EFCF860FB6818461437BD4690BD06005200348C0208C9
:401800000B000016EC9D0208808D5B0094420208D34D621080B483B000AF78607B68C3F30803002B0CBF01230023DBB218460C37BD465DF8047B704780B485B000AF78609F
:401840007B682E4A93423FD02C4A93420ED8402B40D0402B04D8002B1FD0102B37D042E0802B3AD0B3F5807F3AD03CE0244A934219D0234A934206D8B3F1204F10D0214A8C
:4018800093421DD02FE0204A934213D01F4A934213D01F4A93420AD025E00023FB6025E00023FB6022E04FF4A403FB601EE0194BFB601BE0184BFB6018E0184BFB6015E08E
:4018C0004FF4A003FB6011E00C4BFB600EE0144BFB600BE0134BFB6008E0134BFB6005E0064BFB6002E0114BFB6000BFFB6818461437BD465DF8047B704700BF060052007D
:40190000010000F0090000A0040000F0050000F0030000F0010052000200520003005200010050000200500005005200FF00520080B582B000AF134B7B600120FFF788FDFF
:4019400003461846FFF7B6FD034683F00103DBB2002B12D00C4B1B681846FFF76DFF78600A4B1B685B681A460123936000BF074B1B685B689B68002BF9D17B68184608376A
:40198000BD4680BD02005000348C0208EC9D020880B586B000AF78603960524B7B617B68002B00F099803B68002B00F095803B681B6823F0FF03002B03D099214A4801F0D4
:4019C00019FA3B681B6923F0FF03002B03D09A21454801F00FFA3B689B685B0D5B05002B03D09B21404801F005FA3B685B6823F4FF7323F00103002B03D09C213A4801F084
:401A0000F9F93B68DB6903F06043002B03D09D21354801F0EFF93B681B6A03F06043002B03D09E21304801F0E5F97A682F4B1B689B69D31ADB093B612C4B1B685A693B69B2
:401A40001B011344FB603B681A687B681A60274B1B6893F87D301A467B6813441A463B68DB681360214B1B6893F87E301A467B6813441A463B681B6913601C4B1B6893F865
:401A80007F301A467B6813441A463B685B691360164B1B6893F87C301A467B6813441A463B689B6813603B685A687B689A610F4B1B6893F880301A467B6813441A463B687D
:401AC0009B6913603B68DA69FB681A603B681A6AFB685A6000237B617B6918461837BD4680BD00BF01005A0090C30810EC9D020880B582B000AF786039603B681B0C1B0410
:401B0000002B04D040F2BB21054801F073F93B689AB27B689A6000BF0837BD4680BD00BFD0C3081080B582B000AF786039603B681B0C1B04002B04D040F2D521054801F0A5
:401B400059F93B689AB27B685A6000BF0837BD4680BD00BFD0C3081080B483B000AF786039607B683A68DA6000BF0C37BD465DF8047B704780B483B000AF78607B68DB68F5
:401B800018460C37BD465DF8047B704780B483B000AF7860084B1B68D3F8B4207B6813441B6803F00043DB0FDBB218460C37BD465DF8047B704700BFEC9D020880B483B041
:401BC00000AF78607B681B6803F00043002B01DA002300E0034B18460C37BD465DF8047B704700BF01008A0080B584B000AF786039607868FFF7CAFF0346002B06D03968DF
:401C00007868FFF78FFF0023FB6001E0034BFB60FB6818461037BD4680BD00BF01008A0080B586B000AFF860B9607A60F868FFF7C5FF0346002B0AD17968F868FFF78CFF16
:401C4000B968F868FFF754FF00237B6101E0034B7B617B6918461837BD4680BD01008A0080B584B000AF786039603B68002B03D199210C4801F0BEF87868FFF787FF0346AF
:401C8000002B08D07868FFF775FF02463B681A600023FB6001E0044BFB60FB6818461037BD4680BD10C4081001008A0080B582B000AF78600E4B1B6893F831301A467B68B1
:401CC0009A4204D840F2C3110A4801F093F8084B1B681A6A064B1B68B3F8B03019467B6803FB01F3134418460837BD4680BD00BFEC9D020850C4081080B483B000AF7860CB
:401D00007B68DB6818460C37BD465DF8047B704780B584B000AFF860B9607A607B68002B04D140F29331074801F064F87B681A46B968F868FFF774FF034618461037BD4658
:401D400080BD00BF50C4081080B483B000AF78607B681B6803F00043002B01DA002300E0034B18460C37BD465DF8047B704700BF01008A0080B586B000AFF860B9607A607C
:401D8000144B7B617B68002B0BD1BB68002B08D1F868FFF78BFF02460F4B1A6000237B6113E07B68002B0ED0BB68002B0BD00B4ABB681360094A7B6853600849F86800F05F
:401DC0000FF8786101E0034B7B617B6918461837BD4680BD03018A00588C02085C8C020880B584B000AF78603960284BFB60284B1B6893F831301A467B689A4202D8234B19
:401E0000FB603EE03B68002B39D03B681B6803F01F03002B30D17868FFF748FF02461D4B1A603B6858683B681B68DB081A46002107F0B6FB174B1B6800211846FFF7D4FEE3
:401E4000144B1B683A6800211846FFF761FF0346002B0ED10F4B1B6800211846FFF7C4FE0346002B02D10023FB600AE00A4BFB6007E0094BFB6004E0044BFB6001E0034BF0
:401E8000FB60FB6818461037BD4680BD03018A00EC9D0208588C020801018A0080B588B000AF78600B46FB700023FB612E4BBB612E4B1B681846FFF71FFF03467B617B69A9
:401EC0001A687B689A4248D97B685B093B613B695B017A68D31A012202FA03F3FB60FB7883F00103DBB2002B02D001F042F8F8611E4B1B681846FFF727FF0346002B22D199
:401F00007B695A683B699B0013441A68FB681340002B10D17B695A683B699B0013447A6951683A6992000A441168FA680A431A600023BB6101E00E4BBB610C4B1B68002194
:401F40001846FFF751FEFB7883F00103DBB2002B05D0F86901F011F801E0064BBB61BB6918462037BD4680BD03018800588C02080201880004018A0080B588B000AF7860FD
:401F80000B46FB700023FB612F4BBB612F4B1B681846FFF7B1FE03467B617B691A687B689A4249D97B685B093B613B695B017A68D31A012202FA03F3FB60FB7883F00103D8
:401FC000DBB2002B02D000F0D4FFF8611F4B1B681846FFF7B9FE0346002B23D17B695A683B699B0013441A68FB681340002B11D07B695A683B699B0013447A6951683A69E0
:4020000092000A441168FA68D2430A401A600023BB6101E00E4BBB610C4B1B6800211846FFF7E2FDFB7883F00103DBB2002B05D0F86900F0A2FF01E0064BBB61BB69184610
:402040002037BD4680BD00BF03018800588C02080201880004018A0080B586B000AF7860164B1B681846FFF747FE03463B613B691A687B689A421AD97B685B09FB60FB6845
:402080005B017A68D31A012202FA03F3BB603B695A68FB689B0013441A68BB681340002B02D0074B7B6104E0064B7B6101E0064B7B617B6918461837BD4680BD588C020809
:4020C000010188000001880004018A0080B483B000AF0346FB80B7F90630002B0BDB0949B7F906305B09FA8802F01F02012000FA02F241F8232000BF0C37BD465DF8047BD8
:40210000704700BF00E100E080B582B000AF78600E4B1B6893F831301A467B689A4204D840F2C3110A4800F065FE084B1B681A6A064B1B68B3F8B03019467B6803FB01F31F
:40214000134418460837BD4680BD00BFEC9D020890C4081080B582B000AF78600C4B1B6893F832301A467B689A4204D840F2DF11084800F03FFE064B1B681B6A1A467B6882
:4021800080335B01134418460837BD4680BD00BFEC9D020890C4081080B584B000AFF860B9607A607B681B0C1B04002B04D04FF4FF710C4800F01EFEBB681B0C1B04002BEC
:4021C00004D040F2FF11074800F014FE7B681A04BB689BB21A43FB689A6000BF1037BD4680BD00BF90C4081080B483B000AF78607B68DB6818460C37BD465DF8047B704799
:4022000080B483B000AF78607B681B6818460C37BD465DF8047B704780B584B000AFF860B9607A607B681B0C1B04002B04D04FF426710D4800F0DEFDBB681B0C1B04002B02
:4022400004D040F29921084800F0D4FD7B681A04BB689BB21A43FB681A60FB681B6800BF1037BD4680BD00BF90C4081080B582B000AF786039603B681B0C1B04002B04D01C
:4022800040F2BB21054800F0B5FD3B689AB27B689A6000BF0837BD4680BD00BF90C4081080B483B000AF786039607B683A68DA6000BF0C37BD465DF8047B704780B483B0AF
:4022C00000AF7860084B1B68D3F8B4207B6813441B6803F00043DB0FDBB218460C37BD465DF8047B704700BFEC9D020880B483B000AF78607B681B0C18460C37BD465DF806
:40230000047B704780B483B000AF78607B689BB218460C37BD465DF8047B704780B582B000AF786039603B68002B04D140F2B631054800F05FFD39687868FFF791FC0346F1
:4023400018460837BD4680BD90C4081080B483B000AF78607B681B6803F00043002B01DA002300E0034B18460C37BD465DF8047B704700BF01008A0080B483B000AF7860CC
:40238000064B1B68002B02D1044A7B68136000BF0C37BD465DF8047B704700BF648C0208B0B590B002AF78607B68002B03D152212F4800F01FFD7B689B69072B03D95621EC
:4023C0002B4800F017FD7B68DB6A002B03D15821274800F00FFD7B681B6B002B03D15921234800F007FD7B6807F11C0403F114050FCD0FC42B6823607B6807F108041D4603
:402400000FCD0FC42B6823601A4B1B68B3F936309AB2FB699BB213449BB21BB23B863B6A7B63B86A7B68D96A7B689A6AFC6A07F130030093234600F01FF87869BA69002341
:40244000009313460022002100F016F87B681A6B07F130031146184600F044FCB7F930301846FFF733FE00BF3837BD46B0BD00BFD0C40810EC9D020880B586B000AFF86014
:40248000B9607A603B60254B1B68002B03D1B521234800F0AFFC214B1A68FB682C2101FB03F313447B613B68DAB27B691A603B681B0ADAB27B695A603B681A0C7B699A60D7
:4024C0007B691B681846FFF71FFE02467B691A617B695B681846FFF73DFE02467B695A617B6958697B6999687B699B681A46FFF753FE7B697A68DA617B69BA681A627B69C1
:4025000000229A613B6A002B04D03B6AB3F900207B699A8100BF1837BD4680BD648C0208D0C4081080B58AB000AFF860B9607A603B607B68002B03D1FD21344800F05AFCB0
:40254000334B1B68002B03D1FE21304800F052FC2F4B1A68FB682C2101FB03F313443B622B4B1A68BB682C2101FB03F31344FB61FB695B68012202FA03F3BB61BB691B044C
:40258000BB613B6A5B68012202FA03F37B613B6A1B69002B32D0FB699B69002B2BD13B6A1B691846FFF7D2FE0346002B20D17B681B689AB27B681A607B681A68BB691A431A
:4025C0007B681A603B6A1B697A6811461846FFF767FEFB6901229A61FB693A685A623B6A1B6979691846FFF741FE00237B6207E0084B7B6204E0074B7B6201E0064B7B6248
:402600007B6A18462837BD4680BD00BFD0C40810648C020807028A0004028A0080B586B000AFF860B9607A60174B1B68002B04D14FF4AF71154800F0DDFB134B1A68FB681B
:402640002C2101FB03F313443B613B691B6A002B04D14FF4B1710D4800F0CCFB3B69DA697B689A4209D93B691A6A7B689B001344BA681A6000237B6101E0054B7B617B697D
:4026800018461837BD4680BD648C0208D0C408100A028A0080B584B000AF78600B4B1B68002B04D140F2B111094800F0A3FB074B1A687B682C2101FB03F31344FB60F8684D
:4026C00000F008F800BF1037BD4680BD648C0208D0C4081090B589B000AF78600023FB600023FB617B68002B04D140F2D1114C4800F080FB7B681B69002B04D14FF4E97102
:40270000474800F077FB7B685B69002B04D140F2D311434800F06EFB7B681B6A002B04D14FF4EA713E4800F065FB7B685B691846FFF75AFDB861B869FFF7D8FD0346002B60
:402740003ED07B685C69B869FFF7D0FD03461A4600212046FFF760FD7B681B691846FFF7ADFD0346002B2BD07B681B6907F10C0211461846FFF7D2FD0346002B1AD1FB68BF
:402780001B681B0CFB61FB681B68DBB27B617B68DA697B699A420DD97B681A6A7B699B0013441B683B613B69002B03D0FA683B69104698477B681B69F9691846FFF714FA94
:4027C000B869FFF79FFD0346002B1FD07B685C69B869FFF797FD0346002219462046FFF71BFD7B685B6A002B06D07B685B6A98477B6800225A6206E07B689B6A002B02D076
:402800007B689B6A98477B6800229A617B685B691846FFF7F5FC00BF2437BD4690BD00BFD0C4081080B582B000AF0346FB710E4B1B689A6CFB7922FA03F303F00103002BBB
:4028400003D1BE21094800F0D5FA074B1B681B691A46FB7910339B0213441B6803F00F0318460837BD4680BDEC9D020810C5081080B584B000AF7860144B1B6893F83C3083
:402880001A467B689A4204D84FF4A171104800F0B1FA104A7B68D03352F823309BB203F00703FB81FB89042B0BD10A4A7B68C03352F823309BB203F01F039BB243F4807303
:4028C000FB81FB8918461037BD4680BDEC9D020894C508100000264080B489B000AF03463960FB801346BB80884BFB610023BB6100237B6100233B610023FB60FB88B3F5A7
:40290000C26F80F0FB80BB88B3F5C26F80F0F6803B68B3F1807F80F0F1807D4B01221A70FB88FF2B12D8FB8803F00F03BA691343BB617B6943F007037B613B6943F00F0343
:402940003B61FB6843F00F03FB6034E0FB88B3F5A06F0AD2FB8803F00F037A6913437B61FB6843F00F03FB6025E0FB881B0A9BB203F00F037A6913437B61FB6843F00F0332
:40298000FB60FB88B3F5C06F0AD2FB881B01DBB27A6913437B61FB6843F0F003FB600AE0FB881B0203F470637A6913437B61FB6843F47063FB60BB88FF2B12D8BB881B017A
:4029C000DBB2BA691343BB617B6943F4E0237B613B6943F0F0033B61FB6843F47023FB6037E0BB88B3F5A06F0BD2BB881B0403F470237A6913437B61FB6843F47023FB6056
:402A000027E0BB881B0A9BB21B0403F470237A6913437B61FB6843F47023FB60BB88B3F5C06F0BD2BB881B0503F470037A6913437B61FB6843F47003FB600AE0BB881B0605
:402A400003F070637A6913437B61FB6843F07063FB6000BF2F4B1B681A6A2E4B1B68B3F8B03019460B46DB005B1A13441B68002BF0DA294B1B7883F00103DBB2002B06D114
:402A8000264BD3F81C3503F00043002B27DA244B41F61F721A60234B43F63D521A601F491E4BD3F818253B69DB431A40BB691343C1F818351949194BD3F81425FB68DB4306
:402AC0001A407B691343C1F81435174A3B681360124A154B1B68C2F81C350023FB610D4B1B681A6A0B4B1B68B3F8B03019460B46DB005B1A13441A4600235360FB691846EE
:402B00002437BD465DF8047B704700BF01004A006C8C0208EC9D02086D8C0208000026400801264004012640688C0208F0B585B000AF03463960FB710023FB600023FB72E7
:402B40004D4B00221A7000BF4C4B1B681A6A4B4B1B68B3F8B03019460B46DB005B1A13441B68002BF0DA464B1B6841F61F72934207D1444B1B6843F63D52934201D1012313
:402B800000E00023FB72FB7A03F00103FB723E4BD3F8203523F07F43FB60384B1B681A6A364B1B68B3F8B03019460B46DB005B1A13441A4600235360FB7A002B55D0FB6825
:402BC000002B52D0FB7983F00103DBB2002B25D02E4B1B6819464FF000023B684FF0000403FB02F501FB04F02844A1FB033402191446FA68520811464FF000025D1844EBDD
:402C0000020628463146FB684FF000041A46234606F020FB03460C46FB6028E0FB6819464FF000023B684FF0000403FB02F501FB04F02844A1FB033402191446134A1268D0
:402C4000520811464FF000025D1844EB0206284631460E4B1B684FF000041A46234606F0F9FA03460C46FB6001E00023FB60FB6818461437BD46F0BD6C8C0208EC9D02085A
:402C8000080126400401264000002640688C020880B483B000AF03463960FB80B7F90630002B0ADB0D49B7F906303A68D2B25201D2B20B4483F800230AE00949FB8803F095
:402CC0000F03043B3A68D2B25201D2B20B441A7600BF0C37BD465DF8047B704700E100E000ED00E080B584B000AF786039600023FB607B68002B1DD07B685B68072B03D9D3
:402D00003221104800F076F87B68B3F900207B685B6819461046FFF7BBFF0B4B9B680B4A934209D17B68B3F900303968184600F011F801E0064BFB60FB6818461037BD4624
:402D400080BD00BF30C6081000ED00E0004002080100560080B584B000AF03463960FB80134B9B68134A934216D13B68002B04D140F23711104800F03DF8B7F90630103329
:402D80000C4A52F82330FB60B7F90630103309493A6841F8232006E0B7F906301033074A52F82330FB60FB6818461037BD4680BD00ED00E00040020830C60810000008104F
:402DC00080B582B000AF0346FB80FB88054A127802FB03F3184600F0C3F800BF0837BD4680BD00BFA842020880B483B000AF786001BEFEE780B582B000AF7860396018225D
:402E00007968044807F010F9034A3B6813600020FFF7EAFF485002086050020880B400AF054B1B685B681A460123936000BFBD465DF8047B704700BFEC9D020880B584B0AF
:402E400000AF78607B681B68414A13607B685B683F4A53607B689B683D4A93607B68DB683B4AD3607B681B69394A13617B685B69374A53617B689B69354A93617B68DB698C
:402E8000334AD361334B9B6A314A1362314BDB6A2F4A53622F4B5B6A2D4A93622D4B5B6B2B4AD3622B4B9B6B294A1363F1EE103AFB60FB6803F09003002B43D07B681B6AF4
:402EC000234A53637B685B6A214A93637B689B6A1F4AD3637B68DB6A1D4A13647B681B6B1B4A53647B685B6B194A93647B689B6B174AD3647B68DB6B154A13657B681B6CA6
:402F0000134A53657B685B6C114A93657B689B6C0F4AD3657B68DB6C0D4A13667B681B6D0B4A53667B685B6D094A93667B689B6D074AD3667B68DB6D054A13677B681B6EC5
:402F4000034A536700F008F800BF1037BD4680BD6450020800ED00E080B400AFFEE700BF0230800803D001300238FCD100BF00BF7047EFF3108072B6704780F310887047F5
:402F800080B400AF4FF0B0535B78DBB2002B04D04FF0B0535B78DBB200E021231846BD465DF8047B704700BF80B400AF4FF0B0539B899BB2002B04D04FF0B0539B899BB2D4
:402FC00001E04FF480731846BD465DF8047B704780B483B000AF00237B60094B1B6893F84430002B04D0074B9B6903F007037B607B68DBB218460C37BD465DF8047B704718
:40300000EC9D02080000264080B582B000AF78600E4B1B6893F831301A467B689A4204D840F2C3110A48FFF7E5FE084B1B681A6A064B1B68B3F8B03019467B6803FB01F3C8
:40304000134418460837BD4680BD00BFEC9D020874C6081080B483B000AF78607B68DB6818460C37BD465DF8047B704780B483B000AF7860084B1B68D3F8B4207B68134498
:403080001B6803F00043DB0FDBB218460C37BD465DF8047B704700BFEC9D020880B586B000AF0346FB7100233B6100237B61FB79002B07D0FB79012B04D04FF4E0712548E7
:4030C000FFF798FE244A3B6952F82330002B04D00121002000F072FA78617B69002B2ED1FFF747FFF8601C4A3B6952F82330002B03D00421002000F061FA184A174B1B6900
:4031000023F004031361FB79012B01D030BF08E020BF134B1B78002B00D020BF104B01221A70F868FFF729FF0B4A3B6952F82330002B0AD00821002000F040FA05E0022173
:40314000002000F03BFA074B7B617B6918461837BD4680BDB4C60810708C020800ED00E0848C0208FF00420080B584B000AF0346FB71FB79022B07D0FB79052B04D040F25C
:4031800002712648FFF736FE254BFB6000F0D2FC0346002B3DD0FFF7ECFEB860FB79022B09D1012000F0D0FAF860FB68002B11D100F05AFB0EE01B4A1A4B5B6923F0070306
:4031C00043F0030353613420FFF7FAFD00F060FC0023FB60FB68002B18D11249114B5B6923F00702FB7903F0070313434B61FB79022B02D100F00AFC08E09120FFF7E0FD80
:4032000000F09CFB002000F09FFAF860B868FFF7B4FEFB6818461037BD4680BDB4C60810030042000000264080B584B000AF0346FB71FB79002B07D0FB79012B04D040F2D0
:4032400062711748FFF7D6FD0023FB73FB79002B03D1144B5B69DB0FFB73134B1B6893F84430002B17D0FB79012B14D10D4B9B6903F080439B0F002B05D10A4B9B6903F054
:403280000043002B01DA012300E00023FB73FB7B03F00103FB73FB7B18461037BD4680BDB4C6081000002640EC9D020880B584B000AF03460A46FB711346BB71214B1B68DE
:4032C00093F84430002B38D0FB79002B19D0FB79012B16D0FB79022B13D0FB79032B10D0FB79042B0DD0FB79052B0AD0FB79062B07D0FB79072B04D040F2CC711248FFF7D5
:4033000079FDFFF765FE0346FB60FA79FB689A4213D00E490D4B9B6923F00702FB7903F0070313438B61BB79002B06D0FA79FB689A4202D9C820FFF743FD00BF1037BD461A
:4033400080BD00BFEC9D0208B4C608100000264080B586B000AF0346FB71FB79002B07D0FB79012B04D04FF402613B48FFF742FD3A4B7B6100F0DEFB0346002B66D0FFF7E5
:40338000F8FDF860FB79002B15D1354B03F5FE43303300221A604FF0B05393F84037DBB23B61012000F0D0F978617B69002B28D100F05AFA25E02A494FF0B05303F5C05352
:4033C00010331A6801F5FE4330331A604FF0B05393F84137DBB23B612149214B03F57F431C331B6823F01F0343F00B0201F57F431C331A600320FFF7E3FC00F049FB0023DF
:403400007B617B69002B1ED11549154B03F57F431C331B6823F01F023B6903F01F031A4301F57F431C331A60FB79002B02D100F0EDFA08E00720FFF7C3FC00F07FFA002007
:4034400000F082F97861F868FFF797FD7B6918461837BD4680BD00BFB4C60810030042000000264080B487B000AF78600023FB757B68002B3BD07B68DB68002B37D07B6878
:403480001B68002B33D07B681B79BB600123FB751A4ABB6852F823303B610023FB600BE03A697B689A4202D10023FB7507E03B69FB603B695B693B613B69002BF0D1FB7D52
:4034C000002B14D00D4ABB6852F82330002B05D10A49BB687A6841F8232002E0FB687A685A617B68FA681A617B6800225A61FB7D18461C37BD465DF8047B7047708C0208B2
:4035000080B487B000AF78600023FB757B68002B4AD07B681B79FB60274AFB6852F823303B6109E03A697B689A4202D10123FB7505E03B695B693B613B69002BF2D1FB7D5A
:40354000002B31D01C4AFB6852F823207B689A421CD1194AFB6852F823305B69002B0FD0154AFB6852F823305A691349FB6841F82320114AFB6852F8233000221A6113E0A4
:403580000D4AFB68002142F823100DE03B691B693A6952695A613B695B69002B04D03B695B693A6912691A61FB7D18461C37BD465DF8047B704700BF708C020880B586B046
:4035C00000AF03460A46FB711346BB71FB79002B10D0FB79012B0DD0FB79022B0AD0FB79042B07D0FB79032B04D040F6B2114148FFF700FCBB79012B0DD0BB79022B0AD03F
:40360000BB79042B07D0BB79082B04D040F6B3113848FFF7EFFB00237B61FB79364A52F823303B61BB79042B1FD0BB79012B27D11BE0BA793B699B681340002B12D13B690B
:40364000DB681B68BB603B69DB685B68FB603B691B68B97907F10802104698477861274A3B6913603B695B693B613B69002B3AD07B69234A9342DCD1BB79012BD9D132E0A7
:40368000BB79022B08D002E03B695B693B613B695B69002BF8D122E0184B1B683B613B69002B1CD03B691B693B6118E0BA793B699B681340002B0FD13B69DB681B68BB60D7
:4036C0003B69DB685B68FB603B691B68B97907F108021046984778613B691B693B613B69002BE3D100E000BF7B6918461837BD4680BD00BFB4C60810708C0208A88C020810
:40370000FF00420080B582B000AFFFF732FC78600B490B4B5A680B4B134043F468534B600749074B5A68074B13404B60044B5B687868FFF722FC00BF0837BD4680BD00BFCD
:4037400000002640FF00FC0F80B588B000AF0346FB71FB79012B07D0FB79002B04D040F64C213A48FFF746FB394BFB61FFF708FC0346FB82FFF718FC0346BB820E20FFF76E
:4037800051F80346002B1ED1BB8AB3F5807F1AD1FB8A222B17D82F4B1B685B6819462D4B1B685B6803F5704318331B6823F08072FB791B0603F080731A4301F5704318339E
:4037C0001A600023FB61BB8AB3F5807F02D1FB8A222B03D8BB8AB3F5807F31D00120FFF713FC3861BB8AB3F5807F07D1FB79002B01D0194B00E0194BBB6106E0FB79002B3B
:4038000001D0174B00E0174BBB61BA6901213869FEF706FA0346002B12D100BF3869FFF725FC0346002BF9D13869FFF713FCF860FB6803F07F43B3F1204F01D10023FB6196
:40384000FB6918462037BD4680BD00BFB4C6081004004200EC9D020801010030010000300300000C0100000C80B500AFFFF79CFB0346B3F5807F2ED12F4B1B681A682E4BEE
:403880001B68D3F89830134419462B4B1B681A68294B1B68D3F8983013441B6823F00F0343F002030B60244B1B681A68224B1B68D3F89C30134419461F4B1B681A681E4B0C
:4038C0001B68D3F89C3013441B6823F00F0343F002030B602DE0184B1B681A68164B1B68D3F89830134418464FF0B05303F5C25308331B6823F440720F4B1B6819680E4BDE
:403900001B68D3F898300B441B68134343F440730360094B1B681A68074B1B68D3F89C3013441A464FF0B05303F5C25304331B68136000BF80BD00BFEC9D020880B500AFD2
:40394000FFF732FB0346B3F5807F2ED12E4B1B681A682D4B1B68D3F89830134419462A4B1B681A68284B1B68D3F8983013441B6823F00F0343F003030B60234B1B681A685A
:40398000214B1B68D3F89C30134419461E4B1B681A681D4B1B68D3F89C3013441B6823F00F0343F003030B602BE0174B1B681A68154B1B68D3F89830134418464FF0B05359
:4039C00003F5C1531B6823F440720F4B1B6819680D4B1B68D3F898300B441B68134343F440730360084B1B681A68074B1B68D3F89C3013441A464FF0B05303F5C1531B68E2
:403A0000136000BF80BD00BFEC9D020880B500AFFFF7CAFA0346B3F5807F17D11B4B1B681A681A4B1B68D3F8983013441946174B1B681A68154B1B68D3F8983013441B68FC
:403A400023F4E04343F4C0430B601DE00F4B1B681A680E4B1B68D3F89830134418464FF0B05303F5C05318331B6823F44072074B1B681968054B1B68D3F898300B441B6875
:403A8000134343F44073036000BF80BDEC9D020880B500AFFFF788FA0346B3F5807F17D1234B1B681A68224B1B68D3F89830134419461F4B1B681A681D4B1B68D3F8983007
:403AC00013441B6823F4E04343F480430B602DE0174B1B681A68164B1B68D3F89830134418464FF0B05303F5C2530C331B6823F440720F4B1B6819680D4B1B68D3F8983007
:403B00000B441B68134343F440730360084B1B681A68074B1B68D3F89C3013441A464FF0B05303F5C2530C331B68136000BF80BDEC9D020880B582B000AF0123FB71FFF7E6
:403B400033FA0346B3F5807F13D10E20FEF76AFE3860FFF715FA0346222B02D83B68002B01D1012300E00023FB71FB7903F00103FB71FB7918460837BD4680BD80B483B0EA
:403B800000AF7860044A7B68136000BF0C37BD465DF8047B704700BFEC9D020880B487B000AF0346B9607A60FB73324B7B61FB7B002B27D1BB68072B54D87B68FF2B51D88B
:403BC000BB689A002C4B1B689B682B490968B1F874100B4413441846BB689A00264B1B689B6825490968B1F874100B4413441B6823F47F427B681B029BB21343036000230B
:403C00007B612FE0FB7B012B2CD1BB680F2B29D87B68B3F5803F25D2BB689A00164B1B689B6815490968B1F876100B4413441846BB689A00104B1B689B680F490968B1F8A5
:403C400076100B4413441B6823F47F0222F47F427B681B0223F07F4323F0FF031343036000237B617B6918461C37BD465DF8047B704700BF01004A00EC9D020880B487B059
:403C800000AFB9607A603B600346FB73544B7B61FB7B022B52D1BB68032B00F29A807B68B3F5803F80F095803B681F2B00F29180BB689A004B4B1B689B684A490968B1F82D
:403CC00078100B4413441846BB689A00454B1B689B6844490968B1F878100B4413441B6823F47F0222F47F427B681B0223F07F4323F0FF0313430360BB689A00394B1B6837
:403D00009B6838490968B1F878100B4413441846BB689A00334B1B689B6832490968B1F878100B4413441B6823F0F8023B68DB00DBB21343036000237B614AE0FB7B032BB4
:403D400047D1BB68002B44D17B68B3F1807F40D23B681F2B3DD8BB689A00224B1B689B6820490968B1F87A100B4413441846BB689A001C4B1B689B681A490968B1F87A10BC
:403D80000B4413441B68DAB27B681B0213430360BB689A00134B1B689B6812490968B1F87A100B4413441846BB689A000D4B1B689B680C490968B1F87A100B4413441B6834
:403DC00023F0F8023B68DB00DBB21343036000237B617B6918461C37BD465DF8047B704701004A00EC9D020890B484B000AF03463A60FB710B46BB71254BFB60254B1B6841
:403E000093F83F30FA799A423CD2BB79032B39D8BB79002B02D13B68072B11D9BB79012B02D13B680F2B0BD9BB79022B02D13B68032B05D9BB79032B24D13B68002B21D1D9
:403E4000144B1B689B681846FB79BA791149096891F8711002FA01F10E4A126892F8712014460322A24011400A4A126892F8702014463A6822400A4303F5407340F823203D
:403E80000023FB60FB6818461037BD4690BC704701004A00EC9D020890B484B000AF03463960FB712E4BFB60FB79032B52D8FB79002B02D13B68072B11D9FB79012B02D1DF
:403EC0003B680F2B0BD9FB79022B02D13B68032B05D9FB79032B3DD13B68002B3AD1214B1B689B6818461F4B1B6893F873301A46032303FA02F21B4B1B6893F87030194600
:403F0000184B1B6893F8723001FA03F31A43FB791449096891F8711003FA01F1114B1B6893F871301C460323A3400B401A430D4B1B6893F8703019463B680B40134343F0EB
:403F40000043C0F80034074B1B689B68D3F800340023FB60FB6818461037BD4690BC704701004A00EC9D020880B485B000AF03463960FB71224BFB60FB79032B38D8FB797D
:403F8000002B02D13B68072B11D9FB79012B02D13B680F2B0BD9FB79022B02D13B68032B05D9FB79032B23D13B68002B20D1154B1B689B681946FB79124A126892F87120EE
:403FC00003FA02F20F4B1B6893F871301846032383401A400B4B1B6893F8703018463B680340134343F08043C1F800340023FB60FB6818461437BD465DF8047B704700BFCE
:4040000001004A00EC9D020890B589B002AF786039607B68002B03D149218D48FEF7EAFE3B68002B03D14A218948FEF7E3FE00233B610023FB600023BB607B68002B02D0F5
:404040003B68002B02D1834B7B61FCE03B681B78002B07D03B681B78012B03D058217C48FEF7C8FE3B685B68002B08D03B685B68B3F1807F03D059217548FEF7BBFE3B68E7
:404080001B7A042B03D95A217148FEF7B3FE3B685B89002B12D03B685B89B3F5807F0DD03B685B89B3F5007F08D03B685B89B3F5407F03D05B216648FEF79CFE3B68DB6801
:4040C000002B17D03B68DB68B3F5800F12D03B68DB68B3F5400F0DD03B68DB68B3F1006F08D03B68DB68B3F1086F03D05C215848FEF780FE3B681B7C012B07D03B681B7C49
:40410000002B03D05D215248FEF774FE3B685B69002B08D03B685B69B3F1804F03D05E214B48FEF767FE3B689B693F2B03D95F214748FEF75FFE3B689B6903F03F033A69B2
:4041400013433B613B685B891A463B6913433B613B681B7A032B07D03B681B7A022B03D03B681B7A042B03D13B6943F080533B613B681B7A042B03D13B6943F000533B61D9
:404180003B685B683A6913433B613B685B693A6913433B613B68DB683A6913433B613B681B78012B04D1FB6843F00103FB6004E0BB6843F00103BB6000BF3B681B7C012BE3
:4041C00004D1FB6843F48073FB6004E0BB6843F48073BB6000BF3B6893F824301A467B689A627B6801229A627B68FA68C3F8B0207B68BA68C3F8B4203B68DB69C3F30B0226
:404200007B68C3F800213B681B6AC3F30B027B68C3F804213B6893F82530002B0ED03B68187A3B6893F826103B689A6A3B68DC6A3B681B6B0093234600F00EF87B683A69BB
:404240001A6000237B617B6918461C37BD4690BD74C808100100660080B584B000AFBA607B600346FB730B46BB73FB7B002B49D0FB7B032B23D1BB7BB9681846FFF774FE73
:40428000BB7BBA6819463720FFF7AEFDBB7B002B02D0BB7B012B06D1BB7B0022B9681846FFF77CFC05E0B87B00230022B968FFF7E5FCBB7BB9681846FFF7EEFD22E0BB7B7B
:4042C000B9681846FFF750FEBB7BBA6819463720FFF78AFDBB7B002B02D0BB7B012B06D1BB7B7A68B9681846FFF758FC05E0B87BBB697A68B968FFF7C1FCBB7BB96818467C
:40430000FFF7CAFD00BF1037BD4680BD80B483B000AF78607B68D3F8403318460C37BD465DF8047B704700BF80B483B000AF78607B68D3F80833C3F3080318460C37BD4641
:404340005DF8047B704700BF80B483B000AF786039607B683A68C3F8402200BF0C37BD465DF8047B704700BF80B483B000AF78607B68D3F80832C3F3080318460C37BD4640
:404380005DF8047B704700BF80B483B000AF78607B681B6803F40063002B01D0802300E0402318460C37BD465DF8047B704700BF80B483B000AF78607B68D3F8003303F073
:4043C0000F03072B94BF01230023DBB218460C37BD465DF8047B704780B483B000AF78607B68D3F8003203F00F03072B94BF01230023DBB218460C37BD465DF8047B7047C8
:4044000090B589B000AFF860B9607A60F868FFF7CFFF0346002B15D0BB68BB610023FB610BE0BA69FB69D418F868FFF76FFF0346DBB22370FB690133FB61FA697B689A4228
:40444000EFD315E0BB687B610023FB610CE0FB695B007A69D418F868FFF758FF03469BB22380FB690133FB61FA697B689A42EED300BF2437BD4690BD80B586B000AFF860F4
:40448000B9607A60F868FFF74FFF78617A697B689A4201D97B687B617A69B968F868FFF7AFFF7B6918461837BD4680BD90B585B000AF786039600023FB607868FFF764FF27
:4044C00004467868FFF750FF03469C4205D039687868FFF739FF0123FB60FB6818461437BD4690BD80B588B000AFF860B9607A60F868FFF771FF0346002B14D0BB68BB6103
:404500000023FB610AE0BA69FB6913441B781946F868FFF719FFFB690133FB61FA697B689A42F0D314E0BB687B610023FB610BE0FB695B007A6913441B881946F868FFF74D
:4045400003FFFB690133FB61FA697B689A42EFD300BF2037BD4680BD90B587B000AFF860B9607A60F868FFF70FFF0446F868FFF7FBFE0346E31A7B617A697B689A4201D9FA
:404580007B687B617A69B968F868FFF7ABFF7B6918461C37BD4690BD80B483B000AF78607B68D3F8403318460C37BD465DF8047B704700BF80B582B000AF786039607868EF
:4045C00000F0F6F802463B689A4204D84FF420710848FEF70FFC7B68D3F8043323F0FF023B68DBB21A437B68C3F8042300BF0837BD4680BDB4C8081080B483B000AF78600B
:404600007B68D3F80833C3F3080318460C37BD465DF8047B704700BF80B483B000AF786039607B683A68C3F8402200BF0C37BD465DF8047B704700BF80B483B000AF78607C
:404640007B68D3F80832C3F3080318460C37BD465DF8047B704700BF80B483B000AF78607B68D3F8003E18460C37BD465DF8047B704700BF80B582B000AF786039603B68B1
:4046800023F4366323F00D03002B04D040F29A310548FEF7AFFB7B683A68C3F8C82F00BF0837BD4680BD00BFB4C8081080B483B000AF78607B68D3F8CC3F18460C37BD462C
:4046C0005DF8047B704700BF80B582B000AF786039603B6823F4366323F00D03002B04D040F2E5310648FEF785FB7B683A68C3F8C02F7B68D3F8C03F00BF0837BD4680BD4F
:40470000B4C8081080B582B000AF786039603B6823F4EE6323F00303002B04D040F22A410548FEF767FB7B683A68C3F8882F00BF0837BD4680BD00BFB4C8081080B483B00B
:4047400000AF78607B68D3F8883F18460C37BD465DF8047B704700BF80B483B000AF78607B68D3F88C3F18460C37BD465DF8047B704700BF80B582B000AF786039603B68D0
:4047800023F4EE6323F00303002B04D040F277410648FEF72FFB7B683A68C3F8802F7B68D3F8803F00BF0837BD4680BDB4C8081080B483B000AF78607B681B6803F4006346
:4047C000002B01D0802300E0402318460C37BD465DF8047B704700BF80B483B000AF78607B68D3F8003303F00F03072B94BF01230023DBB218460C37BD465DF8047B70478D
:4048000080B483B000AF78607B68D3F8003203F00F03072B94BF01230023DBB218460C37BD465DF8047B704780B584B000AFF860B9607A60BB68002B02D07B68002B04D1B7
:404840004FF499610648FEF7D5FA7A68B968F868FFF712FE034618461037BD4680BD00BFF8C8081080B584B000AFF860B9607A60BB68002B02D07B68002B04D140F273515F
:404880000648FEF7B7FA7A68B968F868FFF764FE034618461037BD4680BD00BFF8C8081090B587B000AFF860B9607A60FB68002B02D0BB68002B01D18A4B58E2BB681B78C9
:4048C000002B0BD0BB681B78012B07D0BB681B78022B03D03F218448FEF78CFABB685B7B022B1BD0BB685B7B032B17D0BB685B7B042B13D0BB685B7B052B0FD0BB685B7B71
:40490000062B0BD0BB685B7B072B07D0BB685B7B082B03D040217448FEF76CFABB689B7B002B0BD0BB689B7B022B07D0BB689B7B032B03D041216C48FEF75CFABB6893F82D
:404940002130002B08D0BB6893F82130012B03D042216548FEF74EFABB6893F82830002B08D0BB6893F82830012B03D043215E48FEF740FABB681B78002B03D0BB681B78E7
:40498000012B0ED1BB685B68072B03D9BB685B68102B01D9012300E0002303F00103DBB227E0BB689B7F002B22D0BB685B68012B19D0BB685B68022B15D0BB685B68032BEA
:4049C00011D0BB685B68042B0DD0BB685B68052B09D0BB685B68062B05D0BB685B68072B01D0012300E0002303F00103DBB200E00023002B03D045213B48FEF7FBF9BB687F
:404A00009B68042B03D9BB689B68092B03D946213548FEF7EFF9BB685B69FF2B03D947213148FEF7E7F9BB689B69FF2B03D948212D48FEF7DFF9BB689B7C002B12D0BB688C
:404A40001B78002B07D1BB689B68092B03D1BB689B7B002B01D0012300E0002303F00103DBB200E00023002B03D04A211E48FEF7C1F9BB685B6B23F4366323F00D03002B2A
:404A800003D04C211848FEF7B5F9BB68DB6B23F4EE6323F00303002B03D04D211248FEF7A9F9BB681B78022B09D1BB689B7F83F00103DBB2002B02D000237B6103E0BB686C
:404AC0005B68013B7B61BB681B7F002B02D04FF4803200E00022BB689B68082B06D84FF4006304E00160AA0038C9081000231A437B6903F00F03134343F00072FB681A6004
:404B0000BB681C6BF868FFF753FE03469C4203D362219948FEF76EF9BB689C6BF868FFF747FE03469C4203D363219348FEF762F9BB685C6AF868FFF73BFE03469C4203D381
:404B400064218D48FEF756F9BB681B781B0603F04072FB681A64BB685B7F002B01D0402200E00022BB689B7C002B02D04FF4806300E000231A43BB681B7C002B02D04FF426
:404B8000807300E000231A43BB685B7C002B02D04FF4007300E000231A43BB68DB6A013B1B0403F470231A43BB685B7B013B03F007031A43BB689B7B1B0103F030031A4384
:404BC000FB689A64BB681B7B002B02D04FF4807200E00022BB68DB7B002B03D1BB681B78022B01D1012300E00023002B02D04FF4007300E000231A43BB689B68013B03F0AB
:404C00000F031A43FB68C3F80023BB685B69DAB2BB689B691B0403F47F031A43FB68C3F81023BB68DA6AFB68D3F8003303F00F0303339A4203D3BB68DB6A102B03D97A2115
:404C40004D48FEF7D7F8BB68DB7F002B05D0BB681B78012B01D1012300E00023002B02D04FF4807200E00022BB685B7B013B03F007031A43BB689B7B1B0103F030031A43E8
:404C8000FB685A64BB681B7B002B02D04FF4807200E00022BB689B68013B03F00F031A43BB681B78012B02D14FF4803300E000231A43FB68C3F80022BB681B6BDAB2FB683F
:404CC000C3F80423BB6893F82030002B02D04FF0007200E00022BB6893F82130012B02D14FF0807300E000231A43BB6893F82830012B02D14FF4803300E000231A43BB6816
:404D00005B6ADBB21A43FB681A65BB689B6BDAB2FB68C3F80422BB685A6B40F66D331340FA68C2F8C83FBB68DA6B40F273731340FA68C2F8883F7B68002B17D07B68002205
:404D40005A607B6800221A607B6800229A607B680022DA607B6800221A627B680022DA627B6800221A637B68044A5A63002318461C37BD4690BD00BF38C90810EFCDAB0027
:404D800080B485B000AF786039603B681B69BB603B685A69BB689A4205D83B685B69BA68D31AFB6007E03B68DA693B685B69D21ABB681344FB60FB6818461437BD465DF8BC
:404DC000047B704780B584B000AF786039607868FFF742FC034603F00803002B4BD07868FFF764FC034603F44873FB60FB68002B11D03B685A68FB681A433B685A60F96875
:404E00007868FFF761FC3B681B6B002B03D03B681B6B102098477868FFF748FC034603F40063002B0AD03B685B6843F400623B685A604FF400617868FFF746FC7868FFF730
:404E400035FC034603F00103002B14D03B68DB69002B04D03968786800F062F807E03B689B68002B03D03968786800F0CBF801217868FFF729FC7868FFF7EEFB034603F02A
:404E80000403002B48D07868FFF766FC034603F4A063BB60BB68002B11D03B681A68BB681A433B681A60B9687868FFF763FC3B681B6B002B03D03B681B6B2020984778687C
:404EC000FFF74AFC034603F00103002B07D03968786800F015F901217868FFF74BFC7868FFF73AFC034603F40073002B14D000217868FFF707FC3B681B6823F001023B68CF
:404F00001A603B680022DA623B681B6B002B03D03B681B6B0220984700BF1037BD4680BD80B586B000AF786039607868FFF740FC03465B087B613B6899693B68DB691A464E
:404F40007868FFF771FC38613B681A6A3B691A443B681A623B68DA693B69D21A3B68DA613B68DB69002B2AD13B689B68002B13D03B68DA687B699A4202D37B69013B02E07C
:404F80003B68DB68013B19467868FFF713FB01217868FFF76FFB03E000217868FFF76AFB3B685B6823F001023B685A603B681B6B002B23D03B681B6B042098471EE03B68FE
:404FC0009B69FB607868FFF707FC0346002B01D03B6901E03B695B00FA681344FB603B68FA689A613B68DA697B699A4206D23B68DB69013B19467868FFF7DCFA00BF1837E2
:40500000BD4680BD90B589B000AF786039607868FFF7CEFB03465B087B617868FFF7ECFAF8613B681B69BB6147E0BB690133BB613B68DA68BB699A4201D10023BB613B68DF
:405040005A69BB699A421BD13B681B6B002B03D03B681B6B082098473B685A69BB699A420ED100217868FFF705FBBB69002B02D0BB69013B02E03B68DB68013BBB611FE04E
:405080007868FFF789FA38617868FFF7A5FB0346002B07D03B689A68BB6913443A69D2B21A7007E03B689A68BB695B0013443A6992B21A80FB69013BFB61FB69002BB4D179
:4050C0003B68BA691A613B68DC6839687868FFF757FE0346E31AFB61FA697B699A420BD2FB69002B02D0FB69013B00E00023FB60F9687868FFF75EFA00BF2437BD4690BDC2
:4051000080B588B000AF786039607868FFF750FBF8617868FFF774FB0346FB763B689B6A012B23D93B685B6A7B613B689A6A3B68DA623B68596A3B689B6A013B1A46786845
:40514000FFF790FB38613B689A6A3B69D21A3B689A62FB7E002B01D03B6901E03B695B007A6913447B613B687A695A627868FFF763FA0246FB699A423CD03B689B6A012B53
:4051800038D13B6800229A62FB7E002B03D03B685B6A1B7802E03B685B6A1B88FB60FDF7E8FEB860F9687868FFF736FA4FF400717868FFF7DFFAB868FDF7DFFE7868FFF7E8
:4051C000BDFA034623F4007323F0010343F4007319467868FFF796FA3B681B6843F002023B681A603B681B6B002B03D03B681B6B0120984700BF2037BD4680BD80B586B014
:4052000000AF786039607B68002B03D13A216A48FDF7F0FD3B68002B03D13B216648FDF7E9FD7B68002B02D03B68002B02D1634B7B6148E13B681A68614B1340002B03D0A2
:405240004A215D48FDF7D6FD3B685A685D4B1340002B03D04B215848FDF7CCFD3B689B6803F0FC23002B03D04C215348FDF7C2FD3B68DB6803F0FC23002B03D04D214E48C5
:40528000FDF7B8FD3B681B7D032B03D94E214A48FDF7B0FD3B689B69B3F5803F03D34F214548FDF7A7FD3B68DB6D072B03D950214148FDF79FFD3B681B6EB3F5803F03D3F9
:4052C00051213D48FDF796FD3B685B6EB3F5803F03D352213848FDF78DFD3B685B6843F000427B685A603B689A687B681A613B68DA687B685A613B681A697B689A613B6871
:405300001B7D9A077B68DA613B689A697B681A623B681B6803F46063B3F5606F0CBF01230023BB743B685B6803F00403002B14BF012300237B740023FB7464E0FB7C3A68F6
:4053400006339B0013445A681F4B1340002B03D063211948FDF74EFDFA7CFB7C396806339B000B4459687B68203243F822104FF48053FB60FB7C3A6806339B0013445B68D5
:4053800003F00123002B0CBF01230023FB72FB7A002B1DD0BB7C002B1AD07B7C002B17D0FA7CFB68D90F0B445B105B4219B2074B23F8121011E000BF78C9081001000600C8
:4053C0000811DF0001FE302088CA887EF09D0208FB7C3F4A002122F81310FB7CFA6842F2107101FB02F23968496F11443A68526F520091FBF2F212B21146364A42F82310C0
:40540000FB7C0133FB74FB7C0F2B97D93B68DA6D7B68C3F818223B68DA6D7B68C3F810223B681A6E7B68C3F828223B681A6E7B68C3F820223B685A6E7B68C3F838223B6891
:405440005A6E7B68C3F830223B6893F87030002B23D03B689B6EB3F1804F03D382211E48FDF7C8FC3B68DB6E23F44F0323F0FF03002B03D083211848FDF7BCFC7B686FF078
:405480004042C3F804233B689A6E7B68C3F800233B68DA6E7B68C3F844237B68D3F8003F3F2B04D07B68D3F8003F002B03D17B680B22C3F8002F3B681B6843F400127B68C9
:4054C0001A6000237B617B6918461837BD4680BDF09D0208109E020878C9081080B584B000AF78600B46FB707B68002B03D1B5212848FDF77FFC7B68002B02D1264BFB60CA
:4055000043E07B6800221A607B6800225A607B684FF003121A617B684FF003125A617B6800229A617B680022DA617B6800221A620023FB7208E0FA7A7B682032002143F828
:405540002210FB7A0133FB72FB7A0F2BF3D97B680022C3F818227B680022C3F828227B680022C3F83822FB78002B0CD07B686FF04042C3F804237B680022C3F840237B6824
:405580000022C3F844230023FB60FB6818461037BD4680BD78C908100100060080B582B000AF78607B681B68002B0EDB00BF7B68D3F8A032002BFADB7B681B6843F00042FF
:4055C0007B681A600220FDF7FBFB00BF0837BD4680BD00BF80B582B000AF78600B46FB70FB78002B07D0FB78012B04D040F271110A48FDF7FFFBFB78012B06D17B685B68A3
:4056000043F480327B685A6003E07B6801225A6200BF00BF0837BD4680BD00BF78C9081080B584B000AF786039603B680F2B04D940F27B210A48FDF7DDFB0023FB603B68DA
:405640000F2B06D87B683A68603253F822309BB2FB60FB681BB218461037BD4680BD00BF78C9081080B586B000AFF8607A601A460B46FB721346BB72FB7A002B04D040F2F3
:405680009E411848FDF7B6FB7B68B3F1804F04D340F29F411348FDF7ADFBBB7A002B07D0BB7A012B04D04FF494610E48FDF7A2FBFB6803F540737B61FB6803F541733B61B0
:4056C000BB7A012B06D17B691A687B681A437B691A6003E03B697A681A6000BF00BF1837BD4680BD78C9081080B584B000AFF860B9601346FB71BB6823F44F0323F0FF0336
:40570000002B04D040F2ED411348FDF773FBFB79012B07D0FB79002B04D040F2EE410E48FDF768FBFB79012B08D1FB68D3F84423BB681A43FB68C3F8442309E0FB68D3F82B
:405740004423BB68DB431A40FB68C3F8442300BF00BF1037BD4680BD78C9081080B400AF4FF0B0535B78DBB2002B04D04FF0B0535B78DBB200E021231846BD465DF8047BC5
:40578000704700BF80B400AF074B5B6903F080439B0F002B14BF01230023DBB21846BD465DF8047B704700BF0000264080B584B000AF0346FB71FFF7E5FF0346FB730E4B80
:4057C0001B6893F84430002B12D0FB7B002B0FD0FB79002B06D0094A084B9B6943F08043936105E0054A054B9B6923F08043936100BF1037BD4680BDEC9D02080000264000
:4058000080B400AF074B5B6803F400335B0C002B14BF01230023DBB21846BD465DF8047B704700BF0000264080B400AF054BD3F80035DBB203F00303DBB21846BD465DF800
:40584000047B70470000264080B586B000AF786000237B610023FB607B68002B02D1A64B7B6144E1A54B3B61FFF7CAFF0346002B08D0FDF747FF05E03B69013B3B610120F7
:40588000FDF79EFA9E4B03F5F8336C331B68002B02D03B69002BEFD1994B03F5F833A0331B6803F00103002B08D0954B03F5F833B4331B6803F00103002B06D1904B03F512
:4058C000F8336C331B68002B02D08E4B7B610EE100F044F98A4B03F5F833A4338A4A1A6087497B681B7843F4202201F5F833A8331A60834B03F5F833AC334FF001121A609F
:405900007F4BD3F8003103F00103002B02D07F4B7B61ECE00023BB607D4B1B6F03F00803002B0DD17B4B1B687B4A93420AD9794B1B687A4AA2FB03231B0D013BBB6001E0B0
:405940000123BB606E486E4B1A68BB68002B04D0BB685903724B0B4300E0724B13430360FFF710FF0346002B07D001210320FDF79DFC0120FFF71AFF0BE06149604B03F56B
:40598000F833C4331B6843F0030201F5F833C4331A605B4B03F5F833A0331B68FB60FB6843F4403343F03003FB60554B03F5F833A033FA681A604020FDF702FA504B03F5DB
:4059C000F833B0331B6803F00103002B11D14C4B03F5F833B03301221A604020FDF7F0F9474B03F5F833B03303221A604020FDF7E7F9FB6823F4803323F01003FB60404BF7
:405A000003F5F833A033FA681A604FF4FA633B6105E03B69013B3B610120FDF7D1F9424B03F5804310331B6803F01003002B02D13B69002BEDD13B69002B01D13B4B7B6176
:405A40007B69002B40D12D4B3B612D492C4B03F5F83368331B6843F0080201F5F83368331A600120FDF7E0FB034683F00103DBB2002B03D0FB6843F00803FB60FB6843F084
:405A80000103FB60FB6823F48023FB601C4B03F5F833A033FA681A6005E03B69013B3B610120FDF78DF9164B03F5F833B4331B6803F00103002B02D13B69002BEDD13B69C6
:405AC000002B01D1194B7B617B69002B03D1786800F034F978617B69002B08D17B685A787B681B781946104600F0F8F878617B6918461837BD4680BD01001600F07E0E00CB
:405B000000003C4003001600060000010200160000F03D409842020800093D0083DE1B43041A0080040A0080000032400400160080B400AF0849084B03F5F83370331B68D3
:405B400043F0100201F5F83370331A6000BFBD465DF8047B704700BF00003C40B0B59CB000AF194B07F14C041D460FCD0FC40FCD0FC42B682360154B07F128041D460FCD74
:405B80000FC40FCD0FC42B682360114B3C1D1D460FCD0FC40FCD0FC42B68236007F14C0319460C48FBF7F4FE07F1280319460A48FBF7EEFE3B1D19460848FBF7E9FE00BF92
:405BC0007037BD46B0BD00BFB4C90810D8C90810FCC9081000013240800132400002324080B586B000AF03463960FB801A4B7B614FF47A733B61FB886FEA43436FEA5343F5
:405C00009BB21B04FB60154AFB68D36105E03B69013B3B610120FDF7D3F8104B1B6C03F00103002B02D13B69002BF0D13B69002B0CD00A4A094B1B6C43F001031364074B25
:405C4000DB6A9AB23B681A8000237B617B6918461837BD4680BD00BF0400160000003C4080B586B000AF03460A46FB801346BB80174B7B614FF47A733B61FB881A04154B64
:405C80001340BA881343FB60134AFB68D36105E03B69013B3B610120FDF792F80E4B1B6C03F00103002B02D13B69002BF0D13B69002B07D0084A084B1B6C43F001031364C5
:405CC00000237B617B6918461837BD4680BD00BF040016000000FF7F00003C4080B584B000AF03460A46FB711346BB7141F201037B81FB799BB25B009AB27B8913437B816E
:405D00007B89194641F60860FFF7AAFFF860FB68002B06D146F6370141F60F60FFF7A0FFF860BB799BB25B019BB21846FDF748F8FB6818461037BD4680BD00BF80B586B0D0
:405D400000AF78600A237B614FF4C05141F60260FFF786FF38613B69002B07D107F10803194641F60260FFF73BFF38617B69002B03D07B69013B7B6101E0A94B3B613B6934
:405D8000002B03D13B89B3F5C05FDDD13B69002B33D10A237B6107F10803194641F60360FFF71EFF38613B69002B26D13B8903F48063002B21D14FF4806141F60360FFF7F2
:405DC0004FFF38613B69002B07D107F10803194641F60360FFF704FF38617B69002B03D07B69013B7B6101E08D4B3B613B69002B03D13B89B3F5806FDDD13B69002B07D101
:405E000007F10803194641F60960FFF7E9FE38613B69002B6DD10023BB813B8923F03F039BB23B817B689B78012B1FD17B68DB78012B02D90223FB8106E07B68DB78FB81D4
:405E4000FB89C3F10203BB813B8943F040039BB23B813B8943F030039BB23B817B68DB781A46704BD340704A13601EE07B68DB78002B02D00123FB8106E07B68DB78FB8139
:405E8000FB89C3F10103BB813B8923F040039BB23B813B8943F010039BB23B817B68DB781A46624BD340604A13603A89FB8913439BB23B813B89194641F60960FFF7D0FE94
:405EC00038617B68DB789AB2FB89D31A7B817B8903F003039BB23B81BB899B009AB23B8913439BB23B81524B3A8903F5F83364331A60FFF733FC0346212B00F08B804FF03E
:405F0000B05303F5C05316331B889BB2002B00F081803B69002B07D107F10803194641F60760FFF75DFE38613B69002B47D13B8923F060039BB23B814FF0B05303F5C053F6
:405F400016331B889BB203F0C0039B099BB25B019AB23B8913439BB23B813B8923F428639BB23B814FF0B05303F5C05316331B889BB203F00F039BB2DB019AB23B891343ED
:405F80009BB23B813B8923F4C0539BB23B814FF0B05303F5C05316331B889BB203F440731B0A9BB2DB029AB23B8913439BB23B813B89194641F60760FFF752FE38613B69AF
:405FC000002B07D107F10803194641F60660FFF707FE38613B69002B1CD13B8923F0C0039BB23B814FF0B05303F5C05316331B889BB203F030031B099BB29B019AB23B89E3
:4060000013439BB23B813B89194641F60660FFF727FE38613B6918461837BD4680BD00BF040016000048E8019C4202080024F40000003C4080B400AF034B1B681846BD4661
:406040005DF8047B704700BF9C42020880B582B000AF0023FB7100233B600BE03868FCF707FC0346032B02D10123FB7105E03B6801333B603B68042BF0D9FB79184608372D
:40608000BD4680BD80B582B000AFFFF7CDFB0346FB71FB79012B02D0FB79032B01D1012300E0002318460837BD4680BD80B483B000AF0346FB71044AFB79137000BF0C371B
:4060C000BD465DF8047B70475D9E020880B500AF0248FDF715FA00BF80BD00BFB042020880B584B000AF78600023FB607B68002B02D1154BFB6022E0144A7B681360134B07
:406100001B68DB6A002B04D0104B1B68DB6A104A1360104B00221A70012200210E4803F03FFA0E4B00221A600D4B00221A7000F0E7FF0C4B00221A700B4B00221A70FB68A4
:4061400018461037BD4680BD01001600B48C0208AC8C0208689E02086C9E0208709E02086D9E0208539E0208589E0208F0B59DB000AF0023FB66504B07F158041D46286844
:406180006968AA68EB680FC42869206007F10C034C220021184603F003FA484BFB6007F158037B614FF464533B830523BB76444B1B681B69FB6141F296033B62FB23BB84FB
:4061C000FB23FB84032387F82830042387F82930062387F82A30102387F82B30102387F82C30102387F82D307B23A7F85030012387F854303348FDF735F9FB6E002B0CD1E8
:4062000008F0C9F808F0D5F808F0CCF807F10C031833184608F038F9F866FB6E002B45D1294B3B61264B1B689B6B002B19D0244B1B689B6B07F12E0003F120040246194648
:40624000D1F800E04E688D68C968C2F800E056609560D16010331030A342EFD102461B88138007F10C03184608F0B6F8F866FB6E002B18D1154B01221A70154B00221A707E
:406280000020FFF713FF0E4B1B681B6A7B600C4B1B689B6ADB883B8140237B813B1D184610F09AFAF8660B4B00221A60FB6E18467437BD46F0BD00BF20CA0810F17B08101C
:4062C000B48C0208B0420208DC500208549E02085C9E0208709E020880B483B000AF7860054B03F5F83378337A681A6000BF0C37BD465DF8047B704700003C4080B485B02D
:4063000000AF78600023FB607B68002B03D0064A7B68136001E0054BFB60FB6818461437BD465DF8047B7047B08C02080100160080B586B000AF78600B46FB70FB78012B01
:4063400002D0082B5CD063E0364B1B78012B02D1354B7B615FE00320FBF77EFE0246334B9A4202D1304B7B6155E0FFF76FFE0346012B02D12C4B7B614DE0022008F020F80C
:406380000346FB74FCF7F5FD0246294B1A6029F00FFF0346BB74BB7C062B02D100237B6124E0FB7C022B12D1022016F0FFFAF860BB7C032B02D0BB7C052B05D1FB68002B2B
:4063C00002D100237B6111E0174B7B610EE0012016F0ECFAF860BB7C022B05D0FB68002B02D10020FCF75AFE0F4B7B617B690E4A934210D10E4B1B681846FCF7BEFD0AE04A
:406400000B4B1B681846FCF7B8FD00237B6103E0054B7B6100E000BF7B6918461837BD4680BD00BF549E0208FF00420001018800C08C020880B582B000AF0023FB711DF071
:40644000F9F90346FB71074B1B68002B05D0FB79002B02D0034B1B68984700BF0837BD4680BD00BFB08C020880B483B000AF0346FB80B7F90630002B0BDB0949B7F9063033
:406480005B09FA8802F01F02012000FA02F241F8232000BF0C37BD465DF8047B704700BF00E100E080B483B000AF0346FB80B7F90630002B10DB0B49B7F906305B09FA8852
:4064C00002F01F02012000FA02F2203341F82320BFF34F8FBFF36F8F00BF0C37BD465DF8047B704700E100E080B400AF074B5B6903F080439B0F002B14BF01230023DBB2EF
:406500001846BD465DF8047B704700BF0000264080B483B000AF064B5B6903F007037B607B68DBB218460C37BD465DF8047B70470000264080B483B000AF0D4B03F57F431A
:406540001C331B6803F01F037B604FF0B05393F84037DBB21A467B689A4214BF01230023DBB218460C37BD465DF8047B704700BF0000264080B400AF074B1B6803F40003BC
:40658000DB0D002B0CBF01230023DBB21846BD465DF8047B704700BF0000264080B483B000AF78600949094BD3F83C3523F47F7323F003037A68C2F309021343C1F83C3504
:4065C00000BF0C37BD465DF8047B70470000264080B400AF044BD3F83C35C3F309031846BD465DF8047B70470000264080B400AF044BD3F81C35DB0FDBB21846BD465DF8A8
:40660000047B70470000264080B400AF054BD3F80035DBB203F00303DBB21846BD465DF8047B70470000264080B584B000AF786039607B68002B0BD03B68B3F5FD7F07D214
:4066400001233A680649786800F02EF8F86001E0044BFB60FB6818461037BD4680BD00BF070800160100160080B584B000AF786039600023FB607B68002B09D03B68B3F5B0
:40668000FD7F05D23A680649786802F07EFF01E0044BFB60FB6818461037BD4680BD00BF070800160100160090B5ADF5117D00AF07F10C04206007F108000160391D0A60AC
:4066C0003A4613600023C7F838320023C7F834320023C7F8283207F108031B68C7F8183207F11403C7F81432D7F81832B3F1805F07D33B1DD7F818221B681344D64A93428E
:406700001BD9D7F81832B3F1A05F07D33B1DD7F818221B681344D14A93420ED9D7F81832CF4A934240F28B813B1DD7F818221B681344CC4A934200F28281052387F8223262
:40674000012387F82132002387F82032FFF7CCFE0346002B13D0FFF7DBFE034687F8223297F82232022B1DD10520FCF7FDFCC7F83402D7F83432BC4A9342F5D012E0FFF76C
:40678000D9FE034687F8213297F82132002B09D10120FCF7DDFDC7F83402D7F83432B24A9342F5D0D7F83432B04A934204D140F2D511AF48FCF71EFBD7F8183203F170439E
:4067C000C7F81832D7F818325B0AC7F83032D7F830325B02C7F8243200BF00210320FBF75DFB0346002BF8D1E1E0002387F823320023C7F82C324DE0D7F82422D7F8183271
:406800009A4231D33B1DD7F828221B689A422BD2D7F81422D7F82C32134407F10C021168D7F828220A4412781A7097F8233283F00103DBB2002B11D0D7F8243203F1805348
:406840001B78DAB207F10C031968D7F828320B441B789A4202D0012387F82332D7F828320133C7F828320BE0D7F81422D7F82C321344D7F8242202F180521278D2B21A7064
:40688000D7F824320133C7F82432D7F82C320133C7F82C32D7F82C32B3F5007FACD397F82332002B7ED0D7F83432002B7AD1C823C7F81C323B461B68002B63D1C823C7F80C
:4068C0001C32D7F8303203F500235B021846FAF7D9FEC7F83802D7F81C32013BC7F81C320120FCF76DFAD7F8383203F4A403B3F5A40F03D1D7F81C32002BE2D1D7F8383267
:406900005C4A934208D1FAF7B5FEC7F83802D7F83832594A9342F6D0D7F83832002B22D1C823C7F81C32D7F8303203F500235B0207F1140211461846FAF706FFC7F8380245
:40694000D7F81C32013BC7F81C320120FCF738FAD7F8383203F4A403B3F5A40F03D1D7F81C32002BDFD1D7F83832424A934216D1FAF780FEC7F83802D7F838323E4A9342EE
:40698000F6D00CE0D7F8303203F500235B0207F1140211461846FAF711FEC7F83802012387F82032D7F830320133C7F83032D7F83432002B0AD1D7F83832002B06D13B1D77
:4069C000D7F828221B689A42FFF40FAF97F82032002B01D0FCF722FA00BF00210320FBF7CBFA0346002BF8D1D7F83432002B2AD1FFF77AFD0346002B0DD097F82232022B62
:406A000009D10220FCF7B0FBC7F83402D7F83432154A9342F5D0FFF7ADFD0346002B12D097F82132002B0ED10020FCF791FCC7F83402D7F834320C4A9342F5D003E00F4BC0
:406A4000C7F8383200E000BFD7F83432002B19D00B4BC7F83C322BE00000101000800014FF070016000A0016040042000300420034CA0810010050000200500006005200EB
:406A800012001600D7F838320D4A934208D00D4A934205D0002B07D10023C7F83C3207E0094BC7F83C3203E0084BC7F83C3200BFD7F83C32184607F51177BD4690BD00BF65
:406AC0000200520006005200010016001300160080B582B000AF7860396000223968786800F006F8034618460837BD4680BD00BF80B5C6B000AF07F10C03186007F10803D1
:406B00001960FB1D1A7007F114031A4A184611464FF480731A4602F038FDFB1D1B7887F817311BE007F10C031B681A7897F817315340DBB21A4607F114039B5C87F81731A8
:406B400007F10C0307F10C02126801321A6007F1080307F108021268013A1A6007F108031B68002BDED197F81731184607F58C77BD4680BD70CA081080B483B000AF44230A
:406B8000BB7174237B7168233B717C23FB700623BB702B237B70BB78012B02D17B78002B06D0BB78012B06D17A787B799A4202D10023FB7125E0BB78022B02D17B78002B82
:406BC00006D0BB78022B06D17A783B799A4202D10123FB7115E0BB78012B06D17A78FB789A4202D10223FB710BE0BB78002B06D17A78BB799A4202D10323FB7101E0002348
:406C0000FB71FB7918460C37BD465DF8047B704780B483B000AF786039607B681B881A46AE2303FB02F3A3F26F33064AA2FB0323DB089AB23B681A8000BF0C37BD465DF804
:406C4000047B7047CDCCCCCC80B483B000AF786039607B681B881BB21A4642F64B0303FB02F3094A82FB03121213DB17D31A9BB2C3F1BD039BB21AB23B681A8000BF0C37F8
:406C8000BD465DF8047B7047AD8BDB6880B483B000AF0023FB71FB7918460C37BD465DF8047B704780B582B000AF7860786815F099FC034618460837BD4680BD80B582B08E
:406CC00000AF0346FB80FB881846FCF779F800BF0837BD4680BD00BF80B500AF044B1B685B6BB3F900301846FFF7BEFB00BF80BDB48C020880B500AF044B1B685B6BB3F90C
:406D000000301846FFF7CEFB00BF80BDB48C020880B500AFFFF778FC0346184680BD00BF80B500AFFFF762FC0346184680BD00BF80B582B000AF03463960FB71FB7939687B
:406D40001846FBF7F3FE034618460837BD4680BD80B584B000AF03463960FB801346BB800A4BFB600320FBF777F90246084B9A4206D0BA88FB8839681846FBF7ADFDF86069
:406D8000FB6818461037BD4680BD00BF03004A000101880080B588B000AFF860B9607A600023FB610023BB61FA68BB68D31A002BB8BF5B427B617A697B689A422FD3FFF7A9
:406DC00007FCB861FA68BB689A4211D9FA68BB68D21A7B685B081A447B68B2FBF3F3BA69D31AFB61FB69002B16DA0023FB6113E0BA68FB68D21A7B685B081A447B68B2FB9F
:406E0000F3F2BB691344FB61FB6940F2FE32934202D940F2FF33FB61F869FFF7BFFBBA69FB69D31A18462037BD4680BD80B582B000AF7860064B1B681A464FF40041786860
:406E4000FFF7A8FF034618460837BD4680BD00BFC842020880B500AFFEF780FE0220FFF73BFA084B1B685B6B07491846FBF73AFF044B1B685B6BB3F900301846FFF7F4FAAD
:406E800000BF80BDB48C02083564081080B400AF04231846BD465DF8047B704780B500AFFCF767F80346184680BD00BF80B582B000AF78607868FCF760F800BF0837BD46F2
:406EC00080BD00BF80B582B000AF0346FB71FB791846FCF7E3F8034618460837BD4680BD80B582B000AF0346FB71FB7900211846FCF7DCF900BF0837BD4680BD80B483B0DA
:406F000000AF78600B46FB7000BF0C37BD465DF8047B704780B400AF00BFBD465DF8047B704700BF80B483B000AF0346FB71002318460C37BD465DF8047B704780B483B00B
:406F400000AF7860034B18460C37BD465DF8047B704700BF1100160080B483B000AF7860034B18460C37BD465DF8047B704700BF1100160080B483B000AF7860034B18463C
:406F80000C37BD465DF8047B704700BF1100160080B483B000AF7860034B18460C37BD465DF8047B704700BF1100160080B483B000AF7860034B18460C37BD465DF8047B15
:406FC000704700BF1100160080B483B000AF7860034B18460C37BD465DF8047B704700BF1100160080B483B000AF7860034B18460C37BD465DF8047B704700BF1100160052
:4070000080B483B000AF7860034B18460C37BD465DF8047B704700BF1100160080B483B000AF7860034B18460C37BD465DF8047B704700BF1100160080B483B000AF03464F
:40704000FB71034B18460C37BD465DF8047B70471100160080B483B000AF78603960034B18460C37BD465DF8047B70471100160080B483B000AF0346FB7100BF0C37BD4605
:407080005DF8047B704700BF80B400AF034B1B781846BD465DF8047B704700BF5D9E020880B483B000AF0346FB71044AFB79137000BF0C37BD465DF8047B70475D9E02086D
:4070C00080B483B000AF0023FB7000237B600BE00A4A7B6813441B78012B02D9FB780133FB707B6801337B607B68002BF0D0FB7818460C37BD465DF8047B70475C9E020863
:4071000080B500AF024801F03BF900BF80BD00BF6844020880B584B000AF03460A46FB711346BB71FB79022B02D8BB79002B02D0684BFB60C8E0FFF7C3FF0346012B1CD16D
:40714000654B1B681968BA7913469B0013449B000B445B681B79012B0CD95F4B1B681968BA7913469B0013449B000B445B681B79032B02D9594BFB60A6E0FFF785FF0346CD
:40718000002B40F09F80564ABB791370FB79002B3ED1514B1B681968BA7913469B0013449B0019444C4B1B685868BA791346DB009B1A5B0003449B880B82474B1B6819685C
:4071C000BA7913469B0013449B000B445968424B1B685868BA791346DB009B1A5B0003441B880B803C4B1B681968BA7913469B0013449B000B445968374B1B685868BA79FE
:407200001346DB009B1A5B0003445B884B8040E0FB79012B3DD1304B1B681968BA7913469B0013449B0019442B4B1B685868BA791346DB009B1A5B0003449B890B82264BB9
