:020000041008E2
:4000000000780408EB0208100D00000051030810510308105103081051030810000000000000000000000000000000004D0308104D030810000000004D0308104D030810DA
:400040004D0308104D0308104D0308104D0308104D0308104D0308104D0308104D0308104D0308104D0308104D0308104D0308104D0308104D0308104D0308104D03081000
:400080004D0308104D0308104D0308104D0308104D0308104D0308104D0308104D0308104D0308104D0308104D0308104D0308104D0308104D0308104D0308104D030810C0
:4000C0004D0308104D0308104D0308104D0308104D0308104D0308104D0308104D0308104D0308104D0308104D0308104D0308104D0308104D0308104D0308104D03081080
:400100004D0308104D0308104D0308104D0308104D0308104D0308104D0308104D0308104D0308104D0308104D0308104D0308104D0308104D0308104D0308104D0308103F
:400140004D0308104D0308104D0308104D0308104D0308104D0308104D0308104D0308104D0308104D0308104D0308104D0308104D0308104D0308104D0308104D030810FF
:400180004D0308104D0308104D0308104D0308104D0308104D0308104D0308104D0308104D0308104D0308104D0308104D0308104D0308104D0308104D0308104D030810BF
:4001C0004D0308104D0308104D0308104D0308104D0308104D0308104D0308104D0308104D0308104D0308104D0308104D0308104D0308104D0308104D0308104D0308107F
:400200004D0308104D0308104D0308104D0308104D0308104D0308104D0308104D0308104D0308104D0308104D0308104D0308104D0308104D0308104D0308104D0308103E
:400240004D0308104D0308104D0308104D0308104D0308104D0308104D0308104D0308104D0308104D0308104D0308104D0308104D0308104D0308104D0308104D030810FE
:400280004D0308104D0308104D03081010B5054C237833B9044B13B10448AFF300800123237010BDD44B02080000000024370810084B10B51BB108490848AFF300800848D1
:4002C000036803B910BD074B002BFBD0BDE81040184700BF00000000D84B020824370810B4420208000000007047FFF7FDFF72B6104C114DAC4209DA21686268A368043B16
:40030000A2BFC858D050FAE70C34F3E70B490C4A00209142BCBF41F8040BFAE709480A490860BFF34F8F00F0F1FB00F041FA00F0BBF8FEE72837081040370810D44B020886
:40034000144E02080040020808ED00E0FEE7FEE700B504207146084202D0EFF3098001E0EFF30880043001F0F1FDFEE780B483B000AF0346FB80B7F90630002B0BDB0949AB
:40038000B7F906305B09FA8802F01F02012000FA02F241F8232000BF0C37BD465DF8047B704700BF00E100E080B483B000AF78607B681B6823F000427B681A6000BF0C37BB
:4003C000BD465DF8047B704780B483B000AF78607B681B6823F000427B681A6000BF0C37BD465DF8047B704780B483B000AF786039603B68C3F30B027B68C3F8042100BF6A
:400400000C37BD465DF8047B704700BF80B483B000AF78607B681B6A03F0010318460C37BD465DF8047B704780B483B000AF78607B6801221A627B681B6A00BF0C37BD46D3
:400440005DF8047B704700BF80B500AF0348FFF7BBFF0348FFF7A8FF00BF80BD000014410000104180B582B000AF786079680348FFF7BAFF00BF0837BD4680BD000014416D
:4004800080B500AF0248FFF7C1FF0346184680BD0000144180B500AF0248FFF7C5FF00BF80BD00BF00001441B0B586B000AF62B66749684801F0C2FC664BB3F900301846CB
:4004C000FFF754FF4FF000037B61634B3B614FF07E53FB604FF07F53BB60604B03221A60786902F015FB54A3D3E9002302F08EFC03460C461846214651A3D3E9002302F010
:400500005BFB03460C461846214602F0F3FD03460C461846214602F061FD0246504B1A60386902F0F5FA44A3D3E9002302F06EFC03460C461846214641A3D3E9002302F05D
:400540003BFB03460C461846214602F0D3FD03460C461846214602F041FD0246414B1A60F86802F0D5FA34A3D3E9002302F04EFC03460C461846214631A3D3E9002302F02D
:400580001BFB03460C461846214602F0B3FD03460C461846214602F021FD0246324B1A6000237B607B68012B0CBF01230023DBB21A462E4B1A6097ED047AD7ED057A77EECB
:4005C000677AC7ED007A386802F0A2FA1EA3D3E9002302F0F1FA03460C4625461C46214B1A681F4B1B68D31A07EE903AB8EE677AD7ED027A67EE277A17EE900A02F088FA82
:4006000002460B462046294602F000FC03460C461846214602F002FD07EE900AFDEEE77A17EE903A013B124A136000F0D7FA0E4B1B68104A1360FEE76666666666660A405B
:400640000000000000FEAF4000000000006AE84079060810EC31081033335340084C0208F84B0208F44B0208FC4B0208104C0208044C0208F04B020880B582B000AFFFF7E0
:40068000FFFE0346FB71FB79002B7BD0FFF702FF3E4B1B68DA0F13445B101A463C4B1B689A426DDA3B4B1A683B4B1B689A4261D13A4B1B681846FFF7D5FE394B1B68012BE2
:4006C00028D1364B1B680133344A1360334B1A68344B1B689A4213D12C4B1B6801332B4A13602E4B1A68304B1B689A423ED12C4B00221A60254B1B680133244A136035E0EC
:40070000264B1A68284B1B689A422FD3244B00221A602BE0224B1B68002B27D11F4B1B68013B1E4A13601D4B1A681E4B1B689A4213D1164B1B680133144A1360174B1A6862
:400740001A4B1B689A4211D1154B01221A600F4B1B6801330D4A136008E0104B1A68134B1B689A4202D80E4B01221A60094B00221A6007E0074B1B680133064A136001E025
:40078000FFF762FE00BF0837BD4680BD0C4C0208084C0208004C0208044C0208F04B0208104C0208FC4B0208F44B0208F84B020880B500AF0D4801F07FFC00F01FF800F007
:4007C00025F800220021042000F024FE084801F0B5F8084B1B6893F85130002B02D0064801F0C0F800F01EFC00BF80BD64350810144C0208104E0208A831081080B400AF42
:4008000000BFBD465DF8047B704700BF80B491B000AFB04BD3F8803303F00F037B63AD4A7B6BD03352F8233003F007033B633B6B042B3AD801A252F823F000BF51080810FD
:40084000570808105D080810630808106B080810A14BFB632CE0A14BFB6329E09F4BFB6326E09F4B1B68FB6322E09A4A7B6BC03352F8233003F01F03FB62FB6A112B07D06E
:40088000132B09D0102B0BD14FF4FA43FB630BE04FF40043FB6307E04FF40043FB6303E04FF4FA43FB6300BF02E08C4BFB6300BF7B6B002B60D1874BD3F8903503F00103A1
:4008C000002B14BF0123002387F82B30814BD3F8883503F040531B0F032B0CBF0123002387F82A307B4BD3F8883503F040531B0F002B07D0774BD3F8883503F040531B0FC2
:40090000012B01D1012300E0002387F8293097F8293003F0010387F8293097F82930002B03D097F82B30002B03D197F82A30002B1FD0684BD3F88035C3F311037B62654BA7
:40094000D3F88435C3F30C033B62624BD3F8803503F080731B0E0133FB61FA6B3B6AB2FBF3F37A6A02FB03F2FB69B2FBF3F3BB6360E0FB6BBB635DE07B6B012B58D1554B61
:40098000D3F8403603F00103002B14BF01230023FB76504BD3F8003603F040531B0F032B0CBF01230023BB764A4BD3F8003603F040531B0F002B07D0464BD3F8003603F0BF
:4009C00040531B0F012B01D1012300E000237B767B7E03F001037B767B7E002B02D0FB7E002B02D1BB7E002B1FD03A4BD3F8003603F07F037B61374BD3F8003603F4F853E7
:400A00001B0A3B61334BD3F8003603F4F8131B0CFB60FB6B7A6902FB03F23B69B2FBF3F2FB68B2FBF3F3BB6304E0FB6BBB6301E0FB6BBB63274BD3F8803303F030031B0966
:400A4000BA6B22FA03F3BB63264ABB6B1360264BD3F8903003F47F431B0A0133BB60224B1B6903F07F431B0E01337B60BA6B7B68B2FBF3F31D4A1360BA6BBB68B2FBF3F3C1
:400A8000BB631B4ABB6B1360194B1B68194A1360184B1B6803F5742303F23F23164AA2FB03239B0CDAB2154B1A70124B1B6803F2E733134AA2FB03239B09124A1360114B73
:400AC0001B68DB03104A136000BF4437BD465DF8047B70470000264000127A0000366E01984202089042020800002140944202088C4202089C42020883DE1B43A4420208F9
:400B0000D34D6210A0420208A842020880B582B000AF01F0B6FA7860094A094BD3F8883043F47003C2F88830BFF34F8FBFF36F8F786801F0AAFA00BF0837BD4680BD00BFBC
:400B400000ED00E080B500AF012001F085F800BF80BD00BF80B483B000AF78607B681B6843F000427B681A6000BF0C37BD465DF8047B704780B483B000AF78607B681B6870
:400B800043F000427B681A6000BF0C37BD465DF8047B704780B500AF0348FFF7DBFF0348FFF7E8FF00BF80BD000014410000104180B500AF0549064801F0C4FC054A012168
:400BC000054800F01DF800BF80BD00BFF431081000001441283208100000104180B500AF064B1B78002B04D1FFF7E2FF034B01221A70FFF7CFFF00BF80BD00BF944D02088F
:400C000080B586B000AFF8600B467A60FB72FB68002B04D14FF48971854801F083F97B68002B04D140F21311814801F07BF9FB68002B02D07B68002B02D17E4B7B61F2E0B1
:400C4000FB7A012B0AD0FB7A022B07D0FB7A032B04D04FF48F71764801F064F97B681B68002B09D07B681B68B3F1804F04D040F21F116F4801F056F97B681B79032B04D9C8
:400C80004FF490716A4801F04DF97B685B79002B0CD07B685B79082B08D07B685B79102B04D040F22111624801F03CF97B68DB88002B09D07B68DB88B3F5006F04D04FF4CF
:400CC00091715B4801F02EF97B681B89002B13D07B681B89B3F5807F0ED07B681B89B3F5007F09D07B681B89B3F5407F04D040F223114F4801F016F97B689B7A002B08D055
:400D00007B689B7A802B04D04FF49271484801F009F97B68DB7A002B08D07B68DB7A402B04D040F22511424801F0FCF87B681B7B002B08D07B681B7B202B04D04FF493718F
:400D40003B4801F0EFF87B681A68FB681A607B681A797B685B791343DBB21A467B68DB8813437A68128913437A68927A13437A68D27A13437A68127B1A437B685B79002B81
:400D800002D14FF4805300E0002313433B61FB7A012B02D0FB7A032B1ED1FB683A695A607B685B79082B01D1032200E00122FB68C3F8082FFB689A6A7B685B7B002B01D03B
:400DC000012300E000231A43FB689A62FB681B6A43F00102FB681A62FB7A022B02D0FB7A032B1ED1FB683A699A607B685B79082B01D1032200E00122FB68C3F8142FFB6865
:400E00009A6A7B685B7B002B01D0022300E000231A43FB689A62FB681B6A43F00202FB681A6200237B617B6918461837BD4680BD6433081001002E0080B483B000AF03460A
:400E4000FB80B7F90630002B0BDB0949B7F906305B09FA8802F01F02012000FA02F241F8232000BF0C37BD465DF8047B704700BF00E100E080B400AF084B1B681A68074BA7
:400E80001B68D3F8843013441B6803F07F431B0EDBB21846BD465DF8047B7047104E020880B400AF084B1B681A68074B1B68D3F8843013441B6803F47F431B0ADBB2184665
:400EC000BD465DF8047B7047104E020880B582B000AF78600E4B1B6893F831301A467B689A4204D840F2C3110A4801F01BF8084B1B681A6A064B1B68B3F8B03019467B68F4
:400F000003FB01F3134418460837BD4680BD00BF104E0208A033081080B483B000AF78607B68DB6818460C37BD465DF8047B704780B483B000AF7860084B1B68D3F8B420D3
:400F40007B6813441B6803F00043DB0FDBB218460C37BD465DF8047B704700BF104E020880B584B000AFF860B9607A607B68002B04D140F29331074800F0D4FF7B681A4620
:400F8000B968F86800F09CF9034618461037BD4680BD00BFA033081080B584B000AF78601C4A7B6813601B4B1B68002B0BD0194B1B6802221A70174B1B68FF225A70154BF3
:400FC0001B6800225A80144B1B6893F85030002B1CD0114B1B68B3F938303B810023FB6007F108030D49184600F028FFB7F908301846FFF721FF084B1B6893F85130002B0A
:4010000004D002220649012000F0EAFD00BF1037BD4680BD9C4D0208104E0208B5450208B942020880B500AF0248FFF7B5FF00BF80BD00BFC04D020880B485B000AF78602D
:401040007B682E4A93423FD02C4A93420ED8402B40D0402B04D8002B1FD0102B37D042E0802B3AD0B3F5807F3AD03CE0244A934219D0234A934206D8B3F1204F10D0214A94
:4010800093421DD02FE0204A934213D01F4A934213D01F4A93420AD025E00023FB6025E00023FB6022E04FF4A403FB601EE0194BFB601BE0184BFB6018E0184BFB6015E096
:4010C0004FF4A003FB6011E00C4BFB600EE0144BFB600BE0134BFB6008E0134BFB6005E0064BFB6002E0114BFB6000BFFB6818461437BD465DF8047B704700BF0600520085
:40110000010000F0090000A0040000F0050000F0030000F0010052000200520003005200010050000200500005005200FF00520080B582B000AF134B7B600120FFF7C6FEC8
:4011400003461846FFF7F4FE034683F00103DBB2002B12D00C4B1B681846FFF76DFF78600A4B1B685B681A460123936000BF074B1B685B689B68002BF9D17B681846083733
:40118000BD4680BD02005000A04D0208104E020880B582B000AF786039603B681B0C1B04002B04D040F2BB21054800F0BBFE3B689AB27B689A6000BF0837BD4680BD00BF02
:4011C000E033081080B582B000AF786039603B681B0C1B04002B04D040F2D521054800F0A1FE3B689AB27B685A6000BF0837BD4680BD00BFE033081080B483B000AF7860AF
:4012000039607B683A68DA6000BF0C37BD465DF8047B704780B483B000AF78607B68DB6818460C37BD465DF8047B704780B483B000AF7860084B1B68D3F8B4207B681344E6
:401240001B6803F00043DB0FDBB218460C37BD465DF8047B704700BF104E020880B483B000AF78607B681B6803F00043002B01DA002300E0034B18460C37BD465DF8047B8F
:40128000704700BF01008A0080B584B000AF786039607868FFF7CAFF0346002B06D039687868FFF78FFF0023FB6001E0034BFB60FB6818461037BD4680BD00BF01008A001C
:4012C00080B586B000AFF860B9607A60F868FFF7C5FF0346002B0AD17968F868FFF78CFFB968F868FFF754FF00237B6101E0034B7B617B6918461837BD4680BD01008A002E
:4013000080B584B000AF786039603B68002B03D199210C4800F006FE7868FFF787FF0346002B08D07868FFF775FF02463B681A600023FB6001E0044BFB60FB681846103718
:40134000BD4680BD2034081001008A0080B582B000AF78600E4B1B6893F831301A467B689A4204D840F2C3110A4800F0DBFD084B1B681A6A064B1B68B3F8B03019467B686A
:4013800003FB01F3134418460837BD4680BD00BF104E02086034081080B483B000AF78607B68DB6818460C37BD465DF8047B704780B584B000AFF860B9607A607B68002B80
:4013C00004D140F29331074800F0ACFD7B681A46B968F868FFF774FF034618461037BD4680BD00BF6034081080B483B000AF78607B681B6803F00043002B01DA002300E0E1
:40140000034B18460C37BD465DF8047B704700BF01008A0080B586B000AFF860B9607A60144B7B617B68002B0BD1BB68002B08D1F868FFF78BFF02460F4B1A6000237B6139
:4014400013E07B68002B0ED0BB68002B0BD00B4ABB681360094A7B6853600849F86800F00FF8786101E0034B7B617B6918461837BD4680BD03018A00C44D0208C84D02086B
:4014800080B584B000AF78603960284BFB60284B1B6893F831301A467B689A4202D8234BFB603EE03B68002B39D03B681B6803F01F03002B30D17868FFF748FF02461D4B08
:4014C0001A603B6858683B681B68DB081A46002101F0F4FD174B1B6800211846FFF7D4FE144B1B683A6800211846FFF761FF0346002B0ED10F4B1B6800211846FFF7C4FEB7
:401500000346002B02D10023FB600AE00A4BFB6007E0094BFB6004E0044BFB6001E0034BFB60FB6818461037BD4680BD03018A00104E0208C44D020801018A0080B588B04C
:4015400000AF78600B46FB700023FB612F4BBB612F4B1B681846FFF71FFF03467B617B691A687B689A4249D97B685B093B613B695B017A68D31A012202FA03F3FB60FB78A3
:4015800083F00103DBB2002B02D000F07AFDF8611F4B1B681846FFF727FF0346002B23D17B695A683B699B0013441A68FB681340002B11D07B695A683B699B0013447A69FC
:4015C00051683A6992000A441168FA68D2430A401A600023BB6101E00E4BBB610C4B1B6800211846FFF750FEFB7883F00103DBB2002B05D0F86900F048FD01E0064BBB616E
:40160000BB6918462037BD4680BD00BF03018800C44D02080201880004018A0080B586B000AF7860164B1B681846FFF7B5FE03463B613B691A687B689A421AD97B685B0930
:40164000FB60FB685B017A68D31A012202FA03F3BB603B695A68FB689B0013441A68BB681340002B02D0074B7B6104E0064B7B6101E0064B7B617B6918461837BD4680BD83
:40168000C44D0208010188000001880004018A0080B483B000AF0346FB80B7F90630002B0BDB0949B7F906305B09FA8802F01F02012000FA02F241F8232000BF0C37BD46DB
:4016C0005DF8047B704700BF00E100E080B582B000AF78600E4B1B6893F831301A467B689A4204D840F2C3110A4800F01BFC084B1B681A6A064B1B68B3F8B03019467B68D4
:4017000003FB01F3134418460837BD4680BD00BF104E0208A034081080B582B000AF78600C4B1B6893F832301A467B689A4204D840F2DF11084800F0F5FB064B1B681B6A15
:401740001A467B6880335B01134418460837BD4680BD00BF104E0208A034081080B584B000AFF860B9607A607B681B0C1B04002B04D04FF4FF710C4800F0D4FBBB681B0C35
:401780001B04002B04D040F2FF11074800F0CAFB7B681A04BB689BB21A43FB689A6000BF1037BD4680BD00BFA034081080B483B000AF78607B68DB6818460C37BD465DF89C
:4017C000047B704780B483B000AF78607B681B6818460C37BD465DF8047B704780B584B000AFF860B9607A607B681B0C1B04002B04D04FF426710D4800F094FBBB681B0CAD
:401800001B04002B04D040F29921084800F08AFB7B681A04BB689BB21A43FB681A60FB681B6800BF1037BD4680BD00BFA034081080B582B000AF786039603B681B0C1B04E7
:40184000002B04D040F2BB21054800F06BFB3B689AB27B689A6000BF0837BD4680BD00BFA034081080B483B000AF786039607B683A68DA6000BF0C37BD465DF8047B70472D
:4018800080B483B000AF7860084B1B68D3F8B4207B6813441B6803F00043DB0FDBB218460C37BD465DF8047B704700BF104E020880B483B000AF78607B681B0C18460C376C
:4018C000BD465DF8047B704780B483B000AF78607B689BB218460C37BD465DF8047B704780B582B000AF786039603B68002B04D140F2B631054800F015FB39687868FFF706
:40190000FFFC034618460837BD4680BDA034081080B483B000AF78607B681B6803F00043002B01DA002300E0034B18460C37BD465DF8047B704700BF01008A0080B483B0D9
:4019400000AF7860064B1B68002B02D1044A7B68136000BF0C37BD465DF8047B704700BFD04D0208B0B590B002AF78607B68002B03D152212F4800F0D5FA7B689B69072B22
:4019800003D956212B4800F0CDFA7B68DB6A002B03D15821274800F0C5FA7B681B6B002B03D15921234800F0BDFA7B6807F11C0403F114050FCD0FC42B6823607B6807F150
:4019C00008041D460FCD0FC42B6823601A4B1B68B3F936309AB2FB699BB213449BB21BB23B863B6A7B63B86A7B68D96A7B689A6AFC6A07F130030093234600F01FF8786963
:401A0000BA690023009313460022002100F016F87B681A6B07F130031146184600F00EFAB7F930301846FFF733FE00BF3837BD46B0BD00BFE0340810104E020880B586B002
:401A400000AFF860B9607A603B60254B1B68002B03D1B521234800F065FA214B1A68FB682C2101FB03F313447B613B68DAB27B691A603B681B0ADAB27B695A603B681A0C44
:401A80007B699A607B691B681846FFF71FFE02467B691A617B695B681846FFF73DFE02467B695A617B6958697B6999687B699B681A46FFF753FE7B697A68DA617B69BA688D
:401AC0001A627B6900229A613B6A002B04D03B6AB3F900207B699A8100BF1837BD4680BDD04D0208E034081080B58AB000AFF860B9607A603B607B68002B03D1FD21344834
:401B000000F010FA334B1B68002B03D1FE21304800F008FA2F4B1A68FB682C2101FB03F313443B622B4B1A68BB682C2101FB03F31344FB61FB695B68012202FA03F3BB612B
:401B4000BB691B04BB613B6A5B68012202FA03F37B613B6A1B69002B32D0FB699B69002B2BD13B6A1B691846FFF7D2FE0346002B20D17B681B689AB27B681A607B681A68A2
:401B8000BB691A437B681A603B6A1B697A6811461846FFF767FEFB6901229A61FB693A685A623B6A1B6979691846FFF741FE00237B6207E0084B7B6204E0074B7B6201E03F
:401BC000064B7B627B6A18462837BD4680BD00BFE0340810D04D020807028A0004028A0080B586B000AFF860B9607A60174B1B68002B04D14FF4AF71154800F093F9134BBC
:401C00001A68FB682C2101FB03F313443B613B691B6A002B04D14FF4B1710D4800F082F93B69DA697B689A4209D93B691A6A7B689B001344BA681A6000237B6101E0054BEE
:401C40007B617B6918461837BD4680BDD04D0208E03408100A028A0080B584B000AF78600B4B1B68002B04D140F2B111094800F059F9074B1A687B682C2101FB03F3134431
:401C8000FB60F86800F008F800BF1037BD4680BDD04D0208E034081090B589B000AF78600023FB600023FB617B68002B04D140F2D1114C4800F036F97B681B69002B04D1CD
:401CC0004FF4E971474800F02DF97B685B69002B04D140F2D311434800F024F97B681B6A002B04D14FF4EA713E4800F01BF97B685B691846FFF75AFDB861B869FFF7D8FD66
:401D00000346002B3ED07B685C69B869FFF7D0FD03461A4600212046FFF760FD7B681B691846FFF7ADFD0346002B2BD07B681B6907F10C0211461846FFF7D2FD0346002BE3
:401D40001AD1FB681B681B0CFB61FB681B68DBB27B617B68DA697B699A420DD97B681A6A7B699B0013441B683B613B69002B03D0FA683B69104698477B681B69F969184694
:401D8000FFF782FAB869FFF79FFD0346002B1FD07B685C69B869FFF797FD0346002219462046FFF71BFD7B685B6A002B06D07B685B6A98477B6800225A6206E07B689B6A4B
:401DC000002B02D07B689B6A98477B6800229A617B685B691846FFF7F5FC00BF2437BD4690BD00BFE034081080B483B000AF03463960FB80B7F90630002B0ADB0D49B7F96F
:401E000006303A68D2B25201D2B20B4483F800230AE00949FB8803F00F03043B3A68D2B25201D2B20B441A7600BF0C37BD465DF8047B704700E100E000ED00E080B584B01C
:401E400000AF786039600023FB607B68002B1DD07B685B68072B03D93221104800F062F87B68B3F900207B685B6819461046FFF7BBFF0B4B9B680B4A934209D17B68B3F97A
:401E800000303968184600F011F801E0064BFB60FB6818461037BD4680BD00BF2035081000ED00E0004002080100560080B584B000AF03463960FB80134B9B68134A934283
:401EC00016D13B68002B04D140F23711104800F029F8B7F9063010330C4A52F82330FB60B7F90630103309493A6841F8232006E0B7F906301033074A52F82330FB60FB68AA
:401F000018461037BD4680BD00ED00E000400208203508100000081080B483B000AF786001BEFEE780B582B000AF7860396018227968044801F0CAF8034A3B68136000206A
:401F4000FFF7EAFF404B0208584B020880B584B000AF78607B681B68414A13607B685B683F4A53607B689B683D4A93607B68DB683B4AD3607B681B69394A13617B685B69C7
:401F8000374A53617B689B69354A93617B68DB69334AD361334B9B6A314A1362314BDB6A2F4A53622F4B5B6A2D4A93622D4B5B6B2B4AD3622B4B9B6B294A1363F1EE103A37
:401FC000FB60FB6803F09003002B43D07B681B6A234A53637B685B6A214A93637B689B6A1F4AD3637B68DB6A1D4A13647B681B6B1B4A53647B685B6B194A93647B689B6BCD
:40200000174AD3647B68DB6B154A13657B681B6C134A53657B685B6C114A93657B689B6C0F4AD3657B68DB6C0D4A13667B681B6D0B4A53667B685B6D094A93667B689B6DBC
:40204000074AD3667B68DB6D054A13677B681B6E034A536700F008F800BF1037BD4680BD5C4B020800ED00E080B400AFFEE700BF0230800803D001300238FCD100BF00BFF1
:402080007047EFF3108072B6704780F31088704780B400AF4FF0B0535B78DBB2002B04D04FF0B0535B78DBB200E021231846BD465DF8047B704700BF80B483B000AF786073
:4020C000044A7B68136000BF0C37BD465DF8047B704700BF104E020880B487B000AF0346B9607A60FB73324B7B61FB7B002B27D1BB68072B54D87B68FF2B51D8BB689A005B
:402100002C4B1B689B682B490968B1F874100B4413441846BB689A00264B1B689B6825490968B1F874100B4413441B6823F47F427B681B029BB21343036000237B612FE0B7
:40214000FB7B012B2CD1BB680F2B29D87B68B3F5803F25D2BB689A00164B1B689B6815490968B1F876100B4413441846BB689A00104B1B689B680F490968B1F876100B4496
:4021800013441B6823F47F0222F47F427B681B0223F07F4323F0FF031343036000237B617B6918461C37BD465DF8047B704700BF01004A00104E020880B487B000AFB9606C
:4021C0007A603B600346FB73544B7B61FB7B022B52D1BB68032B00F29A807B68B3F5803F80F095803B681F2B00F29180BB689A004B4B1B689B684A490968B1F878100B44F9
:4022000013441846BB689A00454B1B689B6844490968B1F878100B4413441B6823F47F0222F47F427B681B0223F07F4323F0FF0313430360BB689A00394B1B689B68384964
:402240000968B1F878100B4413441846BB689A00334B1B689B6832490968B1F878100B4413441B6823F0F8023B68DB00DBB21343036000237B614AE0FB7B032B47D1BB68D8
:40228000002B44D17B68B3F1807F40D23B681F2B3DD8BB689A00224B1B689B6820490968B1F87A100B4413441846BB689A001C4B1B689B681A490968B1F87A100B4413442C
:4022C0001B68DAB27B681B0213430360BB689A00134B1B689B6812490968B1F87A100B4413441846BB689A000D4B1B689B680C490968B1F87A100B4413441B6823F0F802A8
:402300003B68DB00DBB21343036000237B617B6918461C37BD465DF8047B704701004A00104E020890B484B000AF03463A60FB710B46BB71254BFB60254B1B6893F83F3059
:40234000FA799A423CD2BB79032B39D8BB79002B02D13B68072B11D9BB79012B02D13B680F2B0BD9BB79022B02D13B68032B05D9BB79032B24D13B68002B21D1144B1B68CC
:402380009B681846FB79BA791149096891F8711002FA01F10E4A126892F8712014460322A24011400A4A126892F8702014463A6822400A4303F5407340F823200023FB607C
:4023C000FB6818461037BD4690BC704701004A00104E020890B484B000AF03463960FB712E4BFB60FB79032B52D8FB79002B02D13B68072B11D9FB79012B02D13B680F2B86
:402400000BD9FB79022B02D13B68032B05D9FB79032B3DD13B68002B3AD1214B1B689B6818461F4B1B6893F873301A46032303FA02F21B4B1B6893F870301946184B1B68D1
:4024400093F8723001FA03F31A43FB791449096891F8711003FA01F1114B1B6893F871301C460323A3400B401A430D4B1B6893F8703019463B680B40134343F00043C0F8B1
:402480000034074B1B689B68D3F800340023FB60FB6818461037BD4690BC704701004A00104E020880B485B000AF03463960FB71224BFB60FB79032B38D8FB79002B02D180
:4024C0003B68072B11D9FB79012B02D13B680F2B0BD9FB79022B02D13B68032B05D9FB79032B23D13B68002B20D1154B1B689B681946FB79124A126892F8712003FA02F2D6
:402500000F4B1B6893F871301846032383401A400B4B1B6893F8703018463B680340134343F08043C1F800340023FB60FB6818461437BD465DF8047B704700BF01004A004E
:40254000104E020890B589B002AF786039607B68002B03D149218D48FFF7E4FC3B68002B03D14A218948FFF7DDFC00233B610023FB600023BB607B68002B02D03B68002B86
:4025800002D1834B7B61FCE03B681B78002B07D03B681B78012B03D058217C48FFF7C2FC3B685B68002B08D03B685B68B3F1807F03D059217548FFF7B5FC3B681B7A042BDA
:4025C00003D95A217148FFF7ADFC3B685B89002B12D03B685B89B3F5807F0DD03B685B89B3F5007F08D03B685B89B3F5407F03D05B216648FFF796FC3B68DB68002B17D09C
:402600003B68DB68B3F5800F12D03B68DB68B3F5400F0DD03B68DB68B3F1006F08D03B68DB68B3F1086F03D05C215848FFF77AFC3B681B7C012B07D03B681B7C002B03D03E
:402640005D215248FFF76EFC3B685B69002B08D03B685B69B3F1804F03D05E214B48FFF761FC3B689B693F2B03D95F214748FFF759FC3B689B6903F03F033A6913433B61AE
:402680003B685B891A463B6913433B613B681B7A032B07D03B681B7A022B03D03B681B7A042B03D13B6943F080533B613B681B7A042B03D13B6943F000533B613B685B6840
:4026C0003A6913433B613B685B693A6913433B613B68DB683A6913433B613B681B78012B04D1FB6843F00103FB6004E0BB6843F00103BB6000BF3B681B7C012B04D1FB68EC
:4027000043F48073FB6004E0BB6843F48073BB6000BF3B6893F824301A467B689A627B6801229A627B68FA68C3F8B0207B68BA68C3F8B4203B68DB69C3F30B027B68C3F89A
:4027400000213B681B6AC3F30B027B68C3F804213B6893F82530002B0ED03B68187A3B6893F826103B689A6A3B68DC6A3B681B6B0093234600F00EF87B683A691A60002397
:402780007B617B6918461C37BD4690BDE43608100100660080B584B000AFBA607B600346FB730B46BB73FB7B002B49D0FB7B032B23D1BB7BB9681846FFF774FEBB7BBA68B5
:4027C00019463720FFF7AEFDBB7B002B02D0BB7B012B06D1BB7B0022B9681846FFF77CFC05E0B87B00230022B968FFF7E5FCBB7BB9681846FFF7EEFD22E0BB7BB96818462F
:40280000FFF750FEBB7BBA6819463720FFF78AFDBB7B002B02D0BB7B012B06D1BB7B7A68B9681846FFF758FC05E0B87BBB697A68B968FFF7C1FCBB7BB9681846FFF7CAFD18
:4028400000BF1037BD4680BD81F0004102E000BF83F0004330B54FEA41044FEA430594EA050F08BF90EA020F1FBF54EA000C55EA020C7FEA645C7FEA655C00F0E2804FEAEE
:402880005454D4EB5555B8BF6D420CDD2C4480EA020281EA030382EA000083EA010180EA020281EA0303362D88BF30BD11F0004F4FEA01314FF4801C4CEA113102D04042F2
:4028C00061EB410113F0004F4FEA03334CEA133302D0524263EB430394EA050F00F0A780A4F10104D5F1200E0DDB02FA0EFC22FA05F2801841F1000103FA0EF2801843FA3E
:4029000005F359410EE0A5F120050EF1200E012A03FA0EFC28BF4CF0020C43FA05F3C01851EBE37101F0004507D54FF0000EDCF1000C7EEB00006EEB0101B1F5801F1BD300
:40294000B1F5001F0CD349085FEA30004FEA3C0C04F101044FEA445212F5800F80F09A80BCF1004F08BF5FEA500C50F1000041EB045141EA050130BD5FEA4C0C404141EBE9
:40298000010111F4801FA4F10104E9D191F0000F04BF01460020B1FA81F308BF2033A3F10B03B3F120020CDA0C3208DD02F1140CC2F10C0201FA0CF021FA02F10CE002F101
:4029C0001402D8BFC2F1200C01FA02F120FA0CFCDCBF41EA0C019040E41AA2BF01EB0451294330BD6FEA04041F3C1CDA0C340EDC04F11404C4F1200220FA04F001FA02F3E1
:402A000040EA030021FA04F345EA030130BDC4F10C04C4F1200220FA02F001FA04F340EA0300294630BD21FA04F0294630BD94F0000F83F4801306BF81F480110134013DCE
:402A40004EE77FEA645C18BF7FEA655C29D094EA050F08BF90EA020F05D054EA000C04BF1946104630BD91EA030F1EBF0021002030BD5FEA545C05D14000494128BF41F04D
:402A8000004130BD14F580043CBF01F5801130BD01F0004545F0FE4141F470014FF0000030BD7FEA645C1ABF194610467FEA655C1CBF0B46024650EA013406BF52EA033573
:402AC00091EA030F41F4002130BD00BF90F0000F04BF0021704730B54FF4806404F132044FF000054FF0000150E700BF90F0000F04BF0021704730B54FF4806404F132040B
:402B000010F0004548BF40424FF000013EE700BF42004FEAE2014FEA31014FEA02701FBF12F07F4393F07F4F81F06051704792F0000F14BF93F07F4F704730B54FF46074FB
:402B400001F0004521F0004120E700BF50EA010208BF704730B54FF000050AE050EA010208BF704730B511F0004502D5404261EB41014FF4806404F132045FEA915C3FF4B1
:402B8000DCAE4FF003025FEADC0C18BF03325FEADC0C18BF033202EBDC02C2F1200300FA03FC20FA02F001FA03FE40EA0E0021FA02F11444C1E600BF70B54FF0FF0C4CF478
:402BC000E06C1CEA11541DBF1CEA135594EA0C0F95EA0C0F00F0DEF82C4481EA030621EA4C5123EA4C5350EA013518BF52EA033541F4801143F4801338D0A0FB02CE4FF0A6
:402C00000005E1FB02E506F00042E0FB03E54FF00006E1FB03569CF0000F18BF4EF0010EA4F1FF04B6F5007F64F5407404D25FEA4E0E6D4146EB060642EAC62141EA55517F
:402C40004FEAC52040EA5E504FEACE2EB4F1FD0C88BFBCF5E06F1ED8BEF1004F08BF5FEA500E50F1000041EB045170BD06F0004646EA010140EA020081EA0301B4EB5C04DB
:402C8000C2BFD4EB0C0541EA045170BD41F480114FF0000E013C00F3AB8014F1360FDEBF002001F0004170BDC4F10004203C35DA0C341BDC04F11404C4F1200500FA05F30E
:402CC00020FA04F001FA05F240EA020001F0004221F0004110EBD37021FA04F642EB06015EEA430E08BF20EAD37070BDC4F10C04C4F1200500FA04F320FA05F001FA04F232
:402D000040EA020001F0004110EBD37041F100015EEA430E08BF20EAD37070BDC4F1200500FA05F24EEA020E20FA04F301FA05F243EA020321FA04F001F0004121FA04F250
:402D400020EA020000EBD3705EEA430E08BF20EAD37070BD94F0000F0FD101F00046400041EB010111F4801F08BF013CF7D041EA060195F0000F18BF704703F000465200D9
:402D800043EB030313F4801F08BF013DF7D043EA0603704794EA0C0F0CEA135518BF95EA0C0F0CD050EA410618BF52EA4306D1D181EA030101F000414FF0000070BD50EA76
:402DC000410606BF1046194652EA430619D094EA0C0F02D150EA013613D195EA0C0F05D152EA03361CBF104619460AD181EA030101F0004141F0FE4141F470014FF000009D
:402E000070BD41F0FE4141F4780170BD70B54FF0FF0C4CF4E06C1CEA11541DBF1CEA135594EA0C0F95EA0C0F00F0A7F8A4EB050481EA030E52EA03354FEA013100F08880BD
:402E40004FEA03334FF0805545EA131343EA12634FEA022245EA111545EA10654FEA00260EF000419D4208BF964244F1FD0404F5407402D25B084FEA3202B61A65EB0305B7
:402E80005B084FEA32024FF480104FF4002CB6EB020E75EB030E22BFB61A754640EA0C005B084FEA3202B6EB020E75EB030E22BFB61A754640EA5C005B084FEA3202B6EBE7
:402EC000020E75EB030E22BFB61A754640EA9C005B084FEA3202B6EB020E75EB030E22BFB61A754640EADC0055EA060E18D04FEA051545EA16754FEA06164FEAC30343EAF2
:402F000052734FEAC2025FEA1C1CC0D111F4801F0BD141EA00014FF000004FF0004CB6E711F4801F04BF01430020B4F1FD0C88BFBCF5E06F3FF6AFAEB5EB030C04BFB6EB45
:402F4000020C5FEA500C50F1000041EB045170BD0EF0004E4EEA113114EB5C04C2BFD4EB0C0541EA045170BD41F480114FF0000E013C90E645EA060E8DE60CEA135594EA34
:402F80000C0F08BF95EA0C0F3FF43BAF94EA0C0F0AD150EA01347FF434AF95EA0C0F7FF425AF104619462CE795EA0C0F06D152EA03353FF4FDAE1046194622E750EA410694
:402FC00018BF52EA43067FF4C5AE50EA41047FF40DAF52EA43057FF4EBAE12E74A0011D212F5001211D20DD56FF47873B3EB62520ED44FEAC12343F0004343EA505323FA4B
:4030000002F070474FF00000704750EA013002D14FF0FF3070474FF0000070474FEA4102B2F1E04324BFB3F5001CDCF1FE5C0DD901F0004C4FEAC0024CEA5070B2F1004F82
:4030400040EB830008BF20F00100704711F0804F21D113F13872BCBF01F00040704741F480114FEA5252C2F11802C2F1200C10FA0CF320FA02F018BF40F001004FEAC123B7
:403080004FEAD32303FA0CFC40EA0C0023FA02F34FEA4303CCE77FEA625307D150EA01331EBF4FF0FE4040F44000704701F0004040F0FE4040F40000704700BF02440346A1
:4030C000934202D003F8011BFAE7704710B5034642B111F8014B03F8014B013A002CF7D11A4400E010BD934202D003F8014BFAE710BD0000F8B5C1F30A56A6F2FF35132D3A
:4031000002460B460C46864610DC002D2EDB0F461E4929410B4226D04FF400242C413C4424EA0104002621463046F8BD332D05DDB5F5806F20D010461946F8BDA6F2134608
:403140004FF0FF3121FA06F63042F4D00123C5F1330503FA05F52D1828BFE41825EA060621463046F8BD0028D6D1E4E7013501F0004404D00026D6E7FFF76CFBF8BD44F0B3
:403180007F5444F440140026CDE700BFFFFF0F00F8B500BFF8BC08BC9E467047F8B500BFF8BC08BC9E4670470300000001000000010000000000000005036000040000009B
:4031C0000100000000000000010000000604600008000000744D0208450B08102E000000070000008A000000070000009200000007000000010000000000000001000002C5
:40320000000040000000000000000000220000000000000000000000010000000000000000000000000000000000000002080008000000000000000047656E6572617465EE
:40324000645F536F757263655C50536F43365C70646C5C647269766572732F7065726970686572616C2F737973616E616C6F672F63795F737973616E616C6F672E68000010
:4032800047656E6572617465645F536F757263655C50536F43365C70646C5C647269766572735C7065726970686572616C5C6374625C63795F6374622E680000000000004E
:4032C00000000000000000000210000000000000000000000200000000000000000000000208000000000000000000000208000004010000004000000208000000402000F7
:4033000000220000020800000040200000320000000000000000000000000000021000000000000000000000020000000000000000000000020800000000000000000000B1
:4033400002080000100100000000000002000000804000000200000002000000024000000200000047656E6572617465645F536F757263655C50536F43365C70646C5C6486
:403380007269766572735C7065726970686572616C5C6374625C63795F6374622E63000047656E6572617465645F536F757263655C50536F43365C70646C5C64726976659C
:4033C00072732F7065726970686572616C2F6970632F63795F6970635F6472762E68000047656E6572617465645F536F757263655C50536F43365C70646C5C6472697665E3
:4034000072735C7065726970686572616C5C6970635C63795F6970635F6472762E68000047656E6572617465645F536F757263655C50536F43365C70646C5C64726976651B
:4034400072735C7065726970686572616C5C6970635C63795F6970635F6472762E63000047656E6572617465645F536F757263655C50536F43365C70646C5C6472697665E0
:4034800072735C7065726970686572616C5C6970635C63795F6970635F6472762E68000047656E6572617465645F536F757263655C50536F43365C70646C5C64726976659B
:4034C00072735C7065726970686572616C5C6970635C63795F6970635F6472762E68000047656E6572617465645F536F757263655C50536F43365C70646C5C64726976655B
:4035000072735C7065726970686572616C5C6970635C63795F6970635F706970652E630047656E6572617465645F536F757263655C50536F43365C70646C5C6472697665BD
:4035400072735C7065726970686572616C5C737973696E745C63795F737973696E742E63000000000000214000002540000001400000344000002440000031400000324044
:4035800000001F410000234000001140010101010101010101101010800019005500F0000501053B04101C01010000000FC000000004000001010101011D3A5778960008CC
:4035C0002000101208000000001F00000010000F002000023F06080E00080009000A000B24282C3034000000100000009000000088000000080000008000000004F0000020
:4036000000F00000400200002005A000D00100018001A00120000000100000000000204000002440000000400000000000002340000030400000314000009F4000002240E6
:403640000000104002020202020202020210101D800017007500FF030602063604102000000000007FC0000000040000000000000019324B647D00804000080B1000000088
:403680000000FF012002001F00800004FF081018001000140018001C4044484C500000000810000008000000040000000410000000120000042100000021000000160000B0
:4036C00040114002C41300138013A013200000001C0000000101000001000000000100000000000047656E6572617465645F536F757263655C50536F43365C70646C5C6425
:403700007269766572735C7065726970686572616C5C63746461635C63795F63746461632E6300000000000000000810004002088C020000483708108C420208B4080000C9
:40374000D44B02084002000000127A0000127A0000093D000048E80100127A00401F0000080000000000A00FB10208108D0208100000000080B584B000AF78607B68FB600D
:40378000FB685B78FF2B37D100F0D8FBB860042000F0CCFB0346184600F010FC03461A46174B1A60174B00221A60164B1B685B015B42012202FA03F3134A1360104B1B6825
:4037C0005A68104B1B689B001344104A13600F4B1B680E4A126811680B4A12680A431A6000BF0A4B1B681A68074B1B681340002BF7D1B86800F0AAFB00BF1037BD4680BD7D
:40380000B04D0208B44D0208B84D0208BC4D020880B588B000AF786039605F4BFB61012000F084FB38615D4B1B68D3F8B4203B691344FB600023BB61584B1B6893F8503008
:40384000002B00F082800023FB75554B1B78DBB2002B01D10123FB75FB7D83F00103DBB2002B02D00023FB6132E0052000F05EFB0346184600F082FB034683F00103DBB26E
:40388000002B25D0002000F0A9FB0246454B9A421ED0454B1A6800230121002000F0A6FB0346002B14D102E0BB690133BB61002000F094FB02463B4B9A4203D0BB693B4A16
:4038C0009342F1D9BB69394A934201D80023FB61FB69002B5AD100F031FBB860344BD3F81C3503F00043002B1EDA324A0121386900F05CFB0346002B13D1386800F05EF8AF
:403900007B68002B02D12C4BFB610FE000BFFB681B6803F00043002BF9DB00F027FBF86104E01D4BFB6101E01B4BFB61FB7D002B07D000BF0121002000F028FB0346002B52
:40394000F8D1B86800F002FB20E000F0F7FAB860184A0121386900F029FB0346002B10D17B68002B02D1144BFB610CE000BFFB681B6803F00043002BF9DB00F0F7FAF8614E
:4039800001E0054BFB61B86800F0E0FAFB6918462037BD4680BD00BF05005200104E02080B000016010188009C4D0208EF49020000002640A04D02080100500080B485B0CA
:4039C00000AF78607B689BB2DB00FB60FB68002B40D000BF224B1B681A6A214B1B68B3F8B03019460B46DB005B1A13441B6803F00043002BEEDA1B4B3E221A601A4B41F6B0
:403A00001E721A60194B0622C3F81825174AFB6823F07F43C2F81C35144BD3F81C3503F00043DB0FFB600E4B1B681A6A0C4B1B68B3F8B03019460B46DB005B1A13441A46E2
:403A40000023536000BF094BD3F81C3503F00043002BF8DA00BF1437BD465DF8047B7047104E020804012640080126400000264090B585B000AF052000F058FAF8602C4B6F
:403A80001B685B6803F5704360331B689BB2BB6000F054FA7860264B1B681A68244B1B68D3F8903013441B683B60BB68012B08D0BB68022B05D0BB68032B02D0BB68042B58
:403AC0002FD13B68032B13D11A4B1B78DBB2002B0ED1FB6808229A6000BF154B1B681A68134B1B68D3F8903013441B68032BF4D000F054FA03465C1C00F030FA0346013309
:403B000003FB04F30C4A02FB03F20C4B1B680C49A1FB03139B09B2FBF3F382331846FFF74DFF786800F012FA00BF1437BD4690BD104E02080B00001640420F0090420208AF
:403B4000D34D621090B589B000AF0346FB717A4B1B685B6803F58673FB6100F037FA0346212B40F0D48000BF734B1B681A6A724B1B68B3F8B03019460B46DB005B1A134499
:403B80001B6803F00043002BEEDA6B4B1B681A6A694B1B68B3F8B03019460B46DB005B1A13441846644B1B681A6A634B1B68B3F8B03019460B46DB005B1A1344DB6843F0E6
:403BC0000103C3605C4B1B681A6A5B4B1B68B3F8B03019460B46DB005B1A1344DB6803F00203002B77D0544B1B681A6A524B1B68B3F8B03019460B46DB005B1A13441C462E
:403C00004D4B1B681A6A4C4B1B68B3F8B03019460B46DB005B1A1344DB689AB2464B1B681968454B1B68D3F884300B441B6803F47F431B0A1904404B1B6818683E4B1B68CC
:403C4000D3F8883003441B6803F47F431B0A1B060B431343E360384B1B681A68364B1B68D3F8843013441946334B1B681A68324B1B68D3F8843013441B6823F47F4343F464
:403C800010630B602C4B1B681A682B4B1B68D3F8883013441946284B1B681A68264B1B68D3F8883013441B6823F47F4343F410630B60214B1B681A681F4B1B68D3F88430E4
:403CC00013441B681C4B1B681A681B4B1B68D3F8883013441B68184B1B681A6A164B1B68B3F8B03019460B46DB005B1A13441A4600235360104B1B681A6A0F4B1B68B3F8E8
:403D0000B03019460B46DB005B1A13445B680A4B1B681A68084B1B68D3F894301344BB61064A064B1B6943F004031361FB79012B06D030BF0DE000BF104E020800ED00E03E
:403D400020BF744B1B78002B00D020BF714B01221A70BB691B6803F00303022BE0D000BF6D4B1B681A6A6C4B1B68B3F8B03019460B46DB005B1A13441B6803F00043002BD4
:403D8000EEDA00F023F90346212B7ED1624B1B681A6A614B1B68B3F8B03019460B46DB005B1A1344DB6803F00203002B4FD05A4B1B681A68584B1B68D3F8843013441C46F9
:403DC000554B1B681A68544B1B68D3F8843013441B6823F47F42504B1B68196A4E4B1B68B3F8B03018460346DB001B1A0B44DB6803F47F031B0C1B029BB213432360464BC6
:403E00001B681A68444B1B68D3F8883013441C46414B1B681A68404B1B68D3F8883013441B6823F47F423C4B1B68196A3A4B1B68B3F8B03018460346DB001B1A0B44DB68F2
:403E400003F07F431B0E1B029BB213432360324B1B681A6A304B1B68B3F8B03019460B46DB005B1A134418462B4B1B681A6A2A4B1B68B3F8B03019460B46DB005B1A134408
:403E8000DB6823F00103C36030E0FB691B68002B2CD1224B1B687B61214BD3F818353B61204B1B68FB601D4B41F61E721A601C4B0622C3F818251B4B3E221A60184B4422F8
:403EC000C3F81C2500BF164BD3F81C35002BFADAFB694FF0AA321A60104A7B691360104A3B69C2F818350F4AFB6813600A4B1B681A6A094B1B68B3F8B03019460B46DB0064
:403F00005B1A13441A460023536000BF2437BD4690BD00BFE84D0208104E02080801264000002640040126400000000001B40248844601BC604700BFCD0E081001B4024891
:403F4000844601BC604700BF8320081001B40248844601BC604700BF8B20081001B40248844601BC604700BFA10E081001B40248844601BC604700BF3111081001B40248F2
:403F8000844601BC604700BF310F081001B40248844601BC604700BF3D15081001B40248844601BC604700BF750E081001B40248844601BC604700BF610F081001B402486C
:403FC000844601BC604700BF190F081001B40248844601BC604700BF9120081001B40248844601BC604700BF1D16081001B40248844601BC604700BFE91A081000000000A1
:0200000490303A
:02000000F66B9D
:0200000490501A
:0C0000000005E2F021002101E307176B6E
:00000001FF