:020000041000EA
:4000000000400208230100100D00000085010010000000000000000000000000000000000000000000000000000000008101001000000000000000008101001081010010E9
:400040008101001081010010810100108101001081010010810100108101001081010010810100108101001081010010810100108101001081010010810100108101001060
:400080008101001081010010810100108101001081010010810100108101001081010010810100108101001081010010810100108101001081010010810100108101001020
:4000C00010B5064C2378002B07D1054B002B02D0044800E000BF0123237010BD3C06000800000000B0240010084B10B5002B03D00749084800E000BF07480368002B00D156
:4001000010BD064B002BFBD09847F9E70000000040060008B0240010E8000008000000007047FFF7FDFF72B60F4C104DAC4209DA21686268A368043B02DBC858D050FAE7D5
:400140000C34F3E70A490B4A0020521A02DD043A8850FCDC084809490860BFF34F8F00F005F900F01DF8FEE7B4240010CC2400103C060008140800080000000808ED00E0BF
:40018000FEE7FEE700B504207146084202D0EFF3098001E0EFF30880043001F06BFBFEE710B562B6014800F067F9FEE70000081010B5002001F0DAF810BDC04670B56249E5
:4001C000E0239B00CB580F2213401A00D0329200525807210A40032A05D0042A06D0002A12D15A4814E05A4A106811E01A00C0329200554952581F210A40112A06D0132A7C
:4002000004D0FA20C00103E0524801E080200002002B36D14C4BB222D2009A5801211140B125ED005A59120F032422405B591B0F1C4207D0444C63591B0F03242340012BDC
:4002400002D102E0012300E00023002B01D0002901D1032A4BD13C4BB022D2009D58AD03AD0B3D495958C904C90C9C58240E01231C40013401F008FE6843210001F004FE70
:4002800035E0012B33D1304BC822D2009A5801251540C024E4001A59120F03210A401B591B0F194207D028490B591B0F03210B40012B02D102E0012300E00023002B01D049
:4002C000002D01D1032A12D11F4DC022D200AB587F210B40A958090A1F263140AC58240C3440584301F0D0FD210001F0CDFDE0239B00154AD3581B0903221340D840144CFE
:400300006060164B1D692D0AFC32154001351969090E013101F0B8FDA060290001F0B4FD0500E06020610E4BC0180E4901F0ACFD20750D4BE818FA21890001F0A5FDA061DD
:40034000C003E06170BDC0460000264000127A00C000000800366E0184050000000021403F420F0040420F00E703000010B5284801F084FD274CB022D200A3585B005B087B
:40038000A350E0218900635830208343635080235B04A350204A214BE250A02292010433E250FF221E4BE25001F056FDC0225200A35801218B43A35000F086F9FFF7FEFE0E
:4003C000B0235B055B78002B04D0B0235B055B78DBB200E02123212B03D1124B0022DA605A60114C22008021042000F065FD2000103000F0F9FD0D4B1A685123D35C002B2A
:4004000002D00B4800F066FE00F094FA10BDC046F82300100000264001000200840500008C050000E00023405806000810080008F01F00108023024AD35803201840704710
:400440000000214010B501F0A8FA084980228C58074B2340074C23438B508823034AD358DB06FAD501F09DFA10BDC04600002140FCFF00000100FA0570B50500830504D093
:40048000E821FF310F4801F0C7F901F086FA0400FFF7D0FF032801D1FFF7D4FF0A4AB0239B00D55080215058084B03400848034353508823044AD358DB06FAD5200001F017
:4004C00070FA70BD2420001000002140FCFF00000300FA05FEE7C046014A024B1A60704701001180000E1F4130B587B0664A116808230B431360654C03E0012001F080F9AF
:40050000013C614B1B695B0701D4002CF5D1002C01D15F4B00E00023002B02D00520FFF7D9FF5C48A021C900435803229343023A13434350584A116808688823CB58C3186D
:4005400018685649084018601368186884241B59C01803681B021B0A80256D042B430360106805680359EB1818680140196013683E229A5C002A06D04648E0218900425818
:40058000753CA24342503E229A5C002A06D04148E021890042583024A24342503E229B5C002B07D03B49E02292008B588020000603438B500021012000F00AFF00210220AC
:4005C00000F006FF0021032000F002FF0021042000F0FEFE0021002000F0FAFE01A8304903000A0032CA32C312CA12C300F01EFF002802D00420FFF76DFF2649294A8B5854
:400600008020000603438B50274800F0CBFF002802D00420FFF75EFF1E4C244BE158244A0A40E250E158234A0A40E250E25880252D062A43E250043BE1581F4A0A40E2502D
:40064000E1581E4A0A40802189010A43E250E258802109020A43E2500B4A1168184B0B401360002001F0DAFB164BE2582A43E250E158012291430A43E2506421002001F02C
:4006800011F907B030BDC0460000274020A1070002004A000000264010080008FF00FFFF3C200010087F0000400D030004050000FEFCFFFFFFFF00FFFFF0FFFFFF8FFFFFCE
:4006C000FFFCFFFF0C05000030B58FB09621002001F0E8F801F0BEF8002814D101F0AAF8C0235B00334AD358DB0705D41100324A8B585B005B088B502E492F4A8B588020C0
:40070000000603438B50012001F020FB2B4A516C2B4B0B40E82189010B435364536C1B0AFF2213403A2B07D1244A516C254B0B40E82189010B43536401AC34220021200083
:4007400001F02EFC204D22000021280000F0FAF834220021200001F023FC22000121280000F0F0F8FFF7C0FE24220021200001F017FC2100280000F07FFA2200134B143301
:4007800023CB23C223CB23C223CB23C22100104800F072FA24220021200001F001FCC023DB04E36021000B4800F066FAFFF794FE0FB030BD000026400C050000000027409B
:4007C000FF00FFFFFFC5FFDF000032403C2000100003324080043240214B984230D00ED8402831D004D800281FD010282AD031E080282BD080235B00984229D02AE0194B64
:40080000984229D007D8A0231B0698420DD0164B984212D01EE0154B98420AD0144B984209D0144B984215D101E0002016E0124814E0124812E0124810E0A020C0030DE0C0
:4008400007480BE00F4809E00F4807E00F4805E0034803E00E4801E0A420C0037047C04606005200010000F0090000A0040000F0050000F0030000F0010052000200520066
:4008800003005200010050000200500005005200FF00520070B5124B1A683123D35C002B04D1C421FF310F4800F0B6FF0C4B1D682C00B423EB582A6A944663441B68002B1B
:4008C0000BDB094B1868FFF787FF6B6801229A6063689B68002BFBD100E0044870BDC0461008000874200010E80700080200500010B50D4B1861002805D002230370FD3346
:40090000437000234380094B1B6850229A5C002A08D051229B5C002B04D04F3A0449002000F092FC10BDC046E8070008100800086101000810B502481430FFF7D9FF10BDBE
:40094000E8070008F8B54F464646C0B406000D001400002800D16FE1002A00D16EE1072903D94521B84800F057FF2368012B03D94621B54800F050FF0F2362689A4303D0EA
:400980004721B14800F048FF237A1F22934303D04821AD4800F040FFE368032B03D94921A94800F039FF2369012B03D94A21A64800F032FF6369012B03D94B21A24800F08B
:4009C0002BFFA369012B03D94C219F4800F024FFE369032B03D94D219B4800F01DFF236A012B03D94E21984800F016FF636A012B03D94F21944800F00FFFA36A012B03D982
:400A00005021914800F008FFE36A032B03D951218D4800F001FF236B072B03D952218A4800F0FAFE2768072D03D98849884800F0F3FE012F04D9CA218900854800F0ECFED5
:400A4000002F03D10123AB40736002E00123AB40B3606768072D04D9F12189007C4800F0DBFE0F233A009A4303D07A49784800F0D3FEA900784B1A687D23D35C9B191A6832
:400A800090460F2291468A40404690430200484607408F4017431F60277A072D04D9A22189006B4800F0B8FE1F233A009A4303D06A49674800F0B0FE674B1A689369F31AF6
:400AC000DB0952691B01D318032D0AD81968E8001F22824091431F22174087400F431F600AE02A1F5968D2001F20904081431F20074097400F435F60E768082D04D9DD2168
:400B0000C900534800F088FE032F03D95449504800F082FE6900504B1A687C23D35C9B191A689046032291468A40404690430200484607408F4017431F602769082D03D989
:400B40004849434800F068FE012F03D94649404800F062FEB36901221100A9408B431740AF401F43B76163699846072D03D93F49374800F051FE4346012B03D93C49344837
:400B800000F04AFE34487E230268D35C9B191A6801273900A9408C468A43110042463A40AA400A431A606B0010229046984403210B00424693406246134399467F220368A2
:400BC0009A5C9446B44463461A684B469A43A3693B40AB401A43E3691940434699400A4363461A6002688023D35CF6183368FF22944693431800236A1F40636A5A00022348
:400C000013403B43A26A9100042739400B431F00E36AD900182319403B000B43226B520161460A401343AD00FE2292001540AB4003433360002002E00E4800E00D480CBCFE
:400C400090469946F8BDC046B420001027030000F4200010C50300001008000889020000E9060000690600006A060000030400000404000001005A0070B505000C000028C9
:400C80005DD000295DD0FF230A689A4303D099212D4800F0C1FDFF2322699A4303D09A21294800F0B9FDA3685B0D03D09B21264800F0B2FD63685B0A03D09C21224800F038
:400CC000ABFDE3695B0F03D09D211F4800F0A4FD236A5B0F03D09E211B4800F09DFD1B4A11688B69EB1ADB0949691B01CB18216829607D211068415C6918E06808607E2196
:400D00001068415C6918206908607F211068415C6918606908607C211068415C6918A06808606168A961116880228A5CAD18A2692A60E2691A60226A5A60002002E004489B
:400D400000E0034870BDC046B42000101008000801005A0070B504000D000A4B1A68B423D3581B181B68002B0ADA0B0C03D00649064800F051FD2D042D0C6560002000E0EE
:400D8000034870BD10080008D50200003421001001008A0070B505000C000368002B01DA002300E0084B002B0BD1EA60230C03D00649074800F030FD2404240CAC60002045
:400DC00000E0014870BDC04601008A00BB0200003421001070B505000C1E03D19921084800F01AFD074B1A68B423D3585B191B68002B03DAEB682360002000E0024870BD8F
:400E0000742100101008000801008A0070B504000D00234B1A683123D35C834236D9002936D00B68DB0635D13123D35C984204D3C421FF311B4800F0EFFC194B1B681A6A6A
:400E4000B0215B5A5C431419174E34602B68DA080021686801F0A4F800212000FFF77AFF3468002D03D111490E4800F0D5FC2A0000212000FFF78EFF00280DD10A4B1868AD
:400E80000021FFF767FF002808D108E0084806E0074804E0064802E0064800E0054870BD1008000834210010000800089303000003018A0001018A0010B50400002A17D16B
:400EC000002915D1124B1A683123D35C984204D3C421FF310F4800F09FFC0D4B1B681A6AB0215B5A5C4314190B4B1C6000200EE0002A09D0002909D0074B59609A60191D08
:400F00002000FFF783FF02E0044800E0034810BD10080008342100100008000803018A00F0B583B00D001C4B1B68DC68236883422DD947097B01C01A012383401E00002993
:400F400003D100F02AFD019001E000230193124B18680368002B01DA002300E00F4B002B0ED16368BF00DF193B68334203D0B3433B60002400E00A4C0021FFF7EBFE00E070
:400F8000084C002D04D1019800F00BFD00E0064C200003B0F0BDC0460008000801008A00020188000301880004018A000A4B1B68DA68136883420BD943095901401A0121F1
:400FC000814052689B009B580B4203D0034802E0034800E003487047000800080101880004018A0000018800034B1B68002B01D1014B18607047C0460C080008F0B547461F
:4010000080B404000F0090461E002D4B1B68002B03D1B5212B4800F0FFFB294B1B682C2060431C18FF22150035402560330A13406360360CA660244B1A683123D35C9D4210
:4010400004D3C421FF31214800F0E6FB1E4B1A68B023D35A6B43116A8C466344236166683223D35C9E4204D3E021FF31174800F0D3FB154B1B681D6A80367601AD196561BF
:40108000A668330C04D0FF214900104800F0C4FB330C03D00E490D4800F0BEFB3604330C1E43AE604346E36127620023A361069B002B02D000229B5EA38104BC9046F0BDB3
:4010C0000C080008B42100101008000834210010FF010000F0B58FB0041E03D15221294800F09AFB6368032B03D95421254800F093FBE36A002B03D15821224800F08CFB4C
:40110000236B002B03D159211E4800F085FB07AA1300210061C961C321C921C302AD290023001433C1CBC1C141CB41C10821535E0CAE3380144B1B6836215B5E07998C46C8
:401140006344B370089B0D930B9B0A980096A26AE16AFFF753FF2B69E868002200920021FFF74CFF216B300000F0E8FA0023F25E002A05DB1F231A401E3B9340034A136058
:401180000FB0F0BDB42100101008000800E100E0F8B505000F0016001C00002A03D1FD21224800F039FB224B1B68002B03D1FE211E4800F031FB1E4B1B682C2128004843E4
:4011C000181879435918012213004D68AB401B044568AA4015000269002A20D08F69002F1FD11268002A01DA002200E0114A002A19D132681204120C134333600369DE6004
:4012000001238B614C6204692B0C03D00A490B4800F002FB2A04120CA260002004E0084802E0084800E00748F8BDC046B42100100C08000801008A00BB020000342100107A
:4012400004028A0007028A0070B504000D0016000F4B1B68002B04D1AF2149000D4800F0DBFA0B4B1B682C2060431C18236A002B04D1B1214900074800F0CEFAE369B34203
:4012800004D9236AB6009D51002000E0024870BD0C080008B42100100A028A0070B582B0040000230193002804D1D221FF312D4800F0B2FA2369002B04D1E921490029487F
:4012C00000F0AAFA6369002B04D1D421FF31254800F0A2FA236A002B04D1EA214900214800F09AFA6269D5682B0C24D01B041360136820691C4B1A68B423D358C3181B6890
:40130000002B18DA01A9FFF765FD00280ED1019803681E0CFF221340E269934207D29B00226AD358002B02D0984700E0002631002069FFF70FFD2D042D0C0FD063691D606A
:401340001B68636A002B03D098470023636203E0A36A002B00D098470023A36163691B6802B070BDB42100101008000810B50400084B1B68002B04D1B221FF31064800F054
:401380004BFA044B1B682C2060431818FFF786FF10BDC0460C080008B421001010B50400094B1B689B6CC340DB0703D4BE21074800F032FA044B1B681B691034A402E35880
:4013C0000F20184010BDC04610080008F4210010134B1A683C23D35C83421DD9042904D94B1EFF3B9BB2132B18D8FF290CD91F2319400C4A0300C0339B009950D030800005
:401400000423835000200AE007231940D0308000044BC150002002E0034800E002487047100800080000264001004A0070B5041E03D14A494A4800F0EFF9B023DB00494AED
:40144000D358002B00DA87E0474B22689A4203D94649434800F0E0F923689B039B0BE279002A02D08022520400E000221343B022D2003C498B50A2883D4B9A4204D98C218C
:401480008900374800F0C8F922893A4B9A4203D93949334800F0C0F9A388DB04D90C23891B04364A13400B43354A2E498B50A37A0F2B04D98E218900294800F0ADF9E37A69
:4014C0000F2B03D92F49264800F0A6F9A289284B9A4203D92C49224800F09EF9A37A0F211940E27A1201FF2313400B43A289120226490A401343A27B1207C02189050A4090
:401500001343B122D20017498B50A379042B03D91F49134800F080F9228A164B9A4204D9912189000E4800F077F90E4819494558194B1D40A3791B02E022D20013402B4387
:4015400043504558154B1D40238A1B040B4A13402B434350002000E0114870BD1F0200003422001000002640FFFF030029020000FF1F0000FF010000310200000000FF0119
:4015800084050000390200003A02000000FF1F00430200008C050000FFF8FFFFFFFF00FE03004A0070B505003149324A8B588020000603438B502C0003E0012000F020F9F6
:4015C000013CB223DB002A4AD3585B0701D4002CF3D12749B122D2008858274B03408020800503438B50002D01D0002C0CD02049B022D2008B588020000603438B5003E0A8
:40160000012000F0FDF8013CB223DB00184AD358DB0701D4002CF3D1002D01D0002C08D01349B122D2008B58C020800503438B5013E00F4BB121C90058580F4A0240802044
:40164000800502435A5008395A58520052085A5008495A58520052085A50002D03D0002C03D0002002E0002000E0044870BDC046000026408C050000FFFFFFCF02004A00C5
:4016800070B505000C001A4B1B6828229A5C012A15D1820807211000884327D19200AD1AED00FF20A8401B6820339A181168AC4023004B40184004004C40146016E03A22A0
:4016C0009B5EDBB2994203D176210A4800F0A4F8074B1B681B68072215408022120615438022920194466444A400E55070BDC04610080008BC22001070B504000D000B4BFB
:401700009A680B4B9A420CD1002904D13821FF31084800F081F81034054BA400E058E55003E01034A400044BE05870BD00ED00E000000008BC22001000000010F0B547462F
:4017400080B482B0061E01914AD04368032B03D93221264800F060F80023F05E002804DBB178FFF78DFF002400E0214C0023F15E7368002912DB88081E4FC0308000C559F3
:4017800003221140C900FC3290468A4095439A01434613408B402B43C35116E089B20F220A40083A92080632920013481018476803221140C900FF252A008A4097439A0130
:4017C0002B0013408B403B4343600B4B9A680B4B9A4206D10023F05E0199FFF78DFF00E0034C200002B004BC9046F0BDBC2200100100560000E100E000ED00E00000000872
:4018000010B5034B1B78584300F0BEF810BDC046D400000801BEFEE770B50D00044C18220100200000F0C4FBA5610020FFF7F2FF00060008054B802212069A649B6C002B8D
:4018400001DB002000E002487047C0460000274003004600054B8022120198585B68FF221A4202D08023DB021843704700002640FEE7C04610B50A4B0268DA6142681A6206
:4018800082685A62C2689A620269DA6242691A6382695A63C2699A63FFF7EAFF10BDC04600060008F0B5474680B4002801D0192300E064238B429B415B42304D2C6822681A
:4018C000A826A45BA41822680327BA433B401A4322602C682268A45BA2181668284CA046264016602C682668AA229446A25A96193268BA43134333602A6813686546525B71
:40190000D3181A68444614401C60002805D010291BD921291BD8012024E0184B1B6855229A5C914215D956229A5C914213D957229A5C914211D958229A5C91420FD9592241
:401940009B5C99420DD804200CE000200AE0022008E0002006E0012004E0022002E0032000E00520054A1268526813680F218B430343136004BC9046F0BDC0461008000837
:40198000FFFCFFFF000000000230800803D001300238FCD1C046C0467047EFF3108072B6704780F31088704710B5B0235B059B899BB2002B04D0B0235B059B899BB201E0A6
:4019C00080235B0080225200934215D1184C23681968683A9B58C9180B680F208343963A13430B6021680C689C23CB58E318196881430A431A6019E00D4C2368196898225D
:401A00009B58C918B02040050A4BC2580A4B13400A681343C022920013430B60226811689C23D358CB18054A82581A6010BDC0461008000848180000FFFCFFFF441800008E
:401A400030B5B0235B059B899BB2002B04D0B0235B059B899BB201E080235B0080225200934215D1184C23681968683A9B58C9180B680F208343953A13430B6021680C68D1
:401A80009C23CB58E318196881430A431A6019E00D4D2B68196898229B58C918B0246405C12040012258094B13400A681343C022920013430B602A6811689C23D358CB18F3
:401AC00022581A6030BDC04610080008FFFCFFFFB0235B059B899BB2002B04D0B0235B059B899BB201E080235B008022520093420DD1104B1B681A6898215B58D2181168EA
:401B00000D4B0B40C021C9010B43136011E0094B1B68196898229B58C918084BB0225205D258074B13400A681343C022920013430B60704710080008FF8FFFFF18180000E4
:401B4000FFFCFFFF30B5B0235B059B899BB2002B04D0B0235B059B899BB201E080235B008022520093420DD1134B1B681A6898215B58D2181168114B0B408021C9010B4328
:401B8000136018E00C4D2B68196898229B58C918B02464050A4822580A4B13400A681343C022920013430B602A6811689C23D358CB1822581A6030BD10080008FF8FFFFFAC
:401BC0004C180000FFFCFFFF10B5B0235B059B899BB2002B04D0B0235B059B899BB201E080235B0080225200934217D10020FFF7D5FBB0235B055B78002B04D0B0235B05CE
:401C00005B78DBB200E02123222B03D8002803D1013004E0012002E0002000E0012010BDF8B50700012803D93D493E48FFF7F4FDB0235B055B78002B04D0B0235B055B783F
:401C4000DBB200E021239DB2B0235B059B899BB2002B04D0B0235B059E89B6B201E0802676000020FFF79AFB002814D180235B009E4212D1222D12D82B4B1B685C682B4820
:401C800021582B4B19403B068022520413400B432350002404E0274C02E0264C00E0254C80235B009E4201D1222D03D880235B009E4232D01C4B1A683123D35C002B04D149
:401CC000C421FF311C48FFF7A7FD174B1B681D6A80235B009E4203D1002F05D0174A06E0002F03D0164A02E0164A00E0164A01212800FFF74FF800280FD10B4B1A68B42346
:401D0000D3585B191B68002BF7DBEB681B0E1B06A0221206934200D100242000F8BDC0464C0A0000002300101008000818F00000FFFFFFFE040042007420001001010030A0
:401D40000300000C010000300100000CF8B50500012804D9822109012948FFF75DFDFFF733FF002849D0FFF718FE0700002D11D10021244B244AD150E823DB00B022520537
:401D8000D65CF6B20120FFF74BFF041E19D1FFF70BFE16E0B02252051C4BD0581A4B194958501B49565CF6B21A481A581F218A4314390A431A500320FFF722FDFFF7C2FE2F
:401DC0000024002C15D11049124A8B581F20834306401E438E50002D02D1FFF779FE08E00720FFF70DFDFFF72BFE0020FFF718FF04003800FFF7D5FD00E0074C2000F8BDB7
:401E000000230010307F00000000264010180000410700001CFF000003004200042805D10B4A116804230B4313600FE0094B1A681168A023D358CB180006C02292041040F5
:401E40001860034A136804218B4313607047C04610E000E0100800080749C02252008B589B009B088020C00503438B508B588020000603438B50704700002640014B186059
:401E80007047C04610080008002243088B4274D303098B425FD3030A8B4244D3030B8B4228D3030C8B420DD3FF22090212BA030C8B4202D31212090265D0030B8B4219D362
:401EC00000E0090AC30B8B4201D3CB03C01A5241830B8B4201D38B03C01A5241430B8B4201D34B03C01A5241030B8B4201D30B03C01A5241C30A8B4201D3CB02C01A52419F
:401F0000830A8B4201D38B02C01A5241430A8B4201D34B02C01A5241030A8B4201D30B02C01A5241CDD2C3098B4201D3CB01C01A524183098B4201D38B01C01A52414309F2
:401F40008B4201D34B01C01A524103098B4201D30B01C01A5241C3088B4201D3CB00C01A524183088B4201D38B00C01A524143088B4201D34B00C01A5241411A00D2014601
:401F8000524110467047FFE701B5002000F006F802BDC0460029F7D076E770477047C04603008218934202D019700133FAE77047030030B5002A0DD00C7801335D1E013A5B
:401FC0002C700131002CF5D19A189A4202D01C700133FAE730BD0000F8B5C046F8BC08BC9E467047F8B5C046F8BC08BC9E46704703000000010000000100000000000000A2
:4020000005036000040000000100000000000000010000000604600008000000C8070008B101001073797374656D5F70736F63365F636D30706C75732E630000F40100008F
:40204000140004010A0009050800000063010000000000000000000000000000000000BA0000000000000000000000000000000000001D1D47656E6572617465645F536F1F
:40208000757263655C50536F43365C70646C5C647269766572732F7065726970686572616C2F6970632F63795F6970635F6472762E68000047656E6572617465645F536F36
:4020C000757263655C50536F43365C70646C5C647269766572735C7065726970686572616C5C6770696F5C63795F6770696F2E630000000047656E6572617465645F536F39
:40210000757263655C50536F43365C70646C5C647269766572735C7065726970686572616C5C6770696F5C63795F6770696F2E680000000047656E6572617465645F536FF3
:40214000757263655C50536F43365C70646C5C647269766572735C7065726970686572616C5C6970635C63795F6970635F6472762E68000047656E6572617465645F536FEE
:40218000757263655C50536F43365C70646C5C647269766572735C7065726970686572616C5C6970635C63795F6970635F6472762E63000047656E6572617465645F536FB3
:4021C000757263655C50536F43365C70646C5C647269766572735C7065726970686572616C5C6970635C63795F6970635F706970652E630047656E6572617465645F536F11
:40220000757263655C50536F43365C70646C5C647269766572735C7065726970686572616C5C70726F745C63795F70726F742E630000000047656E6572617465645F536FCB
:40224000757263655C50536F43365C70646C5C647269766572735C7065726970686572616C5C737973636C6B5C63795F737973636C6B2E630000000047656E657261746568
:40228000645F536F757263655C50536F43365C70646C5C647269766572735C7065726970686572616C5C737973636C6B5C63795F737973636C6B2E680000000047656E654A
:4022C00072617465645F536F757263655C50536F43365C70646C5C647269766572735C7065726970686572616C5C737973696E745C63795F737973696E742E6300000000C0
:4023000047656E6572617465645F536F757263655C50536F43365C70646C5C647269766572735C7065726970686572616C5C737973706D5C63795F737973706D2E630000DC
:402340000000204000002440000000400000000000002340000030400000314000009F40000022400000104002020202020202020210101D800017007500FF0306020636E3
:4023800004102000000000007FC0000000040000000000000019324B647D00804000080B100000000000FF012002001F00800004FF081018001000140018001C4044484CE8
:4023C00050000000081000000800000004000000041000000012000004210000002100000016000040114002C41300138013A013200000001C000000000021400000254022
:40240000000001400000344000002440000031400000324000001F410000234000001140010101010101010101101010800019005500F0000501053B04101C0101000000FD
:402440000FC000000004000001010101011D3A57789600082000101208000000001F00000010000F002000023F06080E00080009000A000B24282C303400000010000000A9
:402480009000000088000000080000008000000004F0000000F00000400200002005A000D00100018001A0012000000010000000000000000000001000000008C000000095
:4024C000D4240010C0000008400500003C060008D80100000048E80100127A0000093D0000093D0000093D0004000000A00F00000000D007E9000010C100001000000000C1
:4025000010B50004400B27D0144B1A68146AB023D15ACA00531AE3181B68002BF4DA3E220F4B1A600F4A104B1A60104B0621A322D20099500E4A98509B58084B1A68106A9F
:40254000B023D15ACA00531AC31800225A60084B064AD358002BFADA10BDC04610080008040126401E1F000008012640000026401C05000010B54378FF2B20D100F02AFA62
:4025800004000F4B1A683123D35C042B04D8C421FF310C4800F00EFA094B1A68116AB023D35A9B00CB18DB685A68116801230B4313601368DB07FCD4200000F01BFA10BDFB
:4025C0001008000874200010F0B585B001900291544B1A683123D35C002B04D1C421FF31514800F0E7F94F4B1B681E6AB4229A58971950229B5C002B77D000F0E3F905002E
:4026000003283CD1474B1A683123D35C062B04D8C421FF31444800F0CDF9424B1968B023CB5A5A00D21853000A6A94466344B4228A58D3181B68002B23DB002000F0AAF9D3
:402640003A4B98421FD03A4B1A6900230021012000F0C8F9002803D0364C17E0013400E00024002000F096F9304B984202D0324B9C42F3D9304B9C4207D92E4C06E0002497
:4026800004E02C4C02E02B4C00E00024002C46D100F0A0F90390294B294AD358002B13DA234A0121300000F0ADF900280ED10298FFF726FF019B002B0AD03B68002BFCDB81
:4026C00000F070F9040004E01A4C02E0194C00E01C4C032D05D10121002000F053F90028F9D1039800F086F919E000F073F905000F4A0121300000F085F9002809D1019B13
:40270000002B08D03B68002BFCDB00F04BF9040002E0084C00E00B4C280000F06BF9200005B0F0BD100800087420001001018800E807000805005200EF4902001C05000057
:402740000000264001005000F0B54F464646C0B4824B1A685468B0235B055B78002B04D0B0235B055B78DBB200E02123212B67D1B023D15ACB005B1A116A8C46634419686A
:402780000029F5DADD6802212943D960B023D15ACB005B1A116A8C466344D968C9073ED5D9680904090C8C4684271168D559A84641440968090A0904FF26360431400D0056
:4027C00088261168894691598846C14449460968090A0906294365462943D9601168D359C9180A685E4B98461A4090252D012A430A605A4B99461A6813689C4692596244C1
:402800001368414619400B002B4313604B461A681568D15969180B689359EB181B684F4B1A68B021555AEB005B1B156AAC46634400255D60156A515ACA00531AEB185B6813
:40284000484A116904230B431361012801D030BF00E020BF414B1A68B023D15ACB005B1A116A8C46634419680029F3DAB02149054978002904D0B02149054978C9B200E0EC
:402880002121212932D1D968C90722D510688421525880180468324A1440DB681B0C1B02FF2109020B40234303602C4B19688823C8580B689C46604403681A400D6AB02355
:4028C000CC5AE1000B1BEB18DB681B0E1B021A430260224B1A68106AB023D15ACA00531AC318DA6802218A43DA6028E086235B00E358002B23D11C4807681C4BA321C9004E
:402900005E581B4A904615681A4A0260062058503E21424611600631174A9950164B134AD358002BFADA154A86235B00E2500E4B1F60A323DB000D4AD6500D4B1D60074B22
:402940001A68106AB023D15ACA00531AC31800225A600CBC90469946F0BDC04610080008FF00FFFF00ED00E00801264000002640040126401E1F00001C050000AAAAAAAA0F
:402980000000000001B40248844601BC604700BF210F001001B40248844601BC604700BFAD0F001001B40248844601BC604700BF9508001001B40248844601BC604700BFAE
:4029C0001918001001B40248844601BC604700BF3504001001B40248844601BC604700BF9B19001001B40248844601BC604700BF9111001001B40248844601BC604700BF27
:402A0000A319001001B40248844601BC604700BF950D001000000000000000000000000000000000000000000000000000000000000000000000000000000000000000002C
:402A40000000000000000000000000000000000000000000000000000000000000000000000000000000000000000000000000000000000000000000000000000000000056
:402A80000000000000000000000000000000000000000000000000000000000000000000000000000000000000000000000000000000000000000000000000000000000016
:402AC00000000000000000000000000000000000000000000000000000000000000000000000000000000000000000000000000000000000000000000000000000000000D6
:402B00000000000000000000000000000000000000000000000000000000000000000000000000000000000000000000000000000000000000000000000000000000000095
:402B40000000000000000000000000000000000000000000000000000000000000000000000000000000000000000000000000000000000000000000000000000000000055
:402B80000000000000000000000000000000000000000000000000000000000000000000000000000000000000000000000000000000000000000000000000000000000015
:402BC00000000000000000000000000000000000000000000000000000000000000000000000000000000000000000000000000000000000000000000000000000000000D5
:020000041008E2
:4000000000780408EB0208100D00000051030810510308105103081051030810000000000000000000000000000000004D0308104D030810000000004D0308104D030810DA
:400040004D0308104D0308104D0308104D0308104D0308104D0308104D0308104D0308104D0308104D0308104D0308104D0308104D0308104D0308104D0308104D03081000
:400080004D0308104D0308104D0308104D0308104D0308104D0308104D0308104D0308104D0308104D0308104D0308104D0308104D0308104D0308104D0308104D030810C0
:4000C0004D0308104D0308104D0308104D0308104D0308104D0308104D0308104D0308104D0308104D0308104D0308104D0308104D0308104D0308104D0308104D03081080
:400100004D0308104D0308104D0308104D0308104D0308104D0308104D0308104D0308104D0308104D0308104D0308104D0308104D0308104D0308104D0308104D0308103F
:400140004D0308104D0308104D0308104D0308104D0308104D0308104D0308104D0308104D0308104D0308104D0308104D0308104D0308104D0308104D0308104D030810FF
:400180004D0308104D0308104D0308104D0308104D0308104D0308104D0308104D0308104D0308104D0308104D0308104D0308104D0308104D0308104D0308104D030810BF
:4001C0004D0308104D0308104D0308104D0308104D0308104D0308104D0308104D0308104D0308104D0308104D0308104D0308104D0308104D0308104D0308104D0308107F
:400200004D0308104D0308104D0308104D0308104D0308104D0308104D0308104D0308104D0308104D0308104D0308104D0308104D0308104D0308104D0308104D0308103E
:400240004D0308104D0308104D0308104D0308104D0308104D0308104D0308104D0308104D0308104D0308104D0308104D0308104D0308104D0308104D0308104D030810FE
:400280004D0308104D0308104D03081010B5054C237833B9044B13B10448AFF300800123237010BD1476020800000000945A0810084B10B51BB108490848AFF300800848D3
:4002C000036803B910BD074B002BFBD0BDE81040184700BF0000000018760208945A0810D0460208000000007047FFF7FDFF72B6104C114DAC4209DA21686268A368043BF8
:40030000A2BFC858D050FAE70C34F3E70B490C4A00209142BCBF41F8040BFAE709480A490860BFF34F8F00F075F900F04FF900F059F8FEE788810A10A0810A101476020896
:40034000608702080040020808ED00E0FEE7FEE700B504207146084202D0EFF3098001E0EFF30880043001F0DBF8FEE708B544F2080398420DD003D8B0F5805F09D008BDB2
:4003800045F2010398420CD045F20E0398420CD008BD0021084602F027F90022064B1A6008BD0122044B1A6008BD0B89122B02D1C8680CF0B3FE08BD3076020808B527F0DB
:4003C0006BFA08BD38B5064C4025A5604FF4FA7001F06AF865604FF4FA7001F065F838BD8004324008B562B60B4800F027F901E027F052FA094B1B78022BF9D1084801F0E4
:40040000F5FD084B1B68012B02D1FFF7DBFFF8E74022054B5A60F4E76D0308103C870208BD030810307602088004324008B5012000F086FE08BD00BF704700BF5C4AD2F870
:40044000803303F00F0303F1D00152F8212002F00702032A04D0042A05D092B9554914E0554A116811E003F1C002514951F8222002F01F02112A06D0132A04D04FF4FA4101
:4004800003E04E4901E04FF400418BBB484BD3F8902502F00100D3F88825C2F30172D3F8883513F0405F07D0414BD3F88835C3F30173012B02D102E0012300E0002303B176
:4004C00008B9032A46D13A48D0F88025C2F31103D0F88425C2F30C02D0F88005C0F300600130B1FBF2F202FB03F2B2FBF0F131E0012B2FD12E4BD3F8402602F00100D3F8C5
:400500000026C2F30172D3F8003613F0405F07D0274BD3F80036C3F30173012B02D102E0012300E0002303B108B9032A12D12048D0F8002602F07F02D0F80036C3F3042325
:40054000D0F80006C0F3044002FB01F2B2FBF3F2B2FBF0F1164BD3F88033C3F3011321FA03F215494A601648D0F89030C3F3072301330069000E0130B2FBF0F08860B2FB21
:40058000F3F3CB600B6103F5742202F23F220D48A0FB0202C2F387420A7503F2E7330A4AA2FB03239B098B61DB03CB61704700BF0000264000127A008C42020800366E0145
:4005C0000000214083DE1B43D34D621008B50D4801F0DAFBFFF730FFFFF730FF00221146042000F031FB084800F008FC074B1B6893F8513013B1064800F070FC00F004F9EE
:4006000008BD00BF004808103C760208348702083042081008B500F0E0FF074AD2F8883043F47003C2F88830BFF34F8FBFF36F8F00F0D7FF08BD00BF00ED00E008B518B173
:40064000094AD062002000E0084858B9084B1B782BB9054801F006FC0122054B1A7008B901F02AFC08BD00BFAC42020801001600BC770208C0F30800B0FA80F04009704710
:400680001F4B98422DD00CD840282ED003D8E8B1102828D02FE0802829D0B0F5807F28D029E0184B984228D006D8B0F1204F0DD0154B984212D01EE0144B98420AD0013355
:4006C000984209D0023B984215D101E0002070470F4870470F4870470F4870474FF4A0007047074870470D4870470D4870470D487047034870470C4870474FF4A4007047F9
:4007000006005200010000F0090000A0040000F0010052000200520003005200010050000200500005005200FF00520038B5124B1B6893F83130012B04D840F2C3110F486E
:4007400000F0D6FE0C4B1D682A6AB5F8B03013442C46D5F8B420D358002B0BDB084B1868FFF78EFF6B6801229A6063689B68002BFBD138BD034838BD348702087C44081035
:40078000E4770208020050001A4B186128B102230370FF23437000234380174B1B6893F850202AB300B583B0B3F93830ADF80030002301931149684600F03CFEBDF900301B
:4007C000002B08DB590903F01F03012202FA03F30B4A42F82130084B1B6893F8513023B102220849012000F025FC03B05DF804FB704700BFE47702083487020841470208E9
:4008000000E100E0F947020808B50248FFF7BCFF08BD00BFF877020838B505460C46FFF729FF002833D0002C33D0FFF707FE1A4B1A4A1A6000225A609D60DC60184B1B68BD
:4008400093F85220EAB11968D3F88430CA58CB58C3F30721120E531C01FB0333114901FB03F3114A12681149A1FB02218909B3FBF1F101F5195108314FF4807003F0D0FC15
:4008800038BD00214FF4807003F0CAFC38BD084838BD074838BD00BFE47702080001000534870208C0EA210190420208D34D62100600520008B5FFF739FF08BD10B5044678
:4008C000FFF7D8FE00283AD0FFF7B8FD4FF0E0521C4B1A601C4B1B7813F0FF0F04D0194A136843F480731360164B5C6000229A60DA60164B1B6893F85420DAB11968D3F876
:400900008430CA58CB58C3F30721120E531C01FB03330F4901FB03F30E4A12680E49A1FB02218909B3FBF1F101F69801002003F077FC10BD0021084603F072FC10BD0748FC
:4009400010BD00BFE47702080B0000163487020860F5900090420208D34D62100600520038B505460C46FFF785FE00283DD0002C3DD0FFF763FD4FF0C0621E4B1A601E4B81
:400980001B7813F0FF0F04D01A4A136843F480731360184B4FF480725A609D60DC60174B1B6893F85320DAB11968D3F88430CA58CB58C3F30721120E531C01FB033310490D
:4009C00001FB03F30F4A12680F49A1FB02218909B3FBF1F101F56171002003F021FC38BD0021084603F01CFC38BD084838BD074838BD00BFE47702080B000016348702080A
:400A0000808D5B0090420208D34D621006005200002861D0F8B5054600295FD00C460B6833F0FF0303D099212D4800F061FD236933F0FF0303D09A21294800F059FDA368A4
:400A40005B0D5B051BB19B21254800F051FD636823F4FF7323F001031BB19C21204800F047FDE36913F0604F03D09D211C4800F03FFD236A13F0604F03D09E21184800F0AB
:400A800037FD184A11688B69EB1ADB0949691B01C81826682E60166896F87D60E768AF51166896F87E602769AF51166896F87F606769AF51166896F87C60A768AF5166684E
:400AC000AE61126892F88020A669AE50E269CA50236A43600020F8BD034870470248F8BDBC4408103487020801005A0038B50B4B1B68D3F8B4301B58002B0DDA0D460446FC
:400B00000B0C1B0423B140F2D521054800F0F0FCA9B26160002038BD024838BD348702083C45081001008A0038B50368002B01DA002300E0094B73B90D460446C2600B0C4A
:400B40001B0423B140F2BB21054800F0D1FCA9B2A160002038BD014838BD00BF01008A003C45081038B504460D4619B99921084800F0BEFC074B1B68D3F8B4301B59002BA5
:400B800003DAE3682B60002038BD034838BD00BF7C4508103487020801008A00254B1B6893F8313083423AD900293AD00B6813F01F0F38D170B50D4604461E4B1B6893F875
:400BC0003130984204D340F2C3111B4800F090FC184B1B68186AB3F8B03004FB0304174E34602A68D2080021686803F0F1FA00212046FFF77BFF346825B940F293310E4814
:400C000000F076FC2A4600212046FFF78DFF60B900210A4B1868FFF769FF40B970BD084870470748704706487047064870BD054870BD00BF348702083C450810FC770208A5
:400C400003018A0001018A0010B504461346B2B9A9B9124B1B6893F83130984204D340F2C3110F4800F044FC0C4B1B681A6AB3F8B03004FB03240B4B1C60002010BD43B159
:400C800049B1084A51609360111D2046FFF786FF10BD054810BD044810BD00BF348702083C450810FC77020803018A002DE9F0411B4B1B68DC68236883422CD90D464609A2
:400CC000A0EB4610012303FA00F819B900F085FC074600E00027124B18680368002B01DA002300E00F4B83B9626852F8263018EA030F05D148EA030342F82630002400E05C
:400D0000094C0021FFF7F2FE00E0084C25B9384600F067FC00E0064C2046BDE8F08100BFFC77020801008A00020188000301880004018A002DE9F0411B4B1B68DC6823685A
:400D400083422CD90D464609A0EB4610012303FA00F819B900F041FC074600E00027124B18680368002B01DA002300E00F4B83B9626852F8263018EA030F05D023EA080368
:400D800042F82630002400E0094C0021FFF7AEFE00E0084C25B9384600F023FC00E0064C2046BDE8F08100BFFC77020801008A00020188000301880004018A000B4B1B68F4
:400DC000DB681A6882420CD94109A0EB4110012202FA00F05B6853F82130184203D004487047044870470448704700BFFC7702080101880004018A0000018800024B1B680D
:400E00000BB9014B18607047087802082DE9F8430446884691461D46089F2C4B1B681BB9B5212B4800F064FB284B1B682C2000FB04F01C18EEB21E50C5F3072363602D0CE8
:400E4000A560244B1B6893F831309E4204D340F2C311214800F04CFB1E4B1B68196AB3F8B02006FB02162661666893F832309E4204D340F2DF11184800F03AFB154B1B68AC
:400E80001D6A803605EB46156561A668330C1B0423B14FF4FF71104800F02AFB330C1B0423B140F2FF110C4800F022FBB3B243EA0646AE60C4F81C90C4F820800023A361D8
:400EC00017B1B7F90030A381BDE8F88308780208BC450810348702083C450810F0B58FB0044618B95221274800F002FBA369072B03D95621234800F0FBFAE36A1BB95821BC
:400F0000204800F0F5FA236B1BB959211D4800F0EFFA07AD04F114060FCE0FC537682F6002AD26460FCE0FC533682B60164B1B68B3F93620079B1344ADF83030089B0D9395
:400F4000A26AE16A0CAD00953B460A98FFF75EFF00210091069B0A460598FFF757FF216B284600F067FABDF93030002B08DB590903F01F03012202FA03F3044A42F82130F6
:400F80000FB0F0BDBC4508103487020800E100E0F8B506460F461D4614461AB9FD211F4800F0A6FA1E4B1B681BB9FE211B4800F09FFA1B4B1B682C2101FB063001FB0731CC
:400FC0004B68012202FA03F31B04466802FA06F60269EAB18F69EFB91268002A01DA002200E0104AC2B92288134323600369DC6001238B614D620469330C1B0423B140F2AD
:40100000BB21094800F074FAB2B2A2600020F8BD0648F8BD0648F8BD0548F8BDBC4508100878020801008A003C45081004028A0007028A00F8B505460F4616460E4B1B6873
:4010400023B94FF4AF710D4800F052FA0A4B1B682C2404FB0534236A23B94FF4B171074800F046FAE369B34204D9236A43F826700020F8BD0248F8BD08780208BC45081000
:401080000A028A0070B582B000230193044620B940F2D111284800F02BFA236923B94FF4E971254800F024FA636923B940F2D311214800F01DFA236A23B94FF4EA711E48B5
:4010C00000F016FA6369DD682A0C20D012041A601B682069194B1B68D3F8B430C358002B15DA01A9FFF73EFD60B9019803681E0CDBB2E269934206D2226A52F8233013B1BE
:40110000984700E0002631462069FFF7EFFCADB275B16369ADB21D601B68636A1BB198470023636202E0A36A03B198470023A36163691B6802B070BDBC4508103487020824
:4011400010B50446074B1B6823B940F2B111064800F0CEF9034B1B682C2000FB0430FFF791FF10BD08780208BC45081010B50446094B1B689B6CC34013F0010F03D1BE21BE
:40118000064800F0B5F9044B1B681B691034A402185900F00F0010BD34870208FC45081010B504460D4B1B6893F83C30834204D84FF4A1710A4800F09BF904F1D003094AE0
:4011C00052F8230000F00700042806D1C03452F8240000F01F0040F4807010BD348702083C46081000002640B0F5C26F80F09B80B2F5C26F80F09980B1F1807F80F0978077
:40120000F0B401244C4B1C70FF2805D800F00F000F26374607231DE0B0F5A06F05D200F00F030F260027384614E0C0F30325B0F5C06F07D20001C4B245EA0403FF2600270A
:40124000384607E0030203F470632B4340F60F7600273846FF2A09D81201D2B2104343F4E02347F0F00746F4702620E0B2F5A06F06D2120402F47022134346F4702616E0F8
:40128000140A240404F470241C43B2F5C06F06D2130503F47003234346F47F0607E0120602F07063234346F0706646F47026234A1268156AB2F8B020C2EBC202AA58002A25
:4012C000F5DA1D4A527822B11D4AD2F81C25002A1DDA41F61F741B4A146043F63D54043A1460A2F58272D2F8184524EA07073843C2F81805D2F8140520EA06063343C2F820
:4013000014350D4B5960C2F81C15002000E00E480A4B1A68116AB2F8B030C3EBC3030B4400225A6005E0084870470748704706487047F0BC704700BF0C780208348702082B
:40134000000026400801264001004A0070B505460022214B1A70214B1B681A6AB3F8B030C3EBC303D418D358002BF4DA1C4B1A6841F61F739A4207D11A4B1A6843F63D532D
:401380009A4203D0002602E0002600E00126164BD3F8202522F07F4000226260D6B1D0B165B90D4B5E684408002502460023E1FB06452046294602F065FD70BD064B5A6873
:4013C000540800250023E1FB00452046294602F059FD70BD002070BD0C7802083487020808012640040126400000264038B50D4B9A680D4B9A420FD10D46044621B940F2FA
:4014000037110A4800F074F804F11003064A52F8230042F8235038BD1030054B53F8200038BD00BF00ED00E000400208C44608100000081048B338B504460D464368072BED
:4014400003D93221134800F053F8B4F900306268002B08DB5201D2B203F1604303F5614383F8002305E003F00F035201D2B20A49CA540A4B9A680A4B9A4208D12946B4F99B
:401480000000FFF7B3FF002038BD06487047002038BD00BFC446081014ED00E000ED00E0004002080100560010B5044605E0084B186800F089F8A4F50044B4F5004FF6D84A
:4014C000044B186800FB04F000F07EF810BD00BFA8420208A442020808B5034B1B7800FB03F000F071F808BDA042020801BEFEE738B50D46044C18220146204602F070FE47
:40150000A5610020FFF7F2FF704C0208024B1B685B6801229A60704734870208FEE700BF08B50268254BDA6142681A6282685A62C2689A620269DA6242691A6382695A63CD
:40154000C2699A631E4A916AD963D16A1964516A5964516B9964926BDA64F1EE103A13F0900F27D0026A154B1A65426A5A65826A9A65C26ADA65026B1A66426B5A66826B6B
:401580009A66C26BDA66026C1A67426C5A67826C9A67C26CDA67026DC3F88020426DC3F88420826DC3F88820C26DC3F88C20026EC3F89020FFF7B2FF08BD00BF704C020876
:4015C00000ED00E0000000000230800803D001300238FCD100BF00BF7047EFF3108072B6704780F3108870474FF0B0539B899BB223B14FF0B0539B899BB201E04FF48073C0
:40160000B3F5807F15D1174A13681868D3F89810435823F00F0343F00203435013681968D3F89C208B5823F00F0343F002038B50704710B40B490B681C68D3F898000A4BA7
:401640001B6823F440732258134343F4407323500B681A68D3F89C3004490968D1505DF8044B70473487020848180016441800164FF0B0539B899BB223B14FF0B0539B8990
:401680009BB201E04FF48073B3F5807F15D1164A13681868D3F89810435823F00F0343F00303435013681968D3F89C208B5823F00F0343F003038B50704730B40A480368E8
:4016C0001D68D3F8984009490B6823F440732A59134343F440732B5103681A68D3F89C300968D15030BC704734870208201800164FF0B0539B899BB223B14FF0B0539B893B
:401700009BB201E04FF48073B3F5807F0BD10D4B1B681968D3F898208B5823F4E04343F4C0438B507047074B1B681868D3F89810054B1B6823F440734258134343F44073BB
:401740004350704734870208181800164FF0B0539B899BB223B14FF0B0539B899BB201E04FF48073B3F5807F0BD1114B1B681968D3F898208B5823F4E04343F480438B506B
:40178000704730B40A4803681D68D3F8984009490B6823F440732A59134343F440732B5103681A68D3F89C300968D15030BC7047348702084C18001608B54FF0B0539B89C0
:4017C0009BB223B14FF0B0539B899BB201E04FF48073B3F5807F17D10E20FFF7C7FC4FF0B0535B7813F0FF0F04D04FF0B0535B78DBB200E02123222B02D818B9012008BDEA
:40180000012008BD002008BD012008BD10B50446012804D940F262710F48FFF769FE1CB90E4B5869C00F00E000200D4B1B6893F844307BB1012C0DD1084B9B6913F0804F31
:4018400005D1064B9B69002B03DA012010BD012010BD002010BD00BF08470810000026403487020838B5154B1B6893F8443023B30D460446072804D940F2CC711048FFF710
:4018800037FE0E4B1B6893F8443023B10D4B9B6903F0070300E00023DBB29C420DD00948826922F0070104F007020A43826125B19C4202D9C820FFF70FFE38BD34870208E9
:4018C000084708100000264010B30246C3680BB303680BB330B40579114B03EB85035C682346002103E0934205D019465B69002BF9D1012000E0002080B124B9084B03EB67
:4019000085056A6000E04A6111610023536105E000207047002070470020704730BC70471878020850B310B402460479164B03EB840359680B4602E0934204D05B69002BEA
:40194000FAD1002000E00120D0B18A420ED14B6933B10D4A02EB8404636000221A610FE0094B03EB84040023636009E01A69596951615A6922B11B69136101E000207047C6
:401980005DF8044B704700BF1878020830B583B004460D46022808D9042806D0032804D040F6B2112848FFF7A3FD6B1EDBB2012B08D9042D06D0082D04D040F6B31122481C
:4019C000FFF796FD214800EB84004468042D12D0012D1AD111E0A3681D420AD1E3681A6800925B6801932368294668469847174B9C61646902E0002000E0002014B3144BE7
:401A00009842E8D1012DE6D11CE0022D01D104E01C466369002BFBD103E00C4B9C6904B1246900200CE0A3681D4208D1E3681A6800925B680193236829466846984724698E
:401A4000002CF0D103B030BD0847081018780208FF00420070B50546012804D94FF4E0711D48FFF745FD1D4B5B682BB101210020FFF78CFF044600E000242CBBFFF7ADFD51
:401A80000646164B5B681BB104210020FFF77EFF134A136923F004031361012D01D030BF07E020BF0D4B1B7803B120BF01220B4B1A703046FFF795FD084B5B684BB108215D
:401AC0000020FFF763FF04E002210020FFF75EFF044C204670BD00BF084708101878020800ED00E0FF00420008B5FFF776FD074B5A6807490A4042F468525A605A681140B2
:401B000059605B68FFF76DFD08BD00BF00002640FF00FC0FF8B50546012804D940F64C213948FFF7E5FC4FF0B0535B7813F0FF0F04D04FF0B0535B78DBB200E021239CB2CE
:401B40004FF0B0539B899BB223B14FF0B0539F89BFB201E04FF480770E20FFF707FB98B9B7F5807F12D1222C12D8284B1B6858684FF21801435823F080722B0603F08073E4
:401B800013434350002604E0214E02E0204E00E01F4EB7F5807F01D1222C02D8B7F5807F2FD01A4B1B6893F83130012B04D840F2C3111848FFF79CFC144B1B681C6AB3F8F4
:401BC000B0301C44B7F5807F02D125B1124A05E01DB1124A02E0124A00E0124A01212046FEF7A2FF68B9094B1B68D3F8B4301B59002BF8DBE36803F07F43B3F1204F00D151
:401C000000263046F8BD00BF0847081034870208040042007C440810010100300300000C010000300100000C70B50446022806D0052804D040F202711E48FFF759FCFFF70F
:401C4000BBFDA0B3FFF7C9FC0646022C07D10120FFF760FF054678B9FFF7C6FC0CE0164A536923F0070343F0030353613420FFF733FCFFF76BFD0025ADB90F494B6923F00F
:401C8000070204F0070313434B61022C02D1FFF72FFD08E09120FFF71FFCFFF7E9FC0020FFF738FF05463046FFF79BFC00E0034D284670BD084708100000264003004200FB
:401CC000F8B50446012804D94FF402612A48FFF70FFCFFF771FD00284AD0FFF77EFC07468CB9002147F63073244AD1504FF0B05393F84067F6B20120FFF70CFF0546D8B97C
:401D0000FFF772FC18E01E4B19681C4A47F63073D1504FF0B05393F84167F6B24FF61C71535823F01F0343F00B0353500320FFF7D3FBFFF70BFD0025B5B910494FF61C729F
:401D40008B5823F01F0306F01F061E438E5014B9FFF7CEFC08E00720FFF7BEFBFFF788FC0020FFF7D7FE05463846FFF73AFC00E0044D2846F8BD00BF08470810000026406C
:401D80001018001603004200014B1860704700BF3487020838B5012902D0082942D047E0284B1B78012B45D00320FFF707F8264B984241D001F05AFC01283FD0022003F0FF
:401DC000E9FF0546FFF709FC204B186025F066FD0446062815D0022D09D1022012F010F9032C01D0052C0ED178B1194C12E0012012F006F9022C0AD058B9FFF72BFE144C7D
:401E000008E0002406E0124C04E0002402E0104C00E00F4C0E4B9C4211D10C4B1868FFF7E0FB0CE0094B1868FFF7DBFB002406E0074C04E0064C02E0054C00E0044C204628
:401E400038BD00BF3C8702080101880054780208FF00420008B50248FFF764FD08BD00BFFC430208B0B110B50B4A5060C36A03B193600024094B1C70094B1C70094B1C6062
:401E8000094B1C7000F0A8FB084B1C70084B1C70204610BD07487047547802084C8702085087020854870208518702083B870208408702080100160070B59AB03F4D15ACED
:401EC00028686968AA68EB680FC4286920604C22002102A802F07CF9394B029315AB049342F61013ADF8143005238DF81630354B5B681B69069341F2960307931B23ADF848
:401F00002030ADF8223003238DF8243004238DF8253006238DF8263010238DF827308DF828308DF829307223ADF84C3001238DF850302548FFF7C8FC03F025FF08A803F0CC
:401F40008DFF0346002836D1204B03931D4B5B68996B89B10B460DF12A0220311E685D689C68D868166055609460D060103310328B42F3D11B88138002A803F017FF034601
:401F8000B0B90122124B1A700023124A1370124A13700C4B5B681A6A00929B6ADB88ADF804300823ADF8063068460BF053FF034600210A4A116018461AB070BDB8480810BF
:401FC000A529081054780208FC430208044D02083C870208448702084587020854870208014B9867704700BF00F03D4018B1034AD060002070470248704700BF5478020843
:402000000100160008B518F0F7FF034B1B680BB100B1984708BD00BF6078020848B108B5B1F5FD7F07D20A46044902F0C6F8002008BD03487047024808BD00BF0708001673
:40204000010016002DE9F04FADF5077DB1F1805F03D38D189D4CA54210D9B1F1A05F03D38D189B4CA54209D99A4CA14240F20F818D1804F20124A54200F20E8104931746A6
:402080000E468046944B5B6913F0804F10D0924B5C6904F00704022C24D10520FFF7C4FD00908E4B9842F8D002940123039323E04FF61C73884AD35803F01F034FF0B0528C
:4020C00092F84027D2B2D31A18BF012303937BB90120FFF7F5FD814B9842F9D000900523029309E00294012303930023009303E00523029300230093794B009A9A4204D1A0
:4021000040F2D5117748FFF7F3F906F17046730A01935C0200210320FEF7C8FD0028F9D10546824683E0B44213D3BD4211D218F805200DF1180E0EF8032041B904F1805263
:402140001278D2B218F805E0724500D00121013506E004F1805212780DF1180E0EF803200134013301E000210B46B3F5007FDAD3002959D0009B002B56D1049B002B48D147
:402180004FF0C80B05955D46DDF804B00BF500294FEA49294846FEF791FB8246013D0120FFF79AF90AF4A403B3F5A40F01D1002DECD1059D4C4B9A4505D1FEF77BFB4B4B09
:4021C0009842FAD08246BAF1000F17D14FF0C80B5B46A3461C4606A94846FEF7C1FB8246013C0120FFF778F90AF4A403B3F5A40F03D1002CEFD15C4600E05C463A4B9A4510
:4022000011D1FEF757FB394B9842FAD0824601200AE0019B03F5002006A94002FEF7FCFA8246012000E00120019B01330193009B23B9BAF1000F01D1BD4294D308B1FFF784
:4022400065F900210320FEF775FD0028F9D1009B33BB214B5B6913F0804F09D0029B022B06D10220FFF7E0FC00901C4B9842F8D0194B1B6813F4000F12D1039B83B90020F7
:40228000FFF71EFD0090154B9842F8D008E000230093DFF86CA003E000230093DFF860A0009B63B9124B9A450BD004339A4508D0BAF1000F01D1002004E00E4802E00E48B0
:4022C00000E00E480DF5077DBDE8F08F0000101000800014FF070016000026400400420003004200CC490810010050000200500002005200130016001200160001001600B1
:402300000600520048B108B5B1F5FD7F07D20A4601230449FFF796FE08BD03487047024808BD00BF070800160100160070B5C0B006460C4615464FF480720849684601F0C5
:402340003CFF05E016F8012B6A401DF80250013C002CF7D1284640B070BD00BFCC48081008B50022FFF7E2FF08BD00BF002070470288AE2303FB02F3A3F26F33024AA2FBCC
:402380000323DB080B807047CDCCCCCCB0F9002042F64B0303FB02F3044A82FB0302DB17C3EB2233C3F1BD030B807047AD8BDB680020704708B511F053FC08BD08B5FFF70D
:4023C0008BF808BD084B1B685B6BB3F90030002B08DB590903F01F03012202FA03F3034A42F82130704700BF5878020800E100E00A4B1B685B6BB3F90030002B0DDB5A09AA
:4024000003F01F03012101FA03F32032044941F82230BFF34F8FBFF36F8F70475878020800E100E0024BD3F8000500F00300704700002640024BD3F81C05C00F704700BF0D
:402440000000264008B5FEF781FF08BD70B504460D4616460320FEF7B1FC054B984205D0324629462046FEF7BFFE70BD014870BD0101880003004A00431A002BB8BF5B4208
:4024800093422BD310B4194BD3F83C35C3F30903884207D9411A01EB5201B1FBF2F29A1A0FD50AE0091A01EB5201B1FBF2F21A4440F2FE318A4202D803E0002201E040F25E
:4024C000FF320A4CD4F83C1521F47F7121F00301C2F309000143C4F83C1502E00023D81A7047981A5DF8044B704700BF0000264008B5034B1A684FF40041FFF7BDFF08BDA7
:402500001444020810B500F065FF0220FFF768FD0A4C23680A49586BFEF78CFF23685B6BB3F90030002B08DB590903F01F03012202FA03F3034A42F8213010BD58780208E6
:402540000520081000E100E00420704708B5FFF744F808BD08B5FFF744F808BD08B5FFF779FA08BD08B50021FFF77CF908BD00BF704700BF704700BF0020704700487047A0
:4025800011001600004870471100160000487047110016000048704711001600004870471100160000487047110016000048704711001600004870471100160000487047EB
:4025C0001100160000487047110016000048704711001600704700BF08B5024800F078FD08BD00BFF8430208F8B5022872D8002972D10022134606E03B4CE45C012C01D901
:402600000132D2B20133002BF6D0012A0CD1374B1B681C6801EB8102930023445B681B79023BDBB2012B59D8314B1B78002B57D1304B1970E0B92D4F3C68236801EB81052A
:40264000AA009D186668C1EBC1014B001E44B18829822168114449686468E45A0C8039680C682244526849680B445B8853801EE001281CD11D4F3C68236801EB8105AA0053
:402680009D186668C1EBC1014B001E44B1892982216811444D68616819440989298039680C682244526849680B445B895380124B18700E4B1B6818680E4B1B7803EB830316
:4026C0009A00104407F074F9034650B90121084A117006E0094B04E0084B02E0084B00E0084B1846F8BD00BF4487020858780208458702083A87020851870208010016004D
:4027000002001600FF00160070B439B9144B1B681B689968CE7F00231D460EE0104B1B681B68D968CE7FF6E7CA5C52B10133CC5C1B2C01D0134400E00125B34201D2002D74
:40274000F2D05DB101338279CA54002204E0D4180134855C0D550132052AF8D970BC70475878020870B504460BF08EFB054620BB134B1968086A228902EB82029300143B7A
:4027800003445A6812F0007F17D0E67B1B695A68CB69D21A06EB4606B318A28821680948184401F00AFDE37B074AD35C012B04D1064A137843F002031370284670BD00BFB2
:4027C0005878020848870208408702083B87020830B587B002891A4B1B685B699B889A4229D1044601AB07C883E807000022ADF81020A289ADF8122040228DF81420184694
:40280000FFF7B0FF054680B923681B7803F002039BB22BB10B4B1B6821460B48984704E0084B1B68214609489847094A137803F0FE03137000E00025284607B030BD00BF42
:40284000587802085C78020805000100060001004C8702084288531E9BB2152B1AD84178D1B910B40F4B1868046A02EB82029300143B23445A6812F0007F0FD01B695A688B
:40288000C369D31A01EB41011944074B5B5A1380002004E0012070470120704700205DF8044B7047587802084887020800B583B00023ADF804308389ADF800300389ADF802
:4028C000023012238DF80430084B1B7813F0010F09D129B18DF8051068460AF0FFFB02E0C0680AF01BFC03B05DF804FB4C87020810B4044688B10023194606E0104A52F87D
:402900002320944200D1012101330D4A1279934206D20029F2D0002003E00021094800E0002050B949B9064B1B792BB9044A42F823400133137100E003485DF8044B70476B
:4029400058870208010016000300160070B506460D460020044606E0084B53F824302946304698470134054B1B799C4204D2044B1B7813F0010FEFD170BD00BF588702081D
:402980004C87020883792BB100207047C25C32B9013300E00023052BF8D9002070470120704700BF70B58CB004460D46BF4A137843F00103137044F20803984200F04C82B7
:4029C0003CD842F20403984200F0F08019D841F20203984200F0178108D8B0F5805F79D041F20103984200F00B8157E341F20303984200F0418141F20403984200F04983BA
:402A00004CE343F2190398425BD00AD843F20103984200F0BC8043F21203984200F0B7803CE344F20603984200F01A8200F2CD8144F20403984200F032812FE345F20C038F
:402A4000984200F0DD821BD845F20103984200F046820AD844F20A03984200F0B38144F21003984200F0B18118E345F20203984200F0808245F20303984200F0B7820DE3D2
:402A800045F21003984200F0F6820AD845F20E03984200F0EA8245F20F03984200F0E882FCE245F21703984200F0EB8246F20103984200F0118245F21403984240F0EE82E6
:402AC000DCE2084603F00EFB784A137803F0FE031370E3E2764B1E683046FFF753FF60B1304607F053FF724E00213068FFF70CFE01213068FFF708FE37E06E4B1A68936AF2
:402B00001B791BB34FF0B05191F8043603F03F0391F8050600F03F0043EA801391F8030600F01F0043EA003391F8001601F07F0143EA4143126B13705E4A1168096BC3F36B
:402B4000072048701268126B1B0C9370594E3368186B07F01BFF33680021186BFFF7D4FD33680121186BFFF7CFFD524B1B68986A023008F021FB504A05AB1068516803C3CE
:402B800005A807F027FF02224C4B1A7086E200234A4A13704A4A13704A4A137043F212039C4240F07B82FFF755F977E2464B1B6813F0010F40F072820023ADF814308DF868
:402BC00016303C4E33689B6A93F900308DF8143005A807F019FF33689B6A93F901308DF8143001238DF81530FF238DF8163005A807F00AFF344A136843F0010313604DE2A4
:402C0000FFF7A4FE4AE24978304B1B88ADF81430002319E02E4A32F81320ADF808209DF8092012B92B48825C00E00022012A0AD9274A12F81320914205D1254A32F813302D
:402C4000ADF8143002E00133002BE3D09DF81530FF2B05D104D140F2CA311F48FEF748FCBDF81430ADF82030ADF81C30C3F3072329781A4AD15411E20B78002B40F00E82B1
:402C80000B7A33B9164B0022DA809A80154A1A604B60064A137803F0FE031370FEE149790A4B1B88ADF81430002337E04C8702081844020858780208084A08103C870208C6
:402CC000458702087878020854870208104A08103887020844870208144A0810508702088078020814760208AF4A32F81320ADF80C209DF80D2012B9AC48825C00E000229A
:402D0000012A0AD9A84A12F81320914205D1A64A32F81330ADF8143002E00133002BE3D09DF81530FF2B05D104D140F2CA31A048FEF7DEFBBDF81430ADF82430ADF8143006
:402D4000C3F3072369789B4AD154EB78002B40F0A5816979984B1B88ADF81430002319E0914A32F81320ADF810209DF8112012B98E48825C00E00022012A0AD98A4A12F8F7
:402D80001320914205D1884A32F81330ADF8143002E00133002BE3D09DF81530FF2B05D104D140F2CA318248FEF7A2FBBDF81430ADF82830ADF81430C3F3072301217F4A39
:402DC000D1546BE1FFF7C2FD68E1AB7E002B3FD12B7E012B02D10022794B1A70E97E764B1B88ADF81030002319E06F4A32F81320ADF814209DF8152012B96C48825C00E026
:402E00000022012A0AD9684A12F81320914205D1654A32F81330ADF8103002E00133002BE3D09DF81130FF2B05D104D140F2CA315F48FEF75DFBBDF81030ADF82C30ADF86E
:402E40001030C3F30723FF2B02D0297E5D4AD15402225D4B1A7021E102225B4B1A701DE1FFF774FD594B1B7813F0010F00F01681534B1B78012B03D10222514B1A700DE178
:402E8000032B03D100224E4B1A7007E1022B40F0058100224A4B1A704D4B1B685B684D4A1178C1EBC10203EB42039A79002A00F0F5809B88002B00F0F180474B1B78002B7E
:402EC00040F0EC800120FFF78FFB002840F0E68001223B4B1A70E1E0FFF738FDDEE00B88ADF800309DF801301BB902212F4AD15405E023B940F286312D48FEF7F9FA6A784E
:402F00002988294B23F812106B780021334AD15403EB4302324E91192D4B1B6818692B7803EB430303F584531033034433F8060F9B7890538B70687800EB400002213044AD
:402F4000FFF70EFA6B7803EB430333449B7898420BD0244B1B680021234898476B7803EB4303981900229A53827029462046FFF7EDFC93E00B88ADF804309DF805301BB9A6
:402F800000210A4AD15405E023B940F286310848FEF7AEFA6B780021084AD15429462046FFF7D4FC7AE000BF3887020844870208144A081040870208104A08107878020860
:402FC000458702087C7802083C8702084C870208587802083A8702085187020850870208488702085C780208040001000B88ADF814301723ADF8163005A80AF07BF84DE047
:403000000846FFF7E5FB014620B929462046FFF79DFC01462846FFF749FC294B1B7813F0110F04D0274B1B682946204698472A89234B1B7813F0010F11D0531E9BB2152BAB
:403040000DD912238DF81830ADF81620AB89ADF8143001238DF8193005A80AF03FF8184A137803F0FE03137018E0FFF76FFC15E0FFF76CFC12E0FFF769FC0FE0FFF766FCFC
:403080000CE00846FFF7E6FB29462046FFF75EFC04E00D4A137843F001031370084B1B7813F0110F09D0064A137803F0FE031370044B1B682946204698470CB070BD00BFF8
:4030C0004C8702085C7802083B8702080020704730B108B5034A10600348FFF709FC08BD024870478C780208CD3008100100160038B50D4640F4004000040E4BD8614FF444
:403100007A7403E0013C0120FEF7E6F9094B1B6C13F0010F01D1002CF4D144B1054B1A6C42F001021A64DB6A2B80002038BD024838BD00BF00003C400400160010B50F4BA5
:4031400003EA004001430E4AD1614FF47A7403E0013C0120FEF7C0F9094B1B6C13F0010F01D1002CF4D134B1054A136C43F001031364002010BD034810BD00BF0000FF7FE0
:4031800000003C400400160070B582B005460A244FF4C05141F60260FFF7D0FF034630B90DF1060141F60260FFF7A2FF03460CB1013C00E0714B23B9BDF80620B2F5C05F34
:4031C000E6D13BBB0DF1060141F60360FFF790FF0346F8B9BDF8062002F4806292B2CAB90A244FF4806141F60360FFF7A7FF034630B90DF1060141F60360FFF779FF03467A
:403200000CB1013C00E05D4B23B9BDF80620B2F5806FE6D133B90DF1060141F60960FFF767FF0346002B43D1BDF8063023F03F039BB2AA78012A12D1E978012904D88EB22F
:40324000C6F1020294B201E00024022643F07003ADF806304A4BCB404A4A136012E0E97821B98EB2C6F1010294B201E00024012623F0400343F01003ADF80630424BCB4050
:40328000404A1360BDF80610314389B2ADF8061041F60960FFF752FF0346EA78961B06F00306A20092B23243ADF8062037494A664FF0B052527812F0FF0F04D04FF0B05214
:4032C0005278D2B200E02122212A53D0304A128892B2002A4ED033B90DF1060141F60760FFF706FF034643BBBDF8063023F060039BB2ADF8063026490A88C2F3811243EA7F
:40330000421323F428639AB2ADF806200B889BB2DB0103F4F063134323F4C0539BB2ADF806300988C1F3012143EAC121ADF8061041F60760FFF702FF034633B90DF10601D1
:4033400041F60660FFF7D4FE03469BB9BDF8061021F0C0018BB2ADF806300D4A1188C1F3011143EA8111ADF8061041F60660FFF7E5FE0346184602B070BD00BF0400160091
:403380000048E8018C4202080024F40000F03D401618001638B50D4641F2010141EA400141F60860FFF7CAFE044630B946F6370141F60F60FFF7C2FE04466801FEF78CF8CE
:4033C000204638BD024A136F43F010031367704700F03D4070B59CB0134C13AD26460FCE0FC50FCE0FC533682B600AAD04F124060FCE0FC50FCE0FC533682B6001AD4834B4
:403400000FCC0FC50FCC0FC523682B6013A90748FDF7FEFA0AA90648FDF7FAFA01A90548FDF7F6FA1CB070BD4C4A0810000132408001324000023240F8B5002800F0E780B0
:403440000546774B5B6813F4003F01D0FEF74CFB744C03E0013C0120FEF73EF8724BDB6E0BB1002CF6D1704BD3F8A03013F0010F06D06D4BD3F8B43013F0010F40F0C98016
:40348000694BDB6E002B40F0C680FFF7A3FF674901F5F833664AC3F8A4202A7842F42022C3F8A8204FF00112C3F8AC20D1F8003113F0010F40F0B1805B4B1B6F13F0080FA8
:4034C0000AD15C4B1B685C4A934207D95B4AA2FB03231B0D013B02E0012300E00023534A12681BB1564941EA433300E0554B13434E4A13604A4B5B6913F0804F13D0012163
:403500000320FEF7AFF9464B5B69C3F380734E4A126892F844206AB163B1414A936943F08043936106E0404AD2F8C43043F00303C2F8C4303C4CD4F8A07047F4403343F0D3
:403540003003C4F8A0304020FDF7C6FFD4F8B03013F0010F0BD10123C4F8B0304020FDF7BBFF0323C4F8B0304020FDF7B5FF27F4803727F0100747F4003646F020062A4BFE
:40358000C3F8A0604FF4FA6403E0013C0120FDF7A3FF44F210032D4AD35813F0100F01D1002CF2D10CB1002400E0294C1CBB1E4A936E43F0080393660120FEF727F918B956
:4035C00047F4003646F0280626F4802343F00103154AC2F8A030134E03E0013E0120FDF77BFF114BD3F8B43013F0010F01D1002EF3D106B9164C1CB92846FFF7C5FD0446BF
:4036000064B929786878FFF7C5FE044606E0114C04E0114C02E0104C00E0104C2046F8BD00002640F07E0E0000F03D4000003C40060000019442020800093D0083DE1B4319
:40364000041A0080040A0080348702080000324004001600010016000300160002001600014B1868704700BF8C42020810B5002405E02046FDF794FD032804D00134042C4E
:40368000F7D9002010BD012010BD00BF074BD3F8003503F00303012B03D0032B03D101207047012070470020704700BF0000264081F0004102E000BF83F0004330B54FEA81
:4036C00041044FEA430594EA050F08BF90EA020F1FBF54EA000C55EA020C7FEA645C7FEA655C00F0E2804FEA5454D4EB5555B8BF6D420CDD2C4480EA020281EA030382EAF2
:40370000000083EA010180EA020281EA0303362D88BF30BD11F0004F4FEA01314FF4801C4CEA113102D0404261EB410113F0004F4FEA03334CEA133302D0524263EB430379
:4037400094EA050F00F0A780A4F10104D5F1200E0DDB02FA0EFC22FA05F2801841F1000103FA0EF2801843FA05F359410EE0A5F120050EF1200E012A03FA0EFC28BF4CF0B7
:40378000020C43FA05F3C01851EBE37101F0004507D54FF0000EDCF1000C7EEB00006EEB0101B1F5801F1BD3B1F5001F0CD349085FEA30004FEA3C0C04F101044FEA445277
:4037C00012F5800F80F09A80BCF1004F08BF5FEA500C50F1000041EB045141EA050130BD5FEA4C0C404141EB010111F4801FA4F10104E9D191F0000F04BF01460020B1FAB4
:4038000081F308BF2033A3F10B03B3F120020CDA0C3208DD02F1140CC2F10C0201FA0CF021FA02F10CE002F11402D8BFC2F1200C01FA02F120FA0CFCDCBF41EA0C01904092
:40384000E41AA2BF01EB0451294330BD6FEA04041F3C1CDA0C340EDC04F11404C4F1200220FA04F001FA02F340EA030021FA04F345EA030130BDC4F10C04C4F1200220FA7C
:4038800002F001FA04F340EA0300294630BD21FA04F0294630BD94F0000F83F4801306BF81F480110134013D4EE77FEA645C18BF7FEA655C29D094EA050F08BF90EA020F19
:4038C00005D054EA000C04BF1946104630BD91EA030F1EBF0021002030BD5FEA545C05D14000494128BF41F0004130BD14F580043CBF01F5801130BD01F0004545F0FE4127
:4039000041F470014FF0000030BD7FEA645C1ABF194610467FEA655C1CBF0B46024650EA013406BF52EA033591EA030F41F4002130BD00BF90F0000F04BF0021704730B51A
:403940004FF4806404F132044FF000054FF0000150E700BF90F0000F04BF0021704730B54FF4806404F1320410F0004548BF40424FF000013EE700BF42004FEAE2014FEA91
:4039800031014FEA02701FBF12F07F4393F07F4F81F06051704792F0000F14BF93F07F4F704730B54FF4607401F0004521F0004120E700BF50EA010208BF704730B54FF0C9
:4039C00000050AE050EA010208BF704730B511F0004502D5404261EB41014FF4806404F132045FEA915C3FF4DCAE4FF003025FEADC0C18BF03325FEADC0C18BF033202EB1B
:403A0000DC02C2F1200300FA03FC20FA02F001FA03FE40EA0E0021FA02F11444C1E600BF70B54FF0FF0C4CF4E06C1CEA11541DBF1CEA135594EA0C0F95EA0C0F00F0DEF824
:403A40002C4481EA030621EA4C5123EA4C5350EA013518BF52EA033541F4801143F4801338D0A0FB02CE4FF00005E1FB02E506F00042E0FB03E54FF00006E1FB03569CF048
:403A8000000F18BF4EF0010EA4F1FF04B6F5007F64F5407404D25FEA4E0E6D4146EB060642EAC62141EA55514FEAC52040EA5E504FEACE2EB4F1FD0C88BFBCF5E06F1ED8A4
:403AC000BEF1004F08BF5FEA500E50F1000041EB045170BD06F0004646EA010140EA020081EA0301B4EB5C04C2BFD4EB0C0541EA045170BD41F480114FF0000E013C00F322
:403B0000AB8014F1360FDEBF002001F0004170BDC4F10004203C35DA0C341BDC04F11404C4F1200500FA05F320FA04F001FA05F240EA020001F0004221F0004110EBD370D1
:403B400021FA04F642EB06015EEA430E08BF20EAD37070BDC4F10C04C4F1200500FA04F320FA05F001FA04F240EA020001F0004110EBD37041F100015EEA430E08BF20EA59
:403B8000D37070BDC4F1200500FA05F24EEA020E20FA04F301FA05F243EA020321FA04F001F0004121FA04F220EA020000EBD3705EEA430E08BF20EAD37070BD94F0000F54
:403BC0000FD101F00046400041EB010111F4801F08BF013CF7D041EA060195F0000F18BF704703F00046520043EB030313F4801F08BF013DF7D043EA0603704794EA0C0FC6
:403C00000CEA135518BF95EA0C0F0CD050EA410618BF52EA4306D1D181EA030101F000414FF0000070BD50EA410606BF1046194652EA430619D094EA0C0F02D150EA013607
:403C400013D195EA0C0F05D152EA03361CBF104619460AD181EA030101F0004141F0FE4141F470014FF0000070BD41F0FE4141F4780170BD70B54FF0FF0C4CF4E06C1CEAA1
:403C800011541DBF1CEA135594EA0C0F95EA0C0F00F0A7F8A4EB050481EA030E52EA03354FEA013100F088804FEA03334FF0805545EA131343EA12634FEA022245EA11157C
:403CC00045EA10654FEA00260EF000419D4208BF964244F1FD0404F5407402D25B084FEA3202B61A65EB03055B084FEA32024FF480104FF4002CB6EB020E75EB030E22BF40
:403D0000B61A754640EA0C005B084FEA3202B6EB020E75EB030E22BFB61A754640EA5C005B084FEA3202B6EB020E75EB030E22BFB61A754640EA9C005B084FEA3202B6EB49
:403D4000020E75EB030E22BFB61A754640EADC0055EA060E18D04FEA051545EA16754FEA06164FEAC30343EA52734FEAC2025FEA1C1CC0D111F4801F0BD141EA00014FF0C8
:403D800000004FF0004CB6E711F4801F04BF01430020B4F1FD0C88BFBCF5E06F3FF6AFAEB5EB030C04BFB6EB020C5FEA500C50F1000041EB045170BD0EF0004E4EEA11310E
:403DC00014EB5C04C2BFD4EB0C0541EA045170BD41F480114FF0000E013C90E645EA060E8DE60CEA135594EA0C0F08BF95EA0C0F3FF43BAF94EA0C0F0AD150EA01347FF41F
:403E000034AF95EA0C0F7FF425AF104619462CE795EA0C0F06D152EA03353FF4FDAE1046194622E750EA410618BF52EA43067FF4C5AE50EA41047FF40DAF52EA43057FF40D
:403E4000EBAE12E74A0011D212F5001211D20DD56FF47873B3EB62520ED44FEAC12343F0004343EA505323FA02F070474FF00000704750EA013002D14FF0FF3070474FF062
:403E80000000704753B94AB9002908BF00281CBF4FF0FF314FF0FF3000F07EB9ADF1080C6DE904CE00F006F8DDF804E0DDE9022304B070472DE9F0478C460E460446089D0C
:403EC000002B50D18A4217466CD9B2FA82FEBEF1000F0BD0CEF1200420FA04F401FA0EF644EA060C02FA0EF700FA0EF44FEA1749220CBCFBF9F01FFA87F809FB10C642EA0D
:403F0000064600FB08F3B34209D9F61900F1FF3280F02281B34240F21F8102383E44F61AA2B2B6FBF9F309FB136642EA064403FB08F8A04509D9E41903F1FF3280F00A81CB
:403F4000A04540F20781023B3C44C8EB040443EA00400021002D62D024FA0EF400232C606B60BDE8F0878B4207D9002D55D0002185E841000846BDE8F087B3FA83F1002905
:403F800040F09080B34202D3824200F2F880841A66EB03060120B446002D40D085E81010BDE8F08712B90127B7FBF2F7B7FA87FEBEF1000F35D1F31B4FEA17481FFA87FC06
:403FC0000121B3FBF8F0220C08FB103642EA06460CFB00F3B34207D9F61900F1FF3202D2B34200F2CE801046F61AA2B2B6FBF8F308FB136642EA06440CFB03FCA44507D9FA
:40400000E41903F1FF3202D2A44500F2B5801346CCEB040443EA00409CE729462846BDE8F087CEF1200106FA0EF307FA0EF720FA01F94FEA1748CE4049EA0309B6FBF8FAF6
:404040004FEA194408FB1A661FFA87FC44EA06430AFB0CF29A4200FA0EF40AD9DB190AF1FF3180F087809A4240F28480AAF1020A3B449B1A1FFA89F9B3FBF8F108FB11335A
:4040800049EA034301FB0CF69E4207D9DB1901F1FF326BD29E4269D902393B449B1B41EA0A418EE7C1F1200E22FA0EF48B40234320FA0EF706FA01F44FEA134C26FA0EF6F9
:4040C0003C43B6FBFCF9270C0CFB19661FFA83F847EA064609FB08F7B74202FA01F200FA01FA08D9F61809F1FF3041D2B7423FD9A9F102091E44F61BA0B2B6FBFCF40CFBA3
:40410000146640EA064704FB08F8B84507D9FF1804F1FF3028D2B84526D9023C1F4444EA0940C8EB0707A0FB02894F4544464E4614D329D065B3BAEB040367EB060707FACC
:404140000EFECB40CF404EEA030385E888000021BDE8F0871346F8E61046E0E6B8EB020469EB03060138E5E70446D8E7114695E78146C0E78A467CE7023B3C4448E7084694
:404180000AE702383E442FE7C245E7D33E46D1E72946BDE8F08700BF704700BF10B501390244904207D010F8013B11F8014FA342F7D0181B10BD002010BD10B5431E0A44E7
:4041C000914204D011F8014B03F8014FF8E710BD02440346934202D003F8011BFAE7704710B5034642B111F8014B03F8014B013A002CF7D11A4400E010BD934202D003F86E
:40420000014BFAE710BD0000F8B500BFF8BC08BC9E467047F8B500BFF8BC08BC9E46704701B40248844601BC604700BF5148020803000000010000000100000000000000F2
:40424000050360000400000001000000000000000100000006046000080000009C7702082D0408101800000007000000000000000100160001000028010000000B0000008D
:404280000018000000000000020003280100020003000000002A0000000000000300002A010002010300000007000000F8420208040003280100020005000000012A0000A8
:4042C000000000000500012A01000201050000000200000000430208060003280100020007000000042A0000000000000700042A0100020107000000080000000843020830
:40430000080003280100020009000000A62A0000000000000900A62A010002010900000001000000104302080A000328010002000B000000C92A0000000000000B00C92AF6
:40434000010002010B00000001000000184302080C000028010000000F00000001180000000000000D000328010020000F000000052A0000000000000E00052A0000200176
:404380000F00000004000000204302080F00022901010A030F0000000200000028430208100000280100000816000000100000003043020811000328010008001300000072
:4043C000100000003843020812003C81000108091300000001000000404302081300AB0D0100000913000000010000004843020814000328010002001600000010000000C0
:40440000504302081500FD42010002091600000001000000584302081600AA6F01000009160000000100000060430208FD841CAE604539B49E41EC74A5FF42283075A82926
:404440008D544E8E8D4E781C3C811BD6B8FB277A2EF86D92DC41AAA6FD42C84D010003000500070009000B000C000E000F00000010001200130015001600000047656E65FC
:4044800072617465645F536F757263655C50536F43365C70646C5C647269766572732F7065726970686572616C2F6970632F63795F6970635F6472762E68000047656E6512
:4044C00072617465645F536F757263655C50536F43365C70646C5C647269766572735C7065726970686572616C5C6770696F5C63795F6770696F2E630000000047656E6515
:4045000072617465645F536F757263655C50536F43365C70646C5C647269766572735C7065726970686572616C5C6770696F5C63795F6770696F2E680000000047656E65CF
:4045400072617465645F536F757263655C50536F43365C70646C5C647269766572735C7065726970686572616C5C6970635C63795F6970635F6472762E68000047656E65CA
:4045800072617465645F536F757263655C50536F43365C70646C5C647269766572735C7065726970686572616C5C6970635C63795F6970635F6472762E63000047656E658F
:4045C00072617465645F536F757263655C50536F43365C70646C5C647269766572735C7065726970686572616C5C6970635C63795F6970635F706970652E630047656E65ED
