:020000041000EA
:4000000000400208230100100D00000085010010000000000000000000000000000000000000000000000000000000008101001000000000000000008101001081010010E9
:400040008101001081010010810100108101001081010010810100108101001081010010810100108101001081010010810100108101001081010010810100108101001060
:400080008101001081010010810100108101001081010010810100108101001081010010810100108101001081010010810100108101001081010010810100108101001020
:4000C00010B5064C2378002B07D1054B002B02D0044800E000BF0123237010BDC40800080000000080400010084B10B5002B03D00749084800E000BF07480368002B00D1E0
:4001000010BD064B002BFBD09847F9E700000000C808000880400010E8000008000000007047FFF7FDFF72B60F4C104DAC4209DA21686268A368043B02DBC858D050FAE75F
:400140000C34F3E70A490B4A0020521A02DD043A8850FCDC084809490860BFF34F8F00F051F800F01DF8FEE7844000109C400010C4080008E40A00080000000808ED00E040
:40018000FEE7FEE700B504207146084202D0EFF3098001E0EFF30880043002F085FCFEE780B500AF62B6044B180000F05DFA002002F0FAFDFBE7C0460000081080B500AFF0
:4001C000B0235B055B78DBB2002B04D0B0235B055B78DBB200E021231800BD4680BDC04680B500AF0649064AC0235B00D358012293431A00C0235B00CA50C046BD4680BDBB
:400200000000264080B582B000AF304B180003F031FB2F4AB023DB00D3587B607B685B005B087B602A49B023DB007A68CA50284AE0239B00D3587B607B68302293437B60CE
:400240002349E0239B007A68CA502149B023DB0080225204CA501E4A1E4B1F49D1501C49B123DB00A0229201CA50194A1B4BFF21D15003F0DFFAFFF7B3FF00F065FF00F0AF
:4002800039F8FFF79BFF0300212B05D1144B0022DA60134B00225A60124B1A008021042001F0EAFA104B180001F082FD0F4B1B6851229B5C002B03D00D4B180001F08AFD42
:4002C00001F032F8C046BD4602B080BD103F00100000264084050000010002008C050000E0002340E0080008F0080008E00A0008343A001080B590B000AFC24AE0239B0098
:40030000D3580F2213407B63BE4A7B6BD0339B009B58072213403B633B6B042B32D83B6B9A00B94BD3181B689F46B84BFB632CE0B74BFB6329E0B64BFB6326E0B54B1B6863
:40034000FB6322E0AF4A7B6BC0339B009B581F221340FB62FB6A112B07D0132B09D0102B0BD1FA23DB01FB630BE080231B02FB6307E080231B02FB6303E0FA23DB01FB6387
:40038000C04602E0A24BFB63C0467B6B002B6DD19C4AB223DB00D35801221A402B23FB18511E8A411A70974AB123DB00D258C0239B0513401A0F2A23FB18033A51424A41DE
:4003C0001A70904AB123DB00D258C0239B0513401B0F09D08B4AB123DB00D258C0239B0513401B0F012B01D1012200E000222923FB181A701A7801210A401A702923FB1846
:400400001B78002B04D02B23FB181B78002B04D12A23FB181B78002B25D07A4AB023DB00D3589B039B0B7B62764A7B4BD358DB04DB0C3B62734AB023DB00D25880235B04BA
:4004400013401B0E0133FB61396AF86B03F020FA03001A007B6A5343F969180003F018FA0300BB6377E0FB6BBB6374E07B6B012B6FD1644AC823DB00D35801221A401B234A
:40048000FB18511E8A411A705E4AC023DB00D258C0239B0513401A0F1A23FB18033A51424A411A70574AC023DB00D258C0239B0513401B0F09D0534AC023DB00D258C023D7
:4004C0009B0513401B0F012B01D1012200E000221923FB181A701A7801210A401A701923FB181B78002B04D01B23FB181B78002B04D11A23FB181B78002B27D0414AC02323
:40050000DB00D3587F2213407B613E4AC023DB00D258F8235B0113401B0A3B61394AC023DB00D258F8235B0313401B0CFB60FB6B7A6953433969180003F0AAF90300F9689E
:40054000180003F0A5F90300BB6304E0FB6BBB6301E0FB6BBB632B4AE0239B00D358302213401B09BA6BDA401300BB632B4BBA6B1A602B4B1A69FF231B0213401B0A013374
:40058000BB60274B1B691B0E1B061B0E01337B607968B86B03F07CF90300BB63214BBA6B1A60B968B86B03F073F90300BB631E4BBA6B1A601C4B1A681C4B1A601B4B1B6891
:4005C0001B4A944663441B49180003F061F90300DAB2194B1A70154B1B68184A9A18FA239900100003F054F903001A00144B1A60134B1B68DA03134B1A60C046BD4610B07D
:4006000080BDC04600002640083A001000127A0000366E01CC00000884050000C400000800002140C8000008C0000008D00000083F420F0040420F00D8000008E7030000A9
:40064000D4000008DC00000880B582B000AF054A8023D358032213407B607B681800BD4602B080BD0000214080B586B000AF78607B689B059B0D07D0E823FF331A001C4B34
:400680001100180002F0CCF902F01BFB03007B61FFF7DAFF03003B613B69032B01D100F02FF81449B0239B007A68CA50114A8023D358114A1340FB60FB68104A1343FB60E3
:4006C000FB6803221343FB600A498022FB688B50C046084A8823D35810221340F9D07B69180002F0F2FAC046BD4606B080BDC0461C3A001000002140FCFF00000000FA0575
:4007000080B582B000AF02F0DCFA03007B60104A8023D3580F4A13403B603B680E4A13433B603B68012213433B60094980223B688B50C046064A8823D35810221340F9D0FF
:400740007B68180002F0C1FAC046BD4602B080BD00002140FCFF00000000FA0580B500AF002001F0D1FCC046BD4680BD80B500AF094B5A6CFF231B0213401B0A3A2B08D183
:40078000054B054A526C05490A40E82189010A435A64C046BD4680BD00002740FFC5FFDF80B500AF054B054A526C05490A40E82189010A435A64C046BD4680BD0000274033
:4007C000FF00FFFF80B500AF0549054A054BD358802212061343034A8B50C046BD4680BD000026400C05000080B582B000AF0C4B7B600C4AC0235B00D3580122134009D1B4
:400800000849084A084BD3585B005B08064A8B5000237B607B681800BD4602B080BDC04603004A00000026400C05000080B582B000AF0200FB1D1A700749074A074BD35821
:40084000012293431A00FB1D1B781343034A8B50C046BD4602B080BD000026400C05000080B584B000AF78600E4BFB600E4B1B683E229B5C1A007B689A420ED90B490B4A8D
:400880007B68E0339B009B58802212061A437B68E0339B005A500023FB60FB681800BD4604B080BD01004A00E00A00080000264080B584B000AF78600A00FB1C1A70134BD9
:4008C000FB60134B1B683E229B5C1A007B689A4217D9FB1C1B780F2B13D80E490D4A7B68E0339B009B580F2293431A00FB1C1B780F2003401A437B68E0339B005A500023A3
:40090000FB60FB681800BD4604B080BD01004A00E00A00080000264080B584B000AF78600A00FB1C1A70144BFB60144B1B683E229B5C1A007B689A4218D9FB1C1B78032B1A
:4009400014D80F490E4A7B68E0339B009B58302293431A00FB1C1B781B01302003401A437B68E0339B005A500023FB60FB681800BD4604B080BDC04601004A00E00A0008F4
:400980000000264080B582B000AF0200FB1D1A700F4B1B681A680E4B1B6888215B58D3181A000B4B1B681968094B1B6888201B58CB181B6807491940FB1D1B781B021B0439
:4009C0001B0C0B431360C046BD4602B080BDC046E00A0008FF00FFFF80B582B000AF0200FB1D1A700E4B1B681A680D4B1B6884215B58D3181A000A4B1B681968084B1B68A3
:400A000084201B58CB181B681B02190AFB1D1B781B060B431360C046BD4602B080BDC046E00A000890B587B000AFB9607A600F23FB18021C1A70314B7B610F23FB181B7841
:400A4000002B28D1BB68072B53D87B68FF2B50D8BB689A002A4B1B689968294B1B6874201B5ACB18D3181A00BB689900244B1B689868234B1B6874241B5BC318CB181B6811
:400A8000204919407B681B021B041B0C0B43136000237B612DE00F23FB181B78012B28D1BB680F2B25D87B68174A934221D8BB689A00134B1B689968114B1B6876201B5A6F
:400AC000CB18D3181A00BB6899000D4B1B6898680B4B1B6876241B5BC318CB181B680B4919407B681B020A4803400B43136000237B617B691800BD4607B090BD01004A00FD
:400B0000E00A0008FF00FFFFFFFF0000FF0000FF00FFFF0090B585B000AF3A60FB1D021C1A70BB1D0A1C1A70294BFB60294B1B683F229B5CFA1D12789A4243D2BB1D1B78A6
:400B4000032B3FD8BB1D1B78002B02D13B68072B14D9BB1D1B78012B02D13B680F2B0DD9BB1D1B78022B02D13B68032B06D9BB1D1B78032B26D13B68002B23D1154B1B6888
:400B80009B681C00FB1D1978BB1D1A78114B1B6871201B5C9A400F4B1B6871201B5C1800032383401A400B4B1B6870201B5C18003B6803401A43C0239B00CB189B001A5160
:400BC0000023FB60FB681800BD4605B090BDC04601004A00E00A000890B585B000AF02003960FB1D1A70334BFB60FB1D1B78032B5AD8FB1D1B78002B02D13B68072B14D9FF
:400C0000FB1D1B78012B02D13B680F2B0DD9FB1D1B78022B02D13B68032B06D9FB1D1B78032B41D13B68002B3ED1234B1B689B681C00214B1B6873229B5C1A000323934086
:400C40001A001D4B1B6870215B5C18001A4B1B6872215B5C984003001A43FB1D1978164B1B6871201B5C9940134B1B6871201B5C1800032383400B401A430F4B1B68702137
:400C80005B5C19003B680B401343802212061A438023DB00E250084B1B689B681A008023DB00D3580023FB60FB681800BD4605B090BDC04601004A00E00A000880B582B015
:400CC00000AF0200FB1D1A700F4B1B681A680E4B1B6884215B58D3181A000B4B1B681968094B1B6884201B58CB181B6807491940FB1D1B781B021B041B0C0B431360C046DD
:400D0000BD4602B080BDC046E00A0008FF00FFFF80B582B000AF0200FB1D1A70FB1D1B78032B05D90C4A0D4B1100180001F078FE0B490B4AA023DB00D358032293431A0096
:400D4000FB1D1B78032003401A43A023DB00CA50C046BD4602B080BD4A090000683A00100000264080B582B000AF0200BB1D1A80BB1D1B880C4A934205D90C4A0C4B11001E
:400D8000180001F04DFE0B490A4A0B4BD3580B4A1A40BB1D1B88044803401343064A8B50C046BD4602B080BD0103000097090000683A00100000264004050000FEFCFFFFC7
:400DC00080B582B000AF0200FB1D1A700948094A094BD358094A1A40FB1D1B781904FF231B040B401343044A8350C046BD4602B080BDC0460000264004050000FFFF00FF34
:400E000080B500AF0549054A054BD358802212061343034A8B50C046BD4680BD000026400405000080B582B000AF0200FB1D1A70FB1D1B780F2B05D90D4A0E4B1100180073
:400E400001F0EEFD0C480C4AA023DB00D3580B4A1A40FB1D1B781902F0231B010B401A43A023DB00C250C046BD4602B080BDC046490A0000683A001000002640FFF0FFFFD1
:400E800080B582B000AF0200FB1D1A70FB1D1B78002B15D0FB1D1B78012B11D0FB1D1B78022B0DD0FB1D1B78032B09D0FB1D1B78042B05D00D4A0E4B1100180001F0B0FD78
:400EC0000C480C4AA023DB00D3580B4A1A40FB1D1B781903E023DB010B401A43A023DB00C250C046BD4602B080BDC0466F0A0000683A001000002640FF8FFFFF80B500AFD3
:400F00000649064AA023DB00D358802212021A43A023DB00CA50C046BD4680BD0000264080B582B000AF0200FB1D1A70FB1D1B78012B05D90B4A0C4B1100180001F070FD30
:400F40000A4B0A4A12680A491140FA1D12781002C022920002400A431A60C046BD4602B080BDC046D20A0000683A001000002740FFFCFFFF80B582B000AF0200FB1D1A70D4
:400F8000FB1DFA1D12781A70FEE7C04690B587B000AF0020FFF7BCFE0020FFF7F3FC0120FFF71AFD0020FFF789FE00210020FFF77FFC00210020FFF7AFFC0020FFF750FC42
:400FC0000021012001F0DCF90021022001F0D8F90021032001F0D4F90021042001F0D0F90021002001F0CCF93B003A4A13CA13C303CA03C33B00180001F00CFA03007B61BE
:401000007B69002B02D00420FFF7B4FF3249324A324BD358802212061343304A8B50304B180001F0F7FA03007B617B69002B02D00420FFF79FFF0020FFF794FE0020FFF753
:40104000BFFEFFF7DDFE0020FFF7ECFE0220FFF717FFFFF753FF0120FFF762FF002002F0BBFBFFF7AFFB0120FFF7E0FB6421002001F04AFD002200210520FFF74BFD2322D2
:4010800000210020FFF7CEFC00210020FFF7A4FD002201213720FFF73DFD124B1A0000210120FFF7BFFC00210120FFF795FD012200213920FFF72EFD312201210020FFF70F
:4010C000B1FC01210020FFF787FDC046BD4607B090BDC046AC3A001000002640087F0000400D0300E703000080B500AF0E4B802212061A600D4B912292031A600C4B9022C3
:4011000092031A600B4BC82292011A600A4B802212061A60094B8022D2021A60084B094A1A60C046BD4680BD000010418000104188001041A000104100001D4100031D4175
:40114000000E1F410100118090B58BB000AF9621002001F0D9FC01F08DFC031E05D101F075FCFFF741FBFFF72DFB012001F0BAFEFFF716FBFFF7FAFAFFF708FF3B1D174A0F
:4011800013CA13C313CA13C313CA13C33B1D144A1900100000F080F93B1D124A13CA13C313CA13C313CA13C33B1D0F4A1900100000F072F93B1D0D4A13CA13C313CA13C3B7
:4011C00013CA13C33B1D0A4A1900100000F064F9FFF78AFFC046BD460BB090BDC03A001080023240E43A001000033240083B00108004324080B582B000AF78600F4B1B68D5
:4012000031229B5C1A007B689A4207D8C423FF331A000B4B1100180001F002FC074B1B681A6A064B1B68B0215B5A19007B684B43D3181800BD4602B080BDC046E00A0008E1
:401240002C3B001080B582B000AF78607B68DB681800BD4602B080BD80B582B000AF7860074B1B68B4229A587B68D3181B68DB0FDB07DB0FDBB21800BD4602B080BDC046AA
:40128000E00A000880B584B000AFF860B9607A607B68002B05D1084A084B1100180001F0BFFB7A68B968FB68180000F037FA03001800BD4604B080BD930300002C3B0010C1
:4012C00080B582B000AF7860144B7A681A60134B1B68002B0BD0114B1B6802221A700F4B1B68FF225A700D4B1B6800225A800C4B1B6850229B5C002B0BD0094B1B6851229F
:401300009B5C002B05D0074B02221900002000F0BBFEC046BD4602B080BDC046700A0008E00A0008ED00000880B500AF034B1800FFF7C6FFC046BD4680BDC046940A000800
:4013400080B584B000AF78607B682D4A934240D02B4A93420ED8402B41D004D8002B21D0102B39D044E0802B3CD08022520093423BD03DE0234A93421AD0224A934207D83E
:40138000A0221206934210D01F4A93421DD02FE01E4A934213D01E4A934213D01D4A93420AD025E00023FB6025E00023FB6022E0A423DB03FB601EE0174BFB601BE0174BEE
:4013C000FB6018E0164BFB6015E0A023DB03FB6011E00B4BFB600EE0124BFB600BE0124BFB6008E0114BFB6005E0054BFB6002E00F4BFB60C046FB681800BD4604B080BDC7
:4014000006005200010000F0090000A0040000F0050000F0030000F0010052000200520003005200010050000200500005005200FF00520080B582B000AF144B7B60002027
:40144000FFF7D8FE03001800FFF706FF03001A0001235340DBB2002B12D00D4B1B681800FFF76EFF03007B600A4B1B685B6801229A60C046074B1B685B689B68002BF9D19A
:401480007B681800BD4602B080BDC04602005000740A0008E00A000880B586B000AF78603960514B7B617B68002B00D196E03B68002B00D192E03B681B68FF22934304D015
:4014C0004A4B9921180001F0ABFA3B681B69FF22934304D0454B9A21180001F0A1FA3B689B685B0D5B0504D0404B9B21180001F097FA3B685B685B0A5B0204D03B4B9C21AC
:40150000180001F08DFA3B68DB695B0F5B0704D0364B9D21180001F083FA3B681B6A5B0F5B0704D0314B9E21180001F079FA7A682F4B1B689B69D31ADB093B612C4B1B6806
:401540005A693B691B01D318FB603B681A687B681A60274B1B687D229B5C1A007B68D3181A003B68DB681360214B1B687E229B5C1A007B68D3181A003B681B6913601C4BB1
:401580001B687F229B5C1A007B68D3181A003B685B691360164B1B687C229B5C1A007B68D3181A003B689B6813603B685A687B689A610F4B1B6880229B5C1A007B68D318FF
:4015C0001A003B689B6913603B68DA69FB681A603B681A6AFB685A6000237B617B691800BD4606B080BDC04601005A00AC3B0010E00A000880B582B000AF786039603B684B
:401600001B0C1B0405D0074A074B1100180001F007FA3B681B041A0C7B689A60C046BD4602B080BDBB020000EC3B001080B582B000AF786039603B681B0C1B0405D0074A8A
:40164000074B1100180001F0EBF93B681B041A0C7B685A60C046BD4602B080BDD5020000EC3B001080B582B000AF786039607B683A68DA60C046BD4602B080BD80B582B0EA
:4016800000AF78607B68DB681800BD4602B080BD80B582B000AF7860074B1B68B4229A587B68D3181B68DB0FDB07DB0FDBB21800BD4602B080BDC046E00A000880B582B0EB
:4016C00000AF78607B681B68DB0FDB0701D5002300E0024B1800BD4602B080BD01008A0080B584B000AF786039607B681800FFF7CFFF031E08D03A687B6811001800FFF791
:4017000095FF0023FB6001E0034BFB60FB681800BD4604B080BDC04601008A0080B586B000AFF860B9607A60FB681800FFF7C6FF031E0ED17A68FB6811001800FFF792FF7D
:40174000BA68FB6811001800FFF754FF00237B6101E0034B7B617B691800BD4606B080BD01008A0080B584B000AF786039603B68002B04D10D4B9921180001F051F97B6877
:401780001800FFF785FF031E09D07B681800FFF775FF02003B681A600023FB6001E0044BFB60FB681800BD4604B080BD2C3C001001008A0080B582B000AF78600F4B1B68D3
:4017C00031229B5C1A007B689A4207D8C423FF331A000B4B1100180001F022F9074B1B681A6A064B1B68B0215B5A19007B684B43D3181800BD4602B080BDC046E00A0008FF
:401800006C3C001080B582B000AF78607B68DB681800BD4602B080BD80B584B000AFF860B9607A607B68002B05D1084A084B1100180001F0F5F87A68B968FB681800FFF76B
:401840006DFF03001800BD4604B080BD930300006C3C001080B582B000AF78607B681B68DB0FDB0701D5002300E0024B1800BD4602B080BD01008A0080B586B000AFF86052
:40188000B9607A60164B7B617B68002B0CD1BB68002B09D1FB681800FFF78CFF0200114B1A6000237B6116E07B68002B11D0BB68002B0ED00C4BBA681A600B4B7A685A601C
:4018C000094AFB681100180000F010F803007B6101E0034B7B617B691800BD4606B080BD03018A00980A00089C0A000880B584B000AF78603960274BFB60274B1B683122B1
:401900009B5C1A007B689A4202D8224BFB603CE03B68002B37D03B681B681F2213402FD17B681800FFF746FF02001C4B1A603B6858683B681B68DB081A00002102F034F8AC
:40194000164B1B6800211800FFF7CAFE134B1B683A6800211800FFF75FFF031E0DD10F4B1B6800211800FFF7BBFE031E02D10023FB600AE00A4BFB6007E0094BFB6004E032
:40198000044BFB6001E0034BFB60FB681800BD4604B080BD03018A00E00A0008980A000801018A0080B588B000AF78600A00FB1C1A700023FB61304BBB61304B1B68180003
:4019C000FFF720FF03007B617B691A687B689A424BD97B685B093B613B695B017A68D31A01229A401300FB60FB1C1B7801225340DBB2002B03D001F064F90300FB611F4B8B
:401A00001B681800FFF726FF031E22D17B695A683B699B00D3181B68FA68134011D07B695A683B699B00D3187A6951683A6992008A181268F968C9430A401A600023BB61C6
:401A400001E00F4BBB610D4B1B6800211800FFF747FEFB1C1B7801225340DBB2002B06D0FB69180001F031F901E0064BBB61BB691800BD4608B080BD03018800980A000883
:401A80000201880004018A0080B586B000AF7860164B1B681800FFF7B5FE03003B613B691A687B689A4219D97B685B09FB60FB685B017A68D31A01229A401300BB603B6900
:401AC0005A68FB689B00D3181B68BA68134002D0074B7B6104E0074B7B6101E0064B7B617B691800BD4606B080BDC046980A0008010188000001880004018A0080B582B078
:401B000000AF0200BB1D1A80BB1D00229B5E002B09DB074BBA1D128811001F220A40012191400A001A60C046BD4602B080BDC04600E100E080B582B000AF78600F4B1B6820
:401B400031229B5C1A007B689A4207D8C423FF331A000B4B1100180000F062FF074B1B681A6A064B1B68B0215B5A19007B684B43D3181800BD4602B080BDC046E00A000836
:401B8000AC3C001080B582B000AF78600D4B1B6832229B5C1A007B689A4207D8E023FF331A00094B1100180000F03AFF054B1B681B6A1A007B6880335B01D3181800BD4602
:401BC00002B080BDE00A0008AC3C001080B584B000AFF860B9607A607B681B0C1B0406D0FF235A000D4B1100180000F019FFBB681B0C1B0405D00A4A084B1100180000F0A7
:401C00000FFF7B681A04BB681B041B0C1A43FB689A60C046BD4604B080BDC046AC3C0010FF01000080B582B000AF78607B68DB681800BD4602B080BD80B582B000AF78606E
:401C40007B681B681800BD4602B080BD80B584B000AFF860B9607A607B681B0C1B0406D0A6239A000E4B1100180000F0D9FEBB681B0C1B0405D00B4A094B1100180000F0E6
:401C8000CFFE7B681A04BB681B041B0C1A43FB681A60FB681B68C046BD4604B080BDC046AC3C00109902000080B582B000AF786039603B681B0C1B0405D0074A074B110041
:401CC000180000F0ADFE3B681B041A0C7B689A60C046BD4602B080BDBB020000AC3C001080B582B000AF786039607B683A68DA60C046BD4602B080BD80B582B000AF786093
:401D0000074B1B68B4229A587B68D3181B68DB0FDB07DB0FDBB21800BD4602B080BDC046E00A000880B582B000AF78607B681B0C1800BD4602B080BD80B582B000AF786080
:401D40007B681B041B0C1800BD4602B080BDC04680B582B000AF786039603B68002B05D1084A094B1100180000F05AFE3A687B6811001800FFF7F6FC03001800BD4602B082
:401D800080BDC046B6030000AC3C001080B582B000AF78607B681B68DB0FDB0701D5002300E0024B1800BD4602B080BD01008A0080B582B000AF7860054B1B68002B02D195
:401DC000034B7A681A60C046BD4602B080BDC046A40A000890B591B002AF78607B68002B04D13D4B5221180000F01AFE7B685B68032B04D9384B5421180000F011FE7B68D5
:401E0000DB6A002B04D1344B5821180000F008FE7B681B6B002B04D12F4B5921180000F0FFFD1C23FB187A6813CA13C303CA03C30823FA187B68143313CB13C203CB03C2CF
:401E40001C23FB189B681AB23023FB181A80234B1B6836229B5EDAB21C23FB181B68DBB2D318DAB23023FB189A701C23FB185A683023FB185A601C23FB18D8687B68D96A3E
:401E80007B689A6A1C23FB181C693023FB180093230000F025F80823FB18D8680823FB181A690023009313000022002100F018F87B681A6B3023FB181100180000F09EFC6F
:401EC0003023FB1800229B5E1800FFF717FEC046BD460FB090BDC046EC3C0010E00A000880B586B000AFF860B9607A603B60264B1B68002B04D1254BB521180000F090FD2A
:401F0000214B1A68FB682C214B43D3187B613B68FF221A407B691A603B681B0AFF221A407B695A603B681A0C7B699A607B691B681800FFF7FFFD02007B691A617B695B6831
:401F40001800FFF71FFE02007B695A617B6958697B6999687B699B681A00FFF737FE7B697A68DA617B69BA681A627B6900229A613B6A002B04D03B6A00229A5E7B699A81F9
:401F8000C046BD4606B080BDA40A0008EC3C001080B58AB000AFF860B9607A603B607B68002B04D1344BFD21180000F039FD334B1B68002B04D1304BFE21180000F030FDA5
:401FC0002E4B1A68FB682C214B43D3183B622B4B1A68BB682C214B43D318FB61FB695B6801229A401300BB61BB691B04BB613B6A5B6801229A4013007B613B6A1B69002B89
:4020000033D0FB699B69002B2CD13B6A1B691800FFF7BCFE031E22D17B681B681B041A0C7B681A607B681A68BB691A437B681A603B6A1B697A6811001800FFF751FEFB69E0
:4020400001229A61FB693A685A623B6A1B697A6911001800FFF728FE00237B6207E0084B7B6204E0064B7B6201E0064B7B627B6A1800BD460AB080BDEC3C0010A40A000812
:4020800007028A0004028A0080B586B000AFF860B9607A60194B1B68002B06D1AF235A00174B1100180000F0BBFC144B1A68FB682C214B43D3183B613B691B6A002B06D180
:4020C000B1235A000E4B1100180000F0A9FC3B69DA697B689A4209D93B691A6A7B689B00D318BA681A6000237B6101E0054B7B617B691800BD4606B080BDC046A40A00082C
:40210000EC3C00100A028A0080B584B000AF78600D4B1B68002B07D1B223FF331A000B4B1100180000F07CFC074B1A687B682C214B43D318FB60FB68180000F009F8C046B1
:40214000BD4604B080BDC046A40A0008EC3C001090B589B000AF78600023FB600023FB617B68002B07D1D223FF331A00514B1100180000F055FC7B681B69002B06D1E923D3
:402180005A004C4B1100180000F04AFC7B685B69002B07D1D423FF331A00464B1100180000F03EFC7B681B6A002B06D1EA235A00404B1100180000F033FC7B685B6918009B
:4021C000FFF730FD0300BB61BB691800FFF7AAFD031E3FD07B685C69BB691800FFF7A2FD03001A0000212000FFF730FD7B681B691800FFF781FD031E2CD07B681B690C22F5
:40220000BA1811001800FFF7A3FD031E1BD1FB681B681B0CFB61FB681B68FF2213407B617B68DA697B699A420DD97B681A6A7B699B00D3181B683B613B69002B03D0FA68A1
:402240003B69100098477B681B69FA6911001800FFF746FABB691800FFF76EFD031E20D07B685C69BB691800FFF766FD0300002219002000FFF7EAFC7B685B6A002B06D0D4
:402280007B685B6A98477B6800225A6206E07B689B6A002B02D07B689B6A98477B6800229A617B685B691800FFF7C6FCC046BD4609B090BDEC3C001080B582B000AF02006E
:4022C000FB1D1A700E4B1B689A6CFB1D1B78DA4013000122134004D10A4BBE21180000F09FFB074B1B681B691A00FB1D1B7810339B029B580F2213401800BD4602B080BDE2
:40230000E00A00082C3D001080B500AF054AB223DB00D358012213405A1E9341DBB21800BD4680BD0000264080B500AF1149114AB123DB00D358104A1340802292051A4361
:40234000B123DB00CA500B490A4AB023DB00D3585B005A08B023DB00CA500649054A074BD3585B005B08054A8B5000231800BD4680BDC04600002640FFFFFFCF8C05000047
:4023800080B584B000AF78600A00BB1C1A801E4BFB601E4B1B683C229B5C1A007B689A422CD9BB1C1B88042B09D9BB1C1B88FF2B24D9BB1C1A881423FF339A421ED8BB1C18
:4023C0001B88FF2B0FD91249BB1C1B881F221A407B68C0339B005A500D4A7B68D0339B000421995008E00A49BB1C1B8807221A407B68D0339B005A500023FB60FB6818005B
:40240000BD4604B080BDC04601004A00E00A00080000264080B584B000AF78600023FB607B68002B05D1694A694B1100180000F0F7FA684AB023DB00D358002B02DA664BF9
:40244000FB60BEE07B681B68644A934205D9644A5F4B1100180000F0E3FA5E497B681B689B039A0B7B68DB79002B02D080235B0400E000231A43B023DB00CA507B689B889A
:40248000584A934206D98C239A00514B1100180000F0C6FA7B681B89534A934205D9534A4B4B1100180000F0BBFA4A497B689B88DB04DA0C7B681B891B044D4803401343FE
:4024C0004C4A8B507B689B7A0F2B06D98E239A003F4B1100180000F0A3FA7B68DB7A0F2B05D9454A3A4B1100180000F099FA7B689B893C4A934205D9404A354B110018004C
:4025000000F08EFA33487B689B7A1A000F231A407B68DB7A1B01FF210B401A437B689B891B0237490B401A437B689B7B1907C0239B050B401A43B123DB00C2507B689B79A6
:40254000002B15D07B689B79012B11D07B689B79022B0DD07B689B79032B09D07B689B79042B05D0274A1A4B1100180000F058FA7B681B8A1C4A934206D991239A00144BBD
:402580001100180000F04CFA1248124A1E4BD3581E4A1A407B689B791902E023DB000B401343194A83500B490A4A174BD358184A1A407B681B8A1B040D4803401343124A07
:4025C0008B50FB681800BD4604B080BD1F020000B03D00100000264003004A00FFFF030029020000FF1F0000FF010000310200000000FF0184050000390200003A02000043
:4026000000FF1F00430200008C050000FFF8FFFFFFFF00FE80B584B000AF78600F23FB187A6851424A411A703849384A384BD358802212061343364A8B5005E0012000F0E4
:40264000D5F97B68013B7B60304AB223DB00D3580422134002D17B68002BEFD12B492B4AB123DB00D3582B4A1340802292051A43B123DB00CA500F23FB181B78002B02D163
:402680007B68002B11D02149204AB023DB00D358802212061A43B023DB00CA5005E0012000F0A4F97B68013B7B60FFF72DFE03001A0001235340DBB2002B02D07B68002B85
:4026C000EDD10F23FB181B78002B02D17B68002B0BD00E490D4AB123DB00D358C02292051A43B123DB00CA5001E0FFF71DFE0F23FB181B78002B02D17B68002B01D000236C
:4027000000E0054B1800BD4604B080BD000026408C050000FFFFFFCF02004A00B0B582B000AF02003960BB1D1A80BB1D00229B5E002B28DB2F4CBB1D00229B5E9B082D4953
:40274000BA1D0020125E9208C03292005258B91D0988080003210140C900FF2088400100C94311403A689201FF201040BA1D1288150003222A40D200904002000A43C033AB
:402780009B001A5131E01C4CBB1D1B881A000F231340083B9908184ABB1D1B8818000F230340083B9B0806339B00D31804331B68BA1D1288100003220240D200FF2090402A
:4027C0000200D2431A403B689B01FF201840BB1D1B881D0003232B40DB00984003001A438B1D9B00E31804331A60C046BD4602B0B0BDC04600E100E000ED00E080B584B062
:4028000000AF786039600023FB607B68002B30D07B685B68032B04D9194B3221180000F0FFF87B6800229B5E002B09DB7B6800229A5E7B689B781900100000F029F801E06A
:40284000104BFB607B6800229A5E7B685B6819001000FFF763FF0C4B9A680C4B9A420AD17B6800229B5E3A681100180000F07EF801E0044BFB60FB681800BD4604B080BDEE
:402880004C3E00100100560000ED00E00000000880B586B000AF0200BB1D1A807B1D0A1C1A70304B1B6828229B5C012B33D1BB1D00229B5E9B087B617B69072293434CD19B
:4028C000BB1D00229A5E7B699B00D31ADB003B61FF223B699A401300FB60224B1B681B6820331A007B699B00D3181E4A12681268203211007A6992008A181268F968C943EF
:4029000011407A1D10783A6990400200F86802400A431A6021E0134B1B683A229B5EDBB27A1D12789A4204D10F4B7621180000F077F80C4B1B681B6818007B1D1B78BA1DD4
:402940000021525E07210A40802109060A43802189018C4663449B001A50C046BD4606B080BDC046E00A00084C3E001080B584B000AF02003960BB1D1A80184B9A68184BF3
:402980009A421DD13B68002B07D13823FF331A00144B1100180000F043F8BB1D00229B5E10331A000E4B9200D358FB60BB1D00229B5E10331A000A4B92003968D15008E0AB
:4029C000BB1D00229B5E10331A00074B9200D358FB60FB681800BD4604B080BD00ED00E0000000084C3E00100000001080B582B000AF0200BB1D1A80BB1D1B88044A127852
:402A00005343180000F054F9C046BD4602B080BDD800000880B582B000AF786001BEFEE780B582B000AF786039607968054B1822180000F0C1FF044B3A681A600020FFF706
:402A4000E9FFC04688080008A008000880B500AF064B802212069A64044B9B6C002B01DB002300E0024B1800BD4680BD000027400300460080B582B000AF0A4A80231B0155
:402A8000D3587B60074B5B68FF22134004D07B688022D20213437B607B681800BD4602B080BDC0460000264080B582B000AF78607B681A68114B1A607B685A680F4B5A60EE
:402AC0007B689A680D4B9A607B68DA680B4BDA607B681A69094B1A617B685A69074B5A617B689A69054B9A617B68DA69034BDA6100F006F8C046BD4602B080BDA408000888
:402B000080B500AFFEE7C04680B584B000AF02003960FB1D1A70FB1D1B78002B01D0192300E06423BB603B68BA689A429B415B42DBB2FB605B4B1B681A685A4B1B68A8216E
:402B40005B5AD3181A00574B1B681968554B1B68A8201B5ACB181B6803218B431900FB68032003400B4313604E4B1B681A684D4B1B68A8215B5AD3181A004A4B1B681968C5
:402B8000484B1B68A8201B5ACB181B6846490B401360444B1B681A68424B1B68AA215B5AD3181A003F4B1B6819683E4B1B68AA201B5ACB181B6803218B431900FB68032016
:402BC00003400B431360374B1B681A68354B1B68AA215B5AD3181A00324B1B681968314B1B68AA201B5ACB181B682F490B401360FB1D1B78002B0CD03B68102B06D93B6855
:402C0000212B01D8012302E0022300E00023FB6033E0244B1B6855229B5C1A003B689A4229D2204B1B6856229B5C1A003B689A421FD21C4B1B6857229B5C1A003B689A4205
:402C400015D2184B1B6858229B5C1A003B689A420BD2144B1B6859229B5C1A003B689A4201D3042308E0052306E0032304E0022302E0012300E00023FB600A4B1B685B6894
:402C80001A00084B1B685B681B680F218B431900FB680F2003400B431360C046BD4604B080BDC046E00A0008FFFCFFFF000000000230800803D001300238FCD1C046C04675
:402CC0007047EFF3108072B6704780F31088704780B500AFB0235B055B78DBB2002B04D0B0235B055B78DBB200E021231800BD4680BDC04680B500AFB0235B059B899BB2F7
:402D0000002B04D0B0235B059B899BB201E080235B001800BD4680BD80B582B000AF78600F4B1B6831229B5C1A007B689A4207D8C423FF331A000B4B11001800FFF770FED6
:402D4000074B1B681A6A064B1B68B0215B5A19007B684B43D3181800BD4602B080BDC046E00A0008903E001080B582B000AF78607B68DB681800BD4602B080BD80B582B0C6
:402D800000AF7860074B1B68B4229A587B68D3181B68DB0FDB07DB0FDBB21800BD4602B080BDC046E00A000880B586B000AF0200FB1D1A7001233B6100237B61FB1D1B7831
:402DC000002B0AD0FB1D1B78012B06D0A6239A003E4B11001800FFF723FE3D4B3A699200D358002B05D00121012000F00BF903007B617B69002B5DD1FFF763FF0300FB6004
:402E0000334B3A699200D358002B03D00421012000F0F8F82F4B1B6843229B5C002B0CD02C4B1B689B681A00E023D3581022134003D0294B180000F05BFAFFF75BFF03006F
:402E40001A0080235B009A4205D1FB1D1B78180000F0D2FD0CE0214B204A126904210A431A61FB1D1B78012B01D030BF00E020BF184B1B6843229B5C002B0CD0154B1B685A
:402E80009B681A00E023D3581022134003D0124B180000F093FAFB681800FFF716FF0C4B3A699200D358002B0AD00821012000F0A9F805E00221012000F0A4F8084B7B617C
:402EC0007B691800BD4606B080BDC046D03E0010A80A0008E00A0008BC0A000800ED00E0FF00420080B586B000AF0200FB1D1A70FB1D1B78002B0AD0FB1D1B78012B06D019
:402F000082231A01384B11001800FFF789FD374B7B6100F037FC031E60D0FFF7D2FE0300FB60FB1D1B78002B15D1314A314B0021D150B0235A05E823DB00D35CDBB23B614E
:402F4000012000F023F903007B617B69002B20D100F09AFA1DE02649B0235B05264A9B58244A8B50B0235B05244A9B5CDBB23B611F491F4A224BD3581F2293430B221343B2
:402F80001F4A8B500320FFF731FD00F0A3FB00237B617B69002B1DD11549154A184BD3581F2293431A003B691F2003401343144A8B50FB1D1B78002B02D100F03FFB09E00F
:402FC0000720FFF713FD00F0CDFA002000F0DEF803007B61FB681800FFF777FE7B691800BD4606B080BDC046D03E00100300420000002640307F0000101800004107000062
:403000001CFF000080B586B000AF0200FB1D1A70BB1D0A1C1A70FB1D1B78002B15D0FB1D1B78012B11D0FB1D1B78022B0DD0FB1D1B78042B09D0FB1D1B78032B05D04D4A0F
:403040004D4B11001800FFF7EBFCBB1D1B78012B11D0BB1D1B78022B0DD0BB1D1B78042B09D0BB1D1B78082B05D0444A424B11001800FFF7D5FC00237B61FB1D1A78404BA0
:403080009200D3583B61BB1D1B78042B26D0BB1D1B78012B2ED121E0BB1D1A783B699B68134018D13B69DB681A680823FB181A603B69DB685A680823FB185A603B691B685A
:4030C000BA1D11780822BA181000984703007B612C4B3A691A603B695B693B613B69002B42D07B69284A9342D6D1BB1D1B78012BD2D139E0BB1D1B78022B08D002E03B6912
:403100005B693B613B695B69002BF8D128E01D4B1B683B613B69002B22D03B691B693B611EE0BB1D1A783B699B68134015D13B69DB681A680823FB181A603B69DB685A68AD
:403140000823FB185A603B691B68BA1D11780822BA181000984703007B613B691B693B613B69002BDDD100E0C0467B691800BD4606B080BDB2090000D03E0010B309000058
:40318000A80A0008DC0A0008FF00420090B589B000AF0200FB1D1A70FB1D1B78012B09D0FB1D1B78002B05D0474A484B11001800FFF736FC464BFB61FFF78AFD03001A00FE
:4031C0001623FB181A801423FC18FFF793FD030023800020FFF770F8031E22D11423FB181A8880235B009A421BD11623FB181B88222B16D8374B1B685B681800354B1B6821
:403200005B681A00344BD358344A1A40FB1D1B78190680235B040B4013432F4A83500023FB611423FB181A8880235B009A4204D11623FB181B88222B06D81423FB181A8856
:4032400080235B009A423AD00020FFF765FD03003B611423FB181A8880235B009A4208D1FB1D1B78002B01D01D4B00E01D4BBB6107E0FB1D1B78002B01D01B4B00E01B4B07
:40328000BB61BA693B6901211800FEF747FA031E15D1C0463B691800FFF770FD031EF9D13B691800FFF760FD0300FB60FB681B0E1A06A0231B069A4201D10023FB61FB6916
:4032C0001800BD4609B090BD4C0A0000D03E001004004200E00A000818F00000FFFFFFFE01010030010000300300000C0100000C80B582B000AF78607B68002B05D1264A3D
:40330000264B11001800FFF78BFB254B1B68DB681A00F223DB01D2587B681A60204B1B68DB681A00F023DB01D2587B685A601C4B1B68DB681A001B4BD2587B689A60184B97
:403340001B68DB681A00184BD2587B68DA60144B1B68DB681A00154BD2587B681A61104B1B68DB681A00124BD2587B685A610C4B1B68DB681A000F4BD2587B689A61084B50
:403380001B68DB681A000C4BD2587B68DA61C046BD4602B080BDC046A10A0000D03E0010E00A000804780000087800000C78000010780000147800001878000080B582B04A
:4033C00000AF78607B68002B05D1264A264B11001800FFF725FB254B1B68DB6819007B685A68F023DB01CA50204B1B68DB6819007B689B681E4A8B501C4B1B68DB6819008C
:403400007B68DB681B4A8B50184B1B68DB6819007B681B69184A8B50144B1B68DB6819007B685B69154A8B50104B1B68DB6819007B689B69124A8B500C4B1B68DB68190093
:403440007B68DB690F4A8B50084B1B68DB6819007B681A68F223DB01CA50C046BD4602B080BDC046C90A0000D03E0010E00A000804780000087800000C7800001078000066
:403480001478000018780000B0B500AFFFF732FC03001A0080235B009A422ED12D4B1B681A682C4B1B6898215B58D3181A00294B1B681968274B1B6898201B58CB181B68DC
:4034C0000F218B4302210B431360224B1B681A68204B1B689C215B58D3181A001D4B1B6819681C4B1B689C201B58CB181B680F218B4302210B43136029E0164B1B681A68D9
:40350000144B1B6898215B58D3181A00B0235B0511495B58114919400E4B1B6818680D4B1B6898241B59C3181B680B43C02189000B431360074B1B681A68064B1B689C211F
:403540005B58D318B0225205054952581A60C046BD46B0BDE00A000848180000FFFCFFFF44180000B0B500AFFFF7C4FB03001A0080235B009A422ED12E4B1B681A682D4B40
:403580001B6898215B58D3181A002A4B1B681968284B1B6898201B58CB181B680F218B4303210B431360234B1B681A68214B1B689C215B58D3181A001E4B1B6819681D4B88
:4035C0001B689C201B58CB181B680F218B4303210B4313602BE0174B1B681A68154B1B6898215B58D3181A00B0235905C1235B01CB58114919400F4B1B6818680D4B1B688B
:4036000098241B59C3181B680B43C02189000B431360084B1B681A68064B1B689C215B58D318B0225105C12252018A581A60C046BD46B0BDE00A0008FFFCFFFFB0B500AFCD
:40364000FFF758FB03001A0080235B009A4218D11C4B1B681A681B4B1B6898215B58D3181A00184B1B681968164B1B6898201B58CB181B6814490B40C021C9010B4313606B
:403680001CE0104B1B681A680E4B1B6898215B58D3181A00B0235B050C495B580C491940084B1B681868074B1B6898241B59C3181B680B43C02189000B431360C046BD463D
:4036C000B0BDC046E00A0008FF8FFFFF18180000FFFCFFFFB0B500AFFFF70CFB03001A0080235B009A4218D1224B1B681A68214B1B6898215B58D3181A001E4B1B68196880
:403700001C4B1B6898201B58CB181B681A490B408021C9010B43136029E0164B1B681A68144B1B6898215B58D3181A00B0235B0512495B58124919400E4B1B6818680D4BC9
:403740001B6898241B59C3181B680B43C02189000B431360074B1B681A68064B1B689C215B58D318B0225205044952581A60C046BD46B0BDE00A0008FF8FFFFF4C18000047
:40378000FFFCFFFF80B582B000AFFB1D01221A70FFF7B0FA03001A0080235B009A4215D10020FEF789FD03003B60FFF791FA0300222B02D83B68002B01D1012200E000220F
:4037C000FB1D1A701A7801210A401A70FB1D1B781800BD4602B080BD80B582B000AF0200FB1D1A70FB1D1B78042B06D10F4B0F4A126804210A431A6014E00D4B1B681A6815
:403800000B4B1B68A0215B58D318FA1D12781106C02292040A401A60044B044A126804218A431A60C046BD4602B080BD10E000E0E00A000880B500AF0D490D4AC0235B0050
:40384000D3589B009B088022D2051A43C0235B00CA500749064AC0235B00D358802212061A43C0235B00CA50C046BD4680BDC0460000264080B582B000AF7860034B7A6869
:403880001A60C046BD4602B080BDC046E00A0008002243088B4274D303098B425FD3030A8B4244D3030B8B4228D3030C8B420DD3FF22090212BA030C8B4202D312120902B7
:4038C00065D0030B8B4219D300E0090AC30B8B4201D3CB03C01A5241830B8B4201D38B03C01A5241430B8B4201D34B03C01A5241030B8B4201D30B03C01A5241C30A8B4297
:4039000001D3CB02C01A5241830A8B4201D38B02C01A5241430A8B4201D34B02C01A5241030A8B4201D30B02C01A5241CDD2C3098B4201D3CB01C01A524183098B4201D30F
:403940008B01C01A524143098B4201D34B01C01A524103098B4201D30B01C01A5241C3088B4201D3CB00C01A524183088B4201D38B00C01A524143088B4201D34B00C01AA9
:403980005241411A00D20146524110467047FFE701B5002000F006F802BDC0460029F7D076E770477047C04603008218934202D019700133FAE77047030030B5002A0DD0A8
:4039C0000C7801335D1E013A2C700131002CF5D19A189A4202D01C700133FAE730BD0000F8B5C046F8BC08BC9E467047F8B5C046F8BC08BC9E46704701B40248844601BC99
:403A0000604700BFF90300082A03001030030010360300103C0300104403001073797374656D5F70736F63365F636D30706C75732E63000003000000010000000100000005
:403A40000000000005036000040000000100000000000000010000000604600008000000500A00085D07001047656E6572617465645F536F757263655C50536F43365C707E
:403A8000646C5C647269766572732F7065726970686572616C2F737973636C6B2F63795F737973636C6B2E6800000000F4010000140004010A00090508000000630100008D
:403AC000030000000000000000000000680000000000000000000000000000001212000000000000000000000000000000000000000000BA0000000000000000000000007D
:403B00000000000000001D1D48000000000000000000000000000000000000000000000000000000000000000000040047656E6572617465645F536F757263655C50536F32
:403B400043365C70646C5C647269766572732F7065726970686572616C2F6970632F63795F6970635F6472762E68000047656E6572617465645F536F757263655C50536F5B
:403B800043365C70646C5C647269766572735C7065726970686572616C5C6770696F5C63795F6770696F2E680000000047656E6572617465645F536F757263655C50536F59
:403BC00043365C70646C5C647269766572735C7065726970686572616C5C6770696F5C63795F6770696F2E630000000047656E6572617465645F536F757263655C50536F1E
:403C000043365C70646C5C647269766572735C7065726970686572616C5C6970635C63795F6970635F6472762E68000047656E6572617465645F536F757263655C50536F13
:403C400043365C70646C5C647269766572735C7065726970686572616C5C6970635C63795F6970635F6472762E63000047656E6572617465645F536F757263655C50536FD8
:403C800043365C70646C5C647269766572735C7065726970686572616C5C6970635C63795F6970635F6472762E68000047656E6572617465645F536F757263655C50536F93
:403CC00043365C70646C5C647269766572735C7065726970686572616C5C6970635C63795F6970635F6472762E68000047656E6572617465645F536F757263655C50536F53
:403D000043365C70646C5C647269766572735C7065726970686572616C5C6970635C63795F6970635F706970652E630047656E6572617465645F536F757263655C50536FB5
:403D400043365C70646C5C647269766572735C7065726970686572616C5C70726F745C63795F70726F742E630000000047656E6572617465645F536F757263655C50536F70
:403D800043365C70646C5C647269766572735C7065726970686572616C5C737973636C6B5C63795F737973636C6B2E680000000047656E6572617465645F536F75726365F1
:403DC0005C50536F43365C70646C5C647269766572735C7065726970686572616C5C737973636C6B5C63795F737973636C6B2E6300000000F69F903AFC70903AE02D903A3B
:403E0000E02D903A7D6F993A2052264C48A25D4C503F934CF874C44C20C5FB4C0000803B0000003C0000803C0000003D0000803D0000003E0000803E0000003F0000803FB8
:403E400000000040000080400000004147656E6572617465645F536F757263655C50536F43365C70646C5C647269766572735C7065726970686572616C5C737973696E7436
:403E80005C63795F737973696E742E630000000047656E6572617465645F536F757263655C50536F43365C70646C5C647269766572732F7065726970686572616C2F697090
:403EC000632F63795F6970635F6472762E68000047656E6572617465645F536F757263655C50536F43365C70646C5C647269766572735C7065726970686572616C5C73796B
:403F000073706D5C63795F737973706D2E6300000000214000002540000001400000344000002440000031400000324000001F4100002340000011400101010101010101EF
:403F400001101010800019005500F0000501053B04101C01010000000FC000000004000001010101011D3A57789600082000101208000000001F00000010000F0020000274
:403F80003F06080E00080009000A000B24282C3034000000100000009000000088000000080000008000000004F0000000F00000400200002005A000D00100018001A00115
:403FC00020000000100000000000204000002440000000400000000000002340000030400000314000009F40000022400000104002020202020202020210101D80001700D2
:404000007500FF030602063604102000000000007FC0000000040000000000000019324B647D00804000080B100000000000FF012002001F00800004FF08101800100014DC
:404040000018001C4044484C50000000081000000800000004000000041000000012000004210000002100000016000040114002C41300138013A013200000001C000000FF
:40408000000000000000001000000008C0000000A4400010C0000008C8070000C40800082002000000093D0000127A0000093D000048E80100093D00A00F00000400000065
:4040C0000000D007E9000010C10000100000000080B584B000AF78607B68FB60FB685B78FF2B37D100F07AFB0300BB60042000F09DFB0300180000F0B1FB03001A00174B24
:404100001A60174B00221A60154B1B685B015B4201229A40134B1A60104B1B685A68104B1B689B00D218104B1A600F4B1B680E4A126811680B4A12680A431A60C0460A4B65
:404140001B681A68074B1B681340F8D1BB68180000F074FBC046BD4604B080BD840A0008880A00088C0A0008900A000880B588B000AF78603960634BFB61002000F056FB4D
:4041800003007B61604B1B68B4229A587B69D3183B610023BB615C4B1B6850229B5C002B00D186E000F02AFB02000F23FB18033A51424A411A700F23FB181B7801225340BC
:4041C000DBB2002B02D00023FB6132E0062000F02DFB0300180000F009FB03001A0001235340DBB2002B24D0002000F0E7FA0200464B9A421DD0464B1A6800230021012012
:4042000000F0D4FA031E14D102E0BB690133BB61002000F0D3FA02003C4B9A4203D0BB693C4A9342F1D9BB693A4A934201D80023FB61FB69002B5FD100F0D0FA0300BB609A
:40424000354A364BD358DB0FDB071FD5344A7B690121180000F0DAFA031E14D13B68180000F062F87B68002B02D12E4BFB610FE0C0463B691B68DB0FDB07FAD400F0E6FAAC
:404280000300FB6104E01F4BFB6101E01D4BFB610F23FB181B78002B06D0C0460121002000F0BCFA031EF9D1BB68180000F0C6FA22E000F093FA0300BB60194A7B690121AD
:4042C000180000F0A3FA031E10D17B68002B02D1144BFB610CE0C0463B691B68DB0FDB07FAD400F0B3FA0300FB6101E0054BFB61BB68180000F0A2FAFB691800BD4608B041
:4043000080BDC04605005200E00A000801018800700A0008EF490200000026401C050000740A00080100500080B584B000AF78607B681B041B0CDB00FB60FB68002B3DD063
:40434000C046204B1B681A6A1E4B1B68B0215B5A19000B00DB005B1AD3181B68DB0FDB07EFD5194B3E221A60184B194A1A60194AA323DB000621D1501649FB681B021B0A13
:40438000154A8B50134A144BD358DB0FDB07DB0FFB600C4B1B681A6A0A4B1B68B0215B5A19000B00DB005B1AD31800225A60C046084A094BD358DB0FDB07F9D5C046BD465A
:4043C00004B080BDE00A000804012640080126401E1F0000000026401C050000B0B586B000AF0200FB1D1A70C34B1B685B680D33FF337B6100F0EAF90300212B00D0D5E005
:40440000C046BD4B1B681A6ABB4B1B68B0215B5A19000B00DB005B1AD3181B68DB0FDB07EFD5B54B1B681A6AB34B1B68B0215B5A19000B00DB005B1AD3181A00AE4B1B68E3
:40444000196AAD4B1B68B0201B5A18000300DB001B1ACB18DB6802210B43D360A64B1B681A6AA54B1B68B0215B5A19000B00DB005B1AD318DB68012213407CD09E4B1B6843
:404480001A6A9D4B1B68B0215B5A19000B00DB005B1AD3181A00984B1B68196A964B1B68B0201B5A18000300DB001B1ACB18DB681B04190C904B1B6818688F4B1B68842404
:4044C0001B59C3181868FF231B0203401B0A1804894B1B681C68884B1B6888255B59E3181C68FF231B0223401B0A1B0603430B43D360814B1B681A687F4B1B6884215B58F4
:40450000D3181A007C4B1B6819687B4B1B6884201B58CB181B6879490B40902109010B431360754B1B681A68734B1B6888215B58D3181A00704B1B6819686F4B1B68882051
:404540001B58CB181B686D490B40902109010B431360694B1B681A68674B1B6884215B58D3181B68644B1B681A68634B1B6888215B58D3181B68604B1B681A6A5E4B1B68A4
:40458000B0215B5A19000B00DB005B1AD31800225A60594B1B681A6A574B1B68B0215B5A19000B00DB005B1AD3185B68544B544A126904210A431A61FB1D1B78012B01D075
:4045C00030BF00E020BFC0464B4B1B681A6A4A4B1B68B0215B5A19000B00DB005B1AD3181B68DB0FDB07EFD500F0F0F80300212B00D087E0404B1B681A6A3F4B1B68B0218C
:404600005B5A19000B00DB005B1AD318DB680122134052D0384B1B681A68374B1B6884215B58D3181A00344B1B681968324B1B6884201B58CB181B68304919402E4B1B68D3
:40464000186A2D4B1B68B0241B5B1C002300DB001B1BC318D868FF231B0403401B0C1B021B041B0C0B431360234B1B681A68224B1B6888215B58D3181A001F4B1B68196807
:404680001D4B1B6888201B58CB181B681B491940194B1B68186A184B1B68B0241B5B1C002300DB001B1BC318DB681B0E1B061B0E1B021B041B0C0B4313600F4B1B681A6AD2
:4046C0000D4B1B68B0215B5A19000B00DB005B1AD3181A00084B1B68196A074B1B68B0201B5A18000300DB001B1ACB18DB6802218B43D36038E0C046E00A0008FF00FFFFEB
:4047000000ED00E07B691B68002B2DD11F4B1B683B611F4AA323DB00D358FB601D4B1B68BB601A4B1C4A1A60194AA323DB000621D150184B3E221A60154A184B4421D150E7
:40474000C046134A154BD358002BFADA7B69144A1A600E4B3A691A600D49A323DB00FA68CA500C4BBA681A600E4B1B681A6A0D4B1B68B0215B5A19000B00DB005B1AD31894
:4047800000225A60C046BD4606B0B0BD0801264000002640040126401E1F00001C050000AAAAAAAAE00A00080000000001B40248844601BC604700BF911F001001B402480E
:4047C000844601BC604700BF891A001001B40248844601BC604700BFD12C001001B40248844601BC604700BFC32C001001B40248844601BC604700BF5912001001B40248CF
:40480000844601BC604700BF4906001001B40248844601BC604700BF8512001001B40248844601BC604700BFA519001001B40248844601BC604700BFF511001001B40248DE
:40484000844601BC604700BFCB2C001001B40248844601BC604700BF3514001001B40248844601BC604700BF451200100000000000000000000000000000000000000000AC
:4048800000000000000000000000000000000000000000000000000000000000000000000000000000000000000000000000000000000000000000000000000000000000F8
:4048C00000000000000000000000000000000000000000000000000000000000000000000000000000000000000000000000000000000000000000000000000000000000B8
:404900000000000000000000000000000000000000000000000000000000000000000000000000000000000000000000000000000000000000000000000000000000000077
:404940000000000000000000000000000000000000000000000000000000000000000000000000000000000000000000000000000000000000000000000000000000000037
:4049800000000000000000000000000000000000000000000000000000000000000000000000000000000000000000000000000000000000000000000000000000000000F7
:4049C00000000000000000000000000000000000000000000000000000000000000000000000000000000000000000000000000000000000000000000000000000000000B7
:0200000490303A
:020000000A698B
:0200000490501A
:0C0000000005E2F021002101E3082B695B
:00000001FF