:020000041008E2
:4000000000780408EB0208100D00000051030810510308105103081051030810000000000000000000000000000000004D0308104D030810000000004D0308104D030810DA
:400040004D0308104D0308104D0308104D0308104D0308104D0308104D0308104D0308104D0308104D0308104D0308104D0308104D0308104D0308104D0308104D03081000
:400080004D0308104D0308104D0308104D0308104D0308104D0308104D0308104D0308104D0308104D0308104D0308104D0308104D0308104D0308104D0308104D030810C0
:4000C0004D0308104D0308104D0308104D0308104D0308104D0308104D0308104D0308104D0308104D0308104D0308104D0308104D0308104D0308104D0308104D03081080
:400100004D0308104D0308104D0308104D0308104D0308104D0308104D0308104D0308104D0308104D0308104D0308104D0308104D0308104D0308104D0308104D0308103F
:400140004D0308104D0308104D0308104D0308104D0308104D0308104D0308104D0308104D0308104D0308104D0308104D0308104D0308104D0308104D0308104D030810FF
:400180004D0308104D0308104D0308104D0308104D0308104D0308104D0308104D0308104D0308104D0308104D0308104D0308104D0308104D0308104D0308104D030810BF
:4001C0004D0308104D0308104D0308104D0308104D0308104D0308104D0308104D0308104D0308104D0308104D0308104D0308104D0308104D0308104D0308104D0308107F
:400200004D0308104D0308104D0308104D0308104D0308104D0308104D0308104D0308104D0308104D0308104D0308104D0308104D0308104D0308104D0308104D0308103E
:400240004D0308104D0308104D0308104D0308104D0308104D0308104D0308104D0308104D0308104D0308104D0308104D0308104D0308104D0308104D0308104D030810FE
:400280004D0308104D0308104D03081010B5054C237833B9044B13B10448AFF300800123237010BD7C76020800000000B4910810084B10B51BB108490848AFF30080084814
:4002C000036803B910BD074B002BFBD0BDE81040184700BF0000000080760208B491081038470208000000007047FFF7FDFF72B6104C114DAC4209DA21686268A368043BD0
:40030000A2BFC858D050FAE70C34F3E70B490C4A00209142BCBF41F8040BFAE709480A490860BFF34F8F00F0B1F900F08BF900F047F8FEE7CCB60A10E4B60A107C760208D6
:40034000148802080040020808ED00E0FEE7FEE700B504207146084202D0EFF3098001E0EFF30880043001F031F9FEE710B544F20803984207D00C4645F2010398420AD060
:40038000B0F5805F11D10021084602F075FD0022064B1A6010BD0122044B1A600978044805F00AF92278034B1A7010BD9876020868760810A487020808B52AF00FFD08BD6F
:4003C00000B587B062B603F0BBFE274800F08CF901E02AF003FD254B1B78022BF9D1244802F04CFA234B5B68632B03DC0133214A536002E000221F4B5A601F4B0193022395
:40040000ADF808301223ADF8143003AB01AA92E8030083E803001946184802F01FFF18B9174805F03BF91AE0164A904203D1164805F034F913E0154A904203D1144805F08C
:400440002DF90CE0134A904203D1134805F026F905E0124A904202D1114805F01FF90A2001F078F8BEE700BF6D030810B0870208B9030810987602089C760208AC870208AF
:400480009476081007001600A876081001001600B476081002001600C076081017001600CC76081008B5012000F0A0FE08BD00BF704700BF5C4AD2F8803303F00F0303F1FF
:4004C000D00152F8212002F00702032A04D0042A05D092B9554914E0554A116811E003F1C002514951F8222002F01F02112A06D0132A04D04FF4FA4103E04E4901E04FF48F
:4005000000418BBB484BD3F8902502F00100D3F88825C2F30172D3F8883513F0405F07D0414BD3F88835C3F30173012B02D102E0012300E0002303B108B9032A46D13A480C
:40054000D0F88025C2F31103D0F88425C2F30C02D0F88005C0F300600130B1FBF2F202FB03F2B2FBF0F131E0012B2FD12E4BD3F8402602F00100D3F80026C2F30172D3F8B2
:40058000003613F0405F07D0274BD3F80036C3F30173012B02D102E0012300E0002303B108B9032A12D12048D0F8002602F07F02D0F80036C3F30423D0F80006C0F30440F9
:4005C00002FB01F2B2FBF3F2B2FBF0F1164BD3F88033C3F3011321FA03F215494A601648D0F89030C3F3072301330069000E0130B2FBF0F08860B2FBF3F3CB600B6103F5F1
:40060000742202F23F220D48A0FB0202C2F387420A7503F2E7330A4AA2FB03239B098B61DB03CB61704700BF0000264000127A008C42020800366E010000214083DE1B4319
:40064000D34D621008B50D4801F0F2FBFFF730FFFFF730FF00221146042000F04BFB084800F022FC074B1B6893F8513013B1064800F08AFC00F01EF908BD00BF607C081095
:40068000A4760208A8870208D876081008B500F0F8FF074AD2F8883043F47003C2F88830BFF34F8FBFF36F8F00F0EFFF08BD00BF00ED00E010B504462146034801F0E8FBE0
:4006C0000028F9D010BD00BF00006640054BD3F80833C3F30803002BF8D0024BD3F84003704700BF0000664008B518B1094AD062002000E0084858B9084B1B782BB90548D3
:4007000001F0F6FF0122054B1A7008B902F01AF808BD00BFAC4202080100160024780208C0F30800B0FA80F0400970471F4B98422DD00CD840282ED003D8E8B1102828D0D4
:400740002FE0802829D0B0F5807F28D029E0184B984228D006D8B0F1204F0DD0154B984212D01EE0144B98420AD00133984209D0023B984215D101E0002070470F4870474D
:400780000F4870470F4870474FF4A0007047074870470D4870470D4870470D487047034870470C4870474FF4A400704706005200010000F0090000A0040000F00100520075
:4007C0000200520003005200010050000200500005005200FF00520038B5124B1B6893F83130012B04D840F2C3110F4800F0D6FE0C4B1D682A6AB5F8B03013442C46D5F890
:40080000B420D358002B0BDB084B1868FFF78EFF6B6801229A6063689B68002BFBD138BD034838BDA8870208DC7808104C780208020050001A4B186128B102230370FF2332
:40084000437000234380174B1B6893F850202AB300B583B0B3F93830ADF80030002301931149684600F03CFEBDF90030002B08DB590903F01F03012202FA03F30B4A42F859
:400880002130084B1B6893F8513023B102220849012000F025FC03B05DF804FB704700BF4C780208A8870208A947020800E100E06148020808B50248FFF7BCFF08BD00BF5C
:4008C0006078020838B505460C46FFF729FF002833D0002C33D0FFF7EDFD1A4B1A4A1A6000225A609D60DC60184B1B6893F85220EAB11968D3F88430CA58CB58C3F307213B
:40090000120E531C01FB0333114901FB03F3114A12681149A1FB02218909B3FBF1F101F5195108314FF4807006F096FE38BD00214FF4807006F090FE38BD084838BD0748EE
:4009400038BD00BF4C78020800010005A8870208C0EA210190420208D34D62100600520008B5FFF739FF08BD10B50446FFF7D8FE00283AD0FFF79EFD4FF0E0521C4B1A6084
:400980001C4B1B7813F0FF0F04D0194A136843F480731360164B5C6000229A60DA60164B1B6893F85420DAB11968D3F88430CA58CB58C3F30721120E531C01FB03330F49C0
:4009C00001FB03F30E4A12680E49A1FB02218909B3FBF1F101F69801002006F03DFE10BD0021084606F038FE10BD074810BD00BF4C7802080B000016A887020860F59000FD
:400A000090420208D34D62100600520038B505460C46FFF785FE00283DD0002C3DD0FFF749FD4FF0C0621E4B1A601E4B1B7813F0FF0F04D01A4A136843F480731360184B3F
:400A40004FF480725A609D60DC60174B1B6893F85320DAB11968D3F88430CA58CB58C3F30721120E531C01FB0333104901FB03F30F4A12680F49A1FB02218909B3FBF1F1A5
:400A800001F56171002006F0E7FD38BD0021084606F0E2FD38BD084838BD074838BD00BF4C7802080B000016A8870208808D5B0090420208D34D621006005200002861D04F
:400AC000F8B5054600295FD00C460B6833F0FF0303D099212D4800F061FD236933F0FF0303D09A21294800F059FDA3685B0D5B051BB19B21254800F051FD636823F4FF731C
:400B000023F001031BB19C21204800F047FDE36913F0604F03D09D211C4800F03FFD236A13F0604F03D09E21184800F037FD184A11688B69EB1ADB0949691B01C818266811
:400B40002E60166896F87D60E768AF51166896F87E602769AF51166896F87F606769AF51166896F87C60A768AF516668AE61126892F88020A669AE50E269CA50236A436060
:400B80000020F8BD034870470248F8BD1C790810A887020801005A0038B50B4B1B68D3F8B4301B58002B0DDA0D4604460B0C1B0423B140F2D521054800F0F0FCA9B2616010
:400BC000002038BD024838BDA88702089C79081001008A0038B50368002B01DA002300E0094B73B90D460446C2600B0C1B0423B140F2BB21054800F0D1FCA9B2A160002072
:400C000038BD014838BD00BF01008A009C79081038B504460D4619B99921084800F0BEFC074B1B68D3F8B4301B59002B03DAE3682B60002038BD034838BD00BFDC790810A3
:400C4000A887020801008A00254B1B6893F8313083423AD900293AD00B6813F01F0F38D170B50D4604461E4B1B6893F83130984204D340F2C3111B4800F090FC184B1B6803
:400C8000186AB3F8B03004FB0304174E34602A68D2080021686804F015F800212046FFF77BFF346825B940F293310E4800F076FC2A4600212046FFF78DFF60B900210A4BA3
:400CC0001868FFF769FF40B970BD084870470748704706487047064870BD054870BD00BFA88702089C7908106478020803018A0001018A0010B504461346B2B9A9B9124B32
:400D00001B6893F83130984204D340F2C3110F4800F044FC0C4B1B681A6AB3F8B03004FB03240B4B1C60002010BD43B149B1084A51609360111D2046FFF786FF10BD05482B
:400D400010BD044810BD00BFA88702089C7908106478020803018A002DE9F0411B4B1B68DC68236883422CD90D464609A0EB4610012303FA00F819B900F083FC074600E021
:400D80000027124B18680368002B01DA002300E00F4B83B9626852F8263018EA030F05D148EA030342F82630002400E0094C0021FFF7F2FE00E0084C25B9384600F065FCC8
:400DC00000E0064C2046BDE8F08100BF6478020801008A00020188000301880004018A002DE9F0411B4B1B68DC68236883422CD90D464609A0EB4610012303FA00F819B938
:400E000000F03FFC074600E00027124B18680368002B01DA002300E00F4B83B9626852F8263018EA030F05D023EA080342F82630002400E0094C0021FFF7AEFE00E0084C01
:400E400025B9384600F021FC00E0064C2046BDE8F08100BF6478020801008A00020188000301880004018A000B4B1B68DB681A6882420CD94109A0EB4110012202FA00F009
:400E80005B6853F82130184203D004487047044870470448704700BF647802080101880004018A0000018800024B1B680BB9014B18607047707802082DE9F84304468846EC
:400EC00091461D46089F2C4B1B681BB9B5212B4800F064FB284B1B682C2000FB04F01C18EEB21E50C5F3072363602D0CA560244B1B6893F831309E4204D340F2C311214851
:400F000000F04CFB1E4B1B68196AB3F8B02006FB02162661666893F832309E4204D340F2DF11184800F03AFB154B1B681D6A803605EB46156561A668330C1B0423B14FF423
:400F4000FF71104800F02AFB330C1B0423B140F2FF110C4800F022FBB3B243EA0646AE60C4F81C90C4F820800023A36117B1B7F90030A381BDE8F883707802081C7A08105C
:400F8000A88702089C790810F0B58FB0044618B95221274800F002FBA369072B03D95621234800F0FBFAE36A1BB95821204800F0F5FA236B1BB959211D4800F0EFFA07AD6D
:400FC00004F114060FCE0FC537682F6002AD26460FCE0FC533682B60164B1B68B3F93620079B1344ADF83030089B0D93A26AE16A0CAD00953B460A98FFF75EFF002100911D
:40100000069B0A460598FFF757FF216B284600F067FABDF93030002B08DB590903F01F03012202FA03F3044A42F821300FB0F0BD1C7A0810A887020800E100E0F8B50646F5
:401040000F461D4614461AB9FD211F4800F0A6FA1E4B1B681BB9FE211B4800F09FFA1B4B1B682C2101FB063001FB07314B68012202FA03F31B04466802FA06F60269EAB17C
:401080008F69EFB91268002A01DA002200E0104AC2B92288134323600369DC6001238B614D620469330C1B0423B140F2BB21094800F074FAB2B2A2600020F8BD0648F8BDB6
:4010C0000648F8BD0548F8BD1C7A08107078020801008A009C79081004028A0007028A00F8B505460F4616460E4B1B6823B94FF4AF710D4800F052FA0A4B1B682C2404FBF4
:401100000534236A23B94FF4B171074800F046FAE369B34204D9236A43F826700020F8BD0248F8BD707802081C7A08100A028A0070B582B000230193044620B940F2D1115E
:40114000284800F02BFA236923B94FF4E971254800F024FA636923B940F2D311214800F01DFA236A23B94FF4EA711E4800F016FA6369DD682A0C20D012041A601B682069FC
:40118000194B1B68D3F8B430C358002B15DA01A9FFF73EFD60B9019803681E0CDBB2E269934206D2226A52F8233013B1984700E0002631462069FFF7EFFCADB275B16369B9
:4011C000ADB21D601B68636A1BB198470023636202E0A36A03B198470023A36163691B6802B070BD1C7A0810A887020810B50446074B1B6823B940F2B111064800F0CEF9B9
:40120000034B1B682C2000FB0430FFF791FF10BD707802081C7A081010B50446094B1B689B6CC34013F0010F03D1BE21064800F0B5F9044B1B681B691034A402185900F02C
:401240000F0010BDA88702085C7A081010B504460D4B1B6893F83C30834204D84FF4A1710A4800F09BF904F1D003094A52F8230000F00700042806D1C03452F8240000F0EA
:401280001F0040F4807010BDA88702089C7A081000002640B0F5C26F80F09B80B2F5C26F80F09980B1F1807F80F09780F0B401244C4B1C70FF2805D800F00F000F263746C6
:4012C00007231DE0B0F5A06F05D200F00F030F260027384614E0C0F30325B0F5C06F07D20001C4B245EA0403FF260027384607E0030203F470632B4340F60F7600273846E9
:40130000FF2A09D81201D2B2104343F4E02347F0F00746F4702620E0B2F5A06F06D2120402F47022134346F4702616E0140A240404F470241C43B2F5C06F06D2130503F44B
:401340007003234346F47F0607E0120602F07063234346F0706646F47026234A1268156AB2F8B020C2EBC202AA58002AF5DA1D4A527822B11D4AD2F81C25002A1DDA41F6B5
:401380001F741B4A146043F63D54043A1460A2F58272D2F8184524EA07073843C2F81805D2F8140520EA06063343C2F814350D4B5960C2F81C15002000E00E480A4B1A688A
:4013C000116AB2F8B030C3EBC3030B4400225A6005E0084870470748704706487047F0BC704700BF74780208A8870208000026400801264001004A0070B505460022214BE3
:401400001A70214B1B681A6AB3F8B030C3EBC303D418D358002BF4DA1C4B1A6841F61F739A4207D11A4B1A6843F63D539A4203D0002602E0002600E00126164BD3F8202535
:4014400022F07F4000226260D6B1D0B165B90D4B5E684408002502460023E1FB06452046294603F089FA70BD064B5A68540800250023E1FB00452046294603F07DFA70BDB4
:40148000002070BD74780208A887020808012640040126400000264038B50D4B9A680D4B9A420FD10D46044621B940F237110A4800F074F804F11003064A52F8230042F877
:4014C000235038BD1030054B53F8200038BD00BF00ED00E000400208247B08100000081048B338B504460D464368072B03D93221134800F053F8B4F900306268002B08DB13
:401500005201D2B203F1604303F5614383F8002305E003F00F035201D2B20A49CA540A4B9A680A4B9A4208D12946B4F90000FFF7B3FF002038BD06487047002038BD00BFBE
:40154000247B081014ED00E000ED00E0004002080100560010B5044605E0084B186800F087F8A4F50044B4F5004FF6D8044B186800FB04F000F07CF810BD00BFA8420208EA
:40158000A442020808B5034B1B7800FB03F000F06FF808BDA042020801BEFEE738B50D46044C18220146204604F088F8A5610020FFF7F2FFD84C0208024B1B685B68012227
:4015C0009A607047A8870208FEE700BF08B50268254BDA6142681A6282685A62C2689A620269DA6242691A6382695A63C2699A631E4A916AD963D16A1964516A5964516B6F
:401600009964926BDA64F1EE103A13F0900F27D0026A154B1A65426A5A65826A9A65C26ADA65026B1A66426B5A66826B9A66C26BDA66026C1A67426C5A67826C9A67C26C75
:40164000DA67026DC3F88020426DC3F88420826DC3F88820C26DC3F88C20026EC3F89020FFF7B2FF08BD00BFD84C020800ED00E00230800803D001300238FCD100BF00BF25
:401680007047EFF3108072B6704780F3108870474FF0B0539B899BB223B14FF0B0539B899BB201E04FF48073B3F5807F15D1174A13681868D3F89810435823F00F0343F0C0
:4016C0000203435013681968D3F89C208B5823F00F0343F002038B50704710B40B490B681C68D3F898000A4B1B6823F440732258134343F4407323500B681A68D3F89C3030
:4017000004490968D1505DF8044B7047A887020848180016441800164FF0B0539B899BB223B14FF0B0539B899BB201E04FF48073B3F5807F15D1164A13681868D3F89810A2
:40174000435823F00F0343F00303435013681968D3F89C208B5823F00F0343F003038B50704730B40A4803681D68D3F8984009490B6823F440732A59134343F440732B51F0
:4017800003681A68D3F89C300968D15030BC7047A8870208201800164FF0B0539B899BB223B14FF0B0539B899BB201E04FF48073B3F5807F0BD10D4B1B681968D3F8982036
:4017C0008B5823F4E04343F4C0438B507047074B1B681868D3F89810054B1B6823F440734258134343F4407343507047A8870208181800164FF0B0539B899BB223B14FF032
:40180000B0539B899BB201E04FF48073B3F5807F0BD1114B1B681968D3F898208B5823F4E04343F480438B50704730B40A4803681D68D3F8984009490B6823F440732A5933
:40184000134343F440732B5103681A68D3F89C300968D15030BC7047A88702084C18001608B54FF0B0539B899BB223B14FF0B0539B899BB201E04FF48073B3F5807F17D1A3
:401880000E20FFF7C9FC4FF0B0535B7813F0FF0F04D04FF0B0535B78DBB200E02123222B02D818B9012008BD012008BD002008BD012008BD10B50446012804D940F26271D6
:4018C0000F48FFF76BFE1CB90E4B5869C00F00E000200D4B1B6893F844307BB1012C0DD1084B9B6913F0804F05D1064B9B69002B03DA012010BD012010BD002010BD00BF7F
:40190000687B081000002640A887020838B5154B1B6893F8443023B30D460446072804D940F2CC711048FFF739FE0E4B1B6893F8443023B10D4B9B6903F0070300E00023C0
:40194000DBB29C420DD00948826922F0070104F007020A43826125B19C4202D9C820FFF711FE38BDA8870208687B08100000264010B30246C3680BB303680BB330B4057912
:40198000114B03EB85035C682346002103E0934205D019465B69002BF9D1012000E0002080B124B9084B03EB85056A6000E04A6111610023536105E0002070470020704737
:4019C0000020704730BC70478078020850B310B402460479164B03EB840359680B4602E0934204D05B69002BFAD1002000E00120D0B18A420ED14B6933B10D4A02EB840401
:401A0000636000221A610FE0094B03EB84040023636009E01A69596951615A6922B11B69136101E0002070475DF8044B704700BF8078020830B583B004460D46022808D9A5
:401A4000042806D0032804D040F6B2112848FFF7A5FD6B1EDBB2012B08D9042D06D0082D04D040F6B3112248FFF798FD214800EB84004468042D12D0012D1AD111E0A36896
:401A80001D420AD1E3681A6800925B6801932368294668469847174B9C61646902E0002000E0002014B3144B9842E8D1012DE6D11CE0022D01D104E01C466369002BFBD1DD
:401AC00003E00C4B9C6904B1246900200CE0A3681D4208D1E3681A6800925B68019323682946684698472469002CF0D103B030BD687B081080780208FF00420070B5054611
:401B0000012804D94FF4E0711D48FFF747FD1D4B5B682BB101210020FFF78CFF044600E000242CBBFFF7ADFD0646164B5B681BB104210020FFF77EFF134A136923F00403E6
:401B40001361012D01D030BF07E020BF0D4B1B7803B120BF01220B4B1A703046FFF795FD084B5B684BB108210020FFF763FF04E002210020FFF75EFF044C204670BD00BFEF
:401B8000687B08108078020800ED00E0FF00420008B5FFF776FD074B5A6807490A4042F468525A605A68114059605B68FFF76DFD08BD00BF00002640FF00FC0FF8B50546C1
:401BC000012804D940F64C213948FFF7E7FC4FF0B0535B7813F0FF0F04D04FF0B0535B78DBB200E021239CB24FF0B0539B899BB223B14FF0B0539F89BFB201E04FF4807757
:401C00000E20FFF709FB98B9B7F5807F12D1222C12D8284B1B6858684FF21801435823F080722B0603F0807313434350002604E0214E02E0204E00E01F4EB7F5807F01D122
:401C4000222C02D8B7F5807F2FD01A4B1B6893F83130012B04D840F2C3111848FFF79EFC144B1B681C6AB3F8B0301C44B7F5807F02D125B1124A05E01DB1124A02E0124A70
:401C800000E0124A01212046FEF7A4FF68B9094B1B68D3F8B4301B59002BF8DBE36803F07F43B3F1204F00D100263046F8BD00BF687B0810A887020804004200DC780810D5
:401CC000010100300300000C010000300100000C70B50446022806D0052804D040F202711E48FFF75BFCFFF7BBFDA0B3FFF7C9FC0646022C07D10120FFF760FF054678B99D
:401D0000FFF7C6FC0CE0164A536923F0070343F0030353613420FFF735FCFFF76BFD0025ADB90F494B6923F0070204F0070313434B61022C02D1FFF72FFD08E09120FFF79B
:401D400021FCFFF7E9FC0020FFF738FF05463046FFF79BFC00E0034D284670BD687B08100000264003004200F8B50446012804D94FF402612A48FFF711FCFFF771FD0028BB
:401D80004AD0FFF77EFC07468CB9002147F63073244AD1504FF0B05393F84067F6B20120FFF70CFF0546D8B9FFF772FC18E01E4B19681C4A47F63073D1504FF0B05393F8E3
:401DC0004167F6B24FF61C71535823F01F0343F00B0353500320FFF7D5FBFFF70BFD0025B5B910494FF61C728B5823F01F0306F01F061E438E5014B9FFF7CEFC08E0072049
:401E0000FFF7C0FBFFF788FC0020FFF7D7FE05463846FFF73AFC00E0044D2846F8BD00BF687B0810000026401018001603004200014B1860704700BFA887020810B4D0F8A1
:401E4000003303F00F03072B06D900230DE0D0F84043CC54013300E000239342F7D306E0D0F8404321F8134001339342F8D35DF8044B704710B51446D0F80833C3F3080319
:401E80009A4200D31C462246FFF7D8FF204610BD036813F4006F01D0802200E04022D0F80832C3F30803934203D0C0F84012012070470020704700BF10B4D0F8003203F07F
:401EC0000F03072B06D900230DE0CC5CC0F84042013300E000239342F7D306E031F81340C0F8404201339342F8D35DF8044B704710B51446036813F4006F01D0802200E059
:401F00004022D0F80832C3F30803D31AA34200D81C462246FFF7D0FF204610BD2DE9F84305460C46036813F4006F02D04FF0800801E04FF04008D5F8007207F00F07A26AE8
:401F4000012A19D9D4F82490E262561EB9F1000F00D026B940F273512548FFF71FFB324649462846FFF7C4FFA36A1B1AA362072F00D9400048446062D5F80832C3F3080357
:401F8000984533D0A36A012B30D10023A362072F02D8636A1E7801E0636A1E88FFF771FBC5F840624FF40073C5F8803FD5F8803FFFF76BFBD5F8883F23F4007222F001020B
:401FC00042F4007623F4EE6323F0030323B140F22A410848FFF7E2FAC5F8886F236843F002032360236B0BB101209847BDE8F883187D0810587D08102DE9F04105460C463F
:40200000036813F4006F01D0802600E040267608A769D4F81C8017B1B8F1000F04D14FF499613148FFF7BAFA424639462846FFF721FF236A03442362E3691B1AE36173BB80
:40204000A368FBB1E3689E4201D8013E00E05E1E2B6813F4006F01D0802300E040239E4204D34FF420712148FFF798FAD5F8043323F0FF03F6B21E43C5F804630123C5F8A7
:40208000C83F02E00023C5F8C83F636823F001036360236B33B304209847BDE8F081A169D5F8002302F00F02072A00D940000844A0619E4216D95C1E2B6813F4006F01D067
:4020C000802300E040239C4204D34FF420710748FFF764FAD5F8043323F0FF02E3B21343C5F80433BDE8F081187D0810587D0810002800F0A48170B50546002900F0A1813F
:4021000016460C460B78022B03D93F21A248FFF745FA637B023BDBB2062B03D940219E48FFF73CFAA37B3BB1022B05D0032B03D041219948FFF732FA94F82130012B03D967
:4021400042219548FFF72AFA94F82830012B03D943219148FFF722FA2378012B06D86368083B082B94BF0023012307E0A37F2BB16368013B062B94BF002301231BB1452161
:402180008548FFF70BFAA368053B042B03D946218148FFF703FA6369FF2B03D947217E48FFF7FCF9A369FF2B03D948217A48FFF7F5F9A37C6BB1237833B9A368092B05D1FB
:4021C000A37B2BB1012304E0012302E0012300E000231BB14A217048FFF7E0F9636B23F4366323F00D031BB14C216B48FFF7D6F9E36B23F4EE6323F003031BB14D216648E9
:40220000FFF7CCF92378022B01D1A37F13B16268013A00E00022237F13B14FF4803100E00021A368082B02D84FF4006300E000230B4302F00F02134343F000732B60226BDB
:402240002B6813F4006F01D0802300E040239A4203D362215048FFF7A1F9A26B2B6813F4006F01D0802300E040239A4203D363214948FFF793F9626A2B6813F4006F01D085
:40228000802300E040239A4203D364214248FFF785F923781B0603F040732B64637F0BB1402200E00022A37C13B14FF4806300E000231343227C12B14FF4807200E0002216
:4022C0001343627C12B14FF4007200E000221A43E36A013B1B0403F470231343627B013A02F007021343A27B120102F030021343AB64237B13B14FF4807200E00022E37B32
:4023000023B92378022B03D1012302E0012300E0002313B14FF4007300E000231A43A368013B03F00F031343C5F80033227DA3691B0403F47F031343C5F81033E26AD5F8DA
:40234000003303F00F0303339A4201D3102A03D97A211148FFF722F9E37F23B12378012B03D0002302E0002300E0012313B14FF4807200E00022637B013B03F007031A43B9
:40238000A37B1B0103F0300313436B64237B2BB14FF4807203E000BF9C7D08100022A368013B03F00F0313432278012A02D14FF4803200E000221343C5F8003294F8303092
:4023C000C5F8043394F8203013B14FF0007200E0002294F82130012B02D14FF0807300E00023134394F82820012A02D14FF4803200E00022134394F8242013432B6594F8CE
:402400003830C5F80432636B23F4926323F002031B051B0DC5F8C83FE36B23F08C035B055B0DC5F8883F76B1002070603060B060F0603062F0623063044B736370BD0448EB
:402440007047034870BD002070BD00BFEFCDAB000160AA000B694A69934202D34869181A7047CA694869101A184470472DE9F04107460D46036813F4006F02D04FF08008C2
:4024800001E04FF040084FEA5808D7F80863C6F308062C6926E00134EB689C4200D100246B699C420FD12B6B0BB1082098476B699C4208D10023C7F8C83F0CB1013C13E0D8
:4024C000EC68013C10E0D7F84023D7F8003303F00F03072B02D8AB681A5502E0AB6823F81420013E002ED6D12C61EC6829463846FFF7B0FF201A804519D908B1441E00E0DD
:4025000000243B6813F4006F01D0802300E040239C4204D34FF420710648FFF73FF8D7F8040320F0FF03E0B21843C7F80403BDE8F08100BF587D081038B504460D46D0F8F4
:40254000003E13F0080F35D0D0F8CC3F13F448730AD04A681A434A60C0F8C03FD0F8C03F0B6B0BB110209847D4F8CC3F13F4006F09D06B6843F400636B604FF40063C4F857
:40258000C03FD4F8C03FD4F8CC3F13F0010F11D0EB6923B129462046FFF72EFD05E0AB681BB129462046FFF761FF0123C4F8C03FD4F8C03FD4F8003E13F0040F2ED0D4F8E5
:4025C0008C3F13F4A0630AD02A681A432A60C4F8803FD4F8803F2B6B0BB120209847D4F88C3F13F0010F08D029462046FFF796FC0123C4F8803FD4F8803FD4F88C3F13F495
:40260000007F0BD00022C4F8882F2B6823F001032B60EA622B6B0BB10220984738BD00BF38B5012902D0082942D047E0284B1B78012B45D00320FEF717FC264B984241D002
:4026400001F02AFD01283FD0022006F03AFF0546FFF717F8204B186028F0C2FB0446062815D0022D09D1022015F01EF9032C01D0052C0ED178B1194C12E0012015F014F94A
:40268000022C0AD058B9FFF739FA144C08E0002406E0124C04E0002402E0104C00E00F4C0E4B9C4211D10C4B1868FEF7EEFF0CE0094B1868FEF7E9FF002406E0074C04E0F7
:4026C000064C02E0054C00E0044C204638BD00BFB087020801018800BC780208FF00420008B50248FFF772F908BD00BFC8430208B0B110B50B4A5060C36A03B1936000249D
:40270000094B1C70094B1C70094B1C60094B1C7000F0AAFB084B1C70084B1C70204610BD07487047BC780208C4870208C8870208CC870208C9870208AF870208B487020875
:402740000100160070B59AB0404D15AC28686968AA68EB680FC4286920604C22002102A802F0B0FA3A4B029315AB049342F61013ADF8143005238DF81630364B5B681B6996
:40278000069341F2960307931B23ADF82030ADF8223003238DF8243004238DF8253006238DF8263010238DF827308DF828308DF829307A23ADF84C3001238DF850302648CD
:4027C000FFF7D6F806F076FE06F06DFE08A806F0DDFE0346002836D1204B03931D4B5B68996B89B10B460DF12A0220311E685D689C68D868166055609460D06010331032B8
:402800008B42F3D11B88138002A806F067FE0346B0B90122124B1A700023124A1370124A13700C4B5B681A6A00929B6ADB88ADF804300823ADF8063068460EF057FF03466D
:4028400000210A4A116018461AB070BDDC7D0810D1330810BC780208C84302086C4D0208B0870208B8870208B9870208CC870208014B9867704700BF00F03D4018B1034A05
:40288000D060002070470248704700BFBC7802080100160008B51BF04BFF034B1B680BB100B1984708BD00BFC878020848B108B5B1F5FD7F07D20A46044902F0F8F90020AE
:4028C00008BD03487047024808BD00BF07080016010016002DE9F04FADF5077DB1F1805F03D38D189D4CA54210D9B1F1A05F03D38D189B4CA54209D99A4CA14240F20F8180
:402900008D1804F20124A54200F20E81049317460E468046944B5B6913F0804F10D0924B5C6904F00704022C24D10520FFF7D0F900908E4B9842F8D002940123039323E006
:402940004FF61C73884AD35803F01F034FF0B05292F84027D2B2D31A18BF012303937BB90120FFF701FA814B9842F9D000900523029309E00294012303930023009303E069
:402980000523029300230093794B009A9A4204D140F2D5117748FEF701FE06F17046730A01935C0200210320FEF7D6F90028F9D10546824683E0B44213D3BD4211D218F870
:4029C00005200DF1180E0EF8032041B904F180521278D2B218F805E0724500D00121013506E004F1805212780DF1180E0EF803200134013301E000210B46B3F5007FDAD3AE
:402A0000002959D0009B002B56D1049B002B48D14FF0C80B05955D46DDF804B00BF500294FEA49294846FDF79FFF8246013D0120FEF7A8FD0AF4A403B3F5A40F01D1002DE8
:402A4000ECD1059D4C4B9A4505D1FDF789FF4B4B9842FAD08246BAF1000F17D14FF0C80B5B46A3461C4606A94846FDF7CFFF8246013C0120FEF786FD0AF4A403B3F5A40FF0
:402A800003D1002CEFD15C4600E05C463A4B9A4511D1FDF765FF394B9842FAD0824601200AE0019B03F5002006A94002FDF70AFF8246012000E00120019B01330193009B0E
:402AC00023B9BAF1000F01D1BD4294D308B1FEF773FD00210320FEF783F90028F9D1009B33BB214B5B6913F0804F09D0029B022B06D10220FFF7ECF800901C4B9842F8D0A9
:402B0000194B1B6813F4000F12D1039B83B90020FFF72AF90090154B9842F8D008E000230093DFF86CA003E000230093DFF860A0009B63B9124B9A450BD004339A4508D063
:402B4000BAF1000F01D1002004E00E4802E00E4800E00E480DF5077DBDE8F08F0000101000800014FF070016000026400400420003004200F07E081001005000020050006D
:402B8000020052001300160012001600010016000600520048B108B5B1F5FD7F07D20A4601230449FFF796FE08BD03487047024808BD00BF070800160100160070B5C0B09F
:402BC00006460C4615464FF480720849684602F06EF805E016F8012B6A401DF80250013C002CF7D1284640B070BD00BFF07D081008B50022FFF7E2FF08BD00BF002070470F
:402C00000288AE2303FB02F3A3F26F33024AA2FB0323DB080B807047CDCCCCCCB0F9002042F64B0303FB02F3044A82FB0302DB17C3EB2233C3F1BD030B807047AD8BDB6872
:402C40000020704708B514F057FC08BD08B5FEF799FC08BD084B1B685B6BB3F90030002B08DB590903F01F03012202FA03F3034A42F82130704700BFC078020800E100E035
:402C80000A4B1B685B6BB3F90030002B0DDB5A0903F01F03012101FA03F32032044941F82230BFF34F8FBFF36F8F7047C078020800E100E0024BD3F8000500F00300704711
:402CC00000002640024BD3F81C05C00F704700BF0000264008B5FEF78FFB08BD70B504460D4616460320FEF7BFF8054B984205D0324629462046FEF7CDFA70BD014870BDF1
:402D00000101880003004A00431A002BB8BF5B4293422BD310B4194BD3F83C35C3F30903884207D9411A01EB5201B1FBF2F29A1A0FD50AE0091A01EB5201B1FBF2F21A4481
:402D400040F2FE318A4202D803E0002201E040F2FF320A4CD4F83C1521F47F7121F00301C2F309000143C4F83C1502E00023D81A7047981A5DF8044B704700BF0000264087
:402D800008B5034B1A684FF40041FFF7BDFF08BDE043020810B501F033F80220FFF768FD0A4C23680A49586BFEF79AFB23685B6BB3F90030002B08DB590903F01F030122AA
:402DC00002FA03F3034A42F8213010BDC07802089528081000E100E00420704708B5FEF750FC08BD08B5FEF750FC08BD08B5FEF785FE08BD08B50021FEF788FD08BD00BF2D
:402E0000704700BF704700BF0020704700487047110016000048704711001600004870471100160000487047110016000048704711001600004870471100160000487047EC
:402E4000110016000048704711001600004870471100160000487047110016000048704711001600704700BF08B5024800F046FE08BD00BFC4430208F8B5022872D8002903
:402E800072D10022134606E03B4CE45C012C01D90132D2B20133002BF6D0012A0CD1374B1B681C6801EB8102930023445B681B79023BDBB2012B59D8314B1B78002B57D1EA
:402EC000304B1970E0B92D4F3C68236801EB8105AA009D186668C1EBC1014B001E44B18829822168114449686468E45A0C8039680C682244526849680B445B8853801EE0DE
:402F000001281CD11D4F3C68236801EB8105AA009D186668C1EBC1014B001E44B1892982216811444D68616819440989298039680C682244526849680B445B895380124B04
:402F400018700E4B1B6818680E4B1B7803EB83039A0010440AF0E2F8034650B90121084A117006E0094B04E0084B02E0084B00E0084B1846F8BD00BFB8870208C0780208CE
:402F8000B9870208AE870208C98702080100160002001600FF00160070B439B9144B1B681B689968CE7F00231D460EE0104B1B681B68D968CE7FF6E7CA5C52B10133CC5C5C
:402FC0001B2C01D0134400E00125B34201D2002DF2D05DB101338279CA54002204E0D4180134855C0D550132052AF8D970BC7047C078020870B504460EF092FB054620BB68
:40300000134B1968086A228902EB82029300143B03445A6812F0007F17D0E67B1B695A68CB69D21A06EB8606B318A28821680948184401F03CFEE37B074AD35C012B04D157
:40304000064A137843F002031370284670BD00BFC0780208BC870208B4870208AF87020830B587B002891A4B1B685B699B889A4229D1044601AB07C883E807000022ADF802
:403080001020A289ADF8122040228DF814201846FFF7B0FF054680B923681B7803F002039BB22BB10B4B1B6821460B48984704E0084B1B68214609489847094A137803F069
:4030C000FE03137000E00025284607B030BD00BFC0780208C47802080500010006000100C48702084288531E9BB2122B1AD84178D1B910B40F4B1868046A02EB8202930082
:40310000143B23445A6812F0007F0FD01B695A68C369D31A01EB81011944074B5B5A1380002004E0012070470120704700205DF8044B7047C0780208BC870208C8B1104B61
:403140001B68196A038903EB83039B00143B0B445B6813F0007F0ED100B587B001AB00210491059107C883E807001846FFF742FF03E00E2070470120704707B05DF804FB87
:40318000C0780208F0B583B000283ED006460388ADF804309DF8053013B92348C35C00E00023012B34D9132935D87378D3B100251E4834E0601800EB80008300143B7344F0
:4031C000586810F0007F0BD070781B695B68FD695B1B00EB8000164D2844C35C13800125013401E000242546124B1F68D7F820E001EB81008300143B73441B895B1A9C4253
:403200000CD8002DD6D0094809E00025074806E00025094803E00025044800E0034805B1002003B0F0BD00BFB887020801001600BC870208C07802080700160000B583B065
:403240000DF10602FFF79EFF20B9BDF8060000F0010000E0002003B05DF804FB30B3034631B330B587B00288ADF804209DF8052012B91448825C00E00022012A1AD91D4668
:403280000C460846FFF75AFFB0B921892846FFF7D5FF98B102AB94E8070083E807002A88ADF8142018460DF077FB08E00648704705487047054802E0054800E0054807B040
:4032C00030BD00BFB88702080100160007001600020016001700160000B583B00023ADF804308389ADF800300389ADF8023012238DF80430084B1B7813F0010F09D129B19D
:403300008DF8051068460DF027FB02E0C0680DF051FB03B05DF804FBC487020810B4044688B10023194606E0104A52F82320944200D1012101330D4A1279934206D200292C
:40334000F2D0002003E00021094800E0002050B949B9064B1B792BB9044A42F823400133137100E003485DF8044B7047D0870208010016000300160070B506460D460020A4
:40338000044606E0084B53F824302946304698470134054B1B799C4204D2044B1B7813F0010FEFD170BD00BFD0870208C487020883792BB100207047C25C32B9013300E037
:4033C0000023052BF8D9002070470120704700BF70B58CB004460D46BF4A137843F00103137044F20803984200F04C823CD842F20403984200F0F08019D841F2020398428A
:4034000000F0178108D8B0F5805F79D041F20103984200F00B8157E341F20303984200F0418141F20403984200F049834CE343F2190398425BD00AD843F20103984200F091
:40344000BC8043F21203984200F0B7803CE344F20603984200F01A8200F2CD8144F20403984200F032812FE345F20C03984200F0DD821BD845F20103984200F046820AD8E4
:4034800044F20A03984200F0B38144F21003984200F0B18118E345F20203984200F0808245F20303984200F0B7820DE345F21003984200F0F6820AD845F20E03984200F0D3
:4034C000EA8245F20F03984200F0E882FCE245F21703984200F0EB8246F20103984200F0118245F21403984240F0EE82DCE2084606F090F9784A137803F0FE031370E3E208
:40350000764B1E683046FFF753FF60B130460AF06BFE724E00213068FFF73EFD01213068FFF73AFD37E06E4B1A68936A1B791BB34FF0B05191F8043603F03F0391F805068E
:4035400000F03F0043EA801391F8030600F01F0043EA003391F8001601F07F0143EA4143126B13705E4A1168096BC3F3072048701268126B1B0C9370594E3368186B0AF090
:4035800033FE33680021186BFFF706FD33680121186BFFF701FD524B1B68986A02300BF039FA504A05AB1068516803C305A80AF03FFE02224C4B1A7086E200234A4A1370E0
:4035C0004A4A13704A4A137043F212039C4240F07B82FFF785F877E2464B1B6813F0010F40F072820023ADF814308DF816303C4E33689B6A93F900308DF8143005A80AF004
:4036000031FE33689B6A93F901308DF8143001238DF81530FF238DF8163005A80AF022FE344A136843F0010313604DE2FFF7A4FE4AE24978304B1B88ADF81430002319E019
:403640002E4A32F81320ADF808209DF8092012B92B48825C00E00022012A0AD9274A12F81320914205D1254A32F81330ADF8143002E00133002BE3D09DF81530FF2B05D1D4
:4036800004D140F2CA311F48FDF788FFBDF81430ADF82030ADF81C30C3F3072329781A4AD15411E20B78002B40F00E820B7A33B9164B0022DA809A80154A1A604B60064AA0
:4036C000137803F0FE031370FEE149790A4B1B88ADF81430002337E0C4870208E4430208C07802082C7F0810B0870208B9870208E0780208CC870208347F0810AC8702082F
:40370000B8870208387F0810C8870208E87802087C760208AF4A32F81320ADF80C209DF80D2012B9AC48825C00E00022012A0AD9A84A12F81320914205D1A64A32F81330E7
:40374000ADF8143002E00133002BE3D09DF81530FF2B05D104D140F2CA31A048FDF71EFFBDF81430ADF82430ADF81430C3F3072369789B4AD154EB78002B40F0A58169792B
:40378000984B1B88ADF81430002319E0914A32F81320ADF810209DF8112012B98E48825C00E00022012A0AD98A4A12F81320914205D1884A32F81330ADF8143002E0013324
:4037C000002BE3D09DF81530FF2B05D104D140F2CA318248FDF7E2FEBDF81430ADF82830ADF81430C3F3072301217F4AD1546BE1FFF7C2FD68E1AB7E002B3FD12B7E012B1F
:4038000002D10022794B1A70E97E764B1B88ADF81030002319E06F4A32F81320ADF814209DF8152012B96C48825C00E00022012A0AD9684A12F81320914205D1654A32F8E2
:403840001330ADF8103002E00133002BE3D09DF81130FF2B05D104D140F2CA315F48FDF79DFEBDF81030ADF82C30ADF81030C3F30723FF2B02D0297E5D4AD15402225D4B28
:403880001A7021E102225B4B1A701DE1FFF774FD594B1B7813F0010F00F01681534B1B78012B03D10222514B1A700DE1032B03D100224E4B1A7007E1022B40F00581002255
:4038C0004A4B1A704D4B1B685B684D4A1178C1EBC10203EB42039A79002A00F0F5809B88002B00F0F180474B1B78002B40F0EC800120FFF7C1FA002840F0E68001223B4B93
:403900001A70E1E0FFF738FDDEE00B88ADF800309DF801301BB902212F4AD15405E023B940F286312D48FDF739FE6A782988294B23F812106B780021334AD15403EB8302E9
:40394000324E91192D4B1B6818692B7803EB830303F584531033034453F8060F90511B790B71687800EB800004213044FFF740F96B7803EB830333441B7998420BD0244B47
:403980001B680021234898476B7803EB8303981900229A51027129462046FFF7EDFC93E00B88ADF804309DF805301BB900210A4AD15405E023B940F286310848FDF7EEFDED
:4039C0006B780021084AD15429462046FFF7D4FC7AE000BFAC870208B8870208387F0810B4870208347F0810E0780208B9870208E4780208B0870208C4870208C078020849
:403A0000AE870208C9870208C8870208BC870208C4780208040001000B88ADF814301723ADF8163005A80CF0A3FF4DE00846FFF717FB014620B929462046FFF79DFC0146C2
:403A40002846FFF749FC294B1B7813F0110F04D0274B1B682946204698472A89234B1B7813F0010F11D0531E9BB2122B0DD912238DF81830ADF81620AB89ADF8143001234F
:403A80008DF8193005A80CF067FF184A137803F0FE03137018E0FFF76FFC15E0FFF76CFC12E0FFF769FC0FE0FFF766FC0CE00846FFF718FB29462046FFF75EFC04E00D4AE2
:403AC000137843F001031370084B1B7813F0110F09D0064A137803F0FE031370044B1B682946204698470CB070BD00BFC4870208C4780208AF8702080020704730B108B5CF
:403B0000034A10600348FFF709FC08BD02487047F4780208F93A08100100160038B50D4640F4004000040E4BD8614FF47A7403E0013C0120FDF726FD094B1B6C13F0010F23
:403B400001D1002CF4D144B1054B1A6C42F001021A64DB6A2B80002038BD024838BD00BF00003C400400160010B50F4B03EA004001430E4AD1614FF47A7403E0013C0120DF
:403B8000FDF700FD094B1B6C13F0010F01D1002CF4D134B1054A136C43F001031364002010BD034810BD00BF0000FF7F00003C400400160070B582B005460A244FF4C05106
:403BC00041F60260FFF7D0FF034630B90DF1060141F60260FFF7A2FF03460CB1013C00E0714B23B9BDF80620B2F5C05FE6D13BBB0DF1060141F60360FFF790FF0346F8B9D9
:403C0000BDF8062002F4806292B2CAB90A244FF4806141F60360FFF7A7FF034630B90DF1060141F60360FFF779FF03460CB1013C00E05D4B23B9BDF80620B2F5806FE6D174
:403C400033B90DF1060141F60960FFF767FF0346002B43D1BDF8063023F03F039BB2AA78012A12D1E978012904D88EB2C6F1020294B201E00024022643F07003ADF80630BC
:403C80004A4BCB404A4A136012E0E97821B98EB2C6F1010294B201E00024012623F0400343F01003ADF80630424BCB40404A1360BDF80610314389B2ADF8061041F60960E3
:403CC000FFF752FF0346EA78961B06F00306A20092B23243ADF8062037494A664FF0B052527812F0FF0F04D04FF0B0525278D2B200E02122212A53D0304A128892B2002A3B
:403D00004ED033B90DF1060141F60760FFF706FF034643BBBDF8063023F060039BB2ADF8063026490A88C2F3811243EA421323F428639AB2ADF806200B889BB2DB0103F4D4
:403D4000F063134323F4C0539BB2ADF806300988C1F3012143EAC121ADF8061041F60760FFF702FF034633B90DF1060141F60660FFF7D4FE03469BB9BDF8061021F0C001A9
:403D80008BB2ADF806300D4A1188C1F3011143EA8111ADF8061041F60660FFF7E5FE0346184602B070BD00BF040016000048E8018C4202080024F40000F03D401618001614
:403DC00038B50D4641F2010141EA400141F60860FFF7CAFE044630B946F6370141F60F60FFF7C2FE04466801FDF7CCFB204638BD024A136F43F010031367704700F03D4007
:403E000070B59CB0134C13AD26460FCE0FC50FCE0FC533682B600AAD04F124060FCE0FC50FCE0FC533682B6001AD48340FCC0FC50FCC0FC523682B6013A90748FCF73EFEC8
:403E40000AA90648FCF73AFE01A90548FCF736FE1CB070BD707F0810000132408001324000023240F8B5002800F0E7800546774B5B6813F4003F01D0FDF78AFE744C03E0EC
:403E8000013C0120FDF77EFB724BDB6E0BB1002CF6D1704BD3F8A03013F0010F06D06D4BD3F8B43013F0010F40F0C980694BDB6E002B40F0C680FFF7A3FF674901F5F83349
:403EC000664AC3F8A4202A7842F42022C3F8A8204FF00112C3F8AC20D1F8003113F0010F40F0B1805B4B1B6F13F0080F0AD15C4B1B685C4A934207D95B4AA2FB03231B0D75
:403F0000013B02E0012300E00023534A12681BB1564941EA433300E0554B13434E4A13604A4B5B6913F0804F13D001210320FDF7EDFC464B5B69C3F380734E4A126892F86E
:403F400044206AB163B1414A936943F08043936106E0404AD2F8C43043F00303C2F8C4303C4CD4F8A07047F4403343F03003C4F8A0304020FDF706FBD4F8B03013F0010F10
:403F80000BD10123C4F8B0304020FDF7FBFA0323C4F8B0304020FDF7F5FA27F4803727F0100747F4003646F020062A4BC3F8A0604FF4FA6403E0013C0120FDF7E3FA44F231
:403FC00010032D4AD35813F0100F01D1002CF2D10CB1002400E0294C1CBB1E4A936E43F0080393660120FDF765FC18B947F4003646F0280626F4802343F00103154AC2F853
:40400000A030134E03E0013E0120FDF7BBFA114BD3F8B43013F0010F01D1002EF3D106B9164C1CB92846FFF7C5FD044664B929786878FFF7C5FE044606E0114C04E0114CF6
:4040400002E0104C00E0104C2046F8BD00002640F07E0E0000F03D4000003C40060000019442020800093D0083DE1B43041A0080040A0080A8870208000032400400160003
:40408000010016000300160002001600014B1868704700BF8C42020810B5002405E02046FDF7D4F8032804D00134042CF7D9002010BD012010BD00BF074BD3F8003503F097
:4040C0000303012B03D0032B03D101207047012070470020704700BF0000264070B539B900240AE015F8010BFCF7E4FA013402E016460D460024B442F4DB204670BD00BFFD
:4041000070B561B900240FE0FCF7E0FAC0B2287001340A2808D00D2806D0013502E016460D460024B442EFDB204670BD08B502490248FEF701FA08BDD887020800006640B8
:4041400008B5114B1B785BB9104A11491148FDF7CFFF11491148FDF7C3F901220A4B1A700E4BB3F90030002B08DB590903F01F03012202FA03F30A4A42F82130054A1368D3
:4041800043F00043136008BDF8780208D8870208DC7F0810000066402D4108100C77081000E100E081F0004102E000BF83F0004330B54FEA41044FEA430594EA050F08BF2D
:4041C00090EA020F1FBF54EA000C55EA020C7FEA645C7FEA655C00F0E2804FEA5454D4EB5555B8BF6D420CDD2C4480EA020281EA030382EA000083EA010180EA020281EABE
:404200000303362D88BF30BD11F0004F4FEA01314FF4801C4CEA113102D0404261EB410113F0004F4FEA03334CEA133302D0524263EB430394EA050F00F0A780A4F1010473
:40424000D5F1200E0DDB02FA0EFC22FA05F2801841F1000103FA0EF2801843FA05F359410EE0A5F120050EF1200E012A03FA0EFC28BF4CF0020C43FA05F3C01851EBE37144
:4042800001F0004507D54FF0000EDCF1000C7EEB00006EEB0101B1F5801F1BD3B1F5001F0CD349085FEA30004FEA3C0C04F101044FEA445212F5800F80F09A80BCF1004FFB
:4042C00008BF5FEA500C50F1000041EB045141EA050130BD5FEA4C0C404141EB010111F4801FA4F10104E9D191F0000F04BF01460020B1FA81F308BF2033A3F10B03B3F1F1
:4043000020020CDA0C3208DD02F1140CC2F10C0201FA0CF021FA02F10CE002F11402D8BFC2F1200C01FA02F120FA0CFCDCBF41EA0C019040E41AA2BF01EB0451294330BD62
:404340006FEA04041F3C1CDA0C340EDC04F11404C4F1200220FA04F001FA02F340EA030021FA04F345EA030130BDC4F10C04C4F1200220FA02F001FA04F340EA03002946EA
:4043800030BD21FA04F0294630BD94F0000F83F4801306BF81F480110134013D4EE77FEA645C18BF7FEA655C29D094EA050F08BF90EA020F05D054EA000C04BF19461046F7
:4043C00030BD91EA030F1EBF0021002030BD5FEA545C05D14000494128BF41F0004130BD14F580043CBF01F5801130BD01F0004545F0FE4141F470014FF0000030BD7FEA78
:40440000645C1ABF194610467FEA655C1CBF0B46024650EA013406BF52EA033591EA030F41F4002130BD00BF90F0000F04BF0021704730B54FF4806404F132044FF00005B4
:404440004FF0000150E700BF90F0000F04BF0021704730B54FF4806404F1320410F0004548BF40424FF000013EE700BF42004FEAE2014FEA31014FEA02701FBF12F07F439D
:4044800093F07F4F81F06051704792F0000F14BF93F07F4F704730B54FF4607401F0004521F0004120E700BF50EA010208BF704730B54FF000050AE050EA010208BF704793
:4044C00030B511F0004502D5404261EB41014FF4806404F132045FEA915C3FF4DCAE4FF003025FEADC0C18BF03325FEADC0C18BF033202EBDC02C2F1200300FA03FC20FAF3
:4045000002F001FA03FE40EA0E0021FA02F11444C1E600BF70B54FF0FF0C4CF4E06C1CEA11541DBF1CEA135594EA0C0F95EA0C0F00F0DEF82C4481EA030621EA4C5123EA47
:404540004C5350EA013518BF52EA033541F4801143F4801338D0A0FB02CE4FF00005E1FB02E506F00042E0FB03E54FF00006E1FB03569CF0000F18BF4EF0010EA4F1FF040B
:40458000B6F5007F64F5407404D25FEA4E0E6D4146EB060642EAC62141EA55514FEAC52040EA5E504FEACE2EB4F1FD0C88BFBCF5E06F1ED8BEF1004F08BF5FEA500E50F1B7
:4045C000000041EB045170BD06F0004646EA010140EA020081EA0301B4EB5C04C2BFD4EB0C0541EA045170BD41F480114FF0000E013C00F3AB8014F1360FDEBF002001F0A1
:40460000004170BDC4F10004203C35DA0C341BDC04F11404C4F1200500FA05F320FA04F001FA05F240EA020001F0004221F0004110EBD37021FA04F642EB06015EEA430E07
:4046400008BF20EAD37070BDC4F10C04C4F1200500FA04F320FA05F001FA04F240EA020001F0004110EBD37041F100015EEA430E08BF20EAD37070BDC4F1200500FA05F2F5
:404680004EEA020E20FA04F301FA05F243EA020321FA04F001F0004121FA04F220EA020000EBD3705EEA430E08BF20EAD37070BD94F0000F0FD101F00046400041EB0101FF
:4046C00011F4801F08BF013CF7D041EA060195F0000F18BF704703F00046520043EB030313F4801F08BF013DF7D043EA0603704794EA0C0F0CEA135518BF95EA0C0F0CD095
:4047000050EA410618BF52EA4306D1D181EA030101F000414FF0000070BD50EA410606BF1046194652EA430619D094EA0C0F02D150EA013613D195EA0C0F05D152EA0336DE
:404740001CBF104619460AD181EA030101F0004141F0FE4141F470014FF0000070BD41F0FE4141F4780170BD70B54FF0FF0C4CF4E06C1CEA11541DBF1CEA135594EA0C0F17
:4047800095EA0C0F00F0A7F8A4EB050481EA030E52EA03354FEA013100F088804FEA03334FF0805545EA131343EA12634FEA022245EA111545EA10654FEA00260EF0004177
:4047C0009D4208BF964244F1FD0404F5407402D25B084FEA3202B61A65EB03055B084FEA32024FF480104FF4002CB6EB020E75EB030E22BFB61A754640EA0C005B084FEA1A
:404800003202B6EB020E75EB030E22BFB61A754640EA5C005B084FEA3202B6EB020E75EB030E22BFB61A754640EA9C005B084FEA3202B6EB020E75EB030E22BFB61A7546AE
:4048400040EADC0055EA060E18D04FEA051545EA16754FEA06164FEAC30343EA52734FEAC2025FEA1C1CC0D111F4801F0BD141EA00014FF000004FF0004CB6E711F4801FDE
:4048800004BF01430020B4F1FD0C88BFBCF5E06F3FF6AFAEB5EB030C04BFB6EB020C5FEA500C50F1000041EB045170BD0EF0004E4EEA113114EB5C04C2BFD4EB0C0541EAF4
:4048C000045170BD41F480114FF0000E013C90E645EA060E8DE60CEA135594EA0C0F08BF95EA0C0F3FF43BAF94EA0C0F0AD150EA01347FF434AF95EA0C0F7FF425AF1046D5
:4049000019462CE795EA0C0F06D152EA03353FF4FDAE1046194622E750EA410618BF52EA43067FF4C5AE50EA41047FF40DAF52EA43057FF4EBAE12E74A0011D212F5001244
:4049400011D20DD56FF47873B3EB62520ED44FEAC12343F0004343EA505323FA02F070474FF00000704750EA013002D14FF0FF3070474FF00000704753B94AB9002908BF79
:4049800000281CBF4FF0FF314FF0FF3000F07EB9ADF1080C6DE904CE00F006F8DDF804E0DDE9022304B070472DE9F0478C460E460446089D002B50D18A4217466CD9B2FA51
:4049C00082FEBEF1000F0BD0CEF1200420FA04F401FA0EF644EA060C02FA0EF700FA0EF44FEA1749220CBCFBF9F01FFA87F809FB10C642EA064600FB08F3B34209D9F61940
:404A000000F1FF3280F02281B34240F21F8102383E44F61AA2B2B6FBF9F309FB136642EA064403FB08F8A04509D9E41903F1FF3280F00A81A04540F20781023B3C44C8EBD9
:404A4000040443EA00400021002D62D024FA0EF400232C606B60BDE8F0878B4207D9002D55D0002185E841000846BDE8F087B3FA83F1002940F09080B34202D3824200F249
:404A8000F880841A66EB03060120B446002D40D085E81010BDE8F08712B90127B7FBF2F7B7FA87FEBEF1000F35D1F31B4FEA17481FFA87FC0121B3FBF8F0220C08FB10368C
:404AC00042EA06460CFB00F3B34207D9F61900F1FF3202D2B34200F2CE801046F61AA2B2B6FBF8F308FB136642EA06440CFB03FCA44507D9E41903F1FF3202D2A44500F24D
:404B0000B5801346CCEB040443EA00409CE729462846BDE8F087CEF1200106FA0EF307FA0EF720FA01F94FEA1748CE4049EA0309B6FBF8FA4FEA194408FB1A661FFA87FC07
:404B400044EA06430AFB0CF29A4200FA0EF40AD9DB190AF1FF3180F087809A4240F28480AAF1020A3B449B1A1FFA89F9B3FBF8F108FB113349EA034301FB0CF69E4207D9CD
:404B8000DB1901F1FF326BD29E4269D902393B449B1B41EA0A418EE7C1F1200E22FA0EF48B40234320FA0EF706FA01F44FEA134C26FA0EF63C43B6FBFCF9270C0CFB196647
:404BC0001FFA83F847EA064609FB08F7B74202FA01F200FA01FA08D9F61809F1FF3041D2B7423FD9A9F102091E44F61BA0B2B6FBFCF40CFB146640EA064704FB08F8B84589
:404C000007D9FF1804F1FF3028D2B84526D9023C1F4444EA0940C8EB0707A0FB02894F4544464E4614D329D065B3BAEB040367EB060707FA0EFECB40CF404EEA030385E8DD
:404C400088000021BDE8F0871346F8E61046E0E6B8EB020469EB03060138E5E70446D8E7114695E78146C0E78A467CE7023B3C4448E708460AE702383E442FE7C245E7D3D6
:404C80003E46D1E72946BDE8F08700BF704700BF10B501390244904207D010F8013B11F8014FA342F7D0181B10BD002010BD10B5431E0A44914204D011F8014B03F8014F19
:404CC000F8E710BD02440346934202D003F8011BFAE770472DE9F04788B0002B149F1299109EDDF84CA01D4627F02007BBBF03F100431D4600232D231446B8BF1446462FDE
:404D00000B7003D0452F03D1013601E0032300E0022307AA049206AA03928DE8480422462B4600F031FE472F804602D1119BDB0728D5462F08EB060911D198F80030302B47
:404D40000AD1002200232046294602F0DBFB18B9C6F10106CAF80060DAF800309944002200232046294602F0CDFB08B9302202E0CDF81C9006E0079B994503D9591C07915D
:404D80001A70F8E7079B159AC8EB03034046136008B0BDE8F08773B503460029B8BF494203F8022BB4BF2D222B220929427019DD0DF1070216460A2591FBF5F405FB1411DA
:404DC0003031092C02F8011D2146F5DC3031541E02F8011CB4421A460AD214F8012B03F8012BF7E730241A46214402F8024B5970101A02B070BD00002DE9F04F91B00C465A
:404E0000DDF8688016461F46054601F0D5FC03680893184600F04AFC00230E93D8F800300990073323F0070303F1080294F818A0D4F800B0C8F80020D3E90023C4E912233A
:404E4000D4E9128929F000430B93CDF828804FF0FF32A74BDDE90A0102F086FBA0B94FF0FF32A34BDDE90A0102F060FB60B9002200234046494602F04FFB10B12D2384F8BC
:404E800043309C4B9C4A0AE042464B464046494602F06AFB002800F09281984B984ABAF1470F8CBF90469846032323612BF0040323604FF000093DE0BAF1670F00F08A8183
:404EC000BAF1470F00F08681236000210DF133020193636805900292009342464B460691CDF810A0CDF80CE02846FFF7F3FE0AF0DF03472B804600F08481BAF1650F0D99CF
:404F000000F28D810139524604F150000D91FFF742FF0E9A8318012A8146236100F37C812268D10700F178819DF8333013B12D2384F84330009733460FAA2146284600F007
:404F40009FF9013002D14FF0FF3096E123685A0501D4236965E0BAF1650F40F2D58000220023D4E9120102F0CDFA78B30123654A31462846B8470130E5D00E9B0D9A9A42B8
:404F80000BDB2368D80708D423689B0740F111814FF0000804F1190906E1099B089A31462846B8470130CED04FF0000804F11A090E9B013B9845E7DA01234A46314628461C
:404FC000B8470130BFD008F10108F1E70D9B002B29DC01234B4A31462846B8470130B2D00D9B23B90E9B13B92368D907CCD5099B089A31462846B8470130A4D04FF00009D4
:4050000004F11A0A0D9B5B42994509DA0123524631462846B847013095D009F10109F1E70E9B4246A7E00E9AA36D9A42A8BF1A46002A914606DC4FF0000A29EAE97904F196
:405040001A0B11E01346314642462846B8470130F1D178E701235A4631462846B84701303FF471AF0AF1010AA36DC9EB03029245F0DB08EB03090D9A0E9B9A420FDB2368C6
:40508000DA070CD40E9B0D9A9844C9EB08089B1A9845A8BF9846B8F1000F08DC0FE0099B089A31462846B8470130EBD14BE743464A4631462846B84701303FF444AF4FF001
:4050C000000928EAE87804F11A0A09E00123524631462846B84701303FF435AF09F101090D9A0E9B9B1AC8EB03039945EEDB4BE7FFFFEF7FF88F0810FC8F0810009008105A
:4051000004900810089008100E9A012A01DCDB0738D50123424631462846B84701303FF412AF099B089A31462846B84701303FF40AAF00220023D4E9120102F0E3F920B1C4
:405140004FF0000804F11A0A0EE00E9B08F10102013B19E00123524631462846B84701303FF4F1AE08F101080E9B013B9845F1DB4B4604F1500231462846B84701307FF474
:4051800003AFE0E60123424631462846B8470130EED1D8E601234A4631462846B84701303FF4D1AE08F10108E3680F9A9B1A9845F0DBE0680F9B9842B8BF18465DE06268C3
:4051C000531C0EA84BF480630DF1340E7FF474AE062201E012B90122626075E6002106910DF133018DE80C00236005904246CDF810A0CDF80CE002914B462846FFF76AFD5F
:4052000080460D9BD81C02DB626893421DDDAAF1020A5FFA8AFA70E60133236184E6BAF1660F14D10029636807DD216113B92268D2071DD501330B4419E013B92268D00771
:4052400001D5023313E0012311E04FF0670A0D9B0E9A934205DB22682361D10708D5013305E0002BD4BFC3F102030123134423610D9BA3654FF0000956E611B0BDE8F08FFB
:405280002DE9F04791461F460A698B68DDF820809342B8BF1346C9F8003091F8432006460C4612B10133C9F800302368990642BFD9F800300233C9F80030256815F0060593
:4052C00010D104F1190A07E00123524639463046C04701301AD00135E368D9F800209B1A9D42F1DB94F843302268003318BF012392060FD5E1185A1C302081F84300224415
:4053000094F8451082F84310023303E04FF0FF30BDE8F08704F1430239463046C0470130F4D02268D9F80050E36802F00602042A08BF5D1B2269A3680CBF25EAE5750025A6
:405340009342C4BF9B1AED184FF000091A344D4509D00123224639463046C0470130D5D009F10109F3E70020BDE8F0872DE9F04317460A7E85B06E2A984606460C460C9B84
:4053800001F1430E00F0AE8011D8632A22D009D8002A00F0BB80582A40F0CA8081F84520834955E0642A1ED0692A1CD0C0E0732A00F0B08009D86F2A2ED0702A40F0B88041
:4053C0000A6842F020020A603EE0752A24D0782A3AD0ADE01A6801F14205111D1960136884F84230A8E021681A6811F0800F02D0111D196008E011F0400F02F10401196083
:4054000002D0B2F9003000E01368002B3CDA2D225B4284F8432037E021681A6811F0800F02D0111D196007E011F0400F02F10401196001D0138800E01368227E5C496F2AE0
:4054400014BF0A2208221BE078225A4984F845202268186812F0800F00F104051D6003D1550601D5038800E00368D00744BF42F0200222601BB9226822F020022260102207
:40548000002084F8430001E049490A226568A560002D08DB206820F0040020602BB9002D7DD175460CE0002B79D07546B3FBF2F002FB1033CB5C05F8013D03460028F5D1D2
:4054C000082A0BD12368DA0708D5236962689A42DEBF302305F8013C05F1FF35C5EB0E0323612EE008681A68496910F0800F03D0101D1860136808E010F0400F02F1040028
:405500001860136801D0198000E0196000232361754616E01A68111D1960156862680021284601F0B5F908B1401B6060636804E004F1420584F8422001232361002384F8DB
:405540004330CDF800803B4603AA21463046FFF797FE013002D14FF0FF3026E023692A4639463046C0470130F5D023689B0710D5002504F1190907E001234A463946304699
:40558000C0470130E7D00135E368039A9B1A9D42F2DBE068039B9842B8BF184605E00B7884F8423004F142058AE705B0BDE8F0830A9008101B9008100FB40A4B13B51C683F
:4055C00024B1A36913B9204601F06CF805AB049AA1680193204601F065FD02B0BDE8104004B07047F446020870B50E46054618B183690BB901F056F8AB69AC6813B928466B
:4056000001F050F8224B9C4201D16C6808E0214B9C4201D1AC6803E01F4B9C4208BFEC68A3891B0701D523693BB92146284600F0ADF810B14FF0FF3070BD013EA36816F820
:40564000011F013BA36091B1002B04DAA269934206DB0A2904D023685A1C22601970EDE72246284600F03EF80130E7D1E2E7002B08DA22460A21284600F034F80130D9D026
:405680000A2070BD23680A205A1C2260187070BD3C9008105C9008107C900810024B01461868FFF7A1BF00BFF4460208034613F8012B002AFBD1181A0138704710B5034612
:4056C00042B111F8014B03F8014B013A002CF7D11A4400E010BD934202D003F8014BFAE710BD0000F8B50F461446064618B183690BB900F0D7FF224B9C4201D1746808E07D
:40570000204B9C4201D1B46803E01F4B9C4208BFF468A369A360A3891A0709D523693BB123682069181A63699842FDB20FDB08E02146304600F02AF80028F1D04FF0FF307F
:40574000F8BD2146304600F043FF0028F6D1A368013BA36023685A1C22601F706269431C934204D0A389DB0707D50A2D05D12146304600F02DFF0028E0D12846F8BD00BF9C
:405780003C9008105C9008107C900810324B70B51D6806460C4625B1AB6913B9284600F081FF2E4B9C4201D16C6808E02C4B9C4201D1AC6803E02B4B9C4208BFEC68B4F965
:4057C0000C309AB215071DD4D00602D4092232603AE0510712D5616B41B104F14403994202D0304601F088FB00236363A38923F02403A3810023636023692360A38943F0FA
:405800000803A38123694BB9A38903F42073B3F5007F03D02146304600F0F6FFA28912F0010305D00023A36063695B42A36103E0920758BF6369A36023695BB9B4F90C30B3
:4058400003F0800080B230B143F04003A3814FF0FF3070BD002070BDF44602083C9008105C9008107C9008102DE9F74F03690C699C42804600F38380013C01F114074FEA76
:40588000840E00F1140657F8245006EB0E030193013556F82430B3FBF5F507EB0E09002D39D04FF0000A3846B446D34650F8042B93B205FB03A34FEA134A9BB2C3EB0B0368
:4058C000120CBCF800B005FB02A213FA8BF34FEA124A1FFA82FBDCF80020CBEB124202EB23429BB243EA024381454FEA224B4CF8043BDBD256F80E306BB9019B043B9E42B6
:405900001A4602D3C8F8104005E01268043B002AF8D1013CF3E7404601F017FA00282CDB013530464FF0000E57F8041BD0F800C08AB2C2EB0E03090C13FA8CF3C1EB1C422F
:4059400002EB23429BB243EA0243B9454FEA224E40F8043BE8D256F8242006EB840362B9043B9E421A4602D3C8F8104005E01268043B002AF8D1013CF3E7284600E000209F
:4059800003B0BDE8F08F00002DE9F04F456A97B08246239CCDE9022345B9102000F070FFCAF82400456085600560C560DAF82430196859B15A684A60012393408B60504647
:4059C00000F0EBFFDAF8243000221A60039BA04A002BBFBF01232360039B23F00043B8BF0393DDF80C80A4BF0023236028F000431B0D1B0593421DD1229A42F20F7313607D
:405A0000029B43B9934A944BC8F31300002814BF1846104600E09048249B002B00F04A85C37813B100F1080300E0C31C249A136000F040BDDDE90245002200232046294634
:405A400001F060FD074658B1229A01231360249B002B00F0228581481860013800F02ABD14AB019315AB009322462B46504601F0E7F9C8F30A56059056B1C5F3130343F0BF
:405A80007F51204641F44011A6F2FF3611971DE0159B149E1E4406F23243202B0ADD029A06F21240C3F1400322FA00F008FA03F3184304E0C3F12000029B03FA00F0FEF7E2
:405AC000B3FC0123A1F1F871013E11930022644BFEF76CFB58A3D3E90023FEF71BFD58A3D3E90023FEF764FB044630460D46FEF7ABFC55A3D3E90023FEF70CFD02460B4696
:405B000020462946FEF754FB04460D4601F042FD0022834600232046294601F0FDFC58B15846FEF791FC02460B462046294601F0E9FC08B90BF1FF3BBBF1160F0DD8494906
:405B400001EBCB01DDE90223D1E9000101F002FD30B10BF1FF3B002300E00123109300E01090149B9E1B731E089343BFC3F10009002308934FF00009BBF1000F07DB089BDD
:405B8000CDF834B05B4408930023099306E0CBF1000309930023CBEB09090D93209B092B27D8052BC4BF043B2093209BA3F10203CCBF00250125032B20D8DFE803F0060EC6
:405BC0000204012302E0012308E000230C93219B002B1CDD069398461EE000230C93219B5B4403F1010806934346012BB8BF012312E00125002320930C9501E001230C9340
:405C00004FF0FF33069398460022122303E00123069398461A462192DAF8244000226260042101F114029A421ED86268013262604900F6E7AFF3008061436F63A787D23FBF
:405C4000B3C8608B288AC63FFB799F501344D33F0000F07F2C90081035900810099008100000F83FD89008106168504600F060FEDAF8243020601B680793B8F10E0F00F28B
:405C80005D81002D00F05A819DED027BBBF1000F8DED0E7B31DDA04A0BF00F0302EBC30393ED007B4FEA2B14E2068DED0A7B0CD59A4BDDE90E01D3E90823FEF755FD04F07A
:405CC0000F04CDE90201032600E00226934D6CB1E30708D5DDE90A01D5E90023FEF71AFCCDE90A01013664100835F0E7DDE90A23DDE90201FEF738FD20E0CBF1000404B349
:405D0000854B864D04F00F0203EBC203D3E90023DDE90E01FEF7FEFBCDE9020124110023022654B1E70705D5D5E90023FEF7F2FB0136012364100835F3E71BB1CDE9020132
:405D400000E00226109BEBB1DDE902450022744B2046294601F0E0FBA0B1B8F1000F11D0069B002B40F3E6800BF1FF330A9300226C4B20462946FEF7CDFB0136CDE90201D0
:405D8000069F02E0CDF828B047463046FEF75CFBDDE90223FEF7BEFB0022634BFEF708FA0446A1F15075CFB90022604BDDE90201FEF7FCF922462B46CDE9020101F0CAFB1F
:405DC000002840F04182224605F10043DDE9020101F0A2FB002840F02E82ABE00C9A4E4B791E002A4AD003EBC103D3E9002300204F49FEF7B9FC22462B46FEF7D7F9079CAF
:405E000005460E46DDE9020101F0C4FB1290FEF71BFB02460B46DDE90201FEF7C7F9129B303304F8013B2A463346CDE9020101F073FB002840F02183DDE9022300203849B5
:405E4000FEF7B4F92A46334601F066FB002840F0D280079BE31ABB426CDA0022314B28463146FEF757FB002205460E462D4BDDE90201FEF74FFBCDE90201C3E703EBC1019B
:405E800022462B46D1E90001FEF744FB079BCDE91201DC191D46DDE9020101F07BFB0646FEF7D2FA303602460B46DDE90201FEF77DF905F8016BAC42CDE902014FF0000296
:405EC00023D11B4BDDE91201FEF772F902460B46DDE9020101F03EFB002840F08C80DDE9122300201249FEF761F902460B46DDE9020101F011FBE8B114F8013C302B04F1C9
:405F0000FF3240F0BA821446F6E7064BFEF702FBCDE90201BFE700BFD8900810B09008100000F03F0000244000001C40000014400000E03FDDE90E34CDE90234159B002B23
:405F40007CDBBBF10E0F79DC8F4B03EBCB03D3E90067219B002B14DAB8F1000F11DC40F06C810022894B30463946FEF7D3FADDE9022301F0E5FA45464646002840F05F81A5
:405F800066E1079C32463B46DDE90201FEF7ECFB01F000FB0546FEF757FA32463B46FEF7B9FA0B460246DDE90201FEF7FFF805F1300E04F801EB079BC3EB040EF045CDE984
:405FC00002012ED102460B46FEF7F2F88046894602460B463046394601F09EFA78B942464B463046394601F08DFA002800F04782E90704D443E2DDF828B000E01C4614F8FB
:40600000012C392A04F1FF3307D1079A9A42F5D1079930220BF1010B0A701A7801321A702DE200225A4BFEF775FA00220023CDE9020101F067FA0028A4D020E20C9A002AD3
:406040002DD0209A012A0ADC119A12B103F2334302E0149BC3F13603099D4C4615E0099B08F1FF35AB42BFBF099B0995EA1A0D9BB7BF9B185D1B0D930025B8F1000FB9BF14
:40608000C8EB090400234C464346089A01211A4450469944089200F01FFD064602E0099D0C9E4C465CB1089B002B08DDA342089AA8BF2346C3EB0909E41AD31A0893099B96
:4060C000002B1DDD0C9BABB185B131462A46504600F09CFD059A01460646504600F005FD05990746504600F058FC0597099B5A1B06D000E0099A0599504600F087FD059072
:406100000121504600F0E8FC0D9B05465BB31A460146504600F07AFD209B012B054618DC029B83B9039BC3F3130373B9039B23F000473F0D3F054FB1089B013309F1010936
:406140000893012702E0002700E0029F0D9B73B100E000272B6905EB8303186900F06FFCC0F1200004E0209B012BD9DD0D9F0120089B184410F01F000ED0C0F12003042BFB
:4061800008DDC0F11C0008E0D8900810000014400000244006D018461C30089B0344814404440893B9F1000F05DD4A460599504600F07AFD0590089B002B05DD29461A4621
:4061C000504600F071FD0546109BEBB12946059800F0BBFD002817DA00230A220599504600F0F2FB0C9B05900BF1FF3B002B00F05881002331460A22504600F0E5FB069BB9
:40620000002B064637DC33E0B8F1000F2ADC209B022B27DDCDF81880069B83B929460522504600F0D1FB01460546059800F08DFD00280DDC03E03D4600E000252E46219BA0
:40624000079C6FEA030B0AE0DDF828B03D463E46079B079A5C1C312313700BF1010BB0460026F7E00C9BCDF8188023B9079CB1E0209B022BD0DC002C05DD314622465046BE
:4062800000F012FD06469FB17168504600F050FB326902320446920006F10C010C30FEF706FD01222146504600F0FEFC804600E0B046029BDDF81C9003F0010308932946F1
:4062C0000598FFF7D1FA3146044600F13007059800F03BFD424602902946504600F051FDC36802463BB901460990059800F02DFD099A034600E0012311465046099300F0CE
:406300004CFB099B4BB9209A3AB9089A2AB9392F28D0029B002B1ADC1BE0029A002A04DB1AD1209AC2B9089AB2B9002B11DD01220599504600F0B8FC2946059000F005FD47
:40634000002802DC05D1FA0703D5392F0AD004F1310709F101040CE0002B09F101040BDD392F05D1392389F8003009F1010954E0013789F800706DE0079B069A04F8017C48
:40638000E31A9342A1463AD000230A220599504600F01AFB464505904FF000034FF00A023146504604D100F00FFB0646804686E700F00AFB4146064600230A22504600F0ED
:4063C00003FB80467BE700230A220599504600F0FBFA059029460598FFF746FA00F1300704F8017B079B069AE31A9342EBDB079B012AACBF9B180133B04699460026012281
:406400000599504600F050FC2946059000F09DFC002802DC15D1FB0713D54C4614F8013C392B04F1FF3209D1079B934204D10BF1010B3123079A02E01446EFE70133137038
:4064400008E04C4614F8013C302B04F1FF3201D11446F7E72946504600F09FFAB8F1000F0DD02EB1464503D03146504600F095FA4146504600F091FA01E0DDF828B005991E
:40648000504600F08AFA0023229A23700BF101031360249B1BB11C6001E008480AE0079808E0069B002B3FF7E1AE209B022B7FF7DDAEB1E617B0BDE8F08F00BF08900810D9
:4064C0008A892DE9F041054610070C4659D44B68002B02DC0B6C002B17DDE66AAEB102F48052002392B22F682B600AB1606D15E0216A01232846B047411C0FD12B686BB192
:406500001D2B01D0162B03D12F600020BDE8F081A38943F04003A381BDE8F081A3895A0705D56368C01A636B0BB1236CC01A00230246E66A216A2846B047431CA38906D180
:4065400029681D293AD8214ACA40D60736D500226260D9042269226004D5421C01D12B6803B96065616B2F600029CED004F14403994202D0284600F0BFFC00206063BDE83E
:40658000F0810F69002FC0D093070E6808BF4B690F6018BF0023C7EB06088B6002E00744C0EB0808B8F1000FAFDD43463A46216AA66A2846B0470028F1DCA38943F04003C8
:4065C000A3814FF0FF30BDE8F08100BF0100402038B50B6905460C46DBB118B183690BB900F060F80C4B9C4201D16C6808E00B4B9C4201D1AC6803E0094B9C4208BFEC687B
:40660000B4F90C302BB121462846BDE83840FFF757BF002038BD00BF3C9008105C9008107C900810014900F0A9B800BFD1650810002310B504460360436083608181436649
:40664000C281036143618361194608225C30FEF739FB054B6362054BA362054BE362054B2462236310BD00BFFD7208101F730810577308107B73081070B568234D1E5D43F2
:406680000E4605F1740100F085FC044640B1002180E842000C30A06005F16802FEF712FB204670BD836910B5044633BB8364C3640365124B124A1B688262984204BF012333
:4066C000836100F01FF86060204600F01BF8A060204600F017F80022E06004216068FFF7A7FF01220921A068FFF7A2FF02221221E068FFF79DFF0123A36110BDF48F081089
:4067000025660810F8B51C4B1E68B369074613B93046FFF7C7FF4836B4687368013B04D4B4F90C507DB16834F8E733680BB13668F2E704213846FFF79FFF30600028F6D1F6
:406740000C233B60F8BD4FF6FF73E3810123A38165662560A560656025616561A5610822294604F15C00FEF7ADFA6563A563A564E5642046F8BD00BFF48F08102DE9F8435D
:406780008046894600F14804002694B1A5686768013F0CD4AB89012B07D9B5F90E30013303D029464046C84706436835F0E72468EBE73046BDE8F88300487047F846020871
:4067C00070B50E46B1F90E10002990B014461D4606DA00232B60B3891A060ED540230EE001AA00F0F1FD0028F3DB029A02F47042A2F500535A425A412A604FF48063002060
:40680000236010B070BD00008B8973B59E0705460C4610D401AB6A46FFF7D2FF00990646284600F0B7FB68B9B4F90C309A0522D443F00203A38104F1470323602361012309
:40684000636118E00D4BAB62A389206043F08003A381009B6361019B20614BB1B4F90E10284600F0C3FD18B1A38943F00103A381A0893043A08102B070BD00BF25660810C2
:40688000024B0146186800F085BB00BFF446020801F0FF01102A2BDB10F0070F08D010F8013B013A8B422DD010F0070F42B3F6D1F0B441EA012141EA014122F007047FF06D
:4068C00000070023F0E80256083C85EA010586EA010685FA47F5A3FA87F586FA47F6A5FA87F68EB9EED1F0BC01F0FF0102F0070232B110F8013B013A83EA010313B1F8D163
:406900000020704701387047002D06BF35460338073815F0010F07D1013015F4807F02BF013015F4C03F0130F0BC0138704700BF70B5456A04460E463DB91020FFF7A0FFD0
:406940006062456085600560C560656AEB6843B1636ADB6853F8260078B1026843F8262017E021220421204600F0B8FA636AE860DB68002BECD1002070BD012101FA06F58A
:406980006A1D9200204600F0A9FA0028F3D04660856000230361C36070BD70B5446A06460D463CB91020FFF76BFF7062446084600460C4603DB1736A6A68DB6853F8221042
:4069C000296043F8225070BD2DE9F0410D691F4606460C4601F1140E0023DEF8000081B202FB01710F0C000C02FB007089B2013301EB00419D424FEA10474EF8041BECDCF9
:406A0000D7B1A3689D4212DB616830460131FFF78FFF2269023204F10C01804692000C30FEF745F921463046FFF7B7FF444604EB850301355F6125612046BDE8F081030CE9
:406A40001B0413B90004102300E0002310F07F4F04BF0002083310F0704F04BF0001043310F0404F04BF80000233002803DB420003D5581C704718467047202070470368A0
:406A800013F007020BD0D90722D49A074BBF5B089B08036003604CBF01200220704799B209B91B0C102213F0FF0F04BF1B0A0832190704BF1B090432990704BF9B0802328D
:406AC000D90702D45B0805D00132036010467047002070472020704710B50C460121FFF727FF01224461026110BD2DE9F74F14460A6923699A42B8BF0B468846BCBFA04662
:406B00001C46D8F81070D4F81090D8F80830D8F8041007EB09069E42C8BF0131FFF708FF00F1140505EB860C2B460022634502D243F8042BFAE704F1140208F1140102EBC8
:406B4000890301EB87070093009B0192934257D9B2F800B0BBF1000F23D08946AE464FF0000859F8044BBEF800A0A3B20BFB03A34FEA144ADEF8004043444FEA14480BFB71
:406B80000A8404EB1344F2469BB243EA04434F454FEA14484AF8043B01D9D646E1E7CEF80480019BB3F802A00432BAF1000F21D02B682C4689464FF00008B9F800E0B4F834
:406BC00002B00AFB0EBEF044A3469BB243EA08434BF8043B59F8043BB4F804E01B0C0AFB03E303EB18434F454FEA134801D95C46E3E763600435A7E75CF8043D13B9013E9B
:406C0000002EF9DC066103B0BDE8F08F2DE9F843154612F0030206460F4607D0013A214C002354F82220FFF7CFFE0746AD1036D0746A3CB91020FFF723FE70624460846048
:406C40000460C460D6F82480D8F808404CB940F271213046FFF740FF0023C8F80800044603604FF00008EB070AD5394622463046FFF73BFF394681463046FFF78EFE4F467E
:406C80006D100CD0206808B10446ECE7224621463046FFF72AFF2060C0F80080F4E73846BDE8F883A49008102DE9F0470C464FEA621A26694968A368564407469146751C4E
:406CC000AB4202DA01315B00FAE73846FFF730FE0023804600F114011A46534503DA41F823200133F9E72AEAEA73206901EB830319F01F0904F1140101EB800E14D0C9F1A8
:406D0000200C0022086800FA09F002439A4643F8042B51F8042B8E4522FA0CF2F2D8CAF8042042B1B51C06E0043B51F8042B43F8042F8E45F9D8013D3846C8F81050214648
:406D4000FFF72BFE4046BDE8F08703690A699B1A10B511D192001430143183180A4453F8044D52F8041D8C4202D007D3012010BD9842F4D3002010BD184610BD4FF0FF307D
:406D800010BD2DE9F8430C460746114620461546FFF7DBFF061E08D131463846FFF7C8FD012303614661BDE8F883BCBF23462C4638466168BABF1D4601260026FFF7B8FDC1
:406DC0002B69C660266905F11409143404EB860709EB830800F114054FF0000C54F8043B59F8042B1CFA83F11FFA82FE120CCEEB0101C2EB134303EB214389B24FEA234C60
:406E0000C84541EA0343A64645F8043BE6D8BE450ED25EF8041B1CFA81F2131403EB114392B242EA03424FEA234C45F8042BEEE755F8043D0BB9013EFAE70661BDE8F883CD
:406E40002DE9F34101211C46089E099D9046FFF76FFDC4F31303C4F30A5407460CB143F480130193B8F1000F19D002A840F8088DFFF705FE009B48B1019AC0F1200102FA68
:406E800001F10B43C2407B61019200E07B61019BBB61002B14BF02210121396107E001A8FFF7EDFD019B7B6101213961203034B1A4F2334404443460C0F1350009E007EB4D
:406EC0008103A0F2324030601869FFF7B8FDC0EB41102860384602B0BDE8F08138B502FB01F4214600F056F8054618B122460021FDF7E8FE284638BD38B50546002946D0AF
:406F000051F8043C0C1F002BB8BFE41800F090FA1F4A1368114613B96360146032E0A3420ED92268A018834204BF18685B68636004BF121822600C6024E0A24203D81346A2
:406F40005A68002AF9D118681918A1420BD12168014458188242196014D1106852685A60014419600EE002D90C232B600AE021686018824204BF10685268626004BF091814
:406F800021605C602846BDE8384000F052BA38BD9C87020870B5CD1C25F0030508350C2D38BF0C25002D064601DBA94202D90C23336046E000F03CFA234B1C681A46214640
:406FC000A1B10B685B1B0ED40B2B03D90B60CC18CD501EE08C420DBF63684B686360136018BF0C4615E00C464968E9E7174C23681BB9304600F072F920602946304600F0D1
:407000006DF9431C18D0C41C24F00304A0420DD12560304600F00DFA04F10B00231D20F00700C31A0ED05A42E25070BD211A304600F054F90130EBD10C233360304600F0E6
:40704000F8F9002070BD00BF9C870208988702089368013B002B10B4936009DA9469A34202DBCBB20A2B03D15DF8044BFEF73ABB1368581C10601970C8B25DF8044B704731
:40708000F8B506460F461446D518AC4208D03A4614F8011B3046FFF7DBFF431CF5D100E00020F8BD2DE9F04F9DB00C4617460393064618B183690BB9FFF7F4FA7F4B9C4275
:4070C00001D1746808E07E4B9C4201D1B46803E07C4B9C4208BFF468A38918070CD5236953B10023099320238DF8293030238DF82A30DFF8D4B144E021463046FEF746FB59
:407100000028EED04FF0FF30D5E0039A111D12680391002A80F28C80524243F002000792049098F800302E2B00F08480032298F800106548FFF7ACFB48B14023CBEB0000A1
:4071400003FA00F0049B1843049008F1010898F800105E488DF82810062208F10107FFF797FB002800F09580594B002B40F08880039B073323F0070308330393099B5344A9
:407180000993B846454615F8013B1BB9B8EB07090FD003E0252BF9D0A846F3E74B463A4621463046FFF76CFF01307FD0099B4B44099398F80030002B78D000234FF0FF32D3
:4071C00004930793059206938DF853301A930127052229783F48FFF75BFB05F10108049B38B13C4A801A07FA00F0184304904546EEE7D90644BF20228DF853201A0744BF8F
:407200002B228DF853202A782A2A3FF47EAF079A00210A20A846013598F80030303B092B03D800FB02320121F4E700293FF479AF079276E798F801302A2B0BD1039B1A1DFC
