:020000041000EA
:4000000000400208230100100D00000085010010000000000000000000000000000000000000000000000000000000008101001000000000000000008101001081010010E9
:400040008101001081010010810100108101001081010010810100108101001081010010810100108101001081010010810100108101001081010010810100108101001060
:400080008101001081010010810100108101001081010010810100108101001081010010810100108101001081010010810100108101001081010010810100108101001020
:4000C00010B5064C2378002B07D1054B002B02D0044800E000BF0123237010BD3C060008000000006C210010084B10B5002B03D00749084800E000BF07480368002B00D19D
:4001000010BD064B002BFBD09847F9E700000000400600086C210010E8000008000000007047FFF7FDFF72B60F4C104DAC4209DA21686268A368043B02DBC858D050FAE71C
:400140000C34F3E70A490B4A0020521A02DD043A8850FCDC084809490860BFF34F8F00F005F900F01DF8FEE770210010882100103C060008140800080000000808ED00E04D
:40018000FEE7FEE700B504207146084202D0EFF3098001E0EFF30880043001F0B7F9FEE710B562B6014800F067F9FEE70000081010B5002000F026FF10BDC04670B5624949
:4001C000E0239B00CB580F2213401A00D0329200525807210A40032A05D0042A06D0002A12D15A4814E05A4A106811E01A00C0329200554952581F210A40112A06D0132A7C
:4002000004D0FA20C00103E0524801E080200002002B36D14C4BB222D2009A5801211140B125ED005A59120F032422405B591B0F1C4207D0444C63591B0F03242340012BDC
:4002400002D102E0012300E00023002B01D0002901D1032A4BD13C4BB022D2009D58AD03AD0B3D495958C904C90C9C58240E01231C40013401F054FC6843210001F050FCDC
:4002800035E0012B33D1304BC822D2009A5801251540C024E4001A59120F03210A401B591B0F194207D028490B591B0F03210B40012B02D102E0012300E00023002B01D049
:4002C000002D01D1032A12D11F4DC022D200AB587F210B40A958090A1F263140AC58240C3440584301F01CFC210001F019FCE0239B00154AD3581B0903221340D840144C68
:400300006060164B1D692D0AFC32154001351969090E013101F004FCA060290001F000FC0500E06020610E4BC0180E4901F0F8FB20750D4BE818FA21890001F0F1FBA061B3
:40034000C003E06170BDC0460000264000127A00C000000800366E0184050000000021403F420F0040420F00E703000010B5284801F0D0FB274CB022D200A3585B005B0831
:40038000A350E0218900635830208343635080235B04A350204A214BE250A02292010433E250FF221E4BE25001F0A2FBC0225200A35801218B43A35000F08CF9FFF7FEFEBE
:4003C000B0235B055B78002B04D0B0235B055B78DBB200E02123212B03D1124B0022DA605A60114C22008021042000F0B1FB2000103000F045FC0D4B1A685123D35C002B95
:4004000002D00B4800F0B2FC00F07AFA10BDC046B42000100000264001000200840500008C050000E00023405806000810080008881C00108023024AD35803201840704792
:400440000000214010B501F0F4F8084980228C58074B2340074C23438B508823034AD358DB06FAD501F0E9F810BDC04600002140FCFF00000100FA0570B50500830504D0FF
:40048000E821FF310F4801F013F801F0D2F80400FFF7D0FF032801D1FFF7D4FF0A4AB0239B00D55080215058084B03400848034353508823044AD358DB06FAD5200001F082
:4004C000BCF870BDBC1C001000002140FCFF00000300FA05FEE7C04630B587B06E49A022D2008B58032083438B506C4A116808688823CB58C3181868694908401860136827
:40050000186884241B59C01803681B021B0A80256D042B430360106805680359EB1818680140196013683E229A5C002A06D05A48E02189004258753CA24342503E229A5C20
:40054000002A06D05448E021890042583024A24342503E229B5C002B07D04F49E02292008B588020000603438B500021012000F07BFD0021022000F077FD0021032000F03C
:4005800073FD0021042000F06FFD0021002000F06BFD01A8434903000A0032CA32C312CA12C300F08FFD002802D00420FFF792FF39493D4A8B588020000603438B503B4856
:4005C00000F03CFE002802D00420FFF783FF324C374BE158374A0A40E250E158364A0A40E250E25880252D062A43E250043BE158324A0A40E250E158314A0A408021890186
:400600000A43E250E258802109020A43E2502D4A11682D4B0B40802149000B431360002001F048FA294BE2581543E550E158012291430A43E2506421002000F07FFF174BC6
:400640001B683F229A5C052A03D90021204A986881509A6874215B5AD2181168104B0B408C2189010B4313600C4B1A687323D15C703B8B4019007023D35C7220105C83403E
:400680000B43802109060B438021C9009068435093685B5807B030BD0000264010080008FF00FFFFD41C0010087F0000400D030004050000FEFCFFFFFFFF00FFFFF0FFFF62
:4006C000FF8FFFFF00002740FFFCFFFF0C050000140C000070B58AB09621002000F02EFF00F004FF002814D100F0F0FEC0235B00244AD358DB0705D41100234A8B585B005E
:400700005B088B501F49204A8B588020000603438B50012001F066F91C4A516C1C4B0B40E82189010B435364536C1B0AFF2213403A2B07D1154A516C164B0B40E821890131
:400740000B435364FFF7C8FE01AD134C2A002300143343CB43C243CB43C243CB43C229000E4800F0D5F82A002300383313CB13C213CB13C213CB13C22900094800F0C8F8A7
:400780000AB070BD000026400C05000000002740FF00FFFFFFC5FFDFD41C00108002324000033240214B984230D00ED8402831D004D800281FD010282AD031E080282BD0FE
:4007C00080235B00984229D02AE0194B984229D007D8A0231B0698420DD0164B984212D01EE0154B98420AD0144B984209D0144B984215D101E0002016E0124814E012486E
:4008000012E0124810E0A020C0030DE007480BE00F4809E00F4807E00F4805E0034803E00E4801E0A420C0037047C04606005200010000F0090000A0040000F0050000F094
:40084000030000F0010052000200520003005200010050000200500005005200FF00520070B5124B1A683123D35C002B04D1C421FF310F4800F01CFE0C4B1D682C00B42362
:40088000EB582A6A944663441B68002B0BDB094B1868FFF787FF6B6801229A6063689B68002BFBD100E0044870BDC04610080008301D0010E80700080200500010B50D4B05
:4008C0001861002805D002230370FD33437000234380094B1B6850229A5C002A08D051229B5C002B04D04F3A0449002000F0F8FA10BDC046E807000810080008610100084B
:4009000010B502481430FFF7D9FF10BDE807000870B505000C0000285DD000295DD0FF230A689A4303D099212D4800F0C1FDFF2322699A4303D09A21294800F0B9FDA36896
:400940005B0D03D09B21264800F0B2FD63685B0A03D09C21224800F0ABFDE3695B0F03D09D211F4800F0A4FD236A5B0F03D09E211B4800F09DFD1B4A11688B69EB1ADB0941
:4009800049691B01CB18216829607D211068415C6918E06808607E211068415C6918206908607F211068415C6918606908607C211068415C6918A06808606168A961116814
:4009C00080228A5CAD18A2692A60E2691A60226A5A60002002E0044800E0034870BDC046701D00101008000801005A0070B504000D000A4B1A68B423D3581B181B68002B56
:400A00000ADA0B0C03D00649064800F051FD2D042D0C6560002000E0034870BD10080008D5020000F01D001001008A0070B505000C000368002B01DA002300E0084B002B9F
:400A40000BD1EA60230C03D00649074800F030FD2404240CAC60002000E0014870BDC04601008A00BB020000F01D001070B505000C1E03D19921084800F01AFD074B1A6841
:400A8000B423D3585B191B68002B03DAEB682360002000E0024870BD301E00101008000801008A0070B504000D00234B1A683123D35C834236D9002936D00B68DB0635D1D9
:400AC0003123D35C984204D3C421FF311B4800F0EFFC194B1B681A6AB0215B5A5C431419174E34602B68DA080021686801F0A4F800212000FFF77AFF3468002D03D111491F
:400B00000E4800F0D5FC2A0000212000FFF78EFF00280DD10A4B18680021FFF767FF002808D108E0084806E0074804E0064802E0064800E0054870BD10080008F01D0010F1
:400B4000000800089303000003018A0001018A0010B50400002A17D1002915D1124B1A683123D35C984204D3C421FF310F4800F09FFC0D4B1B681A6AB0215B5A5C43141910
:400B80000B4B1C6000200EE0002A09D0002909D0074B59609A60191D2000FFF783FF02E0044800E0034810BD10080008F01D00100008000803018A00F0B583B00D001C4B30
:400BC0001B68DC68236883422DD947097B01C01A012383401E00002903D100F02AFD019001E000230193124B18680368002B01DA002300E00F4B002B0ED16368BF00DF19B9
:400C00003B68334203D0B3433B60002400E00A4C0021FFF7EBFE00E0084C002D04D1019800F00BFD00E0064C200003B0F0BDC0460008000801008A000201880003018800AD
:400C400004018A000A4B1B68DA68136883420BD943095901401A0121814052689B009B580B4203D0034802E0034800E003487047000800080101880004018A000001880050
:400C8000034B1B68002B01D1014B18607047C0460C080008F0B5474680B404000F0090461E002D4B1B68002B03D1B5212B4800F0FFFB294B1B682C2060431C18FF221500DF
:400CC00035402560330A13406360360CA660244B1A683123D35C9D4204D3C421FF31214800F0E6FB1E4B1A68B023D35A6B43116A8C466344236166683223D35C9E4204D3CC
:400D0000E021FF31174800F0D3FB154B1B681D6A80367601AD196561A668330C04D0FF214900104800F0C4FB330C03D00E490D4800F0BEFB3604330C1E43AE604346E36195
:400D400027620023A361069B002B02D000229B5EA38104BC9046F0BD0C080008701E001010080008F01D0010FF010000F0B58FB0041E03D15221294800F09AFB6368032B70
:400D800003D95421254800F093FBE36A002B03D15821224800F08CFB236B002B03D159211E4800F085FB07AA1300210061C961C321C921C302AD290023001433C1CBC1C123
:400DC00041CB41C10821535E0CAE3380144B1B6836215B5E07998C466344B370089B0D930B9B0A980096A26AE16AFFF753FF2B69E868002200920021FFF74CFF216B3000FA
:400E000000F0E8FA0023F25E002A05DB1F231A401E3B9340034A13600FB0F0BD701E00101008000800E100E0F8B505000F0016001C00002A03D1FD21224800F039FB224BE6
:400E40001B68002B03D1FE211E4800F031FB1E4B1B682C2128004843181879435918012213004D68AB401B044568AA4015000269002A20D08F69002F1FD11268002A01DA4A
:400E8000002200E0114A002A19D132681204120C134333600369DE6001238B614C6204692B0C03D00A490B4800F002FB2A04120CA260002004E0084802E0084800E0074895
:400EC000F8BDC046701E00100C08000801008A00BB020000F01D001004028A0007028A0070B504000D0016000F4B1B68002B04D1AF2149000D4800F0DBFA0B4B1B682C2074
:400F000060431C18236A002B04D1B1214900074800F0CEFAE369B34204D9236AB6009D51002000E0024870BD0C080008701E00100A028A0070B582B00400002301930028DB
:400F400004D1D221FF312D4800F0B2FA2369002B04D1E9214900294800F0AAFA6369002B04D1D421FF31254800F0A2FA236A002B04D1EA214900214800F09AFA6269D568C4
:400F80002B0C24D01B041360136820691C4B1A68B423D358C3181B68002B18DA01A9FFF765FD00280ED1019803681E0CFF221340E269934207D29B00226AD358002B02D017
:400FC000984700E0002631002069FFF70FFD2D042D0C0FD063691D601B68636A002B03D098470023636203E0A36A002B00D098470023A36163691B6802B070BD701E0010EC
:401000001008000810B50400084B1B68002B04D1B221FF31064800F04BFA044B1B682C2060431818FFF786FF10BDC0460C080008701E001010B50400094B1B689B6CC340C8
:40104000DB0703D4BE21074800F032FA044B1B681B691034A402E3580F20184010BDC04610080008B01E0010134B1A683C23D35C83421DD9042904D94B1EFF3B9BB2132B39
:4010800018D8FF290CD91F2319400C4A0300C0339B009950D03080000423835000200AE007231940D0308000044BC150002002E0034800E00248704710080008000026402D
:4010C00001004A0070B5041E03D14A494A4800F0EFF9B023DB00494AD358002B00DA87E0474B22689A4203D94649434800F0E0F923689B039B0BE279002A02D080225204E0
:4011000000E000221343B022D2003C498B50A2883D4B9A4204D98C218900374800F0C8F922893A4B9A4203D93949334800F0C0F9A388DB04D90C23891B04364A13400B4319
:40114000354A2E498B50A37A0F2B04D98E218900294800F0ADF9E37A0F2B03D92F49264800F0A6F9A289284B9A4203D92C49224800F09EF9A37A0F211940E27A1201FF2350
:4011800013400B43A289120226490A401343A27B1207C02189050A401343B122D20017498B50A379042B03D91F49134800F080F9228A164B9A4204D9912189000E4800F081
:4011C00077F90E4819494558194B1D40A3791B02E022D20013402B4343504558154B1D40238A1B040B4A13402B434350002000E0114870BD1F020000F01E0010000026400E
:40120000FFFF030029020000FF1F0000FF010000310200000000FF0184050000390200003A02000000FF1F00430200008C050000FFF8FFFFFFFF00FE03004A0070B50500D5
:401240003149324A8B588020000603438B502C0003E0012000F020F9013CB223DB002A4AD3585B0701D4002CF3D12749B122D2008858274B03408020800503438B50002DC5
:4012800001D0002C0CD02049B022D2008B588020000603438B5003E0012000F0FDF8013CB223DB00184AD358DB0701D4002CF3D1002D01D0002C08D01349B122D2008B58AE
:4012C000C020800503438B5013E00F4BB121C90058580F4A02408020800502435A5008395A58520052085A5008495A58520052085A50002D03D0002C03D0002002E000205E
:4013000000E0044870BDC046000026408C050000FFFFFFCF02004A0070B505000C001A4B1B6828229A5C012A15D1820807211000884327D19200AD1AED00FF20A8401B687B
:4013400020339A181168AC4023004B40184004004C40146016E03A229B5EDBB2994203D176210A4800F0A4F8074B1B681B680722154080221206154380229201944664445E
:40138000A400E55070BDC04610080008781F001070B504000D000B4B9A680B4B9A420CD1002904D13821FF31084800F081F81034054BA400E058E55003E01034A400044BBE
:4013C000E05870BD00ED00E000000008781F001000000010F0B5474680B482B0061E01914AD04368032B03D93221264800F060F80023F05E002804DBB178FFF78DFF00248F
:4014000000E0214C0023F15E7368002912DB88081E4FC0308000C55903221140C900FC3290468A4095439A01434613408B402B43C35116E089B20F220A40083A9208063208
:40144000920013481018476803221140C900FF252A008A4097439A012B0013408B403B4343600B4B9A680B4B9A4206D10023F05E0199FFF78DFF00E0034C200002B004BCC3
:401480009046F0BD781F00100100560000E100E000ED00E00000000810B5034B1B78584300F0BEF810BDC046D400000801BEFEE770B50D00044C18220100200000F0C4FB4F
:4014C000A5610020FFF7F2FF00060008054B802212069A649B6C002B01DB002000E002487047C0460000274003004600054B8022120198585B68FF221A4202D08023DB027D
:401500001843704700002640FEE7C04610B50A4B0268DA6142681A6282685A62C2689A620269DA6242691A6382695A63C2699A63FFF7EAFF10BDC04600060008F0B5474606
:4015400080B4002801D0192300E064238B429B415B42304D2C682268A826A45BA41822680327BA433B401A4322602C682268A45BA2181668284CA046264016602C68266879
:40158000AA229446A25A96193268BA43134333602A6813686546525BD3181A68444614401C60002805D010291BD921291BD8012024E0184B1B6855229A5C914215D9562216
:4015C0009A5C914213D957229A5C914211D958229A5C91420FD959229B5C99420DD804200CE000200AE0022008E0002006E0012004E0022002E0032000E00520054A126889
:40160000526813680F218B430343136004BC9046F0BDC04610080008FFFCFFFF000000000230800803D001300238FCD1C046C0467047EFF3108072B6704780F310887047C1
:4016400010B5B0235B059B899BB2002B04D0B0235B059B899BB201E080235B0080225200934215D1184C23681968683A9B58C9180B680F208343963A13430B6021680C68F4
:401680009C23CB58E318196881430A431A6019E00D4C2368196898229B58C918B02040050A4BC2580A4B13400A681343C022920013430B60226811689C23D358CB18054A0D
:4016C00082581A6010BDC0461008000848180000FFFCFFFF4418000030B5B0235B059B899BB2002B04D0B0235B059B899BB201E080235B0080225200934215D1184C236845
:401700001968683A9B58C9180B680F208343953A13430B6021680C689C23CB58E318196881430A431A6019E00D4D2B68196898229B58C918B0246405C12040012258094BB2
:4017400013400A681343C022920013430B602A6811689C23D358CB1822581A6030BDC04610080008FFFCFFFFB0235B059B899BB2002B04D0B0235B059B899BB201E0802376
:401780005B008022520093420DD1104B1B681A6898215B58D21811680D4B0B40C021C9010B43136011E0094B1B68196898229B58C918084BB0225205D258074B13400A6855
:4017C0001343C022920013430B60704710080008FF8FFFFF18180000FFFCFFFF30B5B0235B059B899BB2002B04D0B0235B059B899BB201E080235B008022520093420DD120
:40180000134B1B681A6898215B58D2181168114B0B408021C9010B43136018E00C4D2B68196898229B58C918B02464050A4822580A4B13400A681343C022920013430B6002
:401840002A6811689C23D358CB1822581A6030BD10080008FF8FFFFF4C180000FFFCFFFF10B5B0235B059B899BB2002B04D0B0235B059B899BB201E080235B0080225200C7
:40188000934217D10020FFF7D5FBB0235B055B78002B04D0B0235B055B78DBB200E02123222B03D8002803D1013004E0012002E0002000E0012010BDF8B50700012803D9E6
:4018C0003D493E48FFF7F4FDB0235B055B78002B04D0B0235B055B78DBB200E021239DB2B0235B059B899BB2002B04D0B0235B059E89B6B201E0802676000020FFF79AFBDD
:40190000002814D180235B009E4212D1222D12D82B4B1B685C682B4821582B4B19403B068022520413400B432350002404E0274C02E0264C00E0254C80235B009E4201D10B
:40194000222D03D880235B009E4232D01C4B1A683123D35C002B04D1C421FF311C48FFF7A7FD174B1B681D6A80235B009E4203D1002F05D0174A06E0002F03D0164A02E031
:40198000164A00E0164A01212800FFF74FF800280FD10B4B1A68B423D3585B191B68002BF7DBEB681B0E1B06A0221206934200D100242000F8BDC0464C0A0000BC1F0010CD
:4019C0001008000818F00000FFFFFFFE04004200301D0010010100300300000C010000300100000CF8B50500012804D9822109012948FFF75DFDFFF733FF002849D0FFF71D
:401A000018FE0700002D11D10021244B244AD150E823DB00B0225205D65CF6B20120FFF74BFF041E19D1FFF70BFE16E0B02252051C4BD0581A4B194958501B49565CF6B22B
:401A40001A481A581F218A4314390A431A500320FFF722FDFFF7C2FE0024002C15D11049124A8B581F20834306401E438E50002D02D1FFF779FE08E00720FFF70DFDFFF7C9
:401A80002BFE0020FFF718FF04003800FFF7D5FD00E0074C2000F8BDBC1F0010307F00000000264010180000410700001CFF000003004200042805D10B4A116804230B43AF
:401AC00013600FE0094B1A681168A023D358CB180006C022920410401860034A136804218B4313607047C04610E000E0100800080749C02252008B589B009B088020C00539
:401B000003438B508B588020000603438B50704700002640014B18607047C04610080008002243088B4274D303098B425FD3030A8B4244D3030B8B4228D3030C8B420DD30D
:401B4000FF22090212BA030C8B4202D31212090265D0030B8B4219D300E0090AC30B8B4201D3CB03C01A5241830B8B4201D38B03C01A5241430B8B4201D34B03C01A524120
:401B8000030B8B4201D30B03C01A5241C30A8B4201D3CB02C01A5241830A8B4201D38B02C01A5241430A8B4201D34B02C01A5241030A8B4201D30B02C01A5241CDD2C309F0
:401BC0008B4201D3CB01C01A524183098B4201D38B01C01A524143098B4201D34B01C01A524103098B4201D30B01C01A5241C3088B4201D3CB00C01A524183088B4201D349
:401C00008B00C01A524143088B4201D34B00C01A5241411A00D20146524110467047FFE701B5002000F006F802BDC0460029F7D076E770477047C04603008218934202D080
:401C400019700133FAE77047030030B5002A0DD00C7801335D1E013A2C700131002CF5D19A189A4202D01C700133FAE730BD0000F8B5C046F8BC08BC9E467047F8B5C0468B
:401C8000F8BC08BC9E4670470300000001000000010000000000000005036000040000000100000000000000010000000604600008000000C8070008B101001073797374C0
:401CC000656D5F70736F63365F636D30706C75732E630000F4010000140004010A000905080000006301000003000000000000000000000068000000000000000000000017
:401D0000000000001212000000000000000000000000000000000000000000BA0000000000000000000000000000000000001D1D47656E6572617465645F536F757263652C
:401D40005C50536F43365C70646C5C647269766572732F7065726970686572616C2F6970632F63795F6970635F6472762E68000047656E6572617465645F536F7572636579
:401D80005C50536F43365C70646C5C647269766572735C7065726970686572616C5C6770696F5C63795F6770696F2E630000000047656E6572617465645F536F757263657C
:401DC0005C50536F43365C70646C5C647269766572735C7065726970686572616C5C6770696F5C63795F6770696F2E680000000047656E6572617465645F536F7572636537
:401E00005C50536F43365C70646C5C647269766572735C7065726970686572616C5C6970635C63795F6970635F6472762E68000047656E6572617465645F536F7572636531
:401E40005C50536F43365C70646C5C647269766572735C7065726970686572616C5C6970635C63795F6970635F6472762E63000047656E6572617465645F536F75726365F6
:401E80005C50536F43365C70646C5C647269766572735C7065726970686572616C5C6970635C63795F6970635F706970652E630047656E6572617465645F536F7572636554
:401EC0005C50536F43365C70646C5C647269766572735C7065726970686572616C5C70726F745C63795F70726F742E630000000047656E6572617465645F536F757263650F
:401F00005C50536F43365C70646C5C647269766572735C7065726970686572616C5C737973636C6B5C63795F737973636C6B2E630000000047656E6572617465645F536FD5
:401F4000757263655C50536F43365C70646C5C647269766572735C7065726970686572616C5C737973636C6B5C63795F737973636C6B2E680000000047656E657261746566
:401F8000645F536F757263655C50536F43365C70646C5C647269766572735C7065726970686572616C5C737973696E745C63795F737973696E742E630000000047656E6530
:401FC00072617465645F536F757263655C50536F43365C70646C5C647269766572735C7065726970686572616C5C737973706D5C63795F737973706D2E630000000020403F
:4020000000002440000000400000000000002340000030400000314000009F40000022400000104002020202020202020210101D800017007500FF03060206360410200052
:40204000000000007FC0000000040000000000000019324B647D00804000080B100000000000FF012002001F00800004FF081018001000140018001C4044484C500000000F
:40208000081000000800000004000000041000000012000004210000002100000016000040114002C41300138013A013200000001C00000000002140000025400000014074
:4020C0000000344000002440000031400000324000001F410000234000001140010101010101010101101010800019005500F0000501053B04101C01010000000FC00000B3
:402100000004000001010101011D3A57789600082000101208000000001F00000010000F002000023F06080E00080009000A000B24282C303400000010000000900000002B
:4021400088000000080000008000000004F0000000F00000400200002005A000D00100018001A0012000000010000000000000000000001000000008C000000090210010A7
:40218000C0000008400500003C060008D80100000048E80100127A0000093D0000093D0000093D0004000000A00F00000000D007E9000010C10000100000000010B5000443
:4021C000400B27D0144B1A68146AB023D15ACA00531AE3181B68002BF4DA3E220F4B1A600F4A104B1A60104B0621A322D20099500E4A98509B58084B1A68106AB023D15AAE
:40220000CA00531AC31800225A60084B064AD358002BFADA10BDC04610080008040126401E1F000008012640000026401C05000010B54378FF2B20D100F00AFA04000F4B65
:402240001A683123D35C042B04D8C421FF310C4800F026FA094B1A68116AB023D35A9B00CB18DB685A68116801230B4313601368DB07FCD4200000F0E3F910BD100800089D
:40228000301D0010F0B585B001900291544B1A683123D35C002B04D1C421FF31514800F0FFF94F4B1B681E6AB4229A58971950229B5C002B77D000F0D3F9050003283CD198
:4022C000474B1A683123D35C062B04D8C421FF31444800F0E5F9424B1968B023CB5A5A00D21853000A6A94466344B4228A58D3181B68002B23DB002000F0CAF93A4B9842B8
:402300001FD03A4B1A6900230021012000F0B0F9002803D0364C17E0013400E00024002000F0B6F9304B984202D0324B9C42F3D9304B9C4207D92E4C06E0002404E02C4CD5
:4023400002E02B4C00E00024002C46D100F080F90390294B294AD358002B13DA234A0121300000F0ADF900280ED10298FFF726FF019B002B0AD03B68002BFCDB00F080F9D7
:40238000040004E01A4C02E0194C00E01C4C032D05D10121002000F08BF90028F9D1039800F04EF919E000F053F905000F4A0121300000F085F9002809D1019B002B08D0CC
:4023C0003B68002BFCDB00F05BF9040002E0084C00E00B4C280000F033F9200005B0F0BD10080008301D001001018800E807000805005200EF4902001C05000000002640A7
:4024000001005000F0B54F464646C0B4824B1A685468B0235B055B78002B04D0B0235B055B78DBB200E02123212B67D1B023D15ACB005B1A116A8C46634419680029F5DA1B
:40244000DD6802212943D960B023D15ACB005B1A116A8C466344D968C9073ED5D9680904090C8C4684271168D559A84641440968090A0904FF26360431400D00882611686A
:40248000894691598846C14449460968090A0906294365462943D9601168D359C9180A685E4B98461A4090252D012A430A605A4B99461A6813689C46925962441368414629
:4024C00019400B002B4313604B461A681568D15969180B689359EB181B684F4B1A68B021555AEB005B1B156AAC46634400255D60156A515ACA00531AEB185B68484A11694D
:4025000004230B431361012801D030BF00E020BF414B1A68B023D15ACB005B1A116A8C46634419680029F3DAB02149054978002904D0B02149054978C9B200E021212129AF
:4025400032D1D968C90722D510688421525880180468324A1440DB681B0C1B02FF2109020B40234303602C4B19688823C8580B689C46604403681A400D6AB023CC5AE1001D
:402580000B1BEB18DB681B0E1B021A430260224B1A68106AB023D15ACA00531AC318DA6802218A43DA6028E086235B00E358002B23D11C4807681C4BA321C9005E581B4A7D
:4025C000904615681A4A0260062058503E21424611600631174A9950164B134AD358002BFADA154A86235B00E2500E4B1F60A323DB000D4AD6500D4B1D60074B1A68106A85
:40260000B023D15ACA00531AC31800225A600CBC90469946F0BDC04610080008FF00FFFF00ED00E00801264000002640040126401E1F00001C050000AAAAAAAA000000004E
:4026400001B40248844601BC604700BF3B16001001B40248844601BC604700BF3316001001B40248844601BC604700BF3504001001B40248844601BC604700BF290E001060
:4026800001B40248844601BC604700BF6108001001B40248844601BC604700BF450C001001B40248844601BC604700BFB114001001B40248844601BC604700BFB90B0010E7
:4026C00001B40248844601BC604700BF2D0A0010000000000000000000000000000000000000000000000000000000000000000000000000000000000000000000000000A7
:402700000000000000000000000000000000000000000000000000000000000000000000000000000000000000000000000000000000000000000000000000000000000099
:402740000000000000000000000000000000000000000000000000000000000000000000000000000000000000000000000000000000000000000000000000000000000059
:402780000000000000000000000000000000000000000000000000000000000000000000000000000000000000000000000000000000000000000000000000000000000019
:4027C00000000000000000000000000000000000000000000000000000000000000000000000000000000000000000000000000000000000000000000000000000000000D9
:020000041008E2
:4000000000780408EB0208100D00000051030810510308105103081051030810000000000000000000000000000000004D0308104D030810000000004D0308104D030810DA
:400040004D0308104D0308104D0308104D0308104D0308104D0308104D0308104D0308104D0308104D0308104D0308104D0308104D0308104D0308104D0308104D03081000
:400080004D0308104D0308104D0308104D0308104D0308104D0308104D0308104D0308104D0308104D0308104D0308104D0308104D0308104D0308104D0308104D030810C0
:4000C0004D0308104D0308104D0308104D0308104D0308104D0308104D0308104D0308104D0308104D0308104D0308104D0308104D0308104D0308104D0308104D03081080
:400100004D0308104D0308104D0308104D0308104D0308104D0308104D0308104D0308104D0308104D0308104D0308104D0308104D0308104D0308104D0308104D0308103F
:400140004D0308104D0308104D0308104D0308104D0308104D0308104D0308104D0308104D0308104D0308104D0308104D0308104D0308104D0308104D0308104D030810FF
:400180004D0308104D0308104D0308104D0308104D0308104D0308104D0308104D0308104D0308104D0308104D0308104D0308104D0308104D0308104D0308104D030810BF
:4001C0004D0308104D0308104D0308104D0308104D0308104D0308104D0308104D0308104D0308104D0308104D0308104D0308104D0308104D0308104D0308104D0308107F
:400200004D0308104D0308104D0308104D0308104D0308104D0308104D0308104D0308104D0308104D0308104D0308104D0308104D0308104D0308104D0308104D0308103E
:400240004D0308104D0308104D0308104D0308104D0308104D0308104D0308104D0308104D0308104D0308104D0308104D0308104D0308104D0308104D0308104D030810FE
:400280004D0308104D0308104D03081010B5054C237833B9044B13B10448AFF300800123237010BDC876020800000000B4930810084B10B51BB108490848AFF300800848C6
:4002C000036803B910BD074B002BFBD0BDE81040184700BF00000000CC760208B493081080470208000000007047FFF7FDFF72B6104C114DAC4209DA21686268A368043B3A
:40030000A2BFC858D050FAE70C34F3E70B490C4A00209142BCBF41F8040BFAE709480A490860BFF34F8F00F041FA00F01BFA00F0B5F8FEE7CCB80A10E4B80A10C8760208F6
:400340007C8802080040020808ED00E0FEE7FEE700B504207146084202D0EFF3098001E0EFF30880043001F0C1F9FEE72DE9F04786B044F2080398420ED00C4603D8B0F512
:40038000805F09D072E045F2010398420CD045F20C03984213D069E00021084602F0FCFD0022344B1A6061E00122324B1A600978314805F091F92278304B1A7056E00B8944
:4003C000152B03D101222B4B1A714CE0182B4AD10B68DA782A4BDA700A6892789A700A6852785A700A6812781A700A682549D279CA70226892798A70226852794A70226818
:4004000012790A702068204AC07AD0702068807A90702068407A50702068007A10702068057B003518BF0125184805702068467B104846710F68D2F800A0186804F0A6F8EB
:400440008046894605960495504604F09FF8CDE90201384604F09AF8CDE9000142464B460B4805F039F9E06810F0A4FB06B0BDE8F08700BFE87602088877081009880208F9
:4004800004880208008802080C88020808880208B477081008B52AF0A1FD08BDF0B52DED028B8BB062B603F0DBFE374800F0ACF901E02AF093FD354B1B78022BF9D13448CF
:4004C00002F06CFA9FED338A002440F6FE739C4209DC0134F7EE007A38EE278A8DED088A8DED098A02E09FED2B8A002408AB03930823ADF810301223ADF81C3005AB03AA26
:4005000092E8030083E80300234B9B68012B31D105A9224802F032FF80B9099D089804F035F806460F46284604F030F8CDE9000132463B461A4805F0CFF821E0194A904227
:4005400003D1194805F03AF91AE0184A904203D1174805F033F913E0164A904203D1164805F02CF90CE0154A904209D1144805F025F905E0084B1B7913B10022064B1A7137
:400580000A2001F077F8A0E76D030810188802089504081000000000E87602081488020800780810070016001C780810010016002878081002001600347808101700160008
:4005C0004078081008B5012000F0A0FE08BD00BF704700BF5C4AD2F8803303F00F0303F1D00152F8212002F00702032A04D0042A05D092B9554914E0554A116811E003F174
:40060000C002514951F8222002F01F02112A06D0132A04D04FF4FA4103E04E4901E04FF400418BBB484BD3F8902502F00100D3F88825C2F30172D3F8883513F0405F07D054
:40064000414BD3F88835C3F30173012B02D102E0012300E0002303B108B9032A46D13A48D0F88025C2F31103D0F88425C2F30C02D0F88005C0F300600130B1FBF2F202FB71
:4006800003F2B2FBF0F131E0012B2FD12E4BD3F8402602F00100D3F80026C2F30172D3F8003613F0405F07D0274BD3F80036C3F30173012B02D102E0012300E0002303B1F1
:4006C00008B9032A12D12048D0F8002602F07F02D0F80036C3F30423D0F80006C0F3044002FB01F2B2FBF3F2B2FBF0F1164BD3F88033C3F3011321FA03F215494A60164891
:40070000D0F89030C3F3072301330069000E0130B2FBF0F08860B2FBF3F3CB600B6103F5742202F23F220D48A0FB0202C2F387420A7503F2E7330A4AA2FB03239B098B614C
:40074000DB03CB61704700BF0000264000127A008C42020800366E010000214083DE1B43D34D621008B50D4801F0F2FBFFF730FFFFF730FF00221146042000F04BFB08487B
:4007800000F022FC074B1B6893F8513013B1064800F08AFC00F01EF908BD00BF607E081000770208108802084C78081008B500F0F8FF074AD2F8883043F47003C2F88830AF
:4007C000BFF34F8FBFF36F8F00F0EFFF08BD00BF00ED00E010B504462146034801F0E8FB0028F9D010BD00BF00006640054BD3F80833C3F30803002BF8D0024BD3F840036D
:40080000704700BF0000664008B518B1094AD062002000E0084858B9084B1B782BB9054801F0F6FF0122054B1A7008B902F01AF808BD00BFAC4202080100160080780208DC
:40084000C0F30800B0FA80F0400970471F4B98422DD00CD840282ED003D8E8B1102828D02FE0802829D0B0F5807F28D029E0184B984228D006D8B0F1204F0DD0154B9842E5
:4008800012D01EE0144B98420AD00133984209D0023B984215D101E0002070470F4870470F4870470F4870474FF4A0007047074870470D4870470D4870470D487047034870
:4008C00070470C4870474FF4A400704706005200010000F0090000A0040000F0010052000200520003005200010050000200500005005200FF00520038B5124B1B6893F813
:400900003130012B04D840F2C3110F4800F0D6FE0C4B1D682A6AB5F8B03013442C46D5F8B420D358002B0BDB084B1868FFF78EFF6B6801229A6063689B68002BFBD138BD8A
:40094000034838BD10880208DC7A0810A8780208020050001A4B186128B102230370FF23437000234380174B1B6893F850202AB300B583B0B3F93830ADF80030002301935C
:400980001149684600F03CFEBDF90030002B08DB590903F01F03012202FA03F30B4A42F82130084B1B6893F8513023B102220849012000F025FC03B05DF804FB704700BFCB
:4009C000A878020810880208F147020800E100E0A948020808B50248FFF7BCFF08BD00BFBC78020838B505460C46FFF729FF002833D0002C33D0FFF7EDFD1A4B1A4A1A608E
:400A000000225A609D60DC60184B1B6893F85220EAB11968D3F88430CA58CB58C3F30721120E531C01FB0333114901FB03F3114A12681149A1FB02218909B3FBF1F101F5ED
:400A4000195108314FF4807006F096FE38BD00214FF4807006F090FE38BD084838BD074838BD00BFA87802080001000510880208C0EA210190420208D34D621006005200A8
:400A800008B5FFF739FF08BD10B50446FFF7D8FE00283AD0FFF79EFD4FF0E0521C4B1A601C4B1B7813F0FF0F04D0194A136843F480731360164B5C6000229A60DA60164B68
:400AC0001B6893F85420DAB11968D3F88430CA58CB58C3F30721120E531C01FB03330F4901FB03F30E4A12680E49A1FB02218909B3FBF1F101F69801002006F03DFE10BD03
:400B00000021084606F038FE10BD074810BD00BFA87802080B0000161088020860F5900090420208D34D62100600520038B505460C46FFF785FE00283DD0002C3DD0FFF773
:400B400049FD4FF0C0621E4B1A601E4B1B7813F0FF0F04D01A4A136843F480731360184B4FF480725A609D60DC60174B1B6893F85320DAB11968D3F88430CA58CB58C3F39A
:400B80000721120E531C01FB0333104901FB03F30F4A12680F49A1FB02218909B3FBF1F101F56171002006F0E7FD38BD0021084606F0E2FD38BD084838BD074838BD00BFBD
:400BC000A87802080B00001610880208808D5B0090420208D34D621006005200002861D0F8B5054600295FD00C460B6833F0FF0303D099212D4800F061FD236933F0FF0346
:400C000003D09A21294800F059FDA3685B0D5B051BB19B21254800F051FD636823F4FF7323F001031BB19C21204800F047FDE36913F0604F03D09D211C4800F03FFD236A2D
:400C400013F0604F03D09E21184800F037FD184A11688B69EB1ADB0949691B01C81826682E60166896F87D60E768AF51166896F87E602769AF51166896F87F606769AF51BD
:400C8000166896F87C60A768AF516668AE61126892F88020A669AE50E269CA50236A43600020F8BD034870470248F8BD1C7B08101088020801005A0038B50B4B1B68D3F807
:400CC000B4301B58002B0DDA0D4604460B0C1B0423B140F2D521054800F0F0FCA9B26160002038BD024838BD108802089C7B081001008A0038B50368002B01DA002300E066
:400D0000094B73B90D460446C2600B0C1B0423B140F2BB21054800F0D1FCA9B2A160002038BD014838BD00BF01008A009C7B081038B504460D4619B99921084800F0BEFC1A
:400D4000074B1B68D3F8B4301B59002B03DAE3682B60002038BD034838BD00BFDC7B08101088020801008A00254B1B6893F8313083423AD900293AD00B6813F01F0F38D156
:400D800070B50D4604461E4B1B6893F83130984204D340F2C3111B4800F090FC184B1B68186AB3F8B03004FB0304174E34602A68D2080021686804F015F800212046FFF736
:400DC0007BFF346825B940F293310E4800F076FC2A4600212046FFF78DFF60B900210A4B1868FFF769FF40B970BD084870470748704706487047064870BD054870BD00BF7F
:400E0000108802089C7B0810C078020803018A0001018A0010B504461346B2B9A9B9124B1B6893F83130984204D340F2C3110F4800F044FC0C4B1B681A6AB3F8B03004FB5E
:400E400003240B4B1C60002010BD43B149B1084A51609360111D2046FFF786FF10BD054810BD044810BD00BF108802089C7B0810C078020803018A002DE9F0411B4B1B6809
:400E8000DC68236883422CD90D464609A0EB4610012303FA00F819B900F083FC074600E00027124B18680368002B01DA002300E00F4B83B9626852F8263018EA030F05D12D
:400EC00048EA030342F82630002400E0094C0021FFF7F2FE00E0084C25B9384600F065FC00E0064C2046BDE8F08100BFC078020801008A00020188000301880004018A0009
:400F00002DE9F0411B4B1B68DC68236883422CD90D464609A0EB4610012303FA00F819B900F03FFC074600E00027124B18680368002B01DA002300E00F4B83B9626852F800
:400F4000263018EA030F05D023EA080342F82630002400E0094C0021FFF7AEFE00E0084C25B9384600F021FC00E0064C2046BDE8F08100BFC078020801008A00020188000C
:400F80000301880004018A000B4B1B68DB681A6882420CD94109A0EB4110012202FA00F05B6853F82130184203D004487047044870470448704700BFC0780208010188007A
:400FC00004018A0000018800024B1B680BB9014B18607047CC7802082DE9F8430446884691461D46089F2C4B1B681BB9B5212B4800F064FB284B1B682C2000FB04F01C1867
:40100000EEB21E50C5F3072363602D0CA560244B1B6893F831309E4204D340F2C311214800F04CFB1E4B1B68196AB3F8B02006FB02162661666893F832309E4204D340F256
:40104000DF11184800F03AFB154B1B681D6A803605EB46156561A668330C1B0423B14FF4FF71104800F02AFB330C1B0423B140F2FF110C4800F022FBB3B243EA0646AE60A9
:40108000C4F81C90C4F820800023A36117B1B7F90030A381BDE8F883CC7802081C7C0810108802089C7B0810F0B58FB0044618B95221274800F002FBA369072B03D956212B
:4010C000234800F0FBFAE36A1BB95821204800F0F5FA236B1BB959211D4800F0EFFA07AD04F114060FCE0FC537682F6002AD26460FCE0FC533682B60164B1B68B3F936202B
:40110000079B1344ADF83030089B0D93A26AE16A0CAD00953B460A98FFF75EFF00210091069B0A460598FFF757FF216B284600F067FABDF93030002B08DB590903F01F03E1
:40114000012202FA03F3044A42F821300FB0F0BD1C7C08101088020800E100E0F8B506460F461D4614461AB9FD211F4800F0A6FA1E4B1B681BB9FE211B4800F09FFA1B4BDE
:401180001B682C2101FB063001FB07314B68012202FA03F31B04466802FA06F60269EAB18F69EFB91268002A01DA002200E0104AC2B92288134323600369DC6001238B6135
:4011C0004D620469330C1B0423B140F2BB21094800F074FAB2B2A2600020F8BD0648F8BD0648F8BD0548F8BD1C7C0810CC78020801008A009C7B081004028A0007028A00C6
:40120000F8B505460F4616460E4B1B6823B94FF4AF710D4800F052FA0A4B1B682C2404FB0534236A23B94FF4B171074800F046FAE369B34204D9236A43F826700020F8BD5B
:401240000248F8BDCC7802081C7C08100A028A0070B582B000230193044620B940F2D111284800F02BFA236923B94FF4E971254800F024FA636923B940F2D311214800F07A
:401280001DFA236A23B94FF4EA711E4800F016FA6369DD682A0C20D012041A601B682069194B1B68D3F8B430C358002B15DA01A9FFF73EFD60B9019803681E0CDBB2E26912
:4012C000934206D2226A52F8233013B1984700E0002631462069FFF7EFFCADB275B16369ADB21D601B68636A1BB198470023636202E0A36A03B198470023A36163691B6886
:4013000002B070BD1C7C08101088020810B50446074B1B6823B940F2B111064800F0CEF9034B1B682C2000FB0430FFF791FF10BDCC7802081C7C081010B50446094B1B6840
:401340009B6CC34013F0010F03D1BE21064800F0B5F9044B1B681B691034A402185900F00F0010BD108802085C7C081010B504460D4B1B6893F83C30834204D84FF4A171CB
:401380000A4800F09BF904F1D003094A52F8230000F00700042806D1C03452F8240000F01F0040F4807010BD108802089C7C081000002640B0F5C26F80F09B80B2F5C26F02
:4013C00080F09980B1F1807F80F09780F0B401244C4B1C70FF2805D800F00F000F26374607231DE0B0F5A06F05D200F00F030F260027384614E0C0F30325B0F5C06F07D291
:401400000001C4B245EA0403FF260027384607E0030203F470632B4340F60F7600273846FF2A09D81201D2B2104343F4E02347F0F00746F4702620E0B2F5A06F06D21204E1
:4014400002F47022134346F4702616E0140A240404F470241C43B2F5C06F06D2130503F47003234346F47F0607E0120602F07063234346F0706646F47026234A1268156AD6
:40148000B2F8B020C2EBC202AA58002AF5DA1D4A527822B11D4AD2F81C25002A1DDA41F61F741B4A146043F63D54043A1460A2F58272D2F8184524EA07073843C2F8180570
:4014C000D2F8140520EA06063343C2F814350D4B5960C2F81C15002000E00E480A4B1A68116AB2F8B030C3EBC3030B4400225A6005E0084870470748704706487047F0BC0A
:40150000704700BFD078020810880208000026400801264001004A0070B505460022214B1A70214B1B681A6AB3F8B030C3EBC303D418D358002BF4DA1C4B1A6841F61F7365
:401540009A4207D11A4B1A6843F63D539A4203D0002602E0002600E00126164BD3F8202522F07F4000226260D6B1D0B165B90D4B5E684408002502460023E1FB0645204650
:40158000294603F089FA70BD064B5A68540800250023E1FB00452046294603F07DFA70BD002070BDD07802081088020808012640040126400000264038B50D4B9A680D4BB5
:4015C0009A420FD10D46044621B940F237110A4800F074F804F11003064A52F8230042F8235038BD1030054B53F8200038BD00BF00ED00E000400208247D08100000081092
:4016000048B338B504460D464368072B03D93221134800F053F8B4F900306268002B08DB5201D2B203F1604303F5614383F8002305E003F00F035201D2B20A49CA540A4B9F
:401640009A680A4B9A4208D12946B4F90000FFF7B3FF002038BD06487047002038BD00BF247D081014ED00E000ED00E0004002080100560010B5044605E0084B186800F0ED
:4016800087F8A4F50044B4F5004FF6D8044B186800FB04F000F07CF810BD00BFA8420208A442020808B5034B1B7800FB03F000F06FF808BDA042020801BEFEE738B50D46FE
:4016C000044C18220146204604F088F8A5610020FFF7F2FF204D0208024B1B685B6801229A60704710880208FEE700BF08B50268254BDA6142681A6282685A62C2689A624A
:401700000269DA6242691A6382695A63C2699A631E4A916AD963D16A1964516A5964516B9964926BDA64F1EE103A13F0900F27D0026A154B1A65426A5A65826A9A65C26AB8
:40174000DA65026B1A66426B5A66826B9A66C26BDA66026C1A67426C5A67826C9A67C26CDA67026DC3F88020426DC3F88420826DC3F88820C26DC3F88C20026EC3F890201F
:40178000FFF7B2FF08BD00BF204D020800ED00E00230800803D001300238FCD100BF00BF7047EFF3108072B6704780F3108870474FF0B0539B899BB223B14FF0B0539B89C0
:4017C0009BB201E04FF48073B3F5807F15D1174A13681868D3F89810435823F00F0343F00203435013681968D3F89C208B5823F00F0343F002038B50704710B40B490B68BE
:401800001C68D3F898000A4B1B6823F440732258134343F4407323500B681A68D3F89C3004490968D1505DF8044B70471088020848180016441800164FF0B0539B899BB2EF
:4018400023B14FF0B0539B899BB201E04FF48073B3F5807F15D1164A13681868D3F89810435823F00F0343F00303435013681968D3F89C208B5823F00F0343F003038B5044
:40188000704730B40A4803681D68D3F8984009490B6823F440732A59134343F440732B5103681A68D3F89C300968D15030BC704710880208201800164FF0B0539B899BB27E
:4018C00023B14FF0B0539B899BB201E04FF48073B3F5807F0BD10D4B1B681968D3F898208B5823F4E04343F4C0438B507047074B1B681868D3F89810054B1B6823F440739A
:401900004258134343F440734350704710880208181800164FF0B0539B899BB223B14FF0B0539B899BB201E04FF48073B3F5807F0BD1114B1B681968D3F898208B5823F4EA
:40194000E04343F480438B50704730B40A4803681D68D3F8984009490B6823F440732A59134343F440732B5103681A68D3F89C300968D15030BC7047108802084C1800164C
:4019800008B54FF0B0539B899BB223B14FF0B0539B899BB201E04FF48073B3F5807F17D10E20FFF7C9FC4FF0B0535B7813F0FF0F04D04FF0B0535B78DBB200E02123222B94
:4019C00002D818B9012008BD012008BD002008BD012008BD10B50446012804D940F262710F48FFF76BFE1CB90E4B5869C00F00E000200D4B1B6893F844307BB1012C0DD106
:401A0000084B9B6913F0804F05D1064B9B69002B03DA012010BD012010BD002010BD00BF687D0810000026401088020838B5154B1B6893F8443023B30D460446072804D96F
:401A400040F2CC711048FFF739FE0E4B1B6893F8443023B10D4B9B6903F0070300E00023DBB29C420DD00948826922F0070104F007020A43826125B19C4202D9C820FFF72F
:401A800011FE38BD10880208687D08100000264010B30246C3680BB303680BB330B40579114B03EB85035C682346002103E0934205D019465B69002BF9D1012000E00020B8
:401AC00080B124B9084B03EB85056A6000E04A6111610023536105E000207047002070470020704730BC7047DC78020850B310B402460479164B03EB840359680B4602E0AE
:401B0000934204D05B69002BFAD1002000E00120D0B18A420ED14B6933B10D4A02EB8404636000221A610FE0094B03EB84040023636009E01A69596951615A6922B11B6998
:401B4000136101E0002070475DF8044B704700BFDC78020830B583B004460D46022808D9042806D0032804D040F6B2112848FFF7A5FD6B1EDBB2012B08D9042D06D0082DA0
:401B800004D040F6B3112248FFF798FD214800EB84004468042D12D0012D1AD111E0A3681D420AD1E3681A6800925B6801932368294668469847174B9C61646902E0002011
:401BC00000E0002014B3144B9842E8D1012DE6D11CE0022D01D104E01C466369002BFBD103E00C4B9C6904B1246900200CE0A3681D4208D1E3681A6800925B680193236830
:401C00002946684698472469002CF0D103B030BD687D0810DC780208FF00420070B50546012804D94FF4E0711D48FFF747FD1D4B5B682BB101210020FFF78CFF044600E055
:401C400000242CBBFFF7ADFD0646164B5B681BB104210020FFF77EFF134A136923F004031361012D01D030BF07E020BF0D4B1B7803B120BF01220B4B1A703046FFF795FD2B
:401C8000084B5B684BB108210020FFF763FF04E002210020FFF75EFF044C204670BD00BF687D0810DC78020800ED00E0FF00420008B5FFF776FD074B5A6807490A4042F4E2
:401CC00068525A605A68114059605B68FFF76DFD08BD00BF00002640FF00FC0FF8B50546012804D940F64C213948FFF7E7FC4FF0B0535B7813F0FF0F04D04FF0B0535B7883
:401D0000DBB200E021239CB24FF0B0539B899BB223B14FF0B0539F89BFB201E04FF480770E20FFF709FB98B9B7F5807F12D1222C12D8284B1B6858684FF21801435823F02A
:401D400080722B0603F0807313434350002604E0214E02E0204E00E01F4EB7F5807F01D1222C02D8B7F5807F2FD01A4B1B6893F83130012B04D840F2C3111848FFF79EFC3A
:401D8000144B1B681C6AB3F8B0301C44B7F5807F02D125B1124A05E01DB1124A02E0124A00E0124A01212046FEF7A4FF68B9094B1B68D3F8B4301B59002BF8DBE36803F020
:401DC0007F43B3F1204F00D100263046F8BD00BF687D08101088020804004200DC7A0810010100300300000C010000300100000C70B50446022806D0052804D040F2027146
:401E00001E48FFF75BFCFFF7BBFDA0B3FFF7C9FC0646022C07D10120FFF760FF054678B9FFF7C6FC0CE0164A536923F0070343F0030353613420FFF735FCFFF76BFD002527
:401E4000ADB90F494B6923F0070204F0070313434B61022C02D1FFF72FFD08E09120FFF721FCFFF7E9FC0020FFF738FF05463046FFF79BFC00E0034D284670BD687D0810C7
:401E80000000264003004200F8B50446012804D94FF402612A48FFF711FCFFF771FD00284AD0FFF77EFC07468CB9002147F63073244AD1504FF0B05393F84067F6B20120EA
:401EC000FFF70CFF0546D8B9FFF772FC18E01E4B19681C4A47F63073D1504FF0B05393F84167F6B24FF61C71535823F01F0343F00B0353500320FFF7D5FBFFF70BFD002599
:401F0000B5B910494FF61C728B5823F01F0306F01F061E438E5014B9FFF7CEFC08E00720FFF7C0FBFFF788FC0020FFF7D7FE05463846FFF73AFC00E0044D2846F8BD00BFDB
:401F4000687D0810000026401018001603004200014B1860704700BF1088020810B4D0F8003303F00F03072B06D900230DE0D0F84043CC54013300E000239342F7D306E093
:401F8000D0F8404321F8134001339342F8D35DF8044B704710B51446D0F80833C3F308039A4200D31C462246FFF7D8FF204610BD036813F4006F01D0802200E04022D0F881
:401FC0000832C3F30803934203D0C0F84012012070470020704700BF10B4D0F8003203F00F03072B06D900230DE0CC5CC0F84042013300E000239342F7D306E031F8134048
:40200000C0F8404201339342F8D35DF8044B704710B51446036813F4006F01D0802200E04022D0F80832C3F30803D31AA34200D81C462246FFF7D0FF204610BD2DE9F84302
:4020400005460C46036813F4006F02D04FF0800801E04FF04008D5F8007207F00F07A26A012A19D9D4F82490E262561EB9F1000F00D026B940F273512548FFF71FFB3246E1
:4020800049462846FFF7C4FFA36A1B1AA362072F00D9400048446062D5F80832C3F30803984533D0A36A012B30D10023A362072F02D8636A1E7801E0636A1E88FFF771FB53
:4020C000C5F840624FF40073C5F8803FD5F8803FFFF76BFBD5F8883F23F4007222F0010242F4007623F4EE6323F0030323B140F22A410848FFF7E2FAC5F8886F236843F003
:4021000002032360236B0BB101209847BDE8F883187F0810587F08102DE9F04105460C46036813F4006F01D0802600E040267608A769D4F81C8017B1B8F1000F04D14FF4FF
:4021400099613148FFF7BAFA424639462846FFF721FF236A03442362E3691B1AE36173BBA368FBB1E3689E4201D8013E00E05E1E2B6813F4006F01D0802300E040239E4275
:4021800004D34FF420712148FFF798FAD5F8043323F0FF03F6B21E43C5F804630123C5F8C83F02E00023C5F8C83F636823F001036360236B33B304209847BDE8F081A16950
:4021C000D5F8002302F00F02072A00D940000844A0619E4216D95C1E2B6813F4006F01D0802300E040239C4204D34FF420710748FFF764FAD5F8043323F0FF02E3B213431D
:40220000C5F80433BDE8F081187F0810587F0810002800F0A48170B50546002900F0A18116460C460B78022B03D93F21A248FFF745FA637B023BDBB2062B03D940219E4859
:40224000FFF73CFAA37B3BB1022B05D0032B03D041219948FFF732FA94F82130012B03D942219548FFF72AFA94F82830012B03D943219148FFF722FA2378012B06D86368D6
:40228000083B082B94BF0023012307E0A37F2BB16368013B062B94BF002301231BB145218548FFF70BFAA368053B042B03D946218148FFF703FA6369FF2B03D947217E48E4
:4022C000FFF7FCF9A369FF2B03D948217A48FFF7F5F9A37C6BB1237833B9A368092B05D1A37B2BB1012304E0012302E0012300E000231BB14A217048FFF7E0F9636B23F429
:40230000366323F00D031BB14C216B48FFF7D6F9E36B23F4EE6323F003031BB14D216648FFF7CCF92378022B01D1A37F13B16268013A00E00022237F13B14FF4803100E0FD
:402340000021A368082B02D84FF4006300E000230B4302F00F02134343F000732B60226B2B6813F4006F01D0802300E040239A4203D362215048FFF7A1F9A26B2B6813F452
:40238000006F01D0802300E040239A4203D363214948FFF793F9626A2B6813F4006F01D0802300E040239A4203D364214248FFF785F923781B0603F040732B64637F0BB15E
:4023C000402200E00022A37C13B14FF4806300E000231343227C12B14FF4807200E000221343627C12B14FF4007200E000221A43E36A013B1B0403F470231343627B013AD4
:4024000002F007021343A27B120102F030021343AB64237B13B14FF4807200E00022E37B23B92378022B03D1012302E0012300E0002313B14FF4007300E000231A43A36811
:40244000013B03F00F031343C5F80033227DA3691B0403F47F031343C5F81033E26AD5F8003303F00F0303339A4201D3102A03D97A211148FFF722F9E37F23B12378012BED
:4024800003D0002302E0002300E0012313B14FF4807200E00022637B013B03F007031A43A37B1B0103F0300313436B64237B2BB14FF4807203E000BF9C7F08100022A36878
:4024C000013B03F00F0313432278012A02D14FF4803200E000221343C5F8003294F83030C5F8043394F8203013B14FF0007200E0002294F82130012B02D14FF0807300E050
:402500000023134394F82820012A02D14FF4803200E00022134394F8242013432B6594F83830C5F80432636B23F4926323F002031B051B0DC5F8C83FE36B23F08C035B0518
:402540005B0DC5F8883F76B1002070603060B060F0603062F0623063044B736370BD04487047034870BD002070BD00BFEFCDAB000160AA000B694A69934202D34869181AF2
:402580007047CA694869101A184470472DE9F04107460D46036813F4006F02D04FF0800801E04FF040084FEA5808D7F80863C6F308062C6926E00134EB689C4200D10024EA
:4025C0006B699C420FD12B6B0BB1082098476B699C4208D10023C7F8C83F0CB1013C13E0EC68013C10E0D7F84023D7F8003303F00F03072B02D8AB681A5502E0AB6823F837
:402600001420013E002ED6D12C61EC6829463846FFF7B0FF201A804519D908B1441E00E000243B6813F4006F01D0802300E040239C4204D34FF420710648FFF73FF8D7F82C
:40264000040320F0FF03E0B21843C7F80403BDE8F08100BF587F081038B504460D46D0F8003E13F0080F35D0D0F8CC3F13F448730AD04A681A434A60C0F8C03FD0F8C03F75
:402680000B6B0BB110209847D4F8CC3F13F4006F09D06B6843F400636B604FF40063C4F8C03FD4F8C03FD4F8CC3F13F0010F11D0EB6923B129462046FFF72EFD05E0AB686E
:4026C0001BB129462046FFF761FF0123C4F8C03FD4F8C03FD4F8003E13F0040F2ED0D4F88C3F13F4A0630AD02A681A432A60C4F8803FD4F8803F2B6B0BB120209847D4F8E4
:402700008C3F13F0010F08D029462046FFF796FC0123C4F8803FD4F8803FD4F88C3F13F4007F0BD00022C4F8882F2B6823F001032B60EA622B6B0BB10220984738BD00BF47
:4027400038B5012902D0082942D047E0284B1B78012B45D00320FEF717FC264B984241D001F02AFD01283FD0022006F0AAFF0546FFF717F8204B186028F032FC0446062836
:4027800015D0022D09D1022015F08EF9032C01D0052C0ED178B1194C12E0012015F084F9022C0AD058B9FFF739FA144C08E0002406E0124C04E0002402E0104C00E00F4CD7
:4027C0000E4B9C4211D10C4B1868FEF7EEFF0CE0094B1868FEF7E9FF002406E0074C04E0064C02E0054C00E0044C204638BD00BF188802080101880018790208FF0042004A
:4028000008B50248FFF772F908BD00BF10440208B0B110B50B4A5060C36A03B193600024094B1C70094B1C70094B1C60094B1C7000F0AAFB084B1C70084B1C70204610BD35
:4028400007487047187902082C880208308802083488020831880208178802081C8802080100160070B59AB0404D15AC28686968AA68EB680FC4286920604C22002102A8A0
:4028800002F0B0FA3A4B029315AB049342F61013ADF8143005238DF81630364B5B681B69069341F2960307931B23ADF82030ADF8223003238DF8243004238DF825300623BA
:4028C0008DF8263010238DF827308DF828308DF829307A23ADF84C3001238DF850302648FFF7D6F806F0E6FE06F0DDFE08A806F04DFF0346002836D1204B03931D4B5B68D9
:40290000996B89B10B460DF12A0220311E685D689C68D868166055609460D060103310328B42F3D11B88138002A806F0D7FE0346B0B90122124B1A700023124A1370124AD4
:4029400013700C4B5B681A6A00929B6ADB88ADF804301023ADF8063068460EF0C7FF034600210A4A116018461AB070BDDC7F0810F13408101879020810440208B44D0208AB
:4029800018880208208802082188020834880208014B9867704700BF00F03D4018B1034AD060002070470248704700BF187902080100160008B51BF0BBFF034B1B680BB176
:4029C00000B1984708BD00BF2479020848B108B5B1F5FD7F07D20A46044902F0F8F9002008BD03487047024808BD00BF07080016010016002DE9F04FADF5077DB1F1805FFE
:402A000003D38D189D4CA54210D9B1F1A05F03D38D189B4CA54209D99A4CA14240F20F818D1804F20124A54200F20E81049317460E468046944B5B6913F0804F10D0924BA3
:402A40005C6904F00704022C24D10520FFF7D0F900908E4B9842F8D002940123039323E04FF61C73884AD35803F01F034FF0B05292F84027D2B2D31A18BF012303937BB9DF
:402A80000120FFF701FA814B9842F9D000900523029309E00294012303930023009303E00523029300230093794B009A9A4204D140F2D5117748FEF701FE06F17046730AFF
:402AC00001935C0200210320FEF7D6F90028F9D10546824683E0B44213D3BD4211D218F805200DF1180E0EF8032041B904F180521278D2B218F805E0724500D00121013591
:402B000006E004F1805212780DF1180E0EF803200134013301E000210B46B3F5007FDAD3002959D0009B002B56D1049B002B48D14FF0C80B05955D46DDF804B00BF500295E
:402B40004FEA49294846FDF79FFF8246013D0120FEF7A8FD0AF4A403B3F5A40F01D1002DECD1059D4C4B9A4505D1FDF789FF4B4B9842FAD08246BAF1000F17D14FF0C80BED
:402B80005B46A3461C4606A94846FDF7CFFF8246013C0120FEF786FD0AF4A403B3F5A40F03D1002CEFD15C4600E05C463A4B9A4511D1FDF765FF394B9842FAD082460120F9
:402BC0000AE0019B03F5002006A94002FDF70AFF8246012000E00120019B01330193009B23B9BAF1000F01D1BD4294D308B1FEF773FD00210320FEF783F90028F9D1009B32
:402C000033BB214B5B6913F0804F09D0029B022B06D10220FFF7ECF800901C4B9842F8D0194B1B6813F4000F12D1039B83B90020FFF72AF90090154B9842F8D008E0002305
:402C40000093DFF86CA003E000230093DFF860A0009B63B9124B9A450BD004339A4508D0BAF1000F01D1002004E00E4802E00E4800E00E480DF5077DBDE8F08F0000101094
:402C800000800014FF070016000026400400420003004200F08008100100500002005000020052001300160012001600010016000600520048B108B5B1F5FD7F07D20A4633
:402CC00001230449FFF796FE08BD03487047024808BD00BF070800160100160070B5C0B006460C4615464FF480720849684602F06EF805E016F8012B6A401DF80250013C81
:402D0000002CF7D1284640B070BD00BFF07F081008B50022FFF7E2FF08BD00BF002070470288AE2303FB02F3A3F26F33024AA2FB0323DB080B807047CDCCCCCCB0F900200A
:402D400042F64B0303FB02F3044A82FB0302DB17C3EB2233C3F1BD030B807047AD8BDB680020704708B514F0C7FC08BD08B5FEF799FC08BD084B1B685B6BB3F90030002B15
:402D800008DB590903F01F03012202FA03F3034A42F82130704700BF1C79020800E100E00A4B1B685B6BB3F90030002B0DDB5A0903F01F03012101FA03F32032044941F806
:402DC0002230BFF34F8FBFF36F8F70471C79020800E100E0024BD3F8000500F00300704700002640024BD3F81C05C00F704700BF0000264008B5FEF78FFB08BD70B50446A9
:402E00000D4616460320FEF7BFF8054B984205D0324629462046FEF7CDFA70BD014870BD0101880003004A00431A002BB8BF5B4293422BD310B4194BD3F83C35C3F30903FD
:402E4000884207D9411A01EB5201B1FBF2F29A1A0FD50AE0091A01EB5201B1FBF2F21A4440F2FE318A4202D803E0002201E040F2FF320A4CD4F83C1521F47F7121F00301CF
:402E8000C2F309000143C4F83C1502E00023D81A7047981A5DF8044B704700BF0000264008B5034B1A684FF40041FFF7BDFF08BD2844020810B501F033F80220FFF768FDC7
:402EC0000A4C23680A49586BFEF79AFB23685B6BB3F90030002B08DB590903F01F03012202FA03F3034A42F8213010BD1C790208B529081000E100E00420704708B5FEF702
:402F000050FC08BD08B5FEF750FC08BD08B5FEF785FE08BD08B50021FEF788FD08BD00BF704700BF704700BF002070470048704711001600004870471100160000487047D9
:402F40001100160000487047110016000048704711001600004870471100160000487047110016000048704711001600004870471100160000487047110016000048704721
:402F800011001600704700BF08B5024800F046FE08BD00BF0C440208F8B5022872D8002972D10022134606E03B4CE45C012C01D90132D2B20133002BF6D0012A0CD1374B39
:402FC0001B681C6801EB8102930023445B681B79023BDBB2012B59D8314B1B78002B57D1304B1970E0B92D4F3C68236801EB8105AA009D186668C1EBC1014B001E44B18846
:4030000029822168114449686468E45A0C8039680C682244526849680B445B8853801EE001281CD11D4F3C68236801EB8105AA009D186668C1EBC1014B001E44B189298287
:40304000216811444D68616819440989298039680C682244526849680B445B895380124B18700E4B1B6818680E4B1B7803EB83039A0010440AF052F9034650B90121084AD6
:40308000117006E0094B04E0084B02E0084B00E0084B1846F8BD00BF208802081C7902082188020816880208318802080100160002001600FF00160070B439B9144B1B6839
:4030C0001B689968CE7F00231D460EE0104B1B681B68D968CE7FF6E7CA5C52B10133CC5C1B2C01D0134400E00125B34201D2002DF2D05DB101338279CA54002204E0D418C1
:403100000134855C0D550132052AF8D970BC70471C79020870B504460EF002FC054620BB134B1968086A228902EB82029300143B03445A6812F0007F17D0E67B1B695A686A
:40314000CB69D21A06EB8606B318A28821680948184401F03CFEE37B074AD35C012B04D1064A137843F002031370284670BD00BF1C790208248802081C88020817880208E1
:4031800030B587B002891A4B1B685B699B889A4229D1044601AB07C883E807000022ADF81020A289ADF8122040228DF814201846FFF7B0FF054680B923681B7803F00203DB
:4031C0009BB22BB10B4B1B6821460B48984704E0084B1B68214609489847094A137803F0FE03137000E00025284607B030BD00BF1C79020820790208050001000600010069
:403200002C8802084288531E9BB2172B1AD84178D1B910B40F4B1868046A02EB82029300143B23445A6812F0007F0FD01B695A68C369D31A01EB81011944074B5B5A138025
:40324000002004E0012070470120704700205DF8044B70471C79020824880208C8B1104B1B68196A038903EB83039B00143B0B445B6813F0007F0ED100B587B001AB0021DA
:403280000491059107C883E807001846FFF742FF03E00E2070470120704707B05DF804FB1C790208F0B583B000283ED006460388ADF804309DF8053013B92348C35C00E005
:4032C0000023012B34D9182935D87378D3B100251E4834E0601800EB80008300143B7344586810F0007F0BD070781B695B68FD695B1B00EB8000164D2844C35C1380012573
:40330000013401E000242546124B1F68D7F820E001EB81008300143B73441B895B1A9C420CD8002DD6D0094809E00025074806E00025094803E00025044800E0034805B152
:40334000002003B0F0BD00BF2088020801001600248802081C7902080700160000B583B00DF10602FFF79EFF20B9BDF8060000F0010000E0002003B05DF804FB30B303469A
:4033800031B330B587B00288ADF804209DF8052012B91448825C00E00022012A1AD91D460C460846FFF75AFFB0B921892846FFF7D5FF98B102AB94E8070083E807002A88A1
:4033C000ADF8142018460DF0E7FB08E00648704705487047054802E0054800E0054807B030BD00BF208802080100160007001600020016001700160000B583B00023ADF8DF
:4034000004308389ADF800300389ADF8023012238DF80430084B1B7813F0010F09D129B18DF8051068460DF097FB02E0C0680DF0C1FB03B05DF804FB2C88020810B404460C
:4034400088B10023194606E0104A52F82320944200D1012101330D4A1279934206D20029F2D0002003E00021094800E0002050B949B9064B1B792BB9044A42F823400133E5
:40348000137100E003485DF8044B704738880208010016000300160070B506460D460020044606E0084B53F824302946304698470134054B1B799C4204D2044B1B7813F08C
:4034C000010FEFD170BD00BF388802082C88020883792BB100207047C25C32B9013300E00023052BF8D9002070470120704700BF70B58CB004460D46BF4A137843F0010361
:40350000137044F20803984200F04C823CD842F20403984200F0F08019D841F20203984200F0178108D8B0F5805F79D041F20103984200F00B8157E341F20303984200F0A4
:40354000418141F20403984200F049834CE343F2190398425BD00AD843F20103984200F0BC8043F21203984200F0B7803CE344F20603984200F01A8200F2CD8144F2040387
:40358000984200F032812FE345F20C03984200F0DD821BD845F20103984200F046820AD844F20A03984200F0B38144F21003984200F0B18118E345F20203984200F08082E2
:4035C00045F20303984200F0B7820DE345F21003984200F0F6820AD845F20E03984200F0EA8245F20F03984200F0E882FCE245F21703984200F0EB8246F20103984200F0C6
:40360000118245F21403984240F0EE82DCE2084606F000FA784A137803F0FE031370E3E2764B1E683046FFF753FF60B130460AF0DBFE724E00213068FFF73EFD01213068E7
:40364000FFF73AFD37E06E4B1A68936A1B791BB34FF0B05191F8043603F03F0391F8050600F03F0043EA801391F8030600F01F0043EA003391F8001601F07F0143EA4143EF
:40368000126B13705E4A1168096BC3F3072048701268126B1B0C9370594E3368186B0AF0A3FE33680021186BFFF706FD33680121186BFFF701FD524B1B68986A02300BF0A4
:4036C000A9FA504A05AB1068516803C305A80AF0AFFE02224C4B1A7086E200234A4A13704A4A13704A4A137043F212039C4240F07B82FFF785F877E2464B1B6813F0010F35
:4037000040F072820023ADF814308DF816303C4E33689B6A93F900308DF8143005A80AF0A1FE33689B6A93F901308DF8143001238DF81530FF238DF8163005A80AF092FE61
:40374000344A136843F0010313604DE2FFF7A4FE4AE24978304B1B88ADF81430002319E02E4A32F81320ADF808209DF8092012B92B48825C00E00022012A0AD9274A12F8C8
:403780001320914205D1254A32F81330ADF8143002E00133002BE3D09DF81530FF2B05D104D140F2CA311F48FDF788FFBDF81430ADF82030ADF81C30C3F3072329781A4AF2
:4037C000D15411E20B78002B40F00E820B7A33B9164B0022DA809A80154A1A604B60064A137803F0FE031370FEE149790A4B1B88ADF81430002337E02C8802082C44020811
:403800001C7902082C81081018880208218802083C79020834880208348108101488020820880208388108103088020844790208C4760208AF4A32F81320ADF80C209DF8C3
:403840000D2012B9AC48825C00E00022012A0AD9A84A12F81320914205D1A64A32F81330ADF8143002E00133002BE3D09DF81530FF2B05D104D140F2CA31A048FDF71EFF87
:40388000BDF81430ADF82430ADF81430C3F3072369789B4AD154EB78002B40F0A5816979984B1B88ADF81430002319E0914A32F81320ADF810209DF8112012B98E48825CBF
:4038C00000E00022012A0AD98A4A12F81320914205D1884A32F81330ADF8143002E00133002BE3D09DF81530FF2B05D104D140F2CA318248FDF7E2FEBDF81430ADF8283072
:40390000ADF81430C3F3072301217F4AD1546BE1FFF7C2FD68E1AB7E002B3FD12B7E012B02D10022794B1A70E97E764B1B88ADF81030002319E06F4A32F81320ADF814202D
:403940009DF8152012B96C48825C00E00022012A0AD9684A12F81320914205D1654A32F81330ADF8103002E00133002BE3D09DF81130FF2B05D104D140F2CA315F48FDF710
:403980009DFEBDF81030ADF82C30ADF81030C3F30723FF2B02D0297E5D4AD15402225D4B1A7021E102225B4B1A701DE1FFF774FD594B1B7813F0010F00F01681534B1B782F
:4039C000012B03D10222514B1A700DE1032B03D100224E4B1A7007E1022B40F0058100224A4B1A704D4B1B685B684D4A1178C1EBC10203EB42039A79002A00F0F5809B88D7
:403A0000002B00F0F180474B1B78002B40F0EC800120FFF7C1FA002840F0E68001223B4B1A70E1E0FFF738FDDEE00B88ADF800309DF801301BB902212F4AD15405E023B91D
:403A400040F286312D48FDF739FE6A782988294B23F812106B780021334AD15403EB8302324E91192D4B1B6818692B7803EB830303F584531033034453F8060F90511B7975
:403A80000B71687800EB800004213044FFF740F96B7803EB830333441B7998420BD0244B1B680021234898476B7803EB8303981900229A51027129462046FFF7EDFC93E054
:403AC0000B88ADF804309DF805301BB900210A4AD15405E023B940F286310848FDF7EEFD6B780021084AD15429462046FFF7D4FC7AE000BF148802082088020838810810F1
:403B00001C880208348108103C7902082188020840790208188802082C8802081C7902081688020831880208308802082488020820790208040001000B88ADF8143017238D
:403B4000ADF8163005A80DF013F84DE00846FFF717FB014620B929462046FFF79DFC01462846FFF749FC294B1B7813F0110F04D0274B1B682946204698472A89234B1B7853
:403B800013F0010F11D0531E9BB2172B0DD912238DF81830ADF81620AB89ADF8143001238DF8193005A80CF0D7FF184A137803F0FE03137018E0FFF76FFC15E0FFF76CFCB0
:403BC00012E0FFF769FC0FE0FFF766FC0CE00846FFF718FB29462046FFF75EFC04E00D4A137843F001031370084B1B7813F0110F09D0064A137803F0FE031370044B1B6843
:403C00002946204698470CB070BD00BF2C88020820790208178802080020704730B108B5034A10600348FFF709FC08BD0248704750790208193C08100100160038B50D4649
:403C400040F4004000040E4BD8614FF47A7403E0013C0120FDF726FD094B1B6C13F0010F01D1002CF4D144B1054B1A6C42F001021A64DB6A2B80002038BD024838BD00BF7F
:403C800000003C400400160010B50F4B03EA004001430E4AD1614FF47A7403E0013C0120FDF700FD094B1B6C13F0010F01D1002CF4D134B1054A136C43F0010313640020BF
:403CC00010BD034810BD00BF0000FF7F00003C400400160070B582B005460A244FF4C05141F60260FFF7D0FF034630B90DF1060141F60260FFF7A2FF03460CB1013C00E000
:403D0000714B23B9BDF80620B2F5C05FE6D13BBB0DF1060141F60360FFF790FF0346F8B9BDF8062002F4806292B2CAB90A244FF4806141F60360FFF7A7FF034630B90DF14D
:403D4000060141F60360FFF779FF03460CB1013C00E05D4B23B9BDF80620B2F5806FE6D133B90DF1060141F60960FFF767FF0346002B43D1BDF8063023F03F039BB2AA7841
:403D8000012A12D1E978012904D88EB2C6F1020294B201E00024022643F07003ADF806304A4BCB404A4A136012E0E97821B98EB2C6F1010294B201E00024012623F0400309
:403DC00043F01003ADF80630424BCB40404A1360BDF80610314389B2ADF8061041F60960FFF752FF0346EA78961B06F00306A20092B23243ADF8062037494A664FF0B052FF
:403E0000527812F0FF0F04D04FF0B0525278D2B200E02122212A53D0304A128892B2002A4ED033B90DF1060141F60760FFF706FF034643BBBDF8063023F060039BB2ADF8F0
:403E4000063026490A88C2F3811243EA421323F428639AB2ADF806200B889BB2DB0103F4F063134323F4C0539BB2ADF806300988C1F3012143EAC121ADF8061041F607600B
:403E8000FFF702FF034633B90DF1060141F60660FFF7D4FE03469BB9BDF8061021F0C0018BB2ADF806300D4A1188C1F3011143EA8111ADF8061041F60660FFF7E5FE03462B
:403EC000184602B070BD00BF040016000048E8018C4202080024F40000F03D401618001638B50D4641F2010141EA400141F60860FFF7CAFE044630B946F6370141F60F604F
:403F0000FFF7C2FE04466801FDF7CCFB204638BD024A136F43F010031367704700F03D4070B59CB0134C13AD26460FCE0FC50FCE0FC533682B600AAD04F124060FCE0FC545
:403F40000FCE0FC533682B6001AD48340FCC0FC50FCC0FC523682B6013A90748FCF73EFE0AA90648FCF73AFE01A90548FCF736FE1CB070BD708108100001324080013240E0
:403F800000023240F8B5002800F0E7800546774B5B6813F4003F01D0FDF78AFE744C03E0013C0120FDF77EFB724BDB6E0BB1002CF6D1704BD3F8A03013F0010F06D06D4BE4
:403FC000D3F8B43013F0010F40F0C980694BDB6E002B40F0C680FFF7A3FF674901F5F833664AC3F8A4202A7842F42022C3F8A8204FF00112C3F8AC20D1F8003113F0010FCD
:4040000040F0B1805B4B1B6F13F0080F0AD15C4B1B685C4A934207D95B4AA2FB03231B0D013B02E0012300E00023534A12681BB1564941EA433300E0554B13434E4A13609C
:404040004A4B5B6913F0804F13D001210320FDF7EDFC464B5B69C3F380734E4A126892F844206AB163B1414A936943F08043936106E0404AD2F8C43043F00303C2F8C4305D
:404080003C4CD4F8A07047F4403343F03003C4F8A0304020FDF706FBD4F8B03013F0010F0BD10123C4F8B0304020FDF7FBFA0323C4F8B0304020FDF7F5FA27F4803727F015
:4040C000100747F4003646F020062A4BC3F8A0604FF4FA6403E0013C0120FDF7E3FA44F210032D4AD35813F0100F01D1002CF2D10CB1002400E0294C1CBB1E4A936E43F082
:40410000080393660120FDF765FC18B947F4003646F0280626F4802343F00103154AC2F8A030134E03E0013E0120FDF7BBFA114BD3F8B43013F0010F01D1002EF3D106B994
:40414000164C1CB92846FFF7C5FD044664B929786878FFF7C5FE044606E0114C04E0114C02E0104C00E0104C2046F8BD00002640F07E0E0000F03D4000003C40060000010C
:404180009442020800093D0083DE1B43041A0080040A0080108802080000324004001600010016000300160002001600014B1868704700BF8C42020810B5002405E020462A
:4041C000FDF7D4F8032804D00134042CF7D9002010BD012010BD00BF074BD3F8003503F00303012B03D0032B03D101207047012070470020704700BF0000264070B539B922
:4042000000240AE015F8010BFCF7E4FA013402E016460D460024B442F4DB204670BD00BF70B561B900240FE0FCF7E0FAC0B2287001340A2808D00D2806D0013502E016469E
:404240000D460024B442EFDB204670BD08B502490248FEF701FA08BD408802080000664008B5114B1B785BB9104A11491148FDF7CFFF11491148FDF7C3F901220A4B1A7001
:404280000E4BB3F90030002B08DB590903F01F03012202FA03F30A4A42F82130054A136843F00043136008BD5479020840880208DC810810000066404D420810807808105D
:4042C00000E100E081F0004102E000BF83F0004330B54FEA41044FEA430594EA050F08BF90EA020F1FBF54EA000C55EA020C7FEA645C7FEA655C00F0E2804FEA5454D4EB72
:404300005555B8BF6D420CDD2C4480EA020281EA030382EA000083EA010180EA020281EA0303362D88BF30BD11F0004F4FEA01314FF4801C4CEA113102D0404261EB410130
:4043400013F0004F4FEA03334CEA133302D0524263EB430394EA050F00F0A780A4F10104D5F1200E0DDB02FA0EFC22FA05F2801841F1000103FA0EF2801843FA05F359419F
:404380000EE0A5F120050EF1200E012A03FA0EFC28BF4CF0020C43FA05F3C01851EBE37101F0004507D54FF0000EDCF1000C7EEB00006EEB0101B1F5801F1BD3B1F5001F33
:4043C0000CD349085FEA30004FEA3C0C04F101044FEA445212F5800F80F09A80BCF1004F08BF5FEA500C50F1000041EB045141EA050130BD5FEA4C0C404141EB010111F40D
:40440000801FA4F10104E9D191F0000F04BF01460020B1FA81F308BF2033A3F10B03B3F120020CDA0C3208DD02F1140CC2F10C0201FA0CF021FA02F10CE002F11402D8BFC0
:40444000C2F1200C01FA02F120FA0CFCDCBF41EA0C019040E41AA2BF01EB0451294330BD6FEA04041F3C1CDA0C340EDC04F11404C4F1200220FA04F001FA02F340EA0300C6
:4044800021FA04F345EA030130BDC4F10C04C4F1200220FA02F001FA04F340EA0300294630BD21FA04F0294630BD94F0000F83F4801306BF81F480110134013D4EE77FEAC3
:4044C000645C18BF7FEA655C29D094EA050F08BF90EA020F05D054EA000C04BF1946104630BD91EA030F1EBF0021002030BD5FEA545C05D14000494128BF41F0004130BD23
:4045000014F580043CBF01F5801130BD01F0004545F0FE4141F470014FF0000030BD7FEA645C1ABF194610467FEA655C1CBF0B46024650EA013406BF52EA033591EA030F79
:4045400041F4002130BD00BF90F0000F04BF0021704730B54FF4806404F132044FF000054FF0000150E700BF90F0000F04BF0021704730B54FF4806404F1320410F00045B8
:4045800048BF40424FF000013EE700BF42004FEAE2014FEA31014FEA02701FBF12F07F4393F07F4F81F06051704792F0000F14BF93F07F4F704730B54FF4607401F0004570
:4045C00021F0004120E700BF50EA010208BF704730B54FF000050AE050EA010208BF704730B511F0004502D5404261EB41014FF4806404F132045FEA915C3FF4DCAE4FF084
:4046000003025FEADC0C18BF03325FEADC0C18BF033202EBDC02C2F1200300FA03FC20FA02F001FA03FE40EA0E0021FA02F11444C1E600BF70B54FF0FF0C4CF4E06C1CEA54
:4046400011541DBF1CEA135594EA0C0F95EA0C0F00F0DEF82C4481EA030621EA4C5123EA4C5350EA013518BF52EA033541F4801143F4801338D0A0FB02CE4FF00005E1FB7C
:4046800002E506F00042E0FB03E54FF00006E1FB03569CF0000F18BF4EF0010EA4F1FF04B6F5007F64F5407404D25FEA4E0E6D4146EB060642EAC62141EA55514FEAC520A8
:4046C00040EA5E504FEACE2EB4F1FD0C88BFBCF5E06F1ED8BEF1004F08BF5FEA500E50F1000041EB045170BD06F0004646EA010140EA020081EA0301B4EB5C04C2BFD4EB1F
:404700000C0541EA045170BD41F480114FF0000E013C00F3AB8014F1360FDEBF002001F0004170BDC4F10004203C35DA0C341BDC04F11404C4F1200500FA05F320FA04F0A5
:4047400001FA05F240EA020001F0004221F0004110EBD37021FA04F642EB06015EEA430E08BF20EAD37070BDC4F10C04C4F1200500FA04F320FA05F001FA04F240EA020079
:4047800001F0004110EBD37041F100015EEA430E08BF20EAD37070BDC4F1200500FA05F24EEA020E20FA04F301FA05F243EA020321FA04F001F0004121FA04F220EA0200D6
:4047C00000EBD3705EEA430E08BF20EAD37070BD94F0000F0FD101F00046400041EB010111F4801F08BF013CF7D041EA060195F0000F18BF704703F00046520043EB030317
:4048000013F4801F08BF013DF7D043EA0603704794EA0C0F0CEA135518BF95EA0C0F0CD050EA410618BF52EA4306D1D181EA030101F000414FF0000070BD50EA410606BF03
:404840001046194652EA430619D094EA0C0F02D150EA013613D195EA0C0F05D152EA03361CBF104619460AD181EA030101F0004141F0FE4141F470014FF0000070BD41F0B0
:40488000FE4141F4780170BD70B54FF0FF0C4CF4E06C1CEA11541DBF1CEA135594EA0C0F95EA0C0F00F0A7F8A4EB050481EA030E52EA03354FEA013100F088804FEA033312
:4048C0004FF0805545EA131343EA12634FEA022245EA111545EA10654FEA00260EF000419D4208BF964244F1FD0404F5407402D25B084FEA3202B61A65EB03055B084FEAF0
:4049000032024FF480104FF4002CB6EB020E75EB030E22BFB61A754640EA0C005B084FEA3202B6EB020E75EB030E22BFB61A754640EA5C005B084FEA3202B6EB020E75EB78
:40494000030E22BFB61A754640EA9C005B084FEA3202B6EB020E75EB030E22BFB61A754640EADC0055EA060E18D04FEA051545EA16754FEA06164FEAC30343EA52734FEAC9
:40498000C2025FEA1C1CC0D111F4801F0BD141EA00014FF000004FF0004CB6E711F4801F04BF01430020B4F1FD0C88BFBCF5E06F3FF6AFAEB5EB030C04BFB6EB020C5FEA52
:4049C000500C50F1000041EB045170BD0EF0004E4EEA113114EB5C04C2BFD4EB0C0541EA045170BD41F480114FF0000E013C90E645EA060E8DE60CEA135594EA0C0F08BF0F
